:020000041000EA
:1000000000B5324B212058609868022188439860DF
:10001000D860186158612E4B002199600221596106
:100020000121F02299502B49196001219960352056
:1000300000F044F80222904214D00621196600F024
:1000400034F8196E01211966002018661A6600F04E
:100050002CF8196E196E196E052000F02FF8012189
:100060000842F9D1002199601B49196000215960AB
:100070001A491B48016001219960EB211966A021F2
:10008000196600F012F800219960164914480160C1
:100090000121996001BC002800D000471248134993
:1000A000086003C880F30888084703B5996A0420EC
:1000B0000142FBD001200142F8D103BD02B5186610
:1000C0001866FFF7F2FF186E186E02BD00000240BE
:1000D000000000180000070000035F00212200005C
:1000E000F4000018222000A00001001008ED00E03C
:1000F00000000000000000000000000074B24E7A12
:1001000000200420F7010010C3010010C5010010F9
:10011000C1010010C1010010C1010010C101001097
:10012000C1010010C1010010C1010010C701001081
:10013000C1010010C1010010C9010010CB01001065
:10014000CD010010CD010010CD010010CD01001037
:10015000CD010010CD010010CD010010CD01001027
:10016000CD010010CD010010CD010010CD01001017
:10017000CD010010CD010010CD010010CD01001007
:10018000CD010010CD010010CD010010CD010010F7
:10019000CD010010CD010010CD010010CD010010E7
:1001A000CD010010CD010010CD010010CD010010D7
:1001B000CD010010CD010010CD010010CD010010C7
:1001C00000BE00BE00BE00BE00BE00BE00F04BF888
:1001D000103800BEF2EB8871181C0010381C00109B
:1001E0003402001090A31AE700202149086006C8D5
:1001F00081F3088810471F48006800282FD10DA4FC
:100200000ECC002902D000F012F8F9E71A491B4A77
:10021000002000E001C19142FCD1194988471949E9
:1002200088471949884700BEFDE701C901C29A42C3
:10023000FBD37047381C0010C00000202C020020A7
:10024000A41D00100000042000000420A41D0010C4
:1002500000100420001004200000000070470B482C
:1002600001F0ACF90047EFF30580C0B27047000021
:1002700008ED00E0000000D030020020FC05002066
:10028000991000100D03001089110010575600003E
:1002900006005250ABB36053BC1B00100600525016
:1002A000861C0302CC1B0010060052505422A29D53
:1002B000D81B001005005250DE65F468A41D001024
:1002C000F8B5C04610B5064C2378002B07D1054B76
:1002D000002B02D0044800E000BF0123237010BDB2
:1002E0003005002000000000181B0010044B10B562
:1002F000002B03D00349044800E000BF10BDC046F6
:100300000000000034050020181B001010B500F09C
:1003100007F8002010BDC0460000000000000000EB
:10032000FEE7C04670B5EFF3108C72B60D4D2B682A
:10033000002BFCD0BFF35F8F0724CB08C618C05C2E
:1003400001230C40A3401C000440034207D1034397
:100350003370BFF35F8F2C608CF3108870BD10007A
:1003600000F014FF2C0100D0024B18688007C00F6A
:100370007047C04600C006400021044B044ABFF34A
:100380005F8F02C39342FAD17047C046000100D08C
:10039000800100D0044A1078431CDBB2172B00D92F
:1003A000102313707047C04678010020012383405A
:1003B000002904D0034A1360034A13607047034ABC
:1003C0001360FBE780E200E000E100E080E100E094
:1003D000024B10309B688000C058704700ED00E071
:1003E00070B50D00EFF3108672B60F4A1368002B3C
:1003F000FCD0BFF35F8F0D4B10309B6884001B59FE
:100400000B4A934203D09D4201D000F0D7FE074B28
:100410009B681D51BFF35F8FBFF35F8F0022024BBC
:100420001A6086F3108870BD240100D000ED00E052
:10043000CD010010F0B5DE4657464E464546E0B5C4
:100440000C0083B0EFF3108A72B65A4A1368002B7F
:10045000FCD0BFF35F8F1022914681444A46564B31
:1004600096009B689D59554B98469D4205D0A542E4
:1004700016D0534FEB1B2F2B14D94F4B9B689D511C
:10048000BFF35F8FBFF35F8F00224A4B1A608AF37E
:10049000108803B0F0BCBB46B246A946A046F0BDEA
:1004A0001D00EAE7012383409B465A46454B1B68E3
:1004B0001A4000925A46444B1A60BFF35F8FFFF711
:1004C000D2FE0190002803D0814501D000F076FED5
:1004D00001232A009A4393689C4208D15FE04B00B5
:1004E0005B189B00FB189968A14211D01A000621E5
:1004F00051560029F3DA009B002B05D05A46334BA6
:100500001A60304B1A60B8E75A462F4B1A60B4E7AE
:1005100006215956002921DB4A00501880003C185A
:100520008046A0689860E079D871062020569871BE
:10053000002824DBA488F81A640524154444001913
:10054000E0240005400D2402204398805218204BDF
:100550009200BF181A781970BA71CCE70199002976
:1005600010D1FF3191711B49918019490A789A7114
:10057000194ADB1B5B415A43120D0A70BBE7BD20D1
:100580000002E2E7154A1649D21A083A5002400D15
:1005900001439980134952080A43DA80ABE70621E8
:1005A000515613000029B7DA019A002AEAD14546CC
:1005B000DBE7C046240100D000ED00E0CD010010D3
:1005C0007C01002000E100E080E100E080E200E04A
:1005D000F905002000BDFFFFAAAA0000B601002017
:1005E00000F0FFFF00F8FFFFF8B501250400054308
:1005F000FFF739FEEFF3108C72B6214A1368002B17
:10060000FCD0BFF35F8F1F4E2100B7681E4A1F4BFF
:10061000891A49414B431B0D59B28300F858A8422F
:100620001CD00623D3568B421CD01223D3568B42A8
:1006300022D01E23D3568B4220D02A23D356032008
:100640008B4210D0124B1A781970A271BFF35F8FD2
:1006500000220B4B1A608CF31088F8BDB2680D486D
:10066000D050EFE7002043001B189B00D218FF2357
:100670009371094B9380E5E70120F4E70220F2E74C
:10068000240100D000ED00E07C010020AAAA0000B7
:10069000F9050020CD01001000BDFFFF054B064A03
:1006A0001360064A136053609360D3601361536113
:1006B000936170478080808000E400E004E400E003
:1006C000024B9C4661448900016070474000003441
:1006D00083680B4810B584466144624409011201E5
:1006E0009A18591854684B6801209C4201D802D0CE
:1006F0000020C0B210BD12680B689A42F9D8F7E723
:10070000FFFFFF0FF8B557464E464546DE46E0B5BB
:1007100099460CAB1C780DAB1B78060090469A46A8
:100720000768002C11D1BC7B002C42D065003B68CF
:100730002D19033D59194B78BB73002B00D1FB7366
:1007400000238B704B700B7004E065003B682D1923
:10075000033D5919B2682A4B94464246E3181B01DF
:1007600063441A604A465A600A9A9A600B9ADA60A1
:1007700000238B704B700B707B7B9B46002B2BD028
:1007800022005946B8687B6898473A68002816D016
:100790005B4658465B005B445519033BA870D11873
:1007A000D35C002B00D06B705B460C707B73A34551
:1007B00013D0F0BCBB46B246A946A046F8BD5B4686
:1007C0005B005B44033BD3189C705119525D002AB7
:1007D00000D05A705B460B707C7342464B46307DAE
:1007E00000F0DEF9051E06D05346002B03D1210090
:1007F000306800F0F7FB0E9B002BDAD01D70D8E7B5
:10080000FFFFFF0FF0B5DE464E4657464546002334
:10081000E0B58DB00A936B4B8200D3580B9099468C
:1008200000239B464B46079300F06AF9079C06009D
:100830000F006268EFF3108572B61368002BFCD0CE
:1008400022000794BFF35F8F2468637B9946002BD7
:1008500067D092685C4B90464B441B0198444346DA
:100860001A685B6810001900801BB94100295FDD20
:100870000B9800F095F900230026984600279A4629
:10088000079C6368BFF35F8F5A461A6085F3108830
:100890005346002B08D10028C6D10DB0F0BCBB4692
:1008A000B246A946A046F0BD0A9B414618024B46F7
:1008B0001843D047089009916268EFF3108572B62B
:1008C0001368002BFCD00794BFF35F8F0899099A37
:1008D000002A48DB114303D0079B1B69002B5DD125
:1008E000079B1B68D97B002907D04A00521819685A
:1008F0008C4649466244033A51704A46DA734B4685
:10090000079A013BD168CA5C0132CA545B46079A18
:1009100013615368BFF35F8F5A461A6085F31088DE
:1009200082E700230026984600279A460020A7E782
:10093000002901D100289BD10021200000F0D4FA29
:1009400043461E685F689B68079A9A464346DB6881
:100950009846D3684B44013B1B780A931B02034320
:10096000136100208CE72369002BB9D033003C00D1
:100970005B1A94411A002300A74219D89F421BD04A
:100980005946049101210391494602914146019142
:10099000514607980091FFF7B5FEB7E700F0B0F8B1
:1009A000089A099B06000F0092197B419942E5D9EC
:1009B00001225242D317E3E79642E1D90122524283
:1009C000D317DDE7D0050020FFFFFF0F10B5124C55
:1009D0006368002B04D00A211048FFF771FE10BD98
:1009E00023000F4A1021206800F09CF9032000F03A
:1009F0007BF8032000F044F903200A4900F08AF84C
:100A0000FFF7C8FC084B9C46032360442375074B43
:100A100080006060DC60DEE7C4010020E4050020A7
:100A2000D10600100508001040000034D005002059
:100A3000F0B5D6464F464646C0B5EFF305833F2294
:100A4000134018001038EFF3108C72B6204D2A684E
:100A5000002AFCD0BFF35F8F0122110081401D4CA2
:100A6000884661631C4917000E788A463100C140F0
:100A70000F400A4209D1BFF35F8F2F608CF31088BB
:100A8000E0BCBA46B146A846F0BD14498200646A8B
:100A900051588C420FD3124BD25843469E43534673
:100AA0001E70BFF35F8F00232B608CF31088002A29
:100AB000E6D09047E4E70B4A9B00904643441A680F
:100AC0001A60BFF35F8F00232B608CF31088D7E789
:100AD000280100D000400540FA050020E80500206C
:100AE0004C050020D03F054010B50100024A0348E4
:100AF000FFF718FC10BDC046181B0010F8050020B9
:100B0000034B596A0A00986A596A8A42FAD17047B7
:100B10000040054070B504000D00EFF3108672B67A
:100B20001A4A1368002BFCD0BFF35F8F002D1BD037
:100B30002000FFF74DFC164981420AD02000FFF744
:100B40004FFC01212000FFF731FC0123A340114A93
:100B50001360114BA400E550BFF35F8F00220B4BD5
:100B60001A6086F3108870BD0B4BA200D55001228D
:100B7000A2400A4920000B7893430B700449FFF709
:100B800059FC00212000FFF711FCE5E7280100D007
:100B9000310A0010386005404C050020FA0500209D
:100BA000F0B54F46D6464646C0B507002F4C616AA1
:100BB0000D00A66A616AA942FAD18B4208D805D015
:100BC0000120E0BCBA46B146A846F0BDB242F7D912
:100BD000EFF3108A72B6264801680029FCD0BFF3F3
:100BE0005F8F0125BD402349204C884609788946FE
:100BF0002943C9B28C46414660460870391D1E48DB
:100C0000890065630A51B9000B50216A002029420E
:100C100019D0616A0800A66A616A8142FAD18B42E2
:100C200019D801D1B24216D8CC451DD00F4B1F2088
:100C30001D625D6301230740BB40104A1E381360EC
:100C400043464A461A70BFF35F8F0022084B1A6072
:100C50008AF31088B5E70020BFF35F8F0022044BB2
:100C60001A608AF31088ACE70120ECE700400540E9
:100C7000280100D0FA050020E805002080E200E00D
:100C8000EFF3108C72B60A490B68002BFCD0BFF34F
:100C90005F8F01238340074A0748136202789A4313
:100CA0000270BFF35F8F00230B608CF310887047D6
:100CB000280100D000400540FA05002070B505006D
:100CC00014001600002915D00C00002A12D08068EC
:100CD0006B689847296800280ED073009B19620042
:100CE000033B1219CB18033A9C7088188A5C002ABF
:100CF00015D10670200070BD63001B197200033B04
:100D00009219CB18033A9E7088188A5C002A02D187
:100D100004703400EEE75A7004703400EAE75A7049
:100D20000670E7E730B583600023CCB2437301332C
:100D3000047342608373C4730D000068012C06D9EC
:100D4000421C0133DBB2137003329C42F9D1FF2104
:100D500029404B005918002340180338437030BD18
:100D6000F8B5CE46474606000C0080B5002907D0EE
:100D70004D0003686D18033D5A195778002F04D1B0
:100D80002000C0BCB946B046F8BD7900C919033986
:100D900088464344597889460021597051707368D8
:100DA0003A002100806898473368002814D04246F2
:100DB0009A18947059195B5D002B00D053700F7016
:100DC000270049463000FFF7CBFF39000200300012
:100DD000FFF774FF0400D3E7424641465D19AF7048
:100DE0009A185B5C002B00D06B701470E9E7C0466A
:100DF000F0B557464546DE464E46E0B50D006B0061
:100E000001685B19DF1E0400C85D83B00192CA1936
:100E100000284CD043001B18033BCB185E78B44627
:100E2000002E16D1019E002E3ED0E67B002E04D06F
:100E300073009B19CB18033B5D70E57300282FD11D
:100E40000023537003B0F0BCBB46B246A946A0468F
:100E5000F0BD72006244033A89184A789046002235
:100E60004A7091465A70010032002000FFF726FFB9
:100E700043468246002B07D05B0021684344033B76
:100E8000CB185A78002A16D1424651462000FFF767
:100E900015FF2168019BCA19002BC6D10028CFD0AD
:100EA00043001B18033BCB1800219970C8E7019B36
:100EB000002BBAD1C4E750008018033809184878CD
:100EC000834648464870587041462000FFF7F6FEBA
:100ED000594680462000FFF743FF414602002000AC
:100EE000FFF7ECFE8046CFE7F0B557464546DE46B5
:100EF0004E46E0B583B00191457B04006B0000686D
:100F00005B19DF1EC15DC21900294ED04B005B1872
:100F1000033BC3185E78B446002E18D1019E002E04
:100F200040D0E67B002E04D073009B19C318033B0E
:100F30005D70E573002931D100232800537061737F
:100F400003B0F0BCBB46B246A946A046F0BD720055
:100F50006244033A801842789046002242709146DB
:100F60005A7020003200FFF7A9FE43468246002B4C
:100F700007D05B0021684344033BCB185A78002A12
:100F800017D1424651462000FFF798FE019B010011
:100F90002068C219002BC4D10029CDD04B005B18AA
:100FA000033BC31800209870C6E7019B002BB8D103
:100FB000C2E750008018033809184878834648462D
:100FC0004870587041462000FFF778FE5946804629
:100FD0002000FFF7C5FE414602002000FFF76EFE2D
:100FE0008046CEE770B5040000292CD0437B8B42AD
:100FF0002ED0056848004018033828188278002A47
:1010000021D053009B18033BEA5CEE188A4202D1C0
:101010001BE0002A08D053009B18033BEB185A78BA
:101020008A42F6D142785A700023012283704370BD
:101030002000FFF7DDFE617B02002000FFF73EFE8F
:101040006073012000E0002070BD43783370EBE74F
:1010500001221900FFF7CCFE60730120F4E7C046BF
:1010600010B50400FFF796F901002000FFF728FBF8
:10107000FF232371BFF35F8F10BDC04610B504007E
:10108000FFF788F901002000FFF71AFBFF23A38078
:10109000BFF35F8F10BDC0462C4B2D4A70B51A6050
:1010A0002C4A2D4B2D491A6014008B689C43FBD1B0
:1010B0002B4D2C4EB54208D2013E761BB60808CD0A
:1010C000984723000134B342F9D100F07DF8264A55
:1010D000214B1A60214A9368DB43DB01DD09002BB9
:1010E000F9D14022214B224C224E9A675A671A6747
:1010F000DA66B44208D223682000002B20D00834DE
:10110000FFF7BCFFB442F6D31B4E1C4CC022A168B3
:10111000300000F05BFBA660FFF72EF9FFF7BEFA88
:10112000FFF754FC164C174EB44208D2013E361B52
:10113000B60808CC98472B0001359E42F9D170BD06
:101140000834FFF78DFFB442D5D3DDE700E000405F
:10115000BFCDFBFEFE7F3C0000F0004000C0004021
:101160001802002028020020FFFFFF0100F00140CC
:1011700010020020180200200000002000ED00E016
:10118000280200202C02002000BEFDE70FB400B5AD
:10119000084883B000F050FC049B002B07D005A941
:1011A0001800019100F0EAF9034800F045FC00BE88
:1011B000FDE7C0463C1B00104C1B001010B5014859
:1011C000FFF7E4FF501B001030B50C2083B000F097
:1011D000B1F9FFF7C9F800280ED0944B944A1A6071
:1011E0005A609A60DA601A615A619A61DA611A6229
:1011F000904A5A6203B030BD8F4CA06700F0A2F94C
:1012000001228E4B1A60636C012BFCD103228C4BA4
:101210001A60894A936B012BFCD101330121894A61
:1012200089480093043300F02DF90523874A009381
:101230000121874800F026F9864B5A68FF2A02D818
:10124000802252005A608022784C7D4B2169120125
:10125000804D1A60002905D0606900F0E1F9013085
:101260000138FDD1E0217B4B02201A681140802219
:1012700052012A431160196848400321014011605E
:1012800004219A681142FCD08022802192012A43D5
:1012900009011160802252005A606F4B23616F4B2D
:1012A0005968FF2900D85A600321644A6B4B1160CA
:1012B00002399A681142FCD0E0201A68104080225E
:1012C00052011A431060186848400321014002206F
:1012D000116062498A681042FCD080229201134357
:1012E000802212011A6080225D4B52004A606361C5
:1012F0005C4B5968FF2900D85A6080225A4BE1693B
:101300001201584D1A60002905D0606900F088F973
:1013100001300138FDD1E02252490B681A40802388
:101320005B012B431A60802380229B012B43120117
:101330001A6080223E4B52004A60E3614B4B596871
:10134000FF2900D85A608022494B216A1201474D7B
:101350001A60002905D0606900F062F90130013897
:10136000FDD1E02241490B681A4080235B012B43E9
:101370001A60802380229B012B4312011A60802374
:1013800080225B004B602A4BD2022362394B5968A2
:10139000914200D25A608022374B616A1201354D6A
:1013A0001A60002905D0606900F03AF9013001386F
:1013B000FDD1E0222F490B681A4080235B012B43AB
:1013C0001A60802380229B012B4312011A60802324
:1013D000DB024B60174B6362284B5A68FF2A02D826
:1013E000802252005A608022254BA1691201234DB0
:1013F0001A60002905D0606900F012F90130013847
:10140000FDD1E0221D490B681A4080235B012B436C
:101410001A60802380229B012B4312011A608023D3
:101420005B004B600E4BA361E4E6C0465C05002008
:10143000006CDC021BB70000008000403CB00040A4
:1014400030B00040002F685900800240008C864771
:1014500000C0024030800040001BB7003C800040CC
:10146000405973075480004054B0004060800040F1
:1014700060B000406C8000406CB00040488000408C
:1014800048B00040F0B5C646040000B50C209046B8
:101490001F000E0000F0C4F84101091A8D01691AFD
:1014A000C90009188901404600F0BAF8069B3F04BC
:1014B0001A0323681743002B22DB1A4B1A4DE2183C
:1014C00053425A4180235B019C461203174B6244EE
:1014D0001A60174B1A601100AB689943FBD1C02208
:1014E000231D92011A4321232660A0601360236804
:1014F000002BFCDA0823E760136080BCB846F0BD1F
:101500003F2322681340B342D7D1A3681B051B0DAC
:101510008342D2D1EE22E368D2021340BB42CCD147
:10152000EBE7C0460040FDBF00C0004000E00040C7
:1015300000F000408023024A9B000343D3627047BF
:1015400000800540AA23064A1B0113602F2305498A
:10155000D360054B19605368002BFCDA7047C04616
:101560000040024000B0FA000060024010B50028C0
:1015700000D110BD00F010FAFBE7C04610B5094AD3
:101580000300146884B0002C08D0012200910648A2
:10159000524203A9A047012004B010BD00F04CFA4C
:1015A0000020F9E7CC0500206D150010014804214A
:1015B000014B1847F0010020DD150010142310B571
:1015C0000100188804331B88984710BD162310B5F6
:1015D0000100188802331B88984710BDF8B54746AC
:1015E000CE4680B50F1E19D014239946043304004B
:1015F0000025012698464B461888434621681B88DB
:10160000984701C4431E9841013540420640AF420D
:10161000F1D13000C0BCB946B046F8BD0126F8E7AC
:10162000114A936F9B0813D210665166002905D0AA
:10163000FFE7FFE7FFE7516F106F704704B5002821
:1016400001D00020C04300F04FFA002104BDC04685
:10165000F0B5146E556E576F166FFFF7E5FF146601
:10166000556657671667F0BD000000D0132370B5AC
:101670001D78012D15D010DD1C48FFF7A7FF1C4C6D
:1016800001008022200000F0A1F8022D06D01948A8
:10169000FFF794FF184B186070BD154C174BA364EF
:1016A000F5E7164B124C23606360A360E36023618F
:1016B0006361A361E36123626362A362E362236304
:1016C0006363A363E36323646364A364E3642365E4
:1016D0006365A365E36523666366A366E3662367C4
:1016E0006367A367E367A364D1E7C0465344000080
:1016F000300300204C330000E005002001170010EB
:1017000007B5604601880A0A0230DF2AFAD1C9B259
:10171000820804D3028840880004104300E0006877
:10172000014A5050039007BD30030020132310B529
:1017300012481C78FFF74AFF0100012C0AD003DD94
:1017400080220F4800F042F80E48FFF737FF0E4B9B
:10175000186010BD0A4C5422200000F037F80B4BE3
:101760006365A365E36523666366A366E366236733
:101770006367A367E3672362E361E5E7534600001D
:10178000300400204C330000E005002091170010C9
:1017900007B5604601880A0A0230DF2AFAD1C9B2C9
:1017A000820804D3028840880004104300E00068E7
:1017B000014A5050039007BD300400200148042125
:1017C000014B184700020020DD150010014B5B683B
:1017D0001847000000020020030010B508001100A7
:1017E0001B68984710BDC046F0B546464F46D646E2
:1017F000C0B5437C80460E001700002B46D0002A5F
:101800003FDD4B1E9946244B0125002400209A46BB
:101810000DE04B461B5D0D3B5A425341325DDBB23E
:101820000A2A0BD02B00013401359F421ADD002C0F
:10183000EFD14346325D1B7C0A2AF3D1002BF1D154
:10184000A04204DA4346211A1B68301898474346E1
:1018500050461B6802219847013428002B000135AF
:101860009F42E4DC874204DD4346391A1B68301886
:101870009847F619013E33780D3B5A425341424690
:101880001374E0BCBA46B146A846F0BD0368110027
:1018900030009847F5E7C046141C0010F0B55746D5
:1018A0004E464546DE461C00D023E0B51B061F68A9
:1018B000344B83B006000D00180001A991469A46EA
:1018C00000F01AF98046002808D1019B7FB29F42A0
:1018D00004D0504600F018F9012398466B1C03D140
:1018E000300000F0C7F80500002C27D1264F274B09
:1018F0001C68002C18D04B46002B21D1244B994654
:1019000002E0E468002C0FD02368002BF9D04B468E
:101910001B68002B01D0A342F3D120002A00310024
:10192000B847E468002CEFD14346002B25D103B023
:10193000F0BCBB46B246A946A046F0BD154FD6E75F
:10194000134B99460A239B4602E0E468002CEBD037
:101950002368002BF9D04B461B68002B01D0A34213
:10196000F3D12A0031002000B8475A466B462000C8
:101970001A7101A90122B847E7E7504600F0ACF818
:10198000D5E7C04610020020E9170010C40500206A
:10199000C8050020D9170010F0B5CE46474680B5DF
:1019A00083B06B46DE1CD02330701B061C681F4BB7
:1019B000804601A91800994600F09EF8071E20D025
:1019C0001B4B1C68002C28D01A4D02E0E468002C48
:1019D0000FD02368002BF9D02B68002B01D0A34235
:1019E000F4D1200001223100FFF7FEFEE468002C54
:1019F000EFD1002F11D1404603B0C0BCB946B0466C
:101A0000F0BD019B64B29C420BD0484600F07CF8CC
:101A1000074B01271C68002CD6D1484600F05CF823
:101A2000E9E7034B1C68002CCED1E4E7100200204C
:101A3000C4050020C805002070B5040000F01AF8A5
:101A400000230100050001222000FFF727FF084BBB
:101A50001C68002C06D06368002B05D09847E4680A
:101A6000002CF8D1280070BDE468002CF3D1F9E710
:101A7000C405002010B583070AD00300032102E04B
:101A800001330B4205D01A78002AF9D1181A10BD7B
:101A9000030019680C4A0D4C8A188A4322420FD160
:101AA0005968094A04338A188A43224208D159687E
:101AB000054A04338A188A432242F1D000E00133F8
:101AC0001A78002AFBD1E1E7FFFEFEFE80808080CD
:101AD000F8B5C0460000000001B40248844601BCCD
:101AE000604700BF4D01002001B40248844601BC9C
:101AF000604700BF7501002001B40248844601BC64
:101B0000604700BF0901002001B40248844601BCBF
:081B1000604700BFC100002086
:101B1800486172647761726520616C61726D20251D
:101B28006420616C726561647920636C61696D65BC
:101B3800640000000A2A2A2A2050414E4943202ADC
:101B48002A2A0A000A00000048617264206173733F
:101B58006572740052656C6561736500626F6F74BD
:101B6800325F773235713038300000006874747035
:101B7800733A2F2F6769746875622E636F6D2F72C1
:101B8800617370626572727970692F7069636F2D05
:101B9800617070732F747265652F484541442F61D9
:101BA800737369676E6D656E74732F61737369679C
:101BB8006E303200312E342E300000007069636FB1
:101BC8000000000061737369676E30320000000026
:101BD8004A616E20333020323032340006005250D1
:101BE800BBFF3CB6C41B0010060052509A2356187F
:101BF800741B001006005250E182887F641B00109D
:101C080006005250D3F075425C1B00100D0A00000C
:101C1800B4020010A80200109C020010E41B00107F
:101C280090020010F01B0010FC1B0010081C001094
:101C3800D02330B500251B0600245D5706E0036855
:101C4800BFF35F8F1C6081F3108820BF0268EFF339
:101C5800108172B61368002BFCD0BFF35F8F037935
:101C68007F2BECD905710368BFF35F8F00221A60E0
:101C780081F3108830BDC04603000068EFF3108C74
:101C880072B60268002AFCD0BFF35F8F04229A560E
:101C9800002A0BDB00290FD000200A601B68BFF365
:101CA8005F8F00221A608CF310887047D0221206CA
:101CB800126801201A71F1E70020EFE70268EFF3DC
:101CC800108172B61368002BFCD0BFF35F8FFF231F
:101CD80003710368BFF35F8F00221A6081F31088D5
:101CE80040BF70477047C046100000000000000069
:101CF80000000100000000000000000000000200D9
:101D080000000000000000000000030000000000C8
:101D1800000000000000FF000000000000B5486857
:101D280001318E460047704609380149884700BD91
:101D3800E9050010DC01002000000000300200204E
:101D48008405002000000000000000009405002029
:101D5800000000000000000010000000000000006B
:101D6800503300004C33000054330000523300005D
:101D78004D5300004D43000053340000433400002D
:101D88000000000000000000BD170010AD15001095
:0C1D98006D1600102D170010ED02001059
:04000005100001E9FD
:00000001FF
