
C:/Users/Administrator.ADMINTR-QA7FV09/Documents/College/Microprocessors/pico-apps/labs/lab08/lab08.elf:     file format elf32-littlearm

Sections:
Idx Name          Size      VMA       LMA       File off  Algn
  0 .boot2        00000100  10000000  10000000  00001000  2**0
                  CONTENTS, ALLOC, LOAD, READONLY, CODE
  1 .text         00001a18  10000100  10000100  00001100  2**4
                  CONTENTS, ALLOC, LOAD, READONLY, CODE
  2 .rodata       000000ec  10001b18  10001b18  00002b18  2**2
                  CONTENTS, ALLOC, LOAD, READONLY, DATA
  3 .binary_info  00000020  10001c04  10001c04  00002c04  2**2
                  CONTENTS, ALLOC, LOAD, DATA
  4 .ram_vector_table 000000c0  20000000  20000000  0000322c  2**2
                  CONTENTS
  5 .data         0000016c  200000c0  10001c24  000030c0  2**4
                  CONTENTS, ALLOC, LOAD, CODE
  6 .uninitialized_data 00000000  2000022c  2000022c  000032ec  2**0
                  CONTENTS
  7 .scratch_x    00000000  20040000  20040000  000032ec  2**0
                  CONTENTS
  8 .scratch_y    00000000  20041000  20041000  000032ec  2**0
                  CONTENTS
  9 .bss          000003cc  20000230  20000230  00003230  2**3
                  ALLOC
 10 .heap         00000800  200005fc  200005fc  000032ec  2**2
                  CONTENTS, READONLY
 11 .stack_dummy  00000800  20041000  20041000  00003b00  2**5
                  CONTENTS, READONLY
 12 .ARM.attributes 00000028  00000000  00000000  00004300  2**0
                  CONTENTS, READONLY
 13 .comment      00000049  00000000  00000000  00004328  2**0
                  CONTENTS, READONLY
 14 .debug_frame  00000028  00000000  00000000  00004374  2**2
                  CONTENTS, READONLY, DEBUGGING, OCTETS

C:/Users/Administrator.ADMINTR-QA7FV09/Documents/College/Microprocessors/pico-apps/labs/lab08/lab08.elf:     file format elf32-littlearm


Disassembly of section .boot2:

10000000 <__boot2_start__>:
10000000:	4b32b500 	.word	0x4b32b500
10000004:	60582021 	.word	0x60582021
10000008:	21026898 	.word	0x21026898
1000000c:	60984388 	.word	0x60984388
10000010:	611860d8 	.word	0x611860d8
10000014:	4b2e6158 	.word	0x4b2e6158
10000018:	60992100 	.word	0x60992100
1000001c:	61592102 	.word	0x61592102
10000020:	22f02101 	.word	0x22f02101
10000024:	492b5099 	.word	0x492b5099
10000028:	21016019 	.word	0x21016019
1000002c:	20356099 	.word	0x20356099
10000030:	f844f000 	.word	0xf844f000
10000034:	42902202 	.word	0x42902202
10000038:	2106d014 	.word	0x2106d014
1000003c:	f0006619 	.word	0xf0006619
10000040:	6e19f834 	.word	0x6e19f834
10000044:	66192101 	.word	0x66192101
10000048:	66182000 	.word	0x66182000
1000004c:	f000661a 	.word	0xf000661a
10000050:	6e19f82c 	.word	0x6e19f82c
10000054:	6e196e19 	.word	0x6e196e19
10000058:	f0002005 	.word	0xf0002005
1000005c:	2101f82f 	.word	0x2101f82f
10000060:	d1f94208 	.word	0xd1f94208
10000064:	60992100 	.word	0x60992100
10000068:	6019491b 	.word	0x6019491b
1000006c:	60592100 	.word	0x60592100
10000070:	481b491a 	.word	0x481b491a
10000074:	21016001 	.word	0x21016001
10000078:	21eb6099 	.word	0x21eb6099
1000007c:	21a06619 	.word	0x21a06619
10000080:	f0006619 	.word	0xf0006619
10000084:	2100f812 	.word	0x2100f812
10000088:	49166099 	.word	0x49166099
1000008c:	60014814 	.word	0x60014814
10000090:	60992101 	.word	0x60992101
10000094:	2800bc01 	.word	0x2800bc01
10000098:	4700d000 	.word	0x4700d000
1000009c:	49134812 	.word	0x49134812
100000a0:	c8036008 	.word	0xc8036008
100000a4:	8808f380 	.word	0x8808f380
100000a8:	b5034708 	.word	0xb5034708
100000ac:	20046a99 	.word	0x20046a99
100000b0:	d0fb4201 	.word	0xd0fb4201
100000b4:	42012001 	.word	0x42012001
100000b8:	bd03d1f8 	.word	0xbd03d1f8
100000bc:	6618b502 	.word	0x6618b502
100000c0:	f7ff6618 	.word	0xf7ff6618
100000c4:	6e18fff2 	.word	0x6e18fff2
100000c8:	bd026e18 	.word	0xbd026e18
100000cc:	40020000 	.word	0x40020000
100000d0:	18000000 	.word	0x18000000
100000d4:	00070000 	.word	0x00070000
100000d8:	005f0300 	.word	0x005f0300
100000dc:	00002221 	.word	0x00002221
100000e0:	180000f4 	.word	0x180000f4
100000e4:	a0002022 	.word	0xa0002022
100000e8:	10000100 	.word	0x10000100
100000ec:	e000ed08 	.word	0xe000ed08
	...
100000fc:	7a4eb274 	.word	0x7a4eb274

Disassembly of section .text:

10000100 <__VECTOR_TABLE>:
10000100:	20042000 	.word	0x20042000
10000104:	100001f7 	.word	0x100001f7
10000108:	100001c3 	.word	0x100001c3
1000010c:	100001c5 	.word	0x100001c5
10000110:	100001c1 	.word	0x100001c1
10000114:	100001c1 	.word	0x100001c1
10000118:	100001c1 	.word	0x100001c1
1000011c:	100001c1 	.word	0x100001c1
10000120:	100001c1 	.word	0x100001c1
10000124:	100001c1 	.word	0x100001c1
10000128:	100001c1 	.word	0x100001c1
1000012c:	100001c7 	.word	0x100001c7
10000130:	100001c1 	.word	0x100001c1
10000134:	100001c1 	.word	0x100001c1
10000138:	100001c9 	.word	0x100001c9
1000013c:	100001cb 	.word	0x100001cb
10000140:	100001cd 	.word	0x100001cd
10000144:	100001cd 	.word	0x100001cd
10000148:	100001cd 	.word	0x100001cd
1000014c:	100001cd 	.word	0x100001cd
10000150:	100001cd 	.word	0x100001cd
10000154:	100001cd 	.word	0x100001cd
10000158:	100001cd 	.word	0x100001cd
1000015c:	100001cd 	.word	0x100001cd
10000160:	100001cd 	.word	0x100001cd
10000164:	100001cd 	.word	0x100001cd
10000168:	100001cd 	.word	0x100001cd
1000016c:	100001cd 	.word	0x100001cd
10000170:	100001cd 	.word	0x100001cd
10000174:	100001cd 	.word	0x100001cd
10000178:	100001cd 	.word	0x100001cd
1000017c:	100001cd 	.word	0x100001cd
10000180:	100001cd 	.word	0x100001cd
10000184:	100001cd 	.word	0x100001cd
10000188:	100001cd 	.word	0x100001cd
1000018c:	100001cd 	.word	0x100001cd
10000190:	100001cd 	.word	0x100001cd
10000194:	100001cd 	.word	0x100001cd
10000198:	100001cd 	.word	0x100001cd
1000019c:	100001cd 	.word	0x100001cd
100001a0:	100001cd 	.word	0x100001cd
100001a4:	100001cd 	.word	0x100001cd
100001a8:	100001cd 	.word	0x100001cd
100001ac:	100001cd 	.word	0x100001cd
100001b0:	100001cd 	.word	0x100001cd
100001b4:	100001cd 	.word	0x100001cd
100001b8:	100001cd 	.word	0x100001cd
100001bc:	100001cd 	.word	0x100001cd

100001c0 <isr_invalid>:
100001c0:	be00      	bkpt	0x0000

100001c2 <isr_nmi>:
100001c2:	be00      	bkpt	0x0000

100001c4 <isr_hardfault>:
100001c4:	be00      	bkpt	0x0000

100001c6 <isr_svcall>:
100001c6:	be00      	bkpt	0x0000

100001c8 <isr_pendsv>:
100001c8:	be00      	bkpt	0x0000

100001ca <isr_systick>:
100001ca:	be00      	bkpt	0x0000

100001cc <__unhandled_user_irq>:
100001cc:	f000 f84b 	bl	10000266 <__get_current_exception>
100001d0:	3810      	subs	r0, #16

100001d2 <unhandled_user_irq_num_in_r0>:
100001d2:	be00      	bkpt	0x0000

100001d4 <binary_info_header>:
100001d4:	7188ebf2 	.word	0x7188ebf2
100001d8:	10001c04 	.word	0x10001c04
100001dc:	10001c24 	.word	0x10001c24
100001e0:	10000234 	.word	0x10000234
100001e4:	e71aa390 	.word	0xe71aa390

100001e8 <_entry_point>:
100001e8:	2000      	movs	r0, #0
100001ea:	4921      	ldr	r1, [pc, #132]	; (10000270 <__get_current_exception+0xa>)
100001ec:	6008      	str	r0, [r1, #0]
100001ee:	c806      	ldmia	r0!, {r1, r2}
100001f0:	f381 8808 	msr	MSP, r1
100001f4:	4710      	bx	r2

100001f6 <_reset_handler>:
100001f6:	481f      	ldr	r0, [pc, #124]	; (10000274 <__get_current_exception+0xe>)
100001f8:	6800      	ldr	r0, [r0, #0]
100001fa:	2800      	cmp	r0, #0
100001fc:	d12f      	bne.n	1000025e <hold_non_core0_in_bootrom>
100001fe:	a40d      	add	r4, pc, #52	; (adr r4, 10000234 <data_cpy_table>)
10000200:	cc0e      	ldmia	r4!, {r1, r2, r3}
10000202:	2900      	cmp	r1, #0
10000204:	d002      	beq.n	1000020c <_reset_handler+0x16>
10000206:	f000 f812 	bl	1000022e <data_cpy>
1000020a:	e7f9      	b.n	10000200 <_reset_handler+0xa>
1000020c:	491a      	ldr	r1, [pc, #104]	; (10000278 <__get_current_exception+0x12>)
1000020e:	4a1b      	ldr	r2, [pc, #108]	; (1000027c <__get_current_exception+0x16>)
10000210:	2000      	movs	r0, #0
10000212:	e000      	b.n	10000216 <bss_fill_test>

10000214 <bss_fill_loop>:
10000214:	c101      	stmia	r1!, {r0}

10000216 <bss_fill_test>:
10000216:	4291      	cmp	r1, r2
10000218:	d1fc      	bne.n	10000214 <bss_fill_loop>

1000021a <platform_entry>:
1000021a:	4919      	ldr	r1, [pc, #100]	; (10000280 <__get_current_exception+0x1a>)
1000021c:	4788      	blx	r1
1000021e:	4919      	ldr	r1, [pc, #100]	; (10000284 <__get_current_exception+0x1e>)
10000220:	4788      	blx	r1
10000222:	4919      	ldr	r1, [pc, #100]	; (10000288 <__get_current_exception+0x22>)
10000224:	4788      	blx	r1
10000226:	be00      	bkpt	0x0000
10000228:	e7fd      	b.n	10000226 <platform_entry+0xc>

1000022a <data_cpy_loop>:
1000022a:	c901      	ldmia	r1!, {r0}
1000022c:	c201      	stmia	r2!, {r0}

1000022e <data_cpy>:
1000022e:	429a      	cmp	r2, r3
10000230:	d3fb      	bcc.n	1000022a <data_cpy_loop>
10000232:	4770      	bx	lr

10000234 <data_cpy_table>:
10000234:	10001c24 	.word	0x10001c24
10000238:	200000c0 	.word	0x200000c0
1000023c:	2000022c 	.word	0x2000022c
10000240:	10001d90 	.word	0x10001d90
10000244:	20040000 	.word	0x20040000
10000248:	20040000 	.word	0x20040000
1000024c:	10001d90 	.word	0x10001d90
10000250:	20041000 	.word	0x20041000
10000254:	20041000 	.word	0x20041000
10000258:	00000000 	.word	0x00000000
1000025c:	4770      	bx	lr

1000025e <hold_non_core0_in_bootrom>:
1000025e:	480b      	ldr	r0, [pc, #44]	; (1000028c <__get_current_exception+0x26>)
10000260:	f001 f9ac 	bl	100015bc <rom_func_lookup>
10000264:	4700      	bx	r0

10000266 <__get_current_exception>:
10000266:	f3ef 8005 	mrs	r0, IPSR
1000026a:	b2c0      	uxtb	r0, r0
1000026c:	4770      	bx	lr
1000026e:	0000      	.short	0x0000
10000270:	e000ed08 	.word	0xe000ed08
10000274:	d0000000 	.word	0xd0000000
10000278:	20000230 	.word	0x20000230
1000027c:	200005fc 	.word	0x200005fc
10000280:	10001099 	.word	0x10001099
10000284:	1000030d 	.word	0x1000030d
10000288:	10001189 	.word	0x10001189
1000028c:	00005657 	.word	0x00005657

10000290 <__bi_50>:
10000290:	50520006 5360b3ab 10001bb4              ..RP..`S....

1000029c <__bi_38>:
1000029c:	50520006 02031c86 10001bac              ..RP........

100002a8 <__bi_30>:
100002a8:	50520006 9da22254 10001bc4              ..RPT"......

100002b4 <__bi_22>:
100002b4:	50520005 68f465de 10001d90              ..RP.e.h....

100002c0 <_init>:
100002c0:	b5f8      	push	{r3, r4, r5, r6, r7, lr}
100002c2:	46c0      	nop			; (mov r8, r8)

100002c4 <__do_global_dtors_aux>:
100002c4:	b510      	push	{r4, lr}
100002c6:	4c06      	ldr	r4, [pc, #24]	; (100002e0 <__do_global_dtors_aux+0x1c>)
100002c8:	7823      	ldrb	r3, [r4, #0]
100002ca:	2b00      	cmp	r3, #0
100002cc:	d107      	bne.n	100002de <__do_global_dtors_aux+0x1a>
100002ce:	4b05      	ldr	r3, [pc, #20]	; (100002e4 <__do_global_dtors_aux+0x20>)
100002d0:	2b00      	cmp	r3, #0
100002d2:	d002      	beq.n	100002da <__do_global_dtors_aux+0x16>
100002d4:	4804      	ldr	r0, [pc, #16]	; (100002e8 <__do_global_dtors_aux+0x24>)
100002d6:	e000      	b.n	100002da <__do_global_dtors_aux+0x16>
100002d8:	bf00      	nop
100002da:	2301      	movs	r3, #1
100002dc:	7023      	strb	r3, [r4, #0]
100002de:	bd10      	pop	{r4, pc}
100002e0:	20000530 	.word	0x20000530
100002e4:	00000000 	.word	0x00000000
100002e8:	10001b18 	.word	0x10001b18

100002ec <frame_dummy>:
100002ec:	4b04      	ldr	r3, [pc, #16]	; (10000300 <frame_dummy+0x14>)
100002ee:	b510      	push	{r4, lr}
100002f0:	2b00      	cmp	r3, #0
100002f2:	d003      	beq.n	100002fc <frame_dummy+0x10>
100002f4:	4903      	ldr	r1, [pc, #12]	; (10000304 <frame_dummy+0x18>)
100002f6:	4804      	ldr	r0, [pc, #16]	; (10000308 <frame_dummy+0x1c>)
100002f8:	e000      	b.n	100002fc <frame_dummy+0x10>
100002fa:	bf00      	nop
100002fc:	bd10      	pop	{r4, pc}
100002fe:	46c0      	nop			; (mov r8, r8)
10000300:	00000000 	.word	0x00000000
10000304:	20000534 	.word	0x20000534
10000308:	10001b18 	.word	0x10001b18

1000030c <main>:
1000030c:	b510      	push	{r4, lr}
1000030e:	f000 f807 	bl	10000320 <main_asm>
10000312:	2000      	movs	r0, #0
10000314:	bd10      	pop	{r4, pc}
10000316:	46c0      	nop			; (mov r8, r8)
	...

10000320 <main_asm>:
10000320:	e7fe      	b.n	10000320 <main_asm>
10000322:	46c0      	nop			; (mov r8, r8)

10000324 <hw_claim_or_assert>:
10000324:	b570      	push	{r4, r5, r6, lr}
10000326:	f3ef 8c10 	mrs	ip, PRIMASK
1000032a:	b672      	cpsid	i
1000032c:	4d0d      	ldr	r5, [pc, #52]	; (10000364 <hw_claim_or_assert+0x40>)
1000032e:	682b      	ldr	r3, [r5, #0]
10000330:	2b00      	cmp	r3, #0
10000332:	d0fc      	beq.n	1000032e <hw_claim_or_assert+0xa>
10000334:	f3bf 8f5f 	dmb	sy
10000338:	2407      	movs	r4, #7
1000033a:	08cb      	lsrs	r3, r1, #3
1000033c:	18c6      	adds	r6, r0, r3
1000033e:	5cc0      	ldrb	r0, [r0, r3]
10000340:	2301      	movs	r3, #1
10000342:	400c      	ands	r4, r1
10000344:	40a3      	lsls	r3, r4
10000346:	001c      	movs	r4, r3
10000348:	4004      	ands	r4, r0
1000034a:	4203      	tst	r3, r0
1000034c:	d107      	bne.n	1000035e <hw_claim_or_assert+0x3a>
1000034e:	4303      	orrs	r3, r0
10000350:	7033      	strb	r3, [r6, #0]
10000352:	f3bf 8f5f 	dmb	sy
10000356:	602c      	str	r4, [r5, #0]
10000358:	f38c 8810 	msr	PRIMASK, ip
1000035c:	bd70      	pop	{r4, r5, r6, pc}
1000035e:	0010      	movs	r0, r2
10000360:	f000 ff14 	bl	1000118c <panic>
10000364:	d000012c 	.word	0xd000012c

10000368 <running_on_fpga>:
10000368:	4b02      	ldr	r3, [pc, #8]	; (10000374 <running_on_fpga+0xc>)
1000036a:	6818      	ldr	r0, [r3, #0]
1000036c:	0780      	lsls	r0, r0, #30
1000036e:	0fc0      	lsrs	r0, r0, #31
10000370:	4770      	bx	lr
10000372:	46c0      	nop			; (mov r8, r8)
10000374:	4006c000 	.word	0x4006c000

10000378 <spin_locks_reset>:
10000378:	2100      	movs	r1, #0
1000037a:	4b04      	ldr	r3, [pc, #16]	; (1000038c <spin_locks_reset+0x14>)
1000037c:	4a04      	ldr	r2, [pc, #16]	; (10000390 <spin_locks_reset+0x18>)
1000037e:	f3bf 8f5f 	dmb	sy
10000382:	c302      	stmia	r3!, {r1}
10000384:	4293      	cmp	r3, r2
10000386:	d1fa      	bne.n	1000037e <spin_locks_reset+0x6>
10000388:	4770      	bx	lr
1000038a:	46c0      	nop			; (mov r8, r8)
1000038c:	d0000100 	.word	0xd0000100
10000390:	d0000180 	.word	0xd0000180

10000394 <next_striped_spin_lock_num>:
10000394:	4a04      	ldr	r2, [pc, #16]	; (100003a8 <next_striped_spin_lock_num+0x14>)
10000396:	7810      	ldrb	r0, [r2, #0]
10000398:	1c43      	adds	r3, r0, #1
1000039a:	b2db      	uxtb	r3, r3
1000039c:	2b17      	cmp	r3, #23
1000039e:	d900      	bls.n	100003a2 <next_striped_spin_lock_num+0xe>
100003a0:	2310      	movs	r3, #16
100003a2:	7013      	strb	r3, [r2, #0]
100003a4:	4770      	bx	lr
100003a6:	46c0      	nop			; (mov r8, r8)
100003a8:	20000178 	.word	0x20000178

100003ac <irq_set_enabled>:
100003ac:	2301      	movs	r3, #1
100003ae:	4083      	lsls	r3, r0
100003b0:	2900      	cmp	r1, #0
100003b2:	d004      	beq.n	100003be <irq_set_enabled+0x12>
100003b4:	4a03      	ldr	r2, [pc, #12]	; (100003c4 <irq_set_enabled+0x18>)
100003b6:	6013      	str	r3, [r2, #0]
100003b8:	4a03      	ldr	r2, [pc, #12]	; (100003c8 <irq_set_enabled+0x1c>)
100003ba:	6013      	str	r3, [r2, #0]
100003bc:	4770      	bx	lr
100003be:	4a03      	ldr	r2, [pc, #12]	; (100003cc <irq_set_enabled+0x20>)
100003c0:	6013      	str	r3, [r2, #0]
100003c2:	e7fb      	b.n	100003bc <irq_set_enabled+0x10>
100003c4:	e000e280 	.word	0xe000e280
100003c8:	e000e100 	.word	0xe000e100
100003cc:	e000e180 	.word	0xe000e180

100003d0 <irq_get_vtable_handler>:
100003d0:	4b02      	ldr	r3, [pc, #8]	; (100003dc <irq_get_vtable_handler+0xc>)
100003d2:	3010      	adds	r0, #16
100003d4:	689b      	ldr	r3, [r3, #8]
100003d6:	0080      	lsls	r0, r0, #2
100003d8:	58c0      	ldr	r0, [r0, r3]
100003da:	4770      	bx	lr
100003dc:	e000ed00 	.word	0xe000ed00

100003e0 <irq_set_exclusive_handler>:
100003e0:	b570      	push	{r4, r5, r6, lr}
100003e2:	000d      	movs	r5, r1
100003e4:	f3ef 8610 	mrs	r6, PRIMASK
100003e8:	b672      	cpsid	i
100003ea:	4a0f      	ldr	r2, [pc, #60]	; (10000428 <irq_set_exclusive_handler+0x48>)
100003ec:	6813      	ldr	r3, [r2, #0]
100003ee:	2b00      	cmp	r3, #0
100003f0:	d0fc      	beq.n	100003ec <irq_set_exclusive_handler+0xc>
100003f2:	f3bf 8f5f 	dmb	sy
100003f6:	4b0d      	ldr	r3, [pc, #52]	; (1000042c <irq_set_exclusive_handler+0x4c>)
100003f8:	3010      	adds	r0, #16
100003fa:	689b      	ldr	r3, [r3, #8]
100003fc:	0084      	lsls	r4, r0, #2
100003fe:	591b      	ldr	r3, [r3, r4]
10000400:	4a0b      	ldr	r2, [pc, #44]	; (10000430 <irq_set_exclusive_handler+0x50>)
10000402:	4293      	cmp	r3, r2
10000404:	d003      	beq.n	1000040e <irq_set_exclusive_handler+0x2e>
10000406:	429d      	cmp	r5, r3
10000408:	d001      	beq.n	1000040e <irq_set_exclusive_handler+0x2e>
1000040a:	f000 fed7 	bl	100011bc <hard_assertion_failure>
1000040e:	4b07      	ldr	r3, [pc, #28]	; (1000042c <irq_set_exclusive_handler+0x4c>)
10000410:	689b      	ldr	r3, [r3, #8]
10000412:	511d      	str	r5, [r3, r4]
10000414:	f3bf 8f5f 	dmb	sy
10000418:	f3bf 8f5f 	dmb	sy
1000041c:	2200      	movs	r2, #0
1000041e:	4b02      	ldr	r3, [pc, #8]	; (10000428 <irq_set_exclusive_handler+0x48>)
10000420:	601a      	str	r2, [r3, #0]
10000422:	f386 8810 	msr	PRIMASK, r6
10000426:	bd70      	pop	{r4, r5, r6, pc}
10000428:	d0000124 	.word	0xd0000124
1000042c:	e000ed00 	.word	0xe000ed00
10000430:	100001cd 	.word	0x100001cd

10000434 <irq_remove_handler>:
10000434:	b5f0      	push	{r4, r5, r6, r7, lr}
10000436:	46de      	mov	lr, fp
10000438:	4657      	mov	r7, sl
1000043a:	464e      	mov	r6, r9
1000043c:	4645      	mov	r5, r8
1000043e:	b5e0      	push	{r5, r6, r7, lr}
10000440:	000c      	movs	r4, r1
10000442:	b083      	sub	sp, #12
10000444:	f3ef 8a10 	mrs	sl, PRIMASK
10000448:	b672      	cpsid	i
1000044a:	4a5a      	ldr	r2, [pc, #360]	; (100005b4 <irq_remove_handler+0x180>)
1000044c:	6813      	ldr	r3, [r2, #0]
1000044e:	2b00      	cmp	r3, #0
10000450:	d0fc      	beq.n	1000044c <irq_remove_handler+0x18>
10000452:	f3bf 8f5f 	dmb	sy
10000456:	2210      	movs	r2, #16
10000458:	4691      	mov	r9, r2
1000045a:	4481      	add	r9, r0
1000045c:	464a      	mov	r2, r9
1000045e:	4b56      	ldr	r3, [pc, #344]	; (100005b8 <irq_remove_handler+0x184>)
10000460:	0096      	lsls	r6, r2, #2
10000462:	689b      	ldr	r3, [r3, #8]
10000464:	599d      	ldr	r5, [r3, r6]
10000466:	4b55      	ldr	r3, [pc, #340]	; (100005bc <irq_remove_handler+0x188>)
10000468:	4698      	mov	r8, r3
1000046a:	429d      	cmp	r5, r3
1000046c:	d005      	beq.n	1000047a <irq_remove_handler+0x46>
1000046e:	42a5      	cmp	r5, r4
10000470:	d016      	beq.n	100004a0 <irq_remove_handler+0x6c>
10000472:	4f53      	ldr	r7, [pc, #332]	; (100005c0 <irq_remove_handler+0x18c>)
10000474:	1beb      	subs	r3, r5, r7
10000476:	2b2f      	cmp	r3, #47	; 0x2f
10000478:	d914      	bls.n	100004a4 <irq_remove_handler+0x70>
1000047a:	4b4f      	ldr	r3, [pc, #316]	; (100005b8 <irq_remove_handler+0x184>)
1000047c:	689b      	ldr	r3, [r3, #8]
1000047e:	519d      	str	r5, [r3, r6]
10000480:	f3bf 8f5f 	dmb	sy
10000484:	f3bf 8f5f 	dmb	sy
10000488:	2200      	movs	r2, #0
1000048a:	4b4a      	ldr	r3, [pc, #296]	; (100005b4 <irq_remove_handler+0x180>)
1000048c:	601a      	str	r2, [r3, #0]
1000048e:	f38a 8810 	msr	PRIMASK, sl
10000492:	b003      	add	sp, #12
10000494:	bcf0      	pop	{r4, r5, r6, r7}
10000496:	46bb      	mov	fp, r7
10000498:	46b2      	mov	sl, r6
1000049a:	46a9      	mov	r9, r5
1000049c:	46a0      	mov	r8, r4
1000049e:	bdf0      	pop	{r4, r5, r6, r7, pc}
100004a0:	001d      	movs	r5, r3
100004a2:	e7ea      	b.n	1000047a <irq_remove_handler+0x46>
100004a4:	2301      	movs	r3, #1
100004a6:	4083      	lsls	r3, r0
100004a8:	469b      	mov	fp, r3
100004aa:	465a      	mov	r2, fp
100004ac:	4b45      	ldr	r3, [pc, #276]	; (100005c4 <irq_remove_handler+0x190>)
100004ae:	681b      	ldr	r3, [r3, #0]
100004b0:	401a      	ands	r2, r3
100004b2:	9200      	str	r2, [sp, #0]
100004b4:	465a      	mov	r2, fp
100004b6:	4b44      	ldr	r3, [pc, #272]	; (100005c8 <irq_remove_handler+0x194>)
100004b8:	601a      	str	r2, [r3, #0]
100004ba:	f3bf 8f5f 	dmb	sy
100004be:	f7ff fed2 	bl	10000266 <__get_current_exception>
100004c2:	9001      	str	r0, [sp, #4]
100004c4:	2800      	cmp	r0, #0
100004c6:	d003      	beq.n	100004d0 <irq_remove_handler+0x9c>
100004c8:	4581      	cmp	r9, r0
100004ca:	d001      	beq.n	100004d0 <irq_remove_handler+0x9c>
100004cc:	f000 fe76 	bl	100011bc <hard_assertion_failure>
100004d0:	2301      	movs	r3, #1
100004d2:	002a      	movs	r2, r5
100004d4:	439a      	bics	r2, r3
100004d6:	6893      	ldr	r3, [r2, #8]
100004d8:	429c      	cmp	r4, r3
100004da:	d108      	bne.n	100004ee <irq_remove_handler+0xba>
100004dc:	e05f      	b.n	1000059e <irq_remove_handler+0x16a>
100004de:	004b      	lsls	r3, r1, #1
100004e0:	185b      	adds	r3, r3, r1
100004e2:	009b      	lsls	r3, r3, #2
100004e4:	18fb      	adds	r3, r7, r3
100004e6:	6899      	ldr	r1, [r3, #8]
100004e8:	42a1      	cmp	r1, r4
100004ea:	d011      	beq.n	10000510 <irq_remove_handler+0xdc>
100004ec:	001a      	movs	r2, r3
100004ee:	2106      	movs	r1, #6
100004f0:	5651      	ldrsb	r1, [r2, r1]
100004f2:	2900      	cmp	r1, #0
100004f4:	daf3      	bge.n	100004de <irq_remove_handler+0xaa>
100004f6:	9b00      	ldr	r3, [sp, #0]
100004f8:	2b00      	cmp	r3, #0
100004fa:	d005      	beq.n	10000508 <irq_remove_handler+0xd4>
100004fc:	465a      	mov	r2, fp
100004fe:	4b33      	ldr	r3, [pc, #204]	; (100005cc <irq_remove_handler+0x198>)
10000500:	601a      	str	r2, [r3, #0]
10000502:	4b30      	ldr	r3, [pc, #192]	; (100005c4 <irq_remove_handler+0x190>)
10000504:	601a      	str	r2, [r3, #0]
10000506:	e7b8      	b.n	1000047a <irq_remove_handler+0x46>
10000508:	465a      	mov	r2, fp
1000050a:	4b2f      	ldr	r3, [pc, #188]	; (100005c8 <irq_remove_handler+0x194>)
1000050c:	601a      	str	r2, [r3, #0]
1000050e:	e7b4      	b.n	1000047a <irq_remove_handler+0x46>
10000510:	2106      	movs	r1, #6
10000512:	5659      	ldrsb	r1, [r3, r1]
10000514:	2900      	cmp	r1, #0
10000516:	db21      	blt.n	1000055c <irq_remove_handler+0x128>
10000518:	004a      	lsls	r2, r1, #1
1000051a:	1850      	adds	r0, r2, r1
1000051c:	0080      	lsls	r0, r0, #2
1000051e:	183c      	adds	r4, r7, r0
10000520:	4680      	mov	r8, r0
10000522:	68a0      	ldr	r0, [r4, #8]
10000524:	6098      	str	r0, [r3, #8]
10000526:	79e0      	ldrb	r0, [r4, #7]
10000528:	71d8      	strb	r0, [r3, #7]
1000052a:	2006      	movs	r0, #6
1000052c:	5620      	ldrsb	r0, [r4, r0]
1000052e:	7198      	strb	r0, [r3, #6]
10000530:	2800      	cmp	r0, #0
10000532:	db24      	blt.n	1000057e <irq_remove_handler+0x14a>
10000534:	88a4      	ldrh	r4, [r4, #4]
10000536:	1af8      	subs	r0, r7, r3
10000538:	0564      	lsls	r4, r4, #21
1000053a:	1524      	asrs	r4, r4, #20
1000053c:	4444      	add	r4, r8
1000053e:	1900      	adds	r0, r0, r4
10000540:	24e0      	movs	r4, #224	; 0xe0
10000542:	0500      	lsls	r0, r0, #20
10000544:	0d40      	lsrs	r0, r0, #21
10000546:	0224      	lsls	r4, r4, #8
10000548:	4320      	orrs	r0, r4
1000054a:	8098      	strh	r0, [r3, #4]
1000054c:	1852      	adds	r2, r2, r1
1000054e:	4b20      	ldr	r3, [pc, #128]	; (100005d0 <irq_remove_handler+0x19c>)
10000550:	0092      	lsls	r2, r2, #2
10000552:	18bf      	adds	r7, r7, r2
10000554:	781a      	ldrb	r2, [r3, #0]
10000556:	7019      	strb	r1, [r3, #0]
10000558:	71ba      	strb	r2, [r7, #6]
1000055a:	e7cc      	b.n	100004f6 <irq_remove_handler+0xc2>
1000055c:	9901      	ldr	r1, [sp, #4]
1000055e:	2900      	cmp	r1, #0
10000560:	d110      	bne.n	10000584 <irq_remove_handler+0x150>
10000562:	31ff      	adds	r1, #255	; 0xff
10000564:	7191      	strb	r1, [r2, #6]
10000566:	491b      	ldr	r1, [pc, #108]	; (100005d4 <irq_remove_handler+0x1a0>)
10000568:	8091      	strh	r1, [r2, #4]
1000056a:	4919      	ldr	r1, [pc, #100]	; (100005d0 <irq_remove_handler+0x19c>)
1000056c:	780a      	ldrb	r2, [r1, #0]
1000056e:	719a      	strb	r2, [r3, #6]
10000570:	4a19      	ldr	r2, [pc, #100]	; (100005d8 <irq_remove_handler+0x1a4>)
10000572:	1bdb      	subs	r3, r3, r7
10000574:	415b      	adcs	r3, r3
10000576:	435a      	muls	r2, r3
10000578:	0d12      	lsrs	r2, r2, #20
1000057a:	700a      	strb	r2, [r1, #0]
1000057c:	e7bb      	b.n	100004f6 <irq_remove_handler+0xc2>
1000057e:	20bd      	movs	r0, #189	; 0xbd
10000580:	0200      	lsls	r0, r0, #8
10000582:	e7e2      	b.n	1000054a <irq_remove_handler+0x116>
10000584:	4a15      	ldr	r2, [pc, #84]	; (100005dc <irq_remove_handler+0x1a8>)
10000586:	4916      	ldr	r1, [pc, #88]	; (100005e0 <irq_remove_handler+0x1ac>)
10000588:	1ad2      	subs	r2, r2, r3
1000058a:	3a08      	subs	r2, #8
1000058c:	0250      	lsls	r0, r2, #9
1000058e:	0d40      	lsrs	r0, r0, #21
10000590:	4301      	orrs	r1, r0
10000592:	8099      	strh	r1, [r3, #4]
10000594:	4913      	ldr	r1, [pc, #76]	; (100005e4 <irq_remove_handler+0x1b0>)
10000596:	0852      	lsrs	r2, r2, #1
10000598:	430a      	orrs	r2, r1
1000059a:	80da      	strh	r2, [r3, #6]
1000059c:	e7ab      	b.n	100004f6 <irq_remove_handler+0xc2>
1000059e:	2106      	movs	r1, #6
100005a0:	5651      	ldrsb	r1, [r2, r1]
100005a2:	0013      	movs	r3, r2
100005a4:	2900      	cmp	r1, #0
100005a6:	dab7      	bge.n	10000518 <irq_remove_handler+0xe4>
100005a8:	9a01      	ldr	r2, [sp, #4]
100005aa:	2a00      	cmp	r2, #0
100005ac:	d1ea      	bne.n	10000584 <irq_remove_handler+0x150>
100005ae:	4645      	mov	r5, r8
100005b0:	e7db      	b.n	1000056a <irq_remove_handler+0x136>
100005b2:	46c0      	nop			; (mov r8, r8)
100005b4:	d0000124 	.word	0xd0000124
100005b8:	e000ed00 	.word	0xe000ed00
100005bc:	100001cd 	.word	0x100001cd
100005c0:	2000017c 	.word	0x2000017c
100005c4:	e000e100 	.word	0xe000e100
100005c8:	e000e180 	.word	0xe000e180
100005cc:	e000e280 	.word	0xe000e280
100005d0:	200005f9 	.word	0x200005f9
100005d4:	ffffbd00 	.word	0xffffbd00
100005d8:	0000aaaa 	.word	0x0000aaaa
100005dc:	200001b6 	.word	0x200001b6
100005e0:	fffff000 	.word	0xfffff000
100005e4:	fffff800 	.word	0xfffff800

100005e8 <irq_add_tail_to_free_list>:
100005e8:	b5f8      	push	{r3, r4, r5, r6, r7, lr}
100005ea:	2501      	movs	r5, #1
100005ec:	0004      	movs	r4, r0
100005ee:	4305      	orrs	r5, r0
100005f0:	f7ff fe39 	bl	10000266 <__get_current_exception>
100005f4:	f3ef 8c10 	mrs	ip, PRIMASK
100005f8:	b672      	cpsid	i
100005fa:	4a21      	ldr	r2, [pc, #132]	; (10000680 <irq_add_tail_to_free_list+0x98>)
100005fc:	6813      	ldr	r3, [r2, #0]
100005fe:	2b00      	cmp	r3, #0
10000600:	d0fc      	beq.n	100005fc <irq_add_tail_to_free_list+0x14>
10000602:	f3bf 8f5f 	dmb	sy
10000606:	4e1f      	ldr	r6, [pc, #124]	; (10000684 <irq_add_tail_to_free_list+0x9c>)
10000608:	0021      	movs	r1, r4
1000060a:	68b7      	ldr	r7, [r6, #8]
1000060c:	4a1e      	ldr	r2, [pc, #120]	; (10000688 <irq_add_tail_to_free_list+0xa0>)
1000060e:	4b1f      	ldr	r3, [pc, #124]	; (1000068c <irq_add_tail_to_free_list+0xa4>)
10000610:	1a89      	subs	r1, r1, r2
10000612:	4149      	adcs	r1, r1
10000614:	434b      	muls	r3, r1
10000616:	0d1b      	lsrs	r3, r3, #20
10000618:	b259      	sxtb	r1, r3
1000061a:	0083      	lsls	r3, r0, #2
1000061c:	58f8      	ldr	r0, [r7, r3]
1000061e:	42a8      	cmp	r0, r5
10000620:	d01c      	beq.n	1000065c <irq_add_tail_to_free_list+0x74>
10000622:	2306      	movs	r3, #6
10000624:	56d3      	ldrsb	r3, [r2, r3]
10000626:	428b      	cmp	r3, r1
10000628:	d01c      	beq.n	10000664 <irq_add_tail_to_free_list+0x7c>
1000062a:	2312      	movs	r3, #18
1000062c:	56d3      	ldrsb	r3, [r2, r3]
1000062e:	428b      	cmp	r3, r1
10000630:	d022      	beq.n	10000678 <irq_add_tail_to_free_list+0x90>
10000632:	231e      	movs	r3, #30
10000634:	56d3      	ldrsb	r3, [r2, r3]
10000636:	428b      	cmp	r3, r1
10000638:	d020      	beq.n	1000067c <irq_add_tail_to_free_list+0x94>
1000063a:	232a      	movs	r3, #42	; 0x2a
1000063c:	56d3      	ldrsb	r3, [r2, r3]
1000063e:	2003      	movs	r0, #3
10000640:	428b      	cmp	r3, r1
10000642:	d010      	beq.n	10000666 <irq_add_tail_to_free_list+0x7e>
10000644:	4b12      	ldr	r3, [pc, #72]	; (10000690 <irq_add_tail_to_free_list+0xa8>)
10000646:	781a      	ldrb	r2, [r3, #0]
10000648:	7019      	strb	r1, [r3, #0]
1000064a:	71a2      	strb	r2, [r4, #6]
1000064c:	f3bf 8f5f 	dmb	sy
10000650:	2200      	movs	r2, #0
10000652:	4b0b      	ldr	r3, [pc, #44]	; (10000680 <irq_add_tail_to_free_list+0x98>)
10000654:	601a      	str	r2, [r3, #0]
10000656:	f38c 8810 	msr	PRIMASK, ip
1000065a:	bdf8      	pop	{r3, r4, r5, r6, r7, pc}
1000065c:	68b2      	ldr	r2, [r6, #8]
1000065e:	480d      	ldr	r0, [pc, #52]	; (10000694 <irq_add_tail_to_free_list+0xac>)
10000660:	50d0      	str	r0, [r2, r3]
10000662:	e7ef      	b.n	10000644 <irq_add_tail_to_free_list+0x5c>
10000664:	2000      	movs	r0, #0
10000666:	0043      	lsls	r3, r0, #1
10000668:	181b      	adds	r3, r3, r0
1000066a:	009b      	lsls	r3, r3, #2
1000066c:	18d2      	adds	r2, r2, r3
1000066e:	23ff      	movs	r3, #255	; 0xff
10000670:	7193      	strb	r3, [r2, #6]
10000672:	4b09      	ldr	r3, [pc, #36]	; (10000698 <irq_add_tail_to_free_list+0xb0>)
10000674:	8093      	strh	r3, [r2, #4]
10000676:	e7e5      	b.n	10000644 <irq_add_tail_to_free_list+0x5c>
10000678:	2001      	movs	r0, #1
1000067a:	e7f4      	b.n	10000666 <irq_add_tail_to_free_list+0x7e>
1000067c:	2002      	movs	r0, #2
1000067e:	e7f2      	b.n	10000666 <irq_add_tail_to_free_list+0x7e>
10000680:	d0000124 	.word	0xd0000124
10000684:	e000ed00 	.word	0xe000ed00
10000688:	2000017c 	.word	0x2000017c
1000068c:	0000aaaa 	.word	0x0000aaaa
10000690:	200005f9 	.word	0x200005f9
10000694:	100001cd 	.word	0x100001cd
10000698:	ffffbd00 	.word	0xffffbd00

1000069c <irq_init_priorities>:
1000069c:	4b05      	ldr	r3, [pc, #20]	; (100006b4 <irq_init_priorities+0x18>)
1000069e:	4a06      	ldr	r2, [pc, #24]	; (100006b8 <irq_init_priorities+0x1c>)
100006a0:	6013      	str	r3, [r2, #0]
100006a2:	4a06      	ldr	r2, [pc, #24]	; (100006bc <irq_init_priorities+0x20>)
100006a4:	6013      	str	r3, [r2, #0]
100006a6:	6053      	str	r3, [r2, #4]
100006a8:	6093      	str	r3, [r2, #8]
100006aa:	60d3      	str	r3, [r2, #12]
100006ac:	6113      	str	r3, [r2, #16]
100006ae:	6153      	str	r3, [r2, #20]
100006b0:	6193      	str	r3, [r2, #24]
100006b2:	4770      	bx	lr
100006b4:	80808080 	.word	0x80808080
100006b8:	e000e400 	.word	0xe000e400
100006bc:	e000e404 	.word	0xe000e404

100006c0 <lock_init>:
100006c0:	4b02      	ldr	r3, [pc, #8]	; (100006cc <lock_init+0xc>)
100006c2:	469c      	mov	ip, r3
100006c4:	4461      	add	r1, ip
100006c6:	0089      	lsls	r1, r1, #2
100006c8:	6001      	str	r1, [r0, #0]
100006ca:	4770      	bx	lr
100006cc:	34000040 	.word	0x34000040

100006d0 <timer_pool_entry_comparator>:
100006d0:	6883      	ldr	r3, [r0, #8]
100006d2:	480b      	ldr	r0, [pc, #44]	; (10000700 <timer_pool_entry_comparator+0x30>)
100006d4:	b510      	push	{r4, lr}
100006d6:	4684      	mov	ip, r0
100006d8:	4461      	add	r1, ip
100006da:	4462      	add	r2, ip
100006dc:	0109      	lsls	r1, r1, #4
100006de:	0112      	lsls	r2, r2, #4
100006e0:	189a      	adds	r2, r3, r2
100006e2:	1859      	adds	r1, r3, r1
100006e4:	6854      	ldr	r4, [r2, #4]
100006e6:	684b      	ldr	r3, [r1, #4]
100006e8:	2001      	movs	r0, #1
100006ea:	429c      	cmp	r4, r3
100006ec:	d801      	bhi.n	100006f2 <timer_pool_entry_comparator+0x22>
100006ee:	d002      	beq.n	100006f6 <timer_pool_entry_comparator+0x26>
100006f0:	2000      	movs	r0, #0
100006f2:	b2c0      	uxtb	r0, r0
100006f4:	bd10      	pop	{r4, pc}
100006f6:	6812      	ldr	r2, [r2, #0]
100006f8:	680b      	ldr	r3, [r1, #0]
100006fa:	429a      	cmp	r2, r3
100006fc:	d8f9      	bhi.n	100006f2 <timer_pool_entry_comparator+0x22>
100006fe:	e7f7      	b.n	100006f0 <timer_pool_entry_comparator+0x20>
10000700:	0fffffff 	.word	0x0fffffff

10000704 <add_alarm_under_lock.isra.0>:
10000704:	b5f8      	push	{r3, r4, r5, r6, r7, lr}
10000706:	4657      	mov	r7, sl
10000708:	464e      	mov	r6, r9
1000070a:	4645      	mov	r5, r8
1000070c:	46de      	mov	lr, fp
1000070e:	b5e0      	push	{r5, r6, r7, lr}
10000710:	4699      	mov	r9, r3
10000712:	ab0c      	add	r3, sp, #48	; 0x30
10000714:	781c      	ldrb	r4, [r3, #0]
10000716:	ab0d      	add	r3, sp, #52	; 0x34
10000718:	781b      	ldrb	r3, [r3, #0]
1000071a:	0006      	movs	r6, r0
1000071c:	4690      	mov	r8, r2
1000071e:	469a      	mov	sl, r3
10000720:	6807      	ldr	r7, [r0, #0]
10000722:	2c00      	cmp	r4, #0
10000724:	d111      	bne.n	1000074a <add_alarm_under_lock.isra.0+0x46>
10000726:	7bbc      	ldrb	r4, [r7, #14]
10000728:	2c00      	cmp	r4, #0
1000072a:	d042      	beq.n	100007b2 <add_alarm_under_lock.isra.0+0xae>
1000072c:	0065      	lsls	r5, r4, #1
1000072e:	683b      	ldr	r3, [r7, #0]
10000730:	192d      	adds	r5, r5, r4
10000732:	3d03      	subs	r5, #3
10000734:	1959      	adds	r1, r3, r5
10000736:	784b      	ldrb	r3, [r1, #1]
10000738:	73bb      	strb	r3, [r7, #14]
1000073a:	2b00      	cmp	r3, #0
1000073c:	d100      	bne.n	10000740 <add_alarm_under_lock.isra.0+0x3c>
1000073e:	73fb      	strb	r3, [r7, #15]
10000740:	2300      	movs	r3, #0
10000742:	708b      	strb	r3, [r1, #2]
10000744:	704b      	strb	r3, [r1, #1]
10000746:	700b      	strb	r3, [r1, #0]
10000748:	e004      	b.n	10000754 <add_alarm_under_lock.isra.0+0x50>
1000074a:	0065      	lsls	r5, r4, #1
1000074c:	683b      	ldr	r3, [r7, #0]
1000074e:	192d      	adds	r5, r5, r4
10000750:	3d03      	subs	r5, #3
10000752:	1959      	adds	r1, r3, r5
10000754:	68b2      	ldr	r2, [r6, #8]
10000756:	4b2a      	ldr	r3, [pc, #168]	; (10000800 <add_alarm_under_lock.isra.0+0xfc>)
10000758:	4694      	mov	ip, r2
1000075a:	4642      	mov	r2, r8
1000075c:	18e3      	adds	r3, r4, r3
1000075e:	011b      	lsls	r3, r3, #4
10000760:	4463      	add	r3, ip
10000762:	601a      	str	r2, [r3, #0]
10000764:	464a      	mov	r2, r9
10000766:	605a      	str	r2, [r3, #4]
10000768:	9a0a      	ldr	r2, [sp, #40]	; 0x28
1000076a:	609a      	str	r2, [r3, #8]
1000076c:	9a0b      	ldr	r2, [sp, #44]	; 0x2c
1000076e:	60da      	str	r2, [r3, #12]
10000770:	2300      	movs	r3, #0
10000772:	708b      	strb	r3, [r1, #2]
10000774:	704b      	strb	r3, [r1, #1]
10000776:	700b      	strb	r3, [r1, #0]
10000778:	7b7b      	ldrb	r3, [r7, #13]
1000077a:	469b      	mov	fp, r3
1000077c:	2b00      	cmp	r3, #0
1000077e:	d02b      	beq.n	100007d8 <add_alarm_under_lock.isra.0+0xd4>
10000780:	0022      	movs	r2, r4
10000782:	4659      	mov	r1, fp
10000784:	68b8      	ldr	r0, [r7, #8]
10000786:	687b      	ldr	r3, [r7, #4]
10000788:	4798      	blx	r3
1000078a:	683a      	ldr	r2, [r7, #0]
1000078c:	2800      	cmp	r0, #0
1000078e:	d016      	beq.n	100007be <add_alarm_under_lock.isra.0+0xba>
10000790:	465b      	mov	r3, fp
10000792:	4658      	mov	r0, fp
10000794:	005b      	lsls	r3, r3, #1
10000796:	445b      	add	r3, fp
10000798:	1955      	adds	r5, r2, r5
1000079a:	3b03      	subs	r3, #3
1000079c:	70a8      	strb	r0, [r5, #2]
1000079e:	18d1      	adds	r1, r2, r3
100007a0:	5cd3      	ldrb	r3, [r2, r3]
100007a2:	2b00      	cmp	r3, #0
100007a4:	d000      	beq.n	100007a8 <add_alarm_under_lock.isra.0+0xa4>
100007a6:	706b      	strb	r3, [r5, #1]
100007a8:	465b      	mov	r3, fp
100007aa:	700c      	strb	r4, [r1, #0]
100007ac:	737b      	strb	r3, [r7, #13]
100007ae:	45a3      	cmp	fp, r4
100007b0:	d013      	beq.n	100007da <add_alarm_under_lock.isra.0+0xd6>
100007b2:	bcf0      	pop	{r4, r5, r6, r7}
100007b4:	46bb      	mov	fp, r7
100007b6:	46b2      	mov	sl, r6
100007b8:	46a9      	mov	r9, r5
100007ba:	46a0      	mov	r8, r4
100007bc:	bdf8      	pop	{r3, r4, r5, r6, r7, pc}
100007be:	465b      	mov	r3, fp
100007c0:	005b      	lsls	r3, r3, #1
100007c2:	445b      	add	r3, fp
100007c4:	3b03      	subs	r3, #3
100007c6:	18d3      	adds	r3, r2, r3
100007c8:	709c      	strb	r4, [r3, #2]
100007ca:	1951      	adds	r1, r2, r5
100007cc:	5d52      	ldrb	r2, [r2, r5]
100007ce:	2a00      	cmp	r2, #0
100007d0:	d000      	beq.n	100007d4 <add_alarm_under_lock.isra.0+0xd0>
100007d2:	705a      	strb	r2, [r3, #1]
100007d4:	465b      	mov	r3, fp
100007d6:	700b      	strb	r3, [r1, #0]
100007d8:	737c      	strb	r4, [r7, #13]
100007da:	4642      	mov	r2, r8
100007dc:	464b      	mov	r3, r9
100007de:	7d30      	ldrb	r0, [r6, #20]
100007e0:	f000 f9de 	bl	10000ba0 <hardware_alarm_set_target>
100007e4:	1e05      	subs	r5, r0, #0
100007e6:	d006      	beq.n	100007f6 <add_alarm_under_lock.isra.0+0xf2>
100007e8:	4653      	mov	r3, sl
100007ea:	2b00      	cmp	r3, #0
100007ec:	d103      	bne.n	100007f6 <add_alarm_under_lock.isra.0+0xf2>
100007ee:	0021      	movs	r1, r4
100007f0:	6830      	ldr	r0, [r6, #0]
100007f2:	f000 fbf7 	bl	10000fe4 <ph_remove_and_free_node>
100007f6:	9b0e      	ldr	r3, [sp, #56]	; 0x38
100007f8:	2b00      	cmp	r3, #0
100007fa:	d0da      	beq.n	100007b2 <add_alarm_under_lock.isra.0+0xae>
100007fc:	701d      	strb	r5, [r3, #0]
100007fe:	e7d8      	b.n	100007b2 <add_alarm_under_lock.isra.0+0xae>
10000800:	0fffffff 	.word	0x0fffffff

10000804 <alarm_pool_alarm_callback>:
10000804:	b5f0      	push	{r4, r5, r6, r7, lr}
10000806:	46de      	mov	lr, fp
10000808:	464e      	mov	r6, r9
1000080a:	4657      	mov	r7, sl
1000080c:	4645      	mov	r5, r8
1000080e:	2300      	movs	r3, #0
10000810:	b5e0      	push	{r5, r6, r7, lr}
10000812:	b08d      	sub	sp, #52	; 0x34
10000814:	930a      	str	r3, [sp, #40]	; 0x28
10000816:	4b6b      	ldr	r3, [pc, #428]	; (100009c4 <alarm_pool_alarm_callback+0x1c0>)
10000818:	0082      	lsls	r2, r0, #2
1000081a:	58d3      	ldr	r3, [r2, r3]
1000081c:	900b      	str	r0, [sp, #44]	; 0x2c
1000081e:	4699      	mov	r9, r3
10000820:	2300      	movs	r3, #0
10000822:	469b      	mov	fp, r3
10000824:	464b      	mov	r3, r9
10000826:	9307      	str	r3, [sp, #28]
10000828:	f000 f96a 	bl	10000b00 <time_us_64>
1000082c:	9c07      	ldr	r4, [sp, #28]
1000082e:	0006      	movs	r6, r0
10000830:	000f      	movs	r7, r1
10000832:	6862      	ldr	r2, [r4, #4]
10000834:	f3ef 8510 	mrs	r5, PRIMASK
10000838:	b672      	cpsid	i
1000083a:	6813      	ldr	r3, [r2, #0]
1000083c:	2b00      	cmp	r3, #0
1000083e:	d0fc      	beq.n	1000083a <alarm_pool_alarm_callback+0x36>
10000840:	0022      	movs	r2, r4
10000842:	9407      	str	r4, [sp, #28]
10000844:	f3bf 8f5f 	dmb	sy
10000848:	6824      	ldr	r4, [r4, #0]
1000084a:	7b63      	ldrb	r3, [r4, #13]
1000084c:	4699      	mov	r9, r3
1000084e:	2b00      	cmp	r3, #0
10000850:	d067      	beq.n	10000922 <alarm_pool_alarm_callback+0x11e>
10000852:	6892      	ldr	r2, [r2, #8]
10000854:	4b5c      	ldr	r3, [pc, #368]	; (100009c8 <alarm_pool_alarm_callback+0x1c4>)
10000856:	4690      	mov	r8, r2
10000858:	444b      	add	r3, r9
1000085a:	011b      	lsls	r3, r3, #4
1000085c:	4498      	add	r8, r3
1000085e:	4643      	mov	r3, r8
10000860:	681a      	ldr	r2, [r3, #0]
10000862:	685b      	ldr	r3, [r3, #4]
10000864:	0010      	movs	r0, r2
10000866:	0019      	movs	r1, r3
10000868:	1b80      	subs	r0, r0, r6
1000086a:	41b9      	sbcs	r1, r7
1000086c:	2900      	cmp	r1, #0
1000086e:	dd5f      	ble.n	10000930 <alarm_pool_alarm_callback+0x12c>
10000870:	980b      	ldr	r0, [sp, #44]	; 0x2c
10000872:	f000 f995 	bl	10000ba0 <hardware_alarm_set_target>
10000876:	2300      	movs	r3, #0
10000878:	2600      	movs	r6, #0
1000087a:	4698      	mov	r8, r3
1000087c:	2700      	movs	r7, #0
1000087e:	469a      	mov	sl, r3
10000880:	9c07      	ldr	r4, [sp, #28]
10000882:	6863      	ldr	r3, [r4, #4]
10000884:	f3bf 8f5f 	dmb	sy
10000888:	465a      	mov	r2, fp
1000088a:	601a      	str	r2, [r3, #0]
1000088c:	f385 8810 	msr	PRIMASK, r5
10000890:	4653      	mov	r3, sl
10000892:	2b00      	cmp	r3, #0
10000894:	d108      	bne.n	100008a8 <alarm_pool_alarm_callback+0xa4>
10000896:	2800      	cmp	r0, #0
10000898:	d1c6      	bne.n	10000828 <alarm_pool_alarm_callback+0x24>
1000089a:	b00d      	add	sp, #52	; 0x34
1000089c:	bcf0      	pop	{r4, r5, r6, r7}
1000089e:	46bb      	mov	fp, r7
100008a0:	46b2      	mov	sl, r6
100008a2:	46a9      	mov	r9, r5
100008a4:	46a0      	mov	r8, r4
100008a6:	bdf0      	pop	{r4, r5, r6, r7, pc}
100008a8:	9b0a      	ldr	r3, [sp, #40]	; 0x28
100008aa:	4641      	mov	r1, r8
100008ac:	0218      	lsls	r0, r3, #8
100008ae:	464b      	mov	r3, r9
100008b0:	4318      	orrs	r0, r3
100008b2:	47d0      	blx	sl
100008b4:	9008      	str	r0, [sp, #32]
100008b6:	9109      	str	r1, [sp, #36]	; 0x24
100008b8:	6862      	ldr	r2, [r4, #4]
100008ba:	f3ef 8510 	mrs	r5, PRIMASK
100008be:	b672      	cpsid	i
100008c0:	6813      	ldr	r3, [r2, #0]
100008c2:	2b00      	cmp	r3, #0
100008c4:	d0fc      	beq.n	100008c0 <alarm_pool_alarm_callback+0xbc>
100008c6:	9407      	str	r4, [sp, #28]
100008c8:	f3bf 8f5f 	dmb	sy
100008cc:	9908      	ldr	r1, [sp, #32]
100008ce:	9a09      	ldr	r2, [sp, #36]	; 0x24
100008d0:	2a00      	cmp	r2, #0
100008d2:	db48      	blt.n	10000966 <alarm_pool_alarm_callback+0x162>
100008d4:	4311      	orrs	r1, r2
100008d6:	d003      	beq.n	100008e0 <alarm_pool_alarm_callback+0xdc>
100008d8:	9b07      	ldr	r3, [sp, #28]
100008da:	691b      	ldr	r3, [r3, #16]
100008dc:	2b00      	cmp	r3, #0
100008de:	d15d      	bne.n	1000099c <alarm_pool_alarm_callback+0x198>
100008e0:	9b07      	ldr	r3, [sp, #28]
100008e2:	681b      	ldr	r3, [r3, #0]
100008e4:	7bd9      	ldrb	r1, [r3, #15]
100008e6:	2900      	cmp	r1, #0
100008e8:	d007      	beq.n	100008fa <alarm_pool_alarm_callback+0xf6>
100008ea:	004a      	lsls	r2, r1, #1
100008ec:	1852      	adds	r2, r2, r1
100008ee:	6819      	ldr	r1, [r3, #0]
100008f0:	468c      	mov	ip, r1
100008f2:	4649      	mov	r1, r9
100008f4:	4462      	add	r2, ip
100008f6:	3a03      	subs	r2, #3
100008f8:	7051      	strb	r1, [r2, #1]
100008fa:	464a      	mov	r2, r9
100008fc:	73da      	strb	r2, [r3, #15]
100008fe:	464b      	mov	r3, r9
10000900:	9a07      	ldr	r2, [sp, #28]
10000902:	3b01      	subs	r3, #1
10000904:	68d1      	ldr	r1, [r2, #12]
10000906:	5cca      	ldrb	r2, [r1, r3]
10000908:	3201      	adds	r2, #1
1000090a:	54ca      	strb	r2, [r1, r3]
1000090c:	465b      	mov	r3, fp
1000090e:	9a07      	ldr	r2, [sp, #28]
10000910:	6113      	str	r3, [r2, #16]
10000912:	6853      	ldr	r3, [r2, #4]
10000914:	f3bf 8f5f 	dmb	sy
10000918:	465a      	mov	r2, fp
1000091a:	601a      	str	r2, [r3, #0]
1000091c:	f385 8810 	msr	PRIMASK, r5
10000920:	e782      	b.n	10000828 <alarm_pool_alarm_callback+0x24>
10000922:	2300      	movs	r3, #0
10000924:	2600      	movs	r6, #0
10000926:	4698      	mov	r8, r3
10000928:	2700      	movs	r7, #0
1000092a:	469a      	mov	sl, r3
1000092c:	2000      	movs	r0, #0
1000092e:	e7a7      	b.n	10000880 <alarm_pool_alarm_callback+0x7c>
10000930:	2900      	cmp	r1, #0
10000932:	d101      	bne.n	10000938 <alarm_pool_alarm_callback+0x134>
10000934:	2800      	cmp	r0, #0
10000936:	d19b      	bne.n	10000870 <alarm_pool_alarm_callback+0x6c>
10000938:	2100      	movs	r1, #0
1000093a:	0020      	movs	r0, r4
1000093c:	f000 fad4 	bl	10000ee8 <ph_remove_head>
10000940:	4643      	mov	r3, r8
10000942:	681e      	ldr	r6, [r3, #0]
10000944:	685f      	ldr	r7, [r3, #4]
10000946:	689b      	ldr	r3, [r3, #8]
10000948:	9a07      	ldr	r2, [sp, #28]
1000094a:	469a      	mov	sl, r3
1000094c:	4643      	mov	r3, r8
1000094e:	68db      	ldr	r3, [r3, #12]
10000950:	4698      	mov	r8, r3
10000952:	68d3      	ldr	r3, [r2, #12]
10000954:	444b      	add	r3, r9
10000956:	3b01      	subs	r3, #1
10000958:	781b      	ldrb	r3, [r3, #0]
1000095a:	930a      	str	r3, [sp, #40]	; 0x28
1000095c:	021b      	lsls	r3, r3, #8
1000095e:	4303      	orrs	r3, r0
10000960:	6113      	str	r3, [r2, #16]
10000962:	2000      	movs	r0, #0
10000964:	e78c      	b.n	10000880 <alarm_pool_alarm_callback+0x7c>
10000966:	6923      	ldr	r3, [r4, #16]
10000968:	2b00      	cmp	r3, #0
1000096a:	d0b9      	beq.n	100008e0 <alarm_pool_alarm_callback+0xdc>
1000096c:	0033      	movs	r3, r6
1000096e:	003c      	movs	r4, r7
10000970:	1a5b      	subs	r3, r3, r1
10000972:	4194      	sbcs	r4, r2
10000974:	001a      	movs	r2, r3
10000976:	0023      	movs	r3, r4
10000978:	42a7      	cmp	r7, r4
1000097a:	d819      	bhi.n	100009b0 <alarm_pool_alarm_callback+0x1ac>
1000097c:	429f      	cmp	r7, r3
1000097e:	d01b      	beq.n	100009b8 <alarm_pool_alarm_callback+0x1b4>
10000980:	4659      	mov	r1, fp
10000982:	9104      	str	r1, [sp, #16]
10000984:	2101      	movs	r1, #1
10000986:	9103      	str	r1, [sp, #12]
10000988:	4649      	mov	r1, r9
1000098a:	9102      	str	r1, [sp, #8]
1000098c:	4641      	mov	r1, r8
1000098e:	9101      	str	r1, [sp, #4]
10000990:	4651      	mov	r1, sl
10000992:	9807      	ldr	r0, [sp, #28]
10000994:	9100      	str	r1, [sp, #0]
10000996:	f7ff feb5 	bl	10000704 <add_alarm_under_lock.isra.0>
1000099a:	e7b7      	b.n	1000090c <alarm_pool_alarm_callback+0x108>
1000099c:	f000 f8b0 	bl	10000b00 <time_us_64>
100009a0:	9a08      	ldr	r2, [sp, #32]
100009a2:	9b09      	ldr	r3, [sp, #36]	; 0x24
100009a4:	0006      	movs	r6, r0
100009a6:	000f      	movs	r7, r1
100009a8:	1992      	adds	r2, r2, r6
100009aa:	417b      	adcs	r3, r7
100009ac:	4299      	cmp	r1, r3
100009ae:	d9e5      	bls.n	1000097c <alarm_pool_alarm_callback+0x178>
100009b0:	2201      	movs	r2, #1
100009b2:	4252      	negs	r2, r2
100009b4:	17d3      	asrs	r3, r2, #31
100009b6:	e7e3      	b.n	10000980 <alarm_pool_alarm_callback+0x17c>
100009b8:	4296      	cmp	r6, r2
100009ba:	d9e1      	bls.n	10000980 <alarm_pool_alarm_callback+0x17c>
100009bc:	2201      	movs	r2, #1
100009be:	4252      	negs	r2, r2
100009c0:	17d3      	asrs	r3, r2, #31
100009c2:	e7dd      	b.n	10000980 <alarm_pool_alarm_callback+0x17c>
100009c4:	200005d0 	.word	0x200005d0
100009c8:	0fffffff 	.word	0x0fffffff

100009cc <alarm_pool_init_default>:
100009cc:	b510      	push	{r4, lr}
100009ce:	4c12      	ldr	r4, [pc, #72]	; (10000a18 <alarm_pool_init_default+0x4c>)
100009d0:	6863      	ldr	r3, [r4, #4]
100009d2:	2b00      	cmp	r3, #0
100009d4:	d004      	beq.n	100009e0 <alarm_pool_init_default+0x14>
100009d6:	210a      	movs	r1, #10
100009d8:	4810      	ldr	r0, [pc, #64]	; (10000a1c <alarm_pool_init_default+0x50>)
100009da:	f7ff fe71 	bl	100006c0 <lock_init>
100009de:	bd10      	pop	{r4, pc}
100009e0:	0023      	movs	r3, r4
100009e2:	4a0f      	ldr	r2, [pc, #60]	; (10000a20 <alarm_pool_init_default+0x54>)
100009e4:	2110      	movs	r1, #16
100009e6:	6820      	ldr	r0, [r4, #0]
100009e8:	f000 f99c 	bl	10000d24 <ph_post_alloc_init>
100009ec:	2003      	movs	r0, #3
100009ee:	f000 f87b 	bl	10000ae8 <hardware_alarm_claim>
100009f2:	2003      	movs	r0, #3
100009f4:	f000 f944 	bl	10000c80 <hardware_alarm_cancel>
100009f8:	2003      	movs	r0, #3
100009fa:	490a      	ldr	r1, [pc, #40]	; (10000a24 <alarm_pool_init_default+0x58>)
100009fc:	f000 f88a 	bl	10000b14 <hardware_alarm_set_callback>
10000a00:	f7ff fcc8 	bl	10000394 <next_striped_spin_lock_num>
10000a04:	4b08      	ldr	r3, [pc, #32]	; (10000a28 <alarm_pool_init_default+0x5c>)
10000a06:	469c      	mov	ip, r3
10000a08:	2303      	movs	r3, #3
10000a0a:	4460      	add	r0, ip
10000a0c:	7523      	strb	r3, [r4, #20]
10000a0e:	4b07      	ldr	r3, [pc, #28]	; (10000a2c <alarm_pool_init_default+0x60>)
10000a10:	0080      	lsls	r0, r0, #2
10000a12:	6060      	str	r0, [r4, #4]
10000a14:	60dc      	str	r4, [r3, #12]
10000a16:	e7de      	b.n	100009d6 <alarm_pool_init_default+0xa>
10000a18:	200001c4 	.word	0x200001c4
10000a1c:	200005e4 	.word	0x200005e4
10000a20:	100006d1 	.word	0x100006d1
10000a24:	10000805 	.word	0x10000805
10000a28:	34000040 	.word	0x34000040
10000a2c:	200005d0 	.word	0x200005d0

10000a30 <hardware_alarm_irq_handler>:
10000a30:	b5f0      	push	{r4, r5, r6, r7, lr}
10000a32:	46d6      	mov	lr, sl
10000a34:	464f      	mov	r7, r9
10000a36:	4646      	mov	r6, r8
10000a38:	b5c0      	push	{r6, r7, lr}
10000a3a:	f3ef 8305 	mrs	r3, IPSR
10000a3e:	223f      	movs	r2, #63	; 0x3f
10000a40:	4013      	ands	r3, r2
10000a42:	0018      	movs	r0, r3
10000a44:	3810      	subs	r0, #16
10000a46:	f3ef 8c10 	mrs	ip, PRIMASK
10000a4a:	b672      	cpsid	i
10000a4c:	4d20      	ldr	r5, [pc, #128]	; (10000ad0 <hardware_alarm_irq_handler+0xa0>)
10000a4e:	682a      	ldr	r2, [r5, #0]
10000a50:	2a00      	cmp	r2, #0
10000a52:	d0fc      	beq.n	10000a4e <hardware_alarm_irq_handler+0x1e>
10000a54:	f3bf 8f5f 	dmb	sy
10000a58:	2201      	movs	r2, #1
10000a5a:	0011      	movs	r1, r2
10000a5c:	4081      	lsls	r1, r0
10000a5e:	4c1d      	ldr	r4, [pc, #116]	; (10000ad4 <hardware_alarm_irq_handler+0xa4>)
10000a60:	4688      	mov	r8, r1
10000a62:	6361      	str	r1, [r4, #52]	; 0x34
10000a64:	491c      	ldr	r1, [pc, #112]	; (10000ad8 <hardware_alarm_irq_handler+0xa8>)
10000a66:	0017      	movs	r7, r2
10000a68:	780e      	ldrb	r6, [r1, #0]
10000a6a:	468a      	mov	sl, r1
10000a6c:	0031      	movs	r1, r6
10000a6e:	40c1      	lsrs	r1, r0
10000a70:	400f      	ands	r7, r1
10000a72:	420a      	tst	r2, r1
10000a74:	d109      	bne.n	10000a8a <hardware_alarm_irq_handler+0x5a>
10000a76:	f3bf 8f5f 	dmb	sy
10000a7a:	602f      	str	r7, [r5, #0]
10000a7c:	f38c 8810 	msr	PRIMASK, ip
10000a80:	bce0      	pop	{r5, r6, r7}
10000a82:	46ba      	mov	sl, r7
10000a84:	46b1      	mov	r9, r6
10000a86:	46a8      	mov	r8, r5
10000a88:	bdf0      	pop	{r4, r5, r6, r7, pc}
10000a8a:	4914      	ldr	r1, [pc, #80]	; (10000adc <hardware_alarm_irq_handler+0xac>)
10000a8c:	0082      	lsls	r2, r0, #2
10000a8e:	6a64      	ldr	r4, [r4, #36]	; 0x24
10000a90:	5851      	ldr	r1, [r2, r1]
10000a92:	428c      	cmp	r4, r1
10000a94:	d30f      	bcc.n	10000ab6 <hardware_alarm_irq_handler+0x86>
10000a96:	4b12      	ldr	r3, [pc, #72]	; (10000ae0 <hardware_alarm_irq_handler+0xb0>)
10000a98:	58d2      	ldr	r2, [r2, r3]
10000a9a:	4643      	mov	r3, r8
10000a9c:	439e      	bics	r6, r3
10000a9e:	4653      	mov	r3, sl
10000aa0:	701e      	strb	r6, [r3, #0]
10000aa2:	f3bf 8f5f 	dmb	sy
10000aa6:	2300      	movs	r3, #0
10000aa8:	602b      	str	r3, [r5, #0]
10000aaa:	f38c 8810 	msr	PRIMASK, ip
10000aae:	2a00      	cmp	r2, #0
10000ab0:	d0e6      	beq.n	10000a80 <hardware_alarm_irq_handler+0x50>
10000ab2:	4790      	blx	r2
10000ab4:	e7e4      	b.n	10000a80 <hardware_alarm_irq_handler+0x50>
10000ab6:	4a0b      	ldr	r2, [pc, #44]	; (10000ae4 <hardware_alarm_irq_handler+0xb4>)
10000ab8:	009b      	lsls	r3, r3, #2
10000aba:	4690      	mov	r8, r2
10000abc:	4443      	add	r3, r8
10000abe:	681a      	ldr	r2, [r3, #0]
10000ac0:	601a      	str	r2, [r3, #0]
10000ac2:	f3bf 8f5f 	dmb	sy
10000ac6:	2300      	movs	r3, #0
10000ac8:	602b      	str	r3, [r5, #0]
10000aca:	f38c 8810 	msr	PRIMASK, ip
10000ace:	e7d7      	b.n	10000a80 <hardware_alarm_irq_handler+0x50>
10000ad0:	d0000128 	.word	0xd0000128
10000ad4:	40054000 	.word	0x40054000
10000ad8:	200005fa 	.word	0x200005fa
10000adc:	200005e8 	.word	0x200005e8
10000ae0:	2000054c 	.word	0x2000054c
10000ae4:	40053fd0 	.word	0x40053fd0

10000ae8 <hardware_alarm_claim>:
10000ae8:	b510      	push	{r4, lr}
10000aea:	0001      	movs	r1, r0
10000aec:	4a02      	ldr	r2, [pc, #8]	; (10000af8 <hardware_alarm_claim+0x10>)
10000aee:	4803      	ldr	r0, [pc, #12]	; (10000afc <hardware_alarm_claim+0x14>)
10000af0:	f7ff fc18 	bl	10000324 <hw_claim_or_assert>
10000af4:	bd10      	pop	{r4, pc}
10000af6:	46c0      	nop			; (mov r8, r8)
10000af8:	10001b18 	.word	0x10001b18
10000afc:	200005f8 	.word	0x200005f8

10000b00 <time_us_64>:
10000b00:	4b03      	ldr	r3, [pc, #12]	; (10000b10 <time_us_64+0x10>)
10000b02:	6a59      	ldr	r1, [r3, #36]	; 0x24
10000b04:	000a      	movs	r2, r1
10000b06:	6a98      	ldr	r0, [r3, #40]	; 0x28
10000b08:	6a59      	ldr	r1, [r3, #36]	; 0x24
10000b0a:	428a      	cmp	r2, r1
10000b0c:	d1fa      	bne.n	10000b04 <time_us_64+0x4>
10000b0e:	4770      	bx	lr
10000b10:	40054000 	.word	0x40054000

10000b14 <hardware_alarm_set_callback>:
10000b14:	b570      	push	{r4, r5, r6, lr}
10000b16:	0004      	movs	r4, r0
10000b18:	000d      	movs	r5, r1
10000b1a:	f3ef 8610 	mrs	r6, PRIMASK
10000b1e:	b672      	cpsid	i
10000b20:	4a1a      	ldr	r2, [pc, #104]	; (10000b8c <hardware_alarm_set_callback+0x78>)
10000b22:	6813      	ldr	r3, [r2, #0]
10000b24:	2b00      	cmp	r3, #0
10000b26:	d0fc      	beq.n	10000b22 <hardware_alarm_set_callback+0xe>
10000b28:	f3bf 8f5f 	dmb	sy
10000b2c:	2d00      	cmp	r5, #0
10000b2e:	d01b      	beq.n	10000b68 <hardware_alarm_set_callback+0x54>
10000b30:	0020      	movs	r0, r4
10000b32:	f7ff fc4d 	bl	100003d0 <irq_get_vtable_handler>
10000b36:	4916      	ldr	r1, [pc, #88]	; (10000b90 <hardware_alarm_set_callback+0x7c>)
10000b38:	4281      	cmp	r1, r0
10000b3a:	d00a      	beq.n	10000b52 <hardware_alarm_set_callback+0x3e>
10000b3c:	0020      	movs	r0, r4
10000b3e:	f7ff fc4f 	bl	100003e0 <irq_set_exclusive_handler>
10000b42:	2101      	movs	r1, #1
10000b44:	0020      	movs	r0, r4
10000b46:	f7ff fc31 	bl	100003ac <irq_set_enabled>
10000b4a:	2301      	movs	r3, #1
10000b4c:	40a3      	lsls	r3, r4
10000b4e:	4a11      	ldr	r2, [pc, #68]	; (10000b94 <hardware_alarm_set_callback+0x80>)
10000b50:	6013      	str	r3, [r2, #0]
10000b52:	4b11      	ldr	r3, [pc, #68]	; (10000b98 <hardware_alarm_set_callback+0x84>)
10000b54:	00a4      	lsls	r4, r4, #2
10000b56:	50e5      	str	r5, [r4, r3]
10000b58:	f3bf 8f5f 	dmb	sy
10000b5c:	2200      	movs	r2, #0
10000b5e:	4b0b      	ldr	r3, [pc, #44]	; (10000b8c <hardware_alarm_set_callback+0x78>)
10000b60:	601a      	str	r2, [r3, #0]
10000b62:	f386 8810 	msr	PRIMASK, r6
10000b66:	bd70      	pop	{r4, r5, r6, pc}
10000b68:	4b0b      	ldr	r3, [pc, #44]	; (10000b98 <hardware_alarm_set_callback+0x84>)
10000b6a:	00a2      	lsls	r2, r4, #2
10000b6c:	50d5      	str	r5, [r2, r3]
10000b6e:	2201      	movs	r2, #1
10000b70:	40a2      	lsls	r2, r4
10000b72:	490a      	ldr	r1, [pc, #40]	; (10000b9c <hardware_alarm_set_callback+0x88>)
10000b74:	0020      	movs	r0, r4
10000b76:	780b      	ldrb	r3, [r1, #0]
10000b78:	4393      	bics	r3, r2
10000b7a:	700b      	strb	r3, [r1, #0]
10000b7c:	4904      	ldr	r1, [pc, #16]	; (10000b90 <hardware_alarm_set_callback+0x7c>)
10000b7e:	f7ff fc59 	bl	10000434 <irq_remove_handler>
10000b82:	2100      	movs	r1, #0
10000b84:	0020      	movs	r0, r4
10000b86:	f7ff fc11 	bl	100003ac <irq_set_enabled>
10000b8a:	e7e5      	b.n	10000b58 <hardware_alarm_set_callback+0x44>
10000b8c:	d0000128 	.word	0xd0000128
10000b90:	10000a31 	.word	0x10000a31
10000b94:	40056038 	.word	0x40056038
10000b98:	2000054c 	.word	0x2000054c
10000b9c:	200005fa 	.word	0x200005fa

10000ba0 <hardware_alarm_set_target>:
10000ba0:	b5f0      	push	{r4, r5, r6, r7, lr}
10000ba2:	464f      	mov	r7, r9
10000ba4:	46d6      	mov	lr, sl
10000ba6:	4646      	mov	r6, r8
10000ba8:	b5c0      	push	{r6, r7, lr}
10000baa:	0007      	movs	r7, r0
10000bac:	4c2f      	ldr	r4, [pc, #188]	; (10000c6c <hardware_alarm_set_target+0xcc>)
10000bae:	6a61      	ldr	r1, [r4, #36]	; 0x24
10000bb0:	000d      	movs	r5, r1
10000bb2:	6aa6      	ldr	r6, [r4, #40]	; 0x28
10000bb4:	6a61      	ldr	r1, [r4, #36]	; 0x24
10000bb6:	42a9      	cmp	r1, r5
10000bb8:	d1fa      	bne.n	10000bb0 <hardware_alarm_set_target+0x10>
10000bba:	428b      	cmp	r3, r1
10000bbc:	d808      	bhi.n	10000bd0 <hardware_alarm_set_target+0x30>
10000bbe:	d005      	beq.n	10000bcc <hardware_alarm_set_target+0x2c>
10000bc0:	2001      	movs	r0, #1
10000bc2:	bce0      	pop	{r5, r6, r7}
10000bc4:	46ba      	mov	sl, r7
10000bc6:	46b1      	mov	r9, r6
10000bc8:	46a8      	mov	r8, r5
10000bca:	bdf0      	pop	{r4, r5, r6, r7, pc}
10000bcc:	42b2      	cmp	r2, r6
10000bce:	d9f7      	bls.n	10000bc0 <hardware_alarm_set_target+0x20>
10000bd0:	f3ef 8a10 	mrs	sl, PRIMASK
10000bd4:	b672      	cpsid	i
10000bd6:	4826      	ldr	r0, [pc, #152]	; (10000c70 <hardware_alarm_set_target+0xd0>)
10000bd8:	6801      	ldr	r1, [r0, #0]
10000bda:	2900      	cmp	r1, #0
10000bdc:	d0fc      	beq.n	10000bd8 <hardware_alarm_set_target+0x38>
10000bde:	f3bf 8f5f 	dmb	sy
10000be2:	2501      	movs	r5, #1
10000be4:	40bd      	lsls	r5, r7
10000be6:	4923      	ldr	r1, [pc, #140]	; (10000c74 <hardware_alarm_set_target+0xd4>)
10000be8:	4c20      	ldr	r4, [pc, #128]	; (10000c6c <hardware_alarm_set_target+0xcc>)
10000bea:	4688      	mov	r8, r1
10000bec:	7809      	ldrb	r1, [r1, #0]
10000bee:	4689      	mov	r9, r1
10000bf0:	4329      	orrs	r1, r5
10000bf2:	b2c9      	uxtb	r1, r1
10000bf4:	468c      	mov	ip, r1
10000bf6:	4641      	mov	r1, r8
10000bf8:	4660      	mov	r0, ip
10000bfa:	7008      	strb	r0, [r1, #0]
10000bfc:	1d39      	adds	r1, r7, #4
10000bfe:	481e      	ldr	r0, [pc, #120]	; (10000c78 <hardware_alarm_set_target+0xd8>)
10000c00:	0089      	lsls	r1, r1, #2
10000c02:	6365      	str	r5, [r4, #52]	; 0x34
10000c04:	510a      	str	r2, [r1, r4]
10000c06:	00b9      	lsls	r1, r7, #2
10000c08:	500b      	str	r3, [r1, r0]
10000c0a:	6a21      	ldr	r1, [r4, #32]
10000c0c:	2000      	movs	r0, #0
10000c0e:	4229      	tst	r1, r5
10000c10:	d019      	beq.n	10000c46 <hardware_alarm_set_target+0xa6>
10000c12:	6a61      	ldr	r1, [r4, #36]	; 0x24
10000c14:	0008      	movs	r0, r1
10000c16:	6aa6      	ldr	r6, [r4, #40]	; 0x28
10000c18:	6a61      	ldr	r1, [r4, #36]	; 0x24
10000c1a:	4281      	cmp	r1, r0
10000c1c:	d1fa      	bne.n	10000c14 <hardware_alarm_set_target+0x74>
10000c1e:	428b      	cmp	r3, r1
10000c20:	d819      	bhi.n	10000c56 <hardware_alarm_set_target+0xb6>
10000c22:	d101      	bne.n	10000c28 <hardware_alarm_set_target+0x88>
10000c24:	42b2      	cmp	r2, r6
10000c26:	d816      	bhi.n	10000c56 <hardware_alarm_set_target+0xb6>
10000c28:	45cc      	cmp	ip, r9
10000c2a:	d01d      	beq.n	10000c68 <hardware_alarm_set_target+0xc8>
10000c2c:	4b0f      	ldr	r3, [pc, #60]	; (10000c6c <hardware_alarm_set_target+0xcc>)
10000c2e:	201f      	movs	r0, #31
10000c30:	621d      	str	r5, [r3, #32]
10000c32:	635d      	str	r5, [r3, #52]	; 0x34
10000c34:	2301      	movs	r3, #1
10000c36:	4007      	ands	r7, r0
10000c38:	40bb      	lsls	r3, r7
10000c3a:	4a10      	ldr	r2, [pc, #64]	; (10000c7c <hardware_alarm_set_target+0xdc>)
10000c3c:	381e      	subs	r0, #30
10000c3e:	6013      	str	r3, [r2, #0]
10000c40:	4643      	mov	r3, r8
10000c42:	464a      	mov	r2, r9
10000c44:	701a      	strb	r2, [r3, #0]
10000c46:	f3bf 8f5f 	dmb	sy
10000c4a:	2200      	movs	r2, #0
10000c4c:	4b08      	ldr	r3, [pc, #32]	; (10000c70 <hardware_alarm_set_target+0xd0>)
10000c4e:	601a      	str	r2, [r3, #0]
10000c50:	f38a 8810 	msr	PRIMASK, sl
10000c54:	e7b5      	b.n	10000bc2 <hardware_alarm_set_target+0x22>
10000c56:	2000      	movs	r0, #0
10000c58:	f3bf 8f5f 	dmb	sy
10000c5c:	2200      	movs	r2, #0
10000c5e:	4b04      	ldr	r3, [pc, #16]	; (10000c70 <hardware_alarm_set_target+0xd0>)
10000c60:	601a      	str	r2, [r3, #0]
10000c62:	f38a 8810 	msr	PRIMASK, sl
10000c66:	e7ac      	b.n	10000bc2 <hardware_alarm_set_target+0x22>
10000c68:	2001      	movs	r0, #1
10000c6a:	e7ec      	b.n	10000c46 <hardware_alarm_set_target+0xa6>
10000c6c:	40054000 	.word	0x40054000
10000c70:	d0000128 	.word	0xd0000128
10000c74:	200005fa 	.word	0x200005fa
10000c78:	200005e8 	.word	0x200005e8
10000c7c:	e000e280 	.word	0xe000e280

10000c80 <hardware_alarm_cancel>:
10000c80:	f3ef 8c10 	mrs	ip, PRIMASK
10000c84:	b672      	cpsid	i
10000c86:	490a      	ldr	r1, [pc, #40]	; (10000cb0 <hardware_alarm_cancel+0x30>)
10000c88:	680b      	ldr	r3, [r1, #0]
10000c8a:	2b00      	cmp	r3, #0
10000c8c:	d0fc      	beq.n	10000c88 <hardware_alarm_cancel+0x8>
10000c8e:	f3bf 8f5f 	dmb	sy
10000c92:	2301      	movs	r3, #1
10000c94:	4083      	lsls	r3, r0
10000c96:	4a07      	ldr	r2, [pc, #28]	; (10000cb4 <hardware_alarm_cancel+0x34>)
10000c98:	4807      	ldr	r0, [pc, #28]	; (10000cb8 <hardware_alarm_cancel+0x38>)
10000c9a:	6213      	str	r3, [r2, #32]
10000c9c:	7802      	ldrb	r2, [r0, #0]
10000c9e:	439a      	bics	r2, r3
10000ca0:	7002      	strb	r2, [r0, #0]
10000ca2:	f3bf 8f5f 	dmb	sy
10000ca6:	2300      	movs	r3, #0
10000ca8:	600b      	str	r3, [r1, #0]
10000caa:	f38c 8810 	msr	PRIMASK, ip
10000cae:	4770      	bx	lr
10000cb0:	d0000128 	.word	0xd0000128
10000cb4:	40054000 	.word	0x40054000
10000cb8:	200005fa 	.word	0x200005fa

10000cbc <ph_merge_nodes>:
10000cbc:	b570      	push	{r4, r5, r6, lr}
10000cbe:	0005      	movs	r5, r0
10000cc0:	0014      	movs	r4, r2
10000cc2:	0016      	movs	r6, r2
10000cc4:	2900      	cmp	r1, #0
10000cc6:	d015      	beq.n	10000cf4 <ph_merge_nodes+0x38>
10000cc8:	000c      	movs	r4, r1
10000cca:	2a00      	cmp	r2, #0
10000ccc:	d012      	beq.n	10000cf4 <ph_merge_nodes+0x38>
10000cce:	6880      	ldr	r0, [r0, #8]
10000cd0:	686b      	ldr	r3, [r5, #4]
10000cd2:	4798      	blx	r3
10000cd4:	6829      	ldr	r1, [r5, #0]
10000cd6:	2800      	cmp	r0, #0
10000cd8:	d00e      	beq.n	10000cf8 <ph_merge_nodes+0x3c>
10000cda:	0073      	lsls	r3, r6, #1
10000cdc:	199b      	adds	r3, r3, r6
10000cde:	0062      	lsls	r2, r4, #1
10000ce0:	3b03      	subs	r3, #3
10000ce2:	1912      	adds	r2, r2, r4
10000ce4:	18cb      	adds	r3, r1, r3
10000ce6:	3a03      	subs	r2, #3
10000ce8:	709c      	strb	r4, [r3, #2]
10000cea:	1888      	adds	r0, r1, r2
10000cec:	5c8a      	ldrb	r2, [r1, r2]
10000cee:	2a00      	cmp	r2, #0
10000cf0:	d115      	bne.n	10000d1e <ph_merge_nodes+0x62>
10000cf2:	7006      	strb	r6, [r0, #0]
10000cf4:	0020      	movs	r0, r4
10000cf6:	bd70      	pop	{r4, r5, r6, pc}
10000cf8:	0063      	lsls	r3, r4, #1
10000cfa:	191b      	adds	r3, r3, r4
10000cfc:	0072      	lsls	r2, r6, #1
10000cfe:	3b03      	subs	r3, #3
10000d00:	1992      	adds	r2, r2, r6
10000d02:	18cb      	adds	r3, r1, r3
10000d04:	3a03      	subs	r2, #3
10000d06:	709e      	strb	r6, [r3, #2]
10000d08:	1888      	adds	r0, r1, r2
10000d0a:	5c8a      	ldrb	r2, [r1, r2]
10000d0c:	2a00      	cmp	r2, #0
10000d0e:	d102      	bne.n	10000d16 <ph_merge_nodes+0x5a>
10000d10:	7004      	strb	r4, [r0, #0]
10000d12:	0034      	movs	r4, r6
10000d14:	e7ee      	b.n	10000cf4 <ph_merge_nodes+0x38>
10000d16:	705a      	strb	r2, [r3, #1]
10000d18:	7004      	strb	r4, [r0, #0]
10000d1a:	0034      	movs	r4, r6
10000d1c:	e7ea      	b.n	10000cf4 <ph_merge_nodes+0x38>
10000d1e:	705a      	strb	r2, [r3, #1]
10000d20:	7006      	strb	r6, [r0, #0]
10000d22:	e7e7      	b.n	10000cf4 <ph_merge_nodes+0x38>

10000d24 <ph_post_alloc_init>:
10000d24:	b530      	push	{r4, r5, lr}
10000d26:	6083      	str	r3, [r0, #8]
10000d28:	2300      	movs	r3, #0
10000d2a:	b2cc      	uxtb	r4, r1
10000d2c:	7343      	strb	r3, [r0, #13]
10000d2e:	3301      	adds	r3, #1
10000d30:	7304      	strb	r4, [r0, #12]
10000d32:	6042      	str	r2, [r0, #4]
10000d34:	7383      	strb	r3, [r0, #14]
10000d36:	73c4      	strb	r4, [r0, #15]
10000d38:	000d      	movs	r5, r1
10000d3a:	6800      	ldr	r0, [r0, #0]
10000d3c:	2c01      	cmp	r4, #1
10000d3e:	d906      	bls.n	10000d4e <ph_post_alloc_init+0x2a>
10000d40:	1c42      	adds	r2, r0, #1
10000d42:	3301      	adds	r3, #1
10000d44:	b2db      	uxtb	r3, r3
10000d46:	7013      	strb	r3, [r2, #0]
10000d48:	3203      	adds	r2, #3
10000d4a:	429c      	cmp	r4, r3
10000d4c:	d1f9      	bne.n	10000d42 <ph_post_alloc_init+0x1e>
10000d4e:	21ff      	movs	r1, #255	; 0xff
10000d50:	4029      	ands	r1, r5
10000d52:	004b      	lsls	r3, r1, #1
10000d54:	1859      	adds	r1, r3, r1
10000d56:	2300      	movs	r3, #0
10000d58:	1840      	adds	r0, r0, r1
10000d5a:	3803      	subs	r0, #3
10000d5c:	7043      	strb	r3, [r0, #1]
10000d5e:	bd30      	pop	{r4, r5, pc}

10000d60 <ph_merge_two_pass>:
10000d60:	b5f8      	push	{r3, r4, r5, r6, r7, lr}
10000d62:	46ce      	mov	lr, r9
10000d64:	4647      	mov	r7, r8
10000d66:	0006      	movs	r6, r0
10000d68:	000c      	movs	r4, r1
10000d6a:	b580      	push	{r7, lr}
10000d6c:	2900      	cmp	r1, #0
10000d6e:	d007      	beq.n	10000d80 <ph_merge_two_pass+0x20>
10000d70:	004d      	lsls	r5, r1, #1
10000d72:	6803      	ldr	r3, [r0, #0]
10000d74:	186d      	adds	r5, r5, r1
10000d76:	3d03      	subs	r5, #3
10000d78:	195a      	adds	r2, r3, r5
10000d7a:	7857      	ldrb	r7, [r2, #1]
10000d7c:	2f00      	cmp	r7, #0
10000d7e:	d104      	bne.n	10000d8a <ph_merge_two_pass+0x2a>
10000d80:	0020      	movs	r0, r4
10000d82:	bcc0      	pop	{r6, r7}
10000d84:	46b9      	mov	r9, r7
10000d86:	46b0      	mov	r8, r6
10000d88:	bdf8      	pop	{r3, r4, r5, r6, r7, pc}
10000d8a:	0079      	lsls	r1, r7, #1
10000d8c:	19c9      	adds	r1, r1, r7
10000d8e:	3903      	subs	r1, #3
10000d90:	4688      	mov	r8, r1
10000d92:	4443      	add	r3, r8
10000d94:	7859      	ldrb	r1, [r3, #1]
10000d96:	4689      	mov	r9, r1
10000d98:	2100      	movs	r1, #0
10000d9a:	7059      	strb	r1, [r3, #1]
10000d9c:	7051      	strb	r1, [r2, #1]
10000d9e:	6873      	ldr	r3, [r6, #4]
10000da0:	003a      	movs	r2, r7
10000da2:	0021      	movs	r1, r4
10000da4:	6880      	ldr	r0, [r0, #8]
10000da6:	4798      	blx	r3
10000da8:	6833      	ldr	r3, [r6, #0]
10000daa:	2800      	cmp	r0, #0
10000dac:	d014      	beq.n	10000dd8 <ph_merge_two_pass+0x78>
10000dae:	4642      	mov	r2, r8
10000db0:	189a      	adds	r2, r3, r2
10000db2:	7094      	strb	r4, [r2, #2]
10000db4:	1959      	adds	r1, r3, r5
10000db6:	5d5b      	ldrb	r3, [r3, r5]
10000db8:	2b00      	cmp	r3, #0
10000dba:	d000      	beq.n	10000dbe <ph_merge_two_pass+0x5e>
10000dbc:	7053      	strb	r3, [r2, #1]
10000dbe:	700f      	strb	r7, [r1, #0]
10000dc0:	0027      	movs	r7, r4
10000dc2:	4649      	mov	r1, r9
10000dc4:	0030      	movs	r0, r6
10000dc6:	f7ff ffcb 	bl	10000d60 <ph_merge_two_pass>
10000dca:	0039      	movs	r1, r7
10000dcc:	0002      	movs	r2, r0
10000dce:	0030      	movs	r0, r6
10000dd0:	f7ff ff74 	bl	10000cbc <ph_merge_nodes>
10000dd4:	0004      	movs	r4, r0
10000dd6:	e7d3      	b.n	10000d80 <ph_merge_two_pass+0x20>
10000dd8:	4642      	mov	r2, r8
10000dda:	4641      	mov	r1, r8
10000ddc:	195d      	adds	r5, r3, r5
10000dde:	70af      	strb	r7, [r5, #2]
10000de0:	189a      	adds	r2, r3, r2
10000de2:	5c5b      	ldrb	r3, [r3, r1]
10000de4:	2b00      	cmp	r3, #0
10000de6:	d000      	beq.n	10000dea <ph_merge_two_pass+0x8a>
10000de8:	706b      	strb	r3, [r5, #1]
10000dea:	7014      	strb	r4, [r2, #0]
10000dec:	e7e9      	b.n	10000dc2 <ph_merge_two_pass+0x62>
10000dee:	46c0      	nop			; (mov r8, r8)

10000df0 <ph_remove_any_head>:
10000df0:	b5f0      	push	{r4, r5, r6, r7, lr}
10000df2:	4657      	mov	r7, sl
10000df4:	4645      	mov	r5, r8
10000df6:	46de      	mov	lr, fp
10000df8:	464e      	mov	r6, r9
10000dfa:	b5e0      	push	{r5, r6, r7, lr}
10000dfc:	000d      	movs	r5, r1
10000dfe:	006b      	lsls	r3, r5, #1
10000e00:	6801      	ldr	r1, [r0, #0]
10000e02:	195b      	adds	r3, r3, r5
10000e04:	1edf      	subs	r7, r3, #3
10000e06:	0004      	movs	r4, r0
10000e08:	5dc8      	ldrb	r0, [r1, r7]
10000e0a:	b083      	sub	sp, #12
10000e0c:	9201      	str	r2, [sp, #4]
10000e0e:	19ca      	adds	r2, r1, r7
10000e10:	2800      	cmp	r0, #0
10000e12:	d04c      	beq.n	10000eae <ph_remove_any_head+0xbe>
10000e14:	0043      	lsls	r3, r0, #1
10000e16:	181b      	adds	r3, r3, r0
10000e18:	3b03      	subs	r3, #3
10000e1a:	18cb      	adds	r3, r1, r3
10000e1c:	785e      	ldrb	r6, [r3, #1]
10000e1e:	46b4      	mov	ip, r6
10000e20:	2e00      	cmp	r6, #0
10000e22:	d116      	bne.n	10000e52 <ph_remove_any_head+0x62>
10000e24:	9e01      	ldr	r6, [sp, #4]
10000e26:	2e00      	cmp	r6, #0
10000e28:	d03e      	beq.n	10000ea8 <ph_remove_any_head+0xb8>
10000e2a:	7be6      	ldrb	r6, [r4, #15]
10000e2c:	2e00      	cmp	r6, #0
10000e2e:	d004      	beq.n	10000e3a <ph_remove_any_head+0x4a>
10000e30:	0073      	lsls	r3, r6, #1
10000e32:	199b      	adds	r3, r3, r6
10000e34:	18cb      	adds	r3, r1, r3
10000e36:	3b03      	subs	r3, #3
10000e38:	705d      	strb	r5, [r3, #1]
10000e3a:	73e5      	strb	r5, [r4, #15]
10000e3c:	2800      	cmp	r0, #0
10000e3e:	d12f      	bne.n	10000ea0 <ph_remove_any_head+0xb0>
10000e40:	2300      	movs	r3, #0
10000e42:	7053      	strb	r3, [r2, #1]
10000e44:	b003      	add	sp, #12
10000e46:	bcf0      	pop	{r4, r5, r6, r7}
10000e48:	46bb      	mov	fp, r7
10000e4a:	46b2      	mov	sl, r6
10000e4c:	46a9      	mov	r9, r5
10000e4e:	46a0      	mov	r8, r4
10000e50:	bdf0      	pop	{r4, r5, r6, r7, pc}
10000e52:	0072      	lsls	r2, r6, #1
10000e54:	4462      	add	r2, ip
10000e56:	3a03      	subs	r2, #3
10000e58:	1889      	adds	r1, r1, r2
10000e5a:	784a      	ldrb	r2, [r1, #1]
10000e5c:	4690      	mov	r8, r2
10000e5e:	2200      	movs	r2, #0
10000e60:	704a      	strb	r2, [r1, #1]
10000e62:	4691      	mov	r9, r2
10000e64:	705a      	strb	r2, [r3, #1]
10000e66:	0001      	movs	r1, r0
10000e68:	0032      	movs	r2, r6
10000e6a:	0020      	movs	r0, r4
10000e6c:	f7ff ff26 	bl	10000cbc <ph_merge_nodes>
10000e70:	4643      	mov	r3, r8
10000e72:	4682      	mov	sl, r0
10000e74:	2b00      	cmp	r3, #0
10000e76:	d007      	beq.n	10000e88 <ph_remove_any_head+0x98>
10000e78:	005b      	lsls	r3, r3, #1
10000e7a:	6821      	ldr	r1, [r4, #0]
10000e7c:	4443      	add	r3, r8
10000e7e:	3b03      	subs	r3, #3
10000e80:	18cb      	adds	r3, r1, r3
10000e82:	785a      	ldrb	r2, [r3, #1]
10000e84:	2a00      	cmp	r2, #0
10000e86:	d116      	bne.n	10000eb6 <ph_remove_any_head+0xc6>
10000e88:	4642      	mov	r2, r8
10000e8a:	4651      	mov	r1, sl
10000e8c:	0020      	movs	r0, r4
10000e8e:	f7ff ff15 	bl	10000cbc <ph_merge_nodes>
10000e92:	6821      	ldr	r1, [r4, #0]
10000e94:	9b01      	ldr	r3, [sp, #4]
10000e96:	19ca      	adds	r2, r1, r7
10000e98:	2b00      	cmp	r3, #0
10000e9a:	d1c6      	bne.n	10000e2a <ph_remove_any_head+0x3a>
10000e9c:	2800      	cmp	r0, #0
10000e9e:	d0cf      	beq.n	10000e40 <ph_remove_any_head+0x50>
10000ea0:	0043      	lsls	r3, r0, #1
10000ea2:	181b      	adds	r3, r3, r0
10000ea4:	3b03      	subs	r3, #3
10000ea6:	18cb      	adds	r3, r1, r3
10000ea8:	2100      	movs	r1, #0
10000eaa:	7099      	strb	r1, [r3, #2]
10000eac:	e7c8      	b.n	10000e40 <ph_remove_any_head+0x50>
10000eae:	9b01      	ldr	r3, [sp, #4]
10000eb0:	2b00      	cmp	r3, #0
10000eb2:	d1ba      	bne.n	10000e2a <ph_remove_any_head+0x3a>
10000eb4:	e7c4      	b.n	10000e40 <ph_remove_any_head+0x50>
10000eb6:	0050      	lsls	r0, r2, #1
10000eb8:	1880      	adds	r0, r0, r2
10000eba:	3803      	subs	r0, #3
10000ebc:	1809      	adds	r1, r1, r0
10000ebe:	7848      	ldrb	r0, [r1, #1]
10000ec0:	4683      	mov	fp, r0
10000ec2:	4648      	mov	r0, r9
10000ec4:	7048      	strb	r0, [r1, #1]
10000ec6:	7058      	strb	r0, [r3, #1]
10000ec8:	4641      	mov	r1, r8
10000eca:	0020      	movs	r0, r4
10000ecc:	f7ff fef6 	bl	10000cbc <ph_merge_nodes>
10000ed0:	4659      	mov	r1, fp
10000ed2:	4680      	mov	r8, r0
10000ed4:	0020      	movs	r0, r4
10000ed6:	f7ff ff43 	bl	10000d60 <ph_merge_two_pass>
10000eda:	4641      	mov	r1, r8
10000edc:	0002      	movs	r2, r0
10000ede:	0020      	movs	r0, r4
10000ee0:	f7ff feec 	bl	10000cbc <ph_merge_nodes>
10000ee4:	4680      	mov	r8, r0
10000ee6:	e7cf      	b.n	10000e88 <ph_remove_any_head+0x98>

10000ee8 <ph_remove_head>:
10000ee8:	b5f0      	push	{r4, r5, r6, r7, lr}
10000eea:	4657      	mov	r7, sl
10000eec:	4645      	mov	r5, r8
10000eee:	46de      	mov	lr, fp
10000ef0:	464e      	mov	r6, r9
10000ef2:	b5e0      	push	{r5, r6, r7, lr}
10000ef4:	b083      	sub	sp, #12
10000ef6:	9101      	str	r1, [sp, #4]
10000ef8:	7b45      	ldrb	r5, [r0, #13]
10000efa:	0004      	movs	r4, r0
10000efc:	006b      	lsls	r3, r5, #1
10000efe:	6800      	ldr	r0, [r0, #0]
10000f00:	195b      	adds	r3, r3, r5
10000f02:	1edf      	subs	r7, r3, #3
10000f04:	5dc1      	ldrb	r1, [r0, r7]
10000f06:	19c2      	adds	r2, r0, r7
10000f08:	2900      	cmp	r1, #0
10000f0a:	d04e      	beq.n	10000faa <ph_remove_head+0xc2>
10000f0c:	004b      	lsls	r3, r1, #1
10000f0e:	185b      	adds	r3, r3, r1
10000f10:	3b03      	subs	r3, #3
10000f12:	18c3      	adds	r3, r0, r3
10000f14:	785e      	ldrb	r6, [r3, #1]
10000f16:	46b4      	mov	ip, r6
10000f18:	2e00      	cmp	r6, #0
10000f1a:	d118      	bne.n	10000f4e <ph_remove_head+0x66>
10000f1c:	9e01      	ldr	r6, [sp, #4]
10000f1e:	2e00      	cmp	r6, #0
10000f20:	d040      	beq.n	10000fa4 <ph_remove_head+0xbc>
10000f22:	7be6      	ldrb	r6, [r4, #15]
10000f24:	2e00      	cmp	r6, #0
10000f26:	d004      	beq.n	10000f32 <ph_remove_head+0x4a>
10000f28:	0073      	lsls	r3, r6, #1
10000f2a:	199b      	adds	r3, r3, r6
10000f2c:	18c3      	adds	r3, r0, r3
10000f2e:	3b03      	subs	r3, #3
10000f30:	705d      	strb	r5, [r3, #1]
10000f32:	73e5      	strb	r5, [r4, #15]
10000f34:	2900      	cmp	r1, #0
10000f36:	d131      	bne.n	10000f9c <ph_remove_head+0xb4>
10000f38:	2300      	movs	r3, #0
10000f3a:	0028      	movs	r0, r5
10000f3c:	7053      	strb	r3, [r2, #1]
10000f3e:	7361      	strb	r1, [r4, #13]
10000f40:	b003      	add	sp, #12
10000f42:	bcf0      	pop	{r4, r5, r6, r7}
10000f44:	46bb      	mov	fp, r7
10000f46:	46b2      	mov	sl, r6
10000f48:	46a9      	mov	r9, r5
10000f4a:	46a0      	mov	r8, r4
10000f4c:	bdf0      	pop	{r4, r5, r6, r7, pc}
10000f4e:	0072      	lsls	r2, r6, #1
10000f50:	4462      	add	r2, ip
10000f52:	3a03      	subs	r2, #3
10000f54:	1880      	adds	r0, r0, r2
10000f56:	7842      	ldrb	r2, [r0, #1]
10000f58:	4690      	mov	r8, r2
10000f5a:	2200      	movs	r2, #0
10000f5c:	7042      	strb	r2, [r0, #1]
10000f5e:	4691      	mov	r9, r2
10000f60:	705a      	strb	r2, [r3, #1]
10000f62:	0020      	movs	r0, r4
10000f64:	0032      	movs	r2, r6
10000f66:	f7ff fea9 	bl	10000cbc <ph_merge_nodes>
10000f6a:	4643      	mov	r3, r8
10000f6c:	4682      	mov	sl, r0
10000f6e:	2b00      	cmp	r3, #0
10000f70:	d007      	beq.n	10000f82 <ph_remove_head+0x9a>
10000f72:	005b      	lsls	r3, r3, #1
10000f74:	6821      	ldr	r1, [r4, #0]
10000f76:	4443      	add	r3, r8
10000f78:	3b03      	subs	r3, #3
10000f7a:	18cb      	adds	r3, r1, r3
10000f7c:	785a      	ldrb	r2, [r3, #1]
10000f7e:	2a00      	cmp	r2, #0
10000f80:	d117      	bne.n	10000fb2 <ph_remove_head+0xca>
10000f82:	4642      	mov	r2, r8
10000f84:	4651      	mov	r1, sl
10000f86:	0020      	movs	r0, r4
10000f88:	f7ff fe98 	bl	10000cbc <ph_merge_nodes>
10000f8c:	9b01      	ldr	r3, [sp, #4]
10000f8e:	0001      	movs	r1, r0
10000f90:	6820      	ldr	r0, [r4, #0]
10000f92:	19c2      	adds	r2, r0, r7
10000f94:	2b00      	cmp	r3, #0
10000f96:	d1c4      	bne.n	10000f22 <ph_remove_head+0x3a>
10000f98:	2900      	cmp	r1, #0
10000f9a:	d0cd      	beq.n	10000f38 <ph_remove_head+0x50>
10000f9c:	004b      	lsls	r3, r1, #1
10000f9e:	185b      	adds	r3, r3, r1
10000fa0:	3b03      	subs	r3, #3
10000fa2:	18c3      	adds	r3, r0, r3
10000fa4:	2000      	movs	r0, #0
10000fa6:	7098      	strb	r0, [r3, #2]
10000fa8:	e7c6      	b.n	10000f38 <ph_remove_head+0x50>
10000faa:	9b01      	ldr	r3, [sp, #4]
10000fac:	2b00      	cmp	r3, #0
10000fae:	d1b8      	bne.n	10000f22 <ph_remove_head+0x3a>
10000fb0:	e7c2      	b.n	10000f38 <ph_remove_head+0x50>
10000fb2:	0050      	lsls	r0, r2, #1
10000fb4:	1880      	adds	r0, r0, r2
10000fb6:	3803      	subs	r0, #3
10000fb8:	1809      	adds	r1, r1, r0
10000fba:	7848      	ldrb	r0, [r1, #1]
10000fbc:	4683      	mov	fp, r0
10000fbe:	4648      	mov	r0, r9
10000fc0:	7048      	strb	r0, [r1, #1]
10000fc2:	7058      	strb	r0, [r3, #1]
10000fc4:	4641      	mov	r1, r8
10000fc6:	0020      	movs	r0, r4
10000fc8:	f7ff fe78 	bl	10000cbc <ph_merge_nodes>
10000fcc:	4659      	mov	r1, fp
10000fce:	4680      	mov	r8, r0
10000fd0:	0020      	movs	r0, r4
10000fd2:	f7ff fec5 	bl	10000d60 <ph_merge_two_pass>
10000fd6:	4641      	mov	r1, r8
10000fd8:	0002      	movs	r2, r0
10000fda:	0020      	movs	r0, r4
10000fdc:	f7ff fe6e 	bl	10000cbc <ph_merge_nodes>
10000fe0:	4680      	mov	r8, r0
10000fe2:	e7ce      	b.n	10000f82 <ph_remove_head+0x9a>

10000fe4 <ph_remove_and_free_node>:
10000fe4:	b570      	push	{r4, r5, r6, lr}
10000fe6:	0004      	movs	r4, r0
10000fe8:	2900      	cmp	r1, #0
10000fea:	d02c      	beq.n	10001046 <ph_remove_and_free_node+0x62>
10000fec:	7b43      	ldrb	r3, [r0, #13]
10000fee:	428b      	cmp	r3, r1
10000ff0:	d02e      	beq.n	10001050 <ph_remove_and_free_node+0x6c>
10000ff2:	6805      	ldr	r5, [r0, #0]
10000ff4:	0048      	lsls	r0, r1, #1
10000ff6:	1840      	adds	r0, r0, r1
10000ff8:	3803      	subs	r0, #3
10000ffa:	1828      	adds	r0, r5, r0
10000ffc:	7882      	ldrb	r2, [r0, #2]
10000ffe:	2a00      	cmp	r2, #0
10001000:	d021      	beq.n	10001046 <ph_remove_and_free_node+0x62>
10001002:	0053      	lsls	r3, r2, #1
10001004:	189b      	adds	r3, r3, r2
10001006:	3b03      	subs	r3, #3
10001008:	5cea      	ldrb	r2, [r5, r3]
1000100a:	18ee      	adds	r6, r5, r3
1000100c:	428a      	cmp	r2, r1
1000100e:	d102      	bne.n	10001016 <ph_remove_and_free_node+0x32>
10001010:	e01b      	b.n	1000104a <ph_remove_and_free_node+0x66>
10001012:	2a00      	cmp	r2, #0
10001014:	d008      	beq.n	10001028 <ph_remove_and_free_node+0x44>
10001016:	0053      	lsls	r3, r2, #1
10001018:	189b      	adds	r3, r3, r2
1000101a:	3b03      	subs	r3, #3
1000101c:	18eb      	adds	r3, r5, r3
1000101e:	785a      	ldrb	r2, [r3, #1]
10001020:	428a      	cmp	r2, r1
10001022:	d1f6      	bne.n	10001012 <ph_remove_and_free_node+0x2e>
10001024:	7842      	ldrb	r2, [r0, #1]
10001026:	705a      	strb	r2, [r3, #1]
10001028:	2300      	movs	r3, #0
1000102a:	2201      	movs	r2, #1
1000102c:	7083      	strb	r3, [r0, #2]
1000102e:	7043      	strb	r3, [r0, #1]
10001030:	0020      	movs	r0, r4
10001032:	f7ff fedd 	bl	10000df0 <ph_remove_any_head>
10001036:	7b61      	ldrb	r1, [r4, #13]
10001038:	0002      	movs	r2, r0
1000103a:	0020      	movs	r0, r4
1000103c:	f7ff fe3e 	bl	10000cbc <ph_merge_nodes>
10001040:	7360      	strb	r0, [r4, #13]
10001042:	2001      	movs	r0, #1
10001044:	e000      	b.n	10001048 <ph_remove_and_free_node+0x64>
10001046:	2000      	movs	r0, #0
10001048:	bd70      	pop	{r4, r5, r6, pc}
1000104a:	7843      	ldrb	r3, [r0, #1]
1000104c:	7033      	strb	r3, [r6, #0]
1000104e:	e7eb      	b.n	10001028 <ph_remove_and_free_node+0x44>
10001050:	2201      	movs	r2, #1
10001052:	0019      	movs	r1, r3
10001054:	f7ff fecc 	bl	10000df0 <ph_remove_any_head>
10001058:	7360      	strb	r0, [r4, #13]
1000105a:	2001      	movs	r0, #1
1000105c:	e7f4      	b.n	10001048 <ph_remove_and_free_node+0x64>
1000105e:	46c0      	nop			; (mov r8, r8)

10001060 <mutex_init>:
10001060:	b510      	push	{r4, lr}
10001062:	0004      	movs	r4, r0
10001064:	f7ff f996 	bl	10000394 <next_striped_spin_lock_num>
10001068:	0001      	movs	r1, r0
1000106a:	0020      	movs	r0, r4
1000106c:	f7ff fb28 	bl	100006c0 <lock_init>
10001070:	23ff      	movs	r3, #255	; 0xff
10001072:	7123      	strb	r3, [r4, #4]
10001074:	f3bf 8f5f 	dmb	sy
10001078:	bd10      	pop	{r4, pc}
1000107a:	46c0      	nop			; (mov r8, r8)

1000107c <recursive_mutex_init>:
1000107c:	b510      	push	{r4, lr}
1000107e:	0004      	movs	r4, r0
10001080:	f7ff f988 	bl	10000394 <next_striped_spin_lock_num>
10001084:	0001      	movs	r1, r0
10001086:	0020      	movs	r0, r4
10001088:	f7ff fb1a 	bl	100006c0 <lock_init>
1000108c:	23ff      	movs	r3, #255	; 0xff
1000108e:	80a3      	strh	r3, [r4, #4]
10001090:	f3bf 8f5f 	dmb	sy
10001094:	bd10      	pop	{r4, pc}
10001096:	46c0      	nop			; (mov r8, r8)

10001098 <runtime_init>:
10001098:	4b2c      	ldr	r3, [pc, #176]	; (1000114c <runtime_init+0xb4>)
1000109a:	4a2d      	ldr	r2, [pc, #180]	; (10001150 <runtime_init+0xb8>)
1000109c:	b570      	push	{r4, r5, r6, lr}
1000109e:	601a      	str	r2, [r3, #0]
100010a0:	4a2c      	ldr	r2, [pc, #176]	; (10001154 <runtime_init+0xbc>)
100010a2:	4b2d      	ldr	r3, [pc, #180]	; (10001158 <runtime_init+0xc0>)
100010a4:	492d      	ldr	r1, [pc, #180]	; (1000115c <runtime_init+0xc4>)
100010a6:	601a      	str	r2, [r3, #0]
100010a8:	0014      	movs	r4, r2
100010aa:	688b      	ldr	r3, [r1, #8]
100010ac:	439c      	bics	r4, r3
100010ae:	d1fb      	bne.n	100010a8 <runtime_init+0x10>
100010b0:	4d2b      	ldr	r5, [pc, #172]	; (10001160 <runtime_init+0xc8>)
100010b2:	4e2c      	ldr	r6, [pc, #176]	; (10001164 <runtime_init+0xcc>)
100010b4:	42b5      	cmp	r5, r6
100010b6:	d208      	bcs.n	100010ca <runtime_init+0x32>
100010b8:	3e01      	subs	r6, #1
100010ba:	1b76      	subs	r6, r6, r5
100010bc:	08b6      	lsrs	r6, r6, #2
100010be:	cd08      	ldmia	r5!, {r3}
100010c0:	4798      	blx	r3
100010c2:	0023      	movs	r3, r4
100010c4:	3401      	adds	r4, #1
100010c6:	42b3      	cmp	r3, r6
100010c8:	d1f9      	bne.n	100010be <runtime_init+0x26>
100010ca:	f000 f87d 	bl	100011c8 <clocks_init>
100010ce:	4a26      	ldr	r2, [pc, #152]	; (10001168 <runtime_init+0xd0>)
100010d0:	4b21      	ldr	r3, [pc, #132]	; (10001158 <runtime_init+0xc0>)
100010d2:	601a      	str	r2, [r3, #0]
100010d4:	4a21      	ldr	r2, [pc, #132]	; (1000115c <runtime_init+0xc4>)
100010d6:	6893      	ldr	r3, [r2, #8]
100010d8:	43db      	mvns	r3, r3
100010da:	01db      	lsls	r3, r3, #7
100010dc:	09dd      	lsrs	r5, r3, #7
100010de:	2b00      	cmp	r3, #0
100010e0:	d1f9      	bne.n	100010d6 <runtime_init+0x3e>
100010e2:	2240      	movs	r2, #64	; 0x40
100010e4:	4b21      	ldr	r3, [pc, #132]	; (1000116c <runtime_init+0xd4>)
100010e6:	4c22      	ldr	r4, [pc, #136]	; (10001170 <runtime_init+0xd8>)
100010e8:	4e22      	ldr	r6, [pc, #136]	; (10001174 <runtime_init+0xdc>)
100010ea:	679a      	str	r2, [r3, #120]	; 0x78
100010ec:	675a      	str	r2, [r3, #116]	; 0x74
100010ee:	671a      	str	r2, [r3, #112]	; 0x70
100010f0:	66da      	str	r2, [r3, #108]	; 0x6c
100010f2:	42b4      	cmp	r4, r6
100010f4:	d208      	bcs.n	10001108 <runtime_init+0x70>
100010f6:	6823      	ldr	r3, [r4, #0]
100010f8:	0020      	movs	r0, r4
100010fa:	2b00      	cmp	r3, #0
100010fc:	d020      	beq.n	10001140 <runtime_init+0xa8>
100010fe:	3408      	adds	r4, #8
10001100:	f7ff ffbc 	bl	1000107c <recursive_mutex_init>
10001104:	42b4      	cmp	r4, r6
10001106:	d3f6      	bcc.n	100010f6 <runtime_init+0x5e>
10001108:	4e1b      	ldr	r6, [pc, #108]	; (10001178 <runtime_init+0xe0>)
1000110a:	4c1c      	ldr	r4, [pc, #112]	; (1000117c <runtime_init+0xe4>)
1000110c:	22c0      	movs	r2, #192	; 0xc0
1000110e:	68a1      	ldr	r1, [r4, #8]
10001110:	0030      	movs	r0, r6
10001112:	f000 fb5b 	bl	100017cc <__wrap___aeabi_memcpy>
10001116:	60a6      	str	r6, [r4, #8]
10001118:	f7ff f92e 	bl	10000378 <spin_locks_reset>
1000111c:	f7ff fabe 	bl	1000069c <irq_init_priorities>
10001120:	f7ff fc54 	bl	100009cc <alarm_pool_init_default>
10001124:	4c16      	ldr	r4, [pc, #88]	; (10001180 <runtime_init+0xe8>)
10001126:	4e17      	ldr	r6, [pc, #92]	; (10001184 <runtime_init+0xec>)
10001128:	42b4      	cmp	r4, r6
1000112a:	d208      	bcs.n	1000113e <runtime_init+0xa6>
1000112c:	3e01      	subs	r6, #1
1000112e:	1b36      	subs	r6, r6, r4
10001130:	08b6      	lsrs	r6, r6, #2
10001132:	cc08      	ldmia	r4!, {r3}
10001134:	4798      	blx	r3
10001136:	002b      	movs	r3, r5
10001138:	3501      	adds	r5, #1
1000113a:	429e      	cmp	r6, r3
1000113c:	d1f9      	bne.n	10001132 <runtime_init+0x9a>
1000113e:	bd70      	pop	{r4, r5, r6, pc}
10001140:	3408      	adds	r4, #8
10001142:	f7ff ff8d 	bl	10001060 <mutex_init>
10001146:	42b4      	cmp	r4, r6
10001148:	d3d5      	bcc.n	100010f6 <runtime_init+0x5e>
1000114a:	e7dd      	b.n	10001108 <runtime_init+0x70>
1000114c:	4000e000 	.word	0x4000e000
10001150:	fefbcdbf 	.word	0xfefbcdbf
10001154:	003c7ffe 	.word	0x003c7ffe
10001158:	4000f000 	.word	0x4000f000
1000115c:	4000c000 	.word	0x4000c000
10001160:	20000218 	.word	0x20000218
10001164:	20000228 	.word	0x20000228
10001168:	01ffffff 	.word	0x01ffffff
1000116c:	4001f000 	.word	0x4001f000
10001170:	20000210 	.word	0x20000210
10001174:	20000218 	.word	0x20000218
10001178:	20000000 	.word	0x20000000
1000117c:	e000ed00 	.word	0xe000ed00
10001180:	20000228 	.word	0x20000228
10001184:	2000022c 	.word	0x2000022c

10001188 <exit>:
10001188:	be00      	bkpt	0x0000
1000118a:	e7fd      	b.n	10001188 <exit>

1000118c <panic>:
1000118c:	b40f      	push	{r0, r1, r2, r3}
1000118e:	b500      	push	{lr}
10001190:	4808      	ldr	r0, [pc, #32]	; (100011b4 <panic+0x28>)
10001192:	b083      	sub	sp, #12
10001194:	f000 fc50 	bl	10001a38 <__wrap_puts>
10001198:	9b04      	ldr	r3, [sp, #16]
1000119a:	2b00      	cmp	r3, #0
1000119c:	d007      	beq.n	100011ae <panic+0x22>
1000119e:	a905      	add	r1, sp, #20
100011a0:	0018      	movs	r0, r3
100011a2:	9101      	str	r1, [sp, #4]
100011a4:	f000 f9ea 	bl	1000157c <weak_raw_vprintf>
100011a8:	4803      	ldr	r0, [pc, #12]	; (100011b8 <panic+0x2c>)
100011aa:	f000 fc45 	bl	10001a38 <__wrap_puts>
100011ae:	be00      	bkpt	0x0000
100011b0:	e7fd      	b.n	100011ae <panic+0x22>
100011b2:	46c0      	nop			; (mov r8, r8)
100011b4:	10001b3c 	.word	0x10001b3c
100011b8:	10001b4c 	.word	0x10001b4c

100011bc <hard_assertion_failure>:
100011bc:	b510      	push	{r4, lr}
100011be:	4801      	ldr	r0, [pc, #4]	; (100011c4 <hard_assertion_failure+0x8>)
100011c0:	f7ff ffe4 	bl	1000118c <panic>
100011c4:	10001b50 	.word	0x10001b50

100011c8 <clocks_init>:
100011c8:	b530      	push	{r4, r5, lr}
100011ca:	200c      	movs	r0, #12
100011cc:	b083      	sub	sp, #12
100011ce:	f000 f9b1 	bl	10001534 <watchdog_start_tick>
100011d2:	f7ff f8c9 	bl	10000368 <running_on_fpga>
100011d6:	2800      	cmp	r0, #0
100011d8:	d00e      	beq.n	100011f8 <clocks_init+0x30>
100011da:	4b94      	ldr	r3, [pc, #592]	; (1000142c <clocks_init+0x264>)
100011dc:	4a94      	ldr	r2, [pc, #592]	; (10001430 <clocks_init+0x268>)
100011de:	601a      	str	r2, [r3, #0]
100011e0:	605a      	str	r2, [r3, #4]
100011e2:	609a      	str	r2, [r3, #8]
100011e4:	60da      	str	r2, [r3, #12]
100011e6:	611a      	str	r2, [r3, #16]
100011e8:	615a      	str	r2, [r3, #20]
100011ea:	619a      	str	r2, [r3, #24]
100011ec:	61da      	str	r2, [r3, #28]
100011ee:	621a      	str	r2, [r3, #32]
100011f0:	4a90      	ldr	r2, [pc, #576]	; (10001434 <clocks_init+0x26c>)
100011f2:	625a      	str	r2, [r3, #36]	; 0x24
100011f4:	b003      	add	sp, #12
100011f6:	bd30      	pop	{r4, r5, pc}
100011f8:	4c8f      	ldr	r4, [pc, #572]	; (10001438 <clocks_init+0x270>)
100011fa:	67a0      	str	r0, [r4, #120]	; 0x78
100011fc:	f000 f9a2 	bl	10001544 <xosc_init>
10001200:	2201      	movs	r2, #1
10001202:	4b8e      	ldr	r3, [pc, #568]	; (1000143c <clocks_init+0x274>)
10001204:	601a      	str	r2, [r3, #0]
10001206:	6c63      	ldr	r3, [r4, #68]	; 0x44
10001208:	2b01      	cmp	r3, #1
1000120a:	d1fc      	bne.n	10001206 <clocks_init+0x3e>
1000120c:	2203      	movs	r2, #3
1000120e:	4b8c      	ldr	r3, [pc, #560]	; (10001440 <clocks_init+0x278>)
10001210:	601a      	str	r2, [r3, #0]
10001212:	4a89      	ldr	r2, [pc, #548]	; (10001438 <clocks_init+0x270>)
10001214:	6b93      	ldr	r3, [r2, #56]	; 0x38
10001216:	2b01      	cmp	r3, #1
10001218:	d1fc      	bne.n	10001214 <clocks_init+0x4c>
1000121a:	3301      	adds	r3, #1
1000121c:	2101      	movs	r1, #1
1000121e:	4a89      	ldr	r2, [pc, #548]	; (10001444 <clocks_init+0x27c>)
10001220:	4889      	ldr	r0, [pc, #548]	; (10001448 <clocks_init+0x280>)
10001222:	9300      	str	r3, [sp, #0]
10001224:	3304      	adds	r3, #4
10001226:	f000 f92d 	bl	10001484 <pll_init>
1000122a:	2305      	movs	r3, #5
1000122c:	4a87      	ldr	r2, [pc, #540]	; (1000144c <clocks_init+0x284>)
1000122e:	9300      	str	r3, [sp, #0]
10001230:	2101      	movs	r1, #1
10001232:	4887      	ldr	r0, [pc, #540]	; (10001450 <clocks_init+0x288>)
10001234:	f000 f926 	bl	10001484 <pll_init>
10001238:	4b86      	ldr	r3, [pc, #536]	; (10001454 <clocks_init+0x28c>)
1000123a:	685a      	ldr	r2, [r3, #4]
1000123c:	2aff      	cmp	r2, #255	; 0xff
1000123e:	d802      	bhi.n	10001246 <clocks_init+0x7e>
10001240:	2280      	movs	r2, #128	; 0x80
10001242:	0052      	lsls	r2, r2, #1
10001244:	605a      	str	r2, [r3, #4]
10001246:	2280      	movs	r2, #128	; 0x80
10001248:	4c78      	ldr	r4, [pc, #480]	; (1000142c <clocks_init+0x264>)
1000124a:	4b7d      	ldr	r3, [pc, #500]	; (10001440 <clocks_init+0x278>)
1000124c:	6921      	ldr	r1, [r4, #16]
1000124e:	0112      	lsls	r2, r2, #4
10001250:	4d80      	ldr	r5, [pc, #512]	; (10001454 <clocks_init+0x28c>)
10001252:	601a      	str	r2, [r3, #0]
10001254:	2900      	cmp	r1, #0
10001256:	d005      	beq.n	10001264 <clocks_init+0x9c>
10001258:	6960      	ldr	r0, [r4, #20]
1000125a:	f000 f9e1 	bl	10001620 <__wrap___aeabi_uidiv>
1000125e:	3001      	adds	r0, #1
10001260:	3801      	subs	r0, #1
10001262:	d1fd      	bne.n	10001260 <clocks_init+0x98>
10001264:	21e0      	movs	r1, #224	; 0xe0
10001266:	4b7b      	ldr	r3, [pc, #492]	; (10001454 <clocks_init+0x28c>)
10001268:	2002      	movs	r0, #2
1000126a:	681a      	ldr	r2, [r3, #0]
1000126c:	4011      	ands	r1, r2
1000126e:	2280      	movs	r2, #128	; 0x80
10001270:	0152      	lsls	r2, r2, #5
10001272:	432a      	orrs	r2, r5
10001274:	6011      	str	r1, [r2, #0]
10001276:	6819      	ldr	r1, [r3, #0]
10001278:	4048      	eors	r0, r1
1000127a:	2103      	movs	r1, #3
1000127c:	4001      	ands	r1, r0
1000127e:	6011      	str	r1, [r2, #0]
10001280:	2104      	movs	r1, #4
10001282:	689a      	ldr	r2, [r3, #8]
10001284:	4211      	tst	r1, r2
10001286:	d0fc      	beq.n	10001282 <clocks_init+0xba>
10001288:	2280      	movs	r2, #128	; 0x80
1000128a:	2180      	movs	r1, #128	; 0x80
1000128c:	0192      	lsls	r2, r2, #6
1000128e:	432a      	orrs	r2, r5
10001290:	0109      	lsls	r1, r1, #4
10001292:	6011      	str	r1, [r2, #0]
10001294:	2280      	movs	r2, #128	; 0x80
10001296:	0052      	lsls	r2, r2, #1
10001298:	605a      	str	r2, [r3, #4]
1000129a:	4b6f      	ldr	r3, [pc, #444]	; (10001458 <clocks_init+0x290>)
1000129c:	6123      	str	r3, [r4, #16]
1000129e:	4b6f      	ldr	r3, [pc, #444]	; (1000145c <clocks_init+0x294>)
100012a0:	6859      	ldr	r1, [r3, #4]
100012a2:	29ff      	cmp	r1, #255	; 0xff
100012a4:	d800      	bhi.n	100012a8 <clocks_init+0xe0>
100012a6:	605a      	str	r2, [r3, #4]
100012a8:	2103      	movs	r1, #3
100012aa:	4a64      	ldr	r2, [pc, #400]	; (1000143c <clocks_init+0x274>)
100012ac:	4b6b      	ldr	r3, [pc, #428]	; (1000145c <clocks_init+0x294>)
100012ae:	6011      	str	r1, [r2, #0]
100012b0:	3902      	subs	r1, #2
100012b2:	689a      	ldr	r2, [r3, #8]
100012b4:	4211      	tst	r1, r2
100012b6:	d0fc      	beq.n	100012b2 <clocks_init+0xea>
100012b8:	20e0      	movs	r0, #224	; 0xe0
100012ba:	681a      	ldr	r2, [r3, #0]
100012bc:	4010      	ands	r0, r2
100012be:	2280      	movs	r2, #128	; 0x80
100012c0:	0152      	lsls	r2, r2, #5
100012c2:	431a      	orrs	r2, r3
100012c4:	6010      	str	r0, [r2, #0]
100012c6:	6818      	ldr	r0, [r3, #0]
100012c8:	4048      	eors	r0, r1
100012ca:	2103      	movs	r1, #3
100012cc:	4001      	ands	r1, r0
100012ce:	2002      	movs	r0, #2
100012d0:	6011      	str	r1, [r2, #0]
100012d2:	4962      	ldr	r1, [pc, #392]	; (1000145c <clocks_init+0x294>)
100012d4:	688a      	ldr	r2, [r1, #8]
100012d6:	4210      	tst	r0, r2
100012d8:	d0fc      	beq.n	100012d4 <clocks_init+0x10c>
100012da:	2280      	movs	r2, #128	; 0x80
100012dc:	0192      	lsls	r2, r2, #6
100012de:	4313      	orrs	r3, r2
100012e0:	2280      	movs	r2, #128	; 0x80
100012e2:	0112      	lsls	r2, r2, #4
100012e4:	601a      	str	r2, [r3, #0]
100012e6:	2280      	movs	r2, #128	; 0x80
100012e8:	4b5d      	ldr	r3, [pc, #372]	; (10001460 <clocks_init+0x298>)
100012ea:	0052      	lsls	r2, r2, #1
100012ec:	604a      	str	r2, [r1, #4]
100012ee:	6163      	str	r3, [r4, #20]
100012f0:	4b5c      	ldr	r3, [pc, #368]	; (10001464 <clocks_init+0x29c>)
100012f2:	6859      	ldr	r1, [r3, #4]
100012f4:	29ff      	cmp	r1, #255	; 0xff
100012f6:	d800      	bhi.n	100012fa <clocks_init+0x132>
100012f8:	605a      	str	r2, [r3, #4]
100012fa:	2280      	movs	r2, #128	; 0x80
100012fc:	4b5a      	ldr	r3, [pc, #360]	; (10001468 <clocks_init+0x2a0>)
100012fe:	69e1      	ldr	r1, [r4, #28]
10001300:	0112      	lsls	r2, r2, #4
10001302:	4d58      	ldr	r5, [pc, #352]	; (10001464 <clocks_init+0x29c>)
10001304:	601a      	str	r2, [r3, #0]
10001306:	2900      	cmp	r1, #0
10001308:	d005      	beq.n	10001316 <clocks_init+0x14e>
1000130a:	6960      	ldr	r0, [r4, #20]
1000130c:	f000 f988 	bl	10001620 <__wrap___aeabi_uidiv>
10001310:	3001      	adds	r0, #1
10001312:	3801      	subs	r0, #1
10001314:	d1fd      	bne.n	10001312 <clocks_init+0x14a>
10001316:	22e0      	movs	r2, #224	; 0xe0
10001318:	4952      	ldr	r1, [pc, #328]	; (10001464 <clocks_init+0x29c>)
1000131a:	680b      	ldr	r3, [r1, #0]
1000131c:	401a      	ands	r2, r3
1000131e:	2380      	movs	r3, #128	; 0x80
10001320:	015b      	lsls	r3, r3, #5
10001322:	432b      	orrs	r3, r5
10001324:	601a      	str	r2, [r3, #0]
10001326:	2380      	movs	r3, #128	; 0x80
10001328:	2280      	movs	r2, #128	; 0x80
1000132a:	019b      	lsls	r3, r3, #6
1000132c:	432b      	orrs	r3, r5
1000132e:	0112      	lsls	r2, r2, #4
10001330:	601a      	str	r2, [r3, #0]
10001332:	2280      	movs	r2, #128	; 0x80
10001334:	4b3e      	ldr	r3, [pc, #248]	; (10001430 <clocks_init+0x268>)
10001336:	0052      	lsls	r2, r2, #1
10001338:	604a      	str	r2, [r1, #4]
1000133a:	61e3      	str	r3, [r4, #28]
1000133c:	4b4b      	ldr	r3, [pc, #300]	; (1000146c <clocks_init+0x2a4>)
1000133e:	6859      	ldr	r1, [r3, #4]
10001340:	29ff      	cmp	r1, #255	; 0xff
10001342:	d800      	bhi.n	10001346 <clocks_init+0x17e>
10001344:	605a      	str	r2, [r3, #4]
10001346:	2280      	movs	r2, #128	; 0x80
10001348:	4b49      	ldr	r3, [pc, #292]	; (10001470 <clocks_init+0x2a8>)
1000134a:	6a21      	ldr	r1, [r4, #32]
1000134c:	0112      	lsls	r2, r2, #4
1000134e:	4d47      	ldr	r5, [pc, #284]	; (1000146c <clocks_init+0x2a4>)
10001350:	601a      	str	r2, [r3, #0]
10001352:	2900      	cmp	r1, #0
10001354:	d005      	beq.n	10001362 <clocks_init+0x19a>
10001356:	6960      	ldr	r0, [r4, #20]
10001358:	f000 f962 	bl	10001620 <__wrap___aeabi_uidiv>
1000135c:	3001      	adds	r0, #1
1000135e:	3801      	subs	r0, #1
10001360:	d1fd      	bne.n	1000135e <clocks_init+0x196>
10001362:	22e0      	movs	r2, #224	; 0xe0
10001364:	4941      	ldr	r1, [pc, #260]	; (1000146c <clocks_init+0x2a4>)
10001366:	680b      	ldr	r3, [r1, #0]
10001368:	401a      	ands	r2, r3
1000136a:	2380      	movs	r3, #128	; 0x80
1000136c:	015b      	lsls	r3, r3, #5
1000136e:	432b      	orrs	r3, r5
10001370:	601a      	str	r2, [r3, #0]
10001372:	2380      	movs	r3, #128	; 0x80
10001374:	2280      	movs	r2, #128	; 0x80
10001376:	019b      	lsls	r3, r3, #6
10001378:	432b      	orrs	r3, r5
1000137a:	0112      	lsls	r2, r2, #4
1000137c:	601a      	str	r2, [r3, #0]
1000137e:	2380      	movs	r3, #128	; 0x80
10001380:	2280      	movs	r2, #128	; 0x80
10001382:	005b      	lsls	r3, r3, #1
10001384:	604b      	str	r3, [r1, #4]
10001386:	4b2a      	ldr	r3, [pc, #168]	; (10001430 <clocks_init+0x268>)
10001388:	02d2      	lsls	r2, r2, #11
1000138a:	6223      	str	r3, [r4, #32]
1000138c:	4b39      	ldr	r3, [pc, #228]	; (10001474 <clocks_init+0x2ac>)
1000138e:	6859      	ldr	r1, [r3, #4]
10001390:	4291      	cmp	r1, r2
10001392:	d200      	bcs.n	10001396 <clocks_init+0x1ce>
10001394:	605a      	str	r2, [r3, #4]
10001396:	2280      	movs	r2, #128	; 0x80
10001398:	4b37      	ldr	r3, [pc, #220]	; (10001478 <clocks_init+0x2b0>)
1000139a:	6a61      	ldr	r1, [r4, #36]	; 0x24
1000139c:	0112      	lsls	r2, r2, #4
1000139e:	4d35      	ldr	r5, [pc, #212]	; (10001474 <clocks_init+0x2ac>)
100013a0:	601a      	str	r2, [r3, #0]
100013a2:	2900      	cmp	r1, #0
100013a4:	d005      	beq.n	100013b2 <clocks_init+0x1ea>
100013a6:	6960      	ldr	r0, [r4, #20]
100013a8:	f000 f93a 	bl	10001620 <__wrap___aeabi_uidiv>
100013ac:	3001      	adds	r0, #1
100013ae:	3801      	subs	r0, #1
100013b0:	d1fd      	bne.n	100013ae <clocks_init+0x1e6>
100013b2:	22e0      	movs	r2, #224	; 0xe0
100013b4:	492f      	ldr	r1, [pc, #188]	; (10001474 <clocks_init+0x2ac>)
100013b6:	680b      	ldr	r3, [r1, #0]
100013b8:	401a      	ands	r2, r3
100013ba:	2380      	movs	r3, #128	; 0x80
100013bc:	015b      	lsls	r3, r3, #5
100013be:	432b      	orrs	r3, r5
100013c0:	601a      	str	r2, [r3, #0]
100013c2:	2380      	movs	r3, #128	; 0x80
100013c4:	2280      	movs	r2, #128	; 0x80
100013c6:	019b      	lsls	r3, r3, #6
100013c8:	432b      	orrs	r3, r5
100013ca:	0112      	lsls	r2, r2, #4
100013cc:	601a      	str	r2, [r3, #0]
100013ce:	2380      	movs	r3, #128	; 0x80
100013d0:	02db      	lsls	r3, r3, #11
100013d2:	604b      	str	r3, [r1, #4]
100013d4:	4b17      	ldr	r3, [pc, #92]	; (10001434 <clocks_init+0x26c>)
100013d6:	6263      	str	r3, [r4, #36]	; 0x24
100013d8:	4b28      	ldr	r3, [pc, #160]	; (1000147c <clocks_init+0x2b4>)
100013da:	685a      	ldr	r2, [r3, #4]
100013dc:	2aff      	cmp	r2, #255	; 0xff
100013de:	d802      	bhi.n	100013e6 <clocks_init+0x21e>
100013e0:	2280      	movs	r2, #128	; 0x80
100013e2:	0052      	lsls	r2, r2, #1
100013e4:	605a      	str	r2, [r3, #4]
100013e6:	2280      	movs	r2, #128	; 0x80
100013e8:	4b25      	ldr	r3, [pc, #148]	; (10001480 <clocks_init+0x2b8>)
100013ea:	69a1      	ldr	r1, [r4, #24]
100013ec:	0112      	lsls	r2, r2, #4
100013ee:	4d23      	ldr	r5, [pc, #140]	; (1000147c <clocks_init+0x2b4>)
100013f0:	601a      	str	r2, [r3, #0]
100013f2:	2900      	cmp	r1, #0
100013f4:	d005      	beq.n	10001402 <clocks_init+0x23a>
100013f6:	6960      	ldr	r0, [r4, #20]
100013f8:	f000 f912 	bl	10001620 <__wrap___aeabi_uidiv>
100013fc:	3001      	adds	r0, #1
100013fe:	3801      	subs	r0, #1
10001400:	d1fd      	bne.n	100013fe <clocks_init+0x236>
10001402:	22e0      	movs	r2, #224	; 0xe0
10001404:	491d      	ldr	r1, [pc, #116]	; (1000147c <clocks_init+0x2b4>)
10001406:	680b      	ldr	r3, [r1, #0]
10001408:	401a      	ands	r2, r3
1000140a:	2380      	movs	r3, #128	; 0x80
1000140c:	015b      	lsls	r3, r3, #5
1000140e:	432b      	orrs	r3, r5
10001410:	601a      	str	r2, [r3, #0]
10001412:	2380      	movs	r3, #128	; 0x80
10001414:	2280      	movs	r2, #128	; 0x80
10001416:	019b      	lsls	r3, r3, #6
10001418:	432b      	orrs	r3, r5
1000141a:	0112      	lsls	r2, r2, #4
1000141c:	601a      	str	r2, [r3, #0]
1000141e:	2380      	movs	r3, #128	; 0x80
10001420:	005b      	lsls	r3, r3, #1
10001422:	604b      	str	r3, [r1, #4]
10001424:	4b0e      	ldr	r3, [pc, #56]	; (10001460 <clocks_init+0x298>)
10001426:	61a3      	str	r3, [r4, #24]
10001428:	e6e4      	b.n	100011f4 <clocks_init+0x2c>
1000142a:	46c0      	nop			; (mov r8, r8)
1000142c:	2000055c 	.word	0x2000055c
10001430:	02dc6c00 	.word	0x02dc6c00
10001434:	0000b71b 	.word	0x0000b71b
10001438:	40008000 	.word	0x40008000
1000143c:	4000b03c 	.word	0x4000b03c
10001440:	4000b030 	.word	0x4000b030
10001444:	59682f00 	.word	0x59682f00
10001448:	40028000 	.word	0x40028000
1000144c:	47868c00 	.word	0x47868c00
10001450:	4002c000 	.word	0x4002c000
10001454:	40008030 	.word	0x40008030
10001458:	00b71b00 	.word	0x00b71b00
1000145c:	4000803c 	.word	0x4000803c
10001460:	07735940 	.word	0x07735940
10001464:	40008054 	.word	0x40008054
10001468:	4000b054 	.word	0x4000b054
1000146c:	40008060 	.word	0x40008060
10001470:	4000b060 	.word	0x4000b060
10001474:	4000806c 	.word	0x4000806c
10001478:	4000b06c 	.word	0x4000b06c
1000147c:	40008048 	.word	0x40008048
10001480:	4000b048 	.word	0x4000b048

10001484 <pll_init>:
10001484:	b5f0      	push	{r4, r5, r6, r7, lr}
10001486:	46c6      	mov	lr, r8
10001488:	0004      	movs	r4, r0
1000148a:	b500      	push	{lr}
1000148c:	200c      	movs	r0, #12
1000148e:	4690      	mov	r8, r2
10001490:	001f      	movs	r7, r3
10001492:	000e      	movs	r6, r1
10001494:	f000 f8c4 	bl	10001620 <__wrap___aeabi_uidiv>
10001498:	0141      	lsls	r1, r0, #5
1000149a:	1a09      	subs	r1, r1, r0
1000149c:	018d      	lsls	r5, r1, #6
1000149e:	1a69      	subs	r1, r5, r1
100014a0:	00c9      	lsls	r1, r1, #3
100014a2:	1809      	adds	r1, r1, r0
100014a4:	0189      	lsls	r1, r1, #6
100014a6:	4640      	mov	r0, r8
100014a8:	f000 f8ba 	bl	10001620 <__wrap___aeabi_uidiv>
100014ac:	9b06      	ldr	r3, [sp, #24]
100014ae:	043f      	lsls	r7, r7, #16
100014b0:	031a      	lsls	r2, r3, #12
100014b2:	6823      	ldr	r3, [r4, #0]
100014b4:	4317      	orrs	r7, r2
100014b6:	2b00      	cmp	r3, #0
100014b8:	db22      	blt.n	10001500 <pll_init+0x7c>
100014ba:	4b1a      	ldr	r3, [pc, #104]	; (10001524 <pll_init+0xa0>)
100014bc:	4d1a      	ldr	r5, [pc, #104]	; (10001528 <pll_init+0xa4>)
100014be:	18e2      	adds	r2, r4, r3
100014c0:	4253      	negs	r3, r2
100014c2:	415a      	adcs	r2, r3
100014c4:	2380      	movs	r3, #128	; 0x80
100014c6:	015b      	lsls	r3, r3, #5
100014c8:	469c      	mov	ip, r3
100014ca:	0312      	lsls	r2, r2, #12
100014cc:	4b17      	ldr	r3, [pc, #92]	; (1000152c <pll_init+0xa8>)
100014ce:	4462      	add	r2, ip
100014d0:	601a      	str	r2, [r3, #0]
100014d2:	4b17      	ldr	r3, [pc, #92]	; (10001530 <pll_init+0xac>)
100014d4:	601a      	str	r2, [r3, #0]
100014d6:	0011      	movs	r1, r2
100014d8:	68ab      	ldr	r3, [r5, #8]
100014da:	4399      	bics	r1, r3
100014dc:	d1fb      	bne.n	100014d6 <pll_init+0x52>
100014de:	22c0      	movs	r2, #192	; 0xc0
100014e0:	1d23      	adds	r3, r4, #4
100014e2:	0192      	lsls	r2, r2, #6
100014e4:	431a      	orrs	r2, r3
100014e6:	2321      	movs	r3, #33	; 0x21
100014e8:	6026      	str	r6, [r4, #0]
100014ea:	60a0      	str	r0, [r4, #8]
100014ec:	6013      	str	r3, [r2, #0]
100014ee:	6823      	ldr	r3, [r4, #0]
100014f0:	2b00      	cmp	r3, #0
100014f2:	dafc      	bge.n	100014ee <pll_init+0x6a>
100014f4:	2308      	movs	r3, #8
100014f6:	60e7      	str	r7, [r4, #12]
100014f8:	6013      	str	r3, [r2, #0]
100014fa:	bc80      	pop	{r7}
100014fc:	46b8      	mov	r8, r7
100014fe:	bdf0      	pop	{r4, r5, r6, r7, pc}
10001500:	233f      	movs	r3, #63	; 0x3f
10001502:	6822      	ldr	r2, [r4, #0]
10001504:	4013      	ands	r3, r2
10001506:	42b3      	cmp	r3, r6
10001508:	d1d7      	bne.n	100014ba <pll_init+0x36>
1000150a:	68a3      	ldr	r3, [r4, #8]
1000150c:	051b      	lsls	r3, r3, #20
1000150e:	0d1b      	lsrs	r3, r3, #20
10001510:	4283      	cmp	r3, r0
10001512:	d1d2      	bne.n	100014ba <pll_init+0x36>
10001514:	22ee      	movs	r2, #238	; 0xee
10001516:	68e3      	ldr	r3, [r4, #12]
10001518:	02d2      	lsls	r2, r2, #11
1000151a:	4013      	ands	r3, r2
1000151c:	42bb      	cmp	r3, r7
1000151e:	d1cc      	bne.n	100014ba <pll_init+0x36>
10001520:	e7eb      	b.n	100014fa <pll_init+0x76>
10001522:	46c0      	nop			; (mov r8, r8)
10001524:	bffd4000 	.word	0xbffd4000
10001528:	4000c000 	.word	0x4000c000
1000152c:	4000e000 	.word	0x4000e000
10001530:	4000f000 	.word	0x4000f000

10001534 <watchdog_start_tick>:
10001534:	2380      	movs	r3, #128	; 0x80
10001536:	4a02      	ldr	r2, [pc, #8]	; (10001540 <watchdog_start_tick+0xc>)
10001538:	009b      	lsls	r3, r3, #2
1000153a:	4303      	orrs	r3, r0
1000153c:	62d3      	str	r3, [r2, #44]	; 0x2c
1000153e:	4770      	bx	lr
10001540:	40058000 	.word	0x40058000

10001544 <xosc_init>:
10001544:	23aa      	movs	r3, #170	; 0xaa
10001546:	4a06      	ldr	r2, [pc, #24]	; (10001560 <xosc_init+0x1c>)
10001548:	011b      	lsls	r3, r3, #4
1000154a:	6013      	str	r3, [r2, #0]
1000154c:	232f      	movs	r3, #47	; 0x2f
1000154e:	4905      	ldr	r1, [pc, #20]	; (10001564 <xosc_init+0x20>)
10001550:	60d3      	str	r3, [r2, #12]
10001552:	4b05      	ldr	r3, [pc, #20]	; (10001568 <xosc_init+0x24>)
10001554:	6019      	str	r1, [r3, #0]
10001556:	6853      	ldr	r3, [r2, #4]
10001558:	2b00      	cmp	r3, #0
1000155a:	dafc      	bge.n	10001556 <xosc_init+0x12>
1000155c:	4770      	bx	lr
1000155e:	46c0      	nop			; (mov r8, r8)
10001560:	40024000 	.word	0x40024000
10001564:	00fab000 	.word	0x00fab000
10001568:	40026000 	.word	0x40026000

1000156c <_out_char>:
1000156c:	b510      	push	{r4, lr}
1000156e:	2800      	cmp	r0, #0
10001570:	d100      	bne.n	10001574 <_out_char+0x8>
10001572:	bd10      	pop	{r4, pc}
10001574:	f000 fa10 	bl	10001998 <__wrap_putchar>
10001578:	e7fb      	b.n	10001572 <_out_char+0x6>
1000157a:	46c0      	nop			; (mov r8, r8)

1000157c <weak_raw_vprintf>:
1000157c:	b510      	push	{r4, lr}
1000157e:	4a09      	ldr	r2, [pc, #36]	; (100015a4 <weak_raw_vprintf+0x28>)
10001580:	0003      	movs	r3, r0
10001582:	6814      	ldr	r4, [r2, #0]
10001584:	b084      	sub	sp, #16
10001586:	2c00      	cmp	r4, #0
10001588:	d008      	beq.n	1000159c <weak_raw_vprintf+0x20>
1000158a:	2201      	movs	r2, #1
1000158c:	9100      	str	r1, [sp, #0]
1000158e:	4806      	ldr	r0, [pc, #24]	; (100015a8 <weak_raw_vprintf+0x2c>)
10001590:	4252      	negs	r2, r2
10001592:	a903      	add	r1, sp, #12
10001594:	47a0      	blx	r4
10001596:	2001      	movs	r0, #1
10001598:	b004      	add	sp, #16
1000159a:	bd10      	pop	{r4, pc}
1000159c:	f000 fa4c 	bl	10001a38 <__wrap_puts>
100015a0:	2000      	movs	r0, #0
100015a2:	e7f9      	b.n	10001598 <weak_raw_vprintf+0x1c>
100015a4:	200005cc 	.word	0x200005cc
100015a8:	1000156d 	.word	0x1000156d

100015ac <__aeabi_bits_init>:
100015ac:	4801      	ldr	r0, [pc, #4]	; (100015b4 <__aeabi_bits_init+0x8>)
100015ae:	2104      	movs	r1, #4
100015b0:	4b01      	ldr	r3, [pc, #4]	; (100015b8 <__aeabi_bits_init+0xc>)
100015b2:	4718      	bx	r3
100015b4:	200001f0 	.word	0x200001f0
100015b8:	100015dd 	.word	0x100015dd

100015bc <rom_func_lookup>:
100015bc:	2314      	movs	r3, #20
100015be:	b510      	push	{r4, lr}
100015c0:	0001      	movs	r1, r0
100015c2:	8818      	ldrh	r0, [r3, #0]
100015c4:	3304      	adds	r3, #4
100015c6:	881b      	ldrh	r3, [r3, #0]
100015c8:	4798      	blx	r3
100015ca:	bd10      	pop	{r4, pc}

100015cc <rom_data_lookup>:
100015cc:	2316      	movs	r3, #22
100015ce:	b510      	push	{r4, lr}
100015d0:	0001      	movs	r1, r0
100015d2:	8818      	ldrh	r0, [r3, #0]
100015d4:	3302      	adds	r3, #2
100015d6:	881b      	ldrh	r3, [r3, #0]
100015d8:	4798      	blx	r3
100015da:	bd10      	pop	{r4, pc}

100015dc <rom_funcs_lookup>:
100015dc:	b5f8      	push	{r3, r4, r5, r6, r7, lr}
100015de:	4647      	mov	r7, r8
100015e0:	46ce      	mov	lr, r9
100015e2:	b580      	push	{r7, lr}
100015e4:	1e0f      	subs	r7, r1, #0
100015e6:	d019      	beq.n	1000161c <rom_funcs_lookup+0x40>
100015e8:	2314      	movs	r3, #20
100015ea:	4699      	mov	r9, r3
100015ec:	3304      	adds	r3, #4
100015ee:	0004      	movs	r4, r0
100015f0:	2500      	movs	r5, #0
100015f2:	2601      	movs	r6, #1
100015f4:	4698      	mov	r8, r3
100015f6:	464b      	mov	r3, r9
100015f8:	8818      	ldrh	r0, [r3, #0]
100015fa:	4643      	mov	r3, r8
100015fc:	6821      	ldr	r1, [r4, #0]
100015fe:	881b      	ldrh	r3, [r3, #0]
10001600:	4798      	blx	r3
10001602:	c401      	stmia	r4!, {r0}
10001604:	1e43      	subs	r3, r0, #1
10001606:	4198      	sbcs	r0, r3
10001608:	3501      	adds	r5, #1
1000160a:	4240      	negs	r0, r0
1000160c:	4006      	ands	r6, r0
1000160e:	42af      	cmp	r7, r5
10001610:	d1f1      	bne.n	100015f6 <rom_funcs_lookup+0x1a>
10001612:	0030      	movs	r0, r6
10001614:	bcc0      	pop	{r6, r7}
10001616:	46b9      	mov	r9, r7
10001618:	46b0      	mov	r8, r6
1000161a:	bdf8      	pop	{r3, r4, r5, r6, r7, pc}
1000161c:	2601      	movs	r6, #1
1000161e:	e7f8      	b.n	10001612 <rom_funcs_lookup+0x36>

10001620 <__wrap___aeabi_uidiv>:
10001620:	4a11      	ldr	r2, [pc, #68]	; (10001668 <divmod_u32u32_savestate+0x18>)
10001622:	6f93      	ldr	r3, [r2, #120]	; 0x78
10001624:	089b      	lsrs	r3, r3, #2
10001626:	d213      	bcs.n	10001650 <divmod_u32u32_savestate>

10001628 <divmod_u32u32_unsafe>:
10001628:	6610      	str	r0, [r2, #96]	; 0x60
1000162a:	6651      	str	r1, [r2, #100]	; 0x64
1000162c:	2900      	cmp	r1, #0
1000162e:	d005      	beq.n	1000163c <divmod_u32u32_unsafe+0x14>
10001630:	e7ff      	b.n	10001632 <divmod_u32u32_unsafe+0xa>
10001632:	e7ff      	b.n	10001634 <divmod_u32u32_unsafe+0xc>
10001634:	e7ff      	b.n	10001636 <divmod_u32u32_unsafe+0xe>
10001636:	6f51      	ldr	r1, [r2, #116]	; 0x74
10001638:	6f10      	ldr	r0, [r2, #112]	; 0x70
1000163a:	4770      	bx	lr
1000163c:	b504      	push	{r2, lr}
1000163e:	2800      	cmp	r0, #0
10001640:	d001      	beq.n	10001646 <divmod_u32u32_unsafe+0x1e>
10001642:	2000      	movs	r0, #0
10001644:	43c0      	mvns	r0, r0
10001646:	f000 fa4f 	bl	10001ae8 <____aeabi_idiv0_veneer>
1000164a:	2100      	movs	r1, #0
1000164c:	bd04      	pop	{r2, pc}
1000164e:	46c0      	nop			; (mov r8, r8)

10001650 <divmod_u32u32_savestate>:
10001650:	b5f0      	push	{r4, r5, r6, r7, lr}
10001652:	6e14      	ldr	r4, [r2, #96]	; 0x60
10001654:	6e55      	ldr	r5, [r2, #100]	; 0x64
10001656:	6f57      	ldr	r7, [r2, #116]	; 0x74
10001658:	6f16      	ldr	r6, [r2, #112]	; 0x70
1000165a:	f7ff ffe5 	bl	10001628 <divmod_u32u32_unsafe>
1000165e:	6614      	str	r4, [r2, #96]	; 0x60
10001660:	6655      	str	r5, [r2, #100]	; 0x64
10001662:	6757      	str	r7, [r2, #116]	; 0x74
10001664:	6716      	str	r6, [r2, #112]	; 0x70
10001666:	bdf0      	pop	{r4, r5, r6, r7, pc}
10001668:	d0000000 	.word	0xd0000000

1000166c <__aeabi_double_init>:
1000166c:	2313      	movs	r3, #19
1000166e:	b570      	push	{r4, r5, r6, lr}
10001670:	781d      	ldrb	r5, [r3, #0]
10001672:	2d01      	cmp	r5, #1
10001674:	d015      	beq.n	100016a2 <__aeabi_double_init+0x36>
10001676:	dd10      	ble.n	1000169a <__aeabi_double_init+0x2e>
10001678:	481c      	ldr	r0, [pc, #112]	; (100016ec <__aeabi_double_init+0x80>)
1000167a:	f7ff ffa7 	bl	100015cc <rom_data_lookup>
1000167e:	4c1c      	ldr	r4, [pc, #112]	; (100016f0 <__aeabi_double_init+0x84>)
10001680:	0001      	movs	r1, r0
10001682:	2280      	movs	r2, #128	; 0x80
10001684:	0020      	movs	r0, r4
10001686:	f000 f8a1 	bl	100017cc <__wrap___aeabi_memcpy>
1000168a:	2d02      	cmp	r5, #2
1000168c:	d006      	beq.n	1000169c <__aeabi_double_init+0x30>
1000168e:	4819      	ldr	r0, [pc, #100]	; (100016f4 <__aeabi_double_init+0x88>)
10001690:	f7ff ff94 	bl	100015bc <rom_func_lookup>
10001694:	4b18      	ldr	r3, [pc, #96]	; (100016f8 <__aeabi_double_init+0x8c>)
10001696:	6018      	str	r0, [r3, #0]
10001698:	bd70      	pop	{r4, r5, r6, pc}
1000169a:	4c15      	ldr	r4, [pc, #84]	; (100016f0 <__aeabi_double_init+0x84>)
1000169c:	4b17      	ldr	r3, [pc, #92]	; (100016fc <__aeabi_double_init+0x90>)
1000169e:	64a3      	str	r3, [r4, #72]	; 0x48
100016a0:	e7f5      	b.n	1000168e <__aeabi_double_init+0x22>
100016a2:	4b16      	ldr	r3, [pc, #88]	; (100016fc <__aeabi_double_init+0x90>)
100016a4:	4c12      	ldr	r4, [pc, #72]	; (100016f0 <__aeabi_double_init+0x84>)
100016a6:	6023      	str	r3, [r4, #0]
100016a8:	6063      	str	r3, [r4, #4]
100016aa:	60a3      	str	r3, [r4, #8]
100016ac:	60e3      	str	r3, [r4, #12]
100016ae:	6123      	str	r3, [r4, #16]
100016b0:	6163      	str	r3, [r4, #20]
100016b2:	61a3      	str	r3, [r4, #24]
100016b4:	61e3      	str	r3, [r4, #28]
100016b6:	6223      	str	r3, [r4, #32]
100016b8:	6263      	str	r3, [r4, #36]	; 0x24
100016ba:	62a3      	str	r3, [r4, #40]	; 0x28
100016bc:	62e3      	str	r3, [r4, #44]	; 0x2c
100016be:	6323      	str	r3, [r4, #48]	; 0x30
100016c0:	6363      	str	r3, [r4, #52]	; 0x34
100016c2:	63a3      	str	r3, [r4, #56]	; 0x38
100016c4:	63e3      	str	r3, [r4, #60]	; 0x3c
100016c6:	6423      	str	r3, [r4, #64]	; 0x40
100016c8:	6463      	str	r3, [r4, #68]	; 0x44
100016ca:	64a3      	str	r3, [r4, #72]	; 0x48
100016cc:	64e3      	str	r3, [r4, #76]	; 0x4c
100016ce:	6523      	str	r3, [r4, #80]	; 0x50
100016d0:	6563      	str	r3, [r4, #84]	; 0x54
100016d2:	65a3      	str	r3, [r4, #88]	; 0x58
100016d4:	65e3      	str	r3, [r4, #92]	; 0x5c
100016d6:	6623      	str	r3, [r4, #96]	; 0x60
100016d8:	6663      	str	r3, [r4, #100]	; 0x64
100016da:	66a3      	str	r3, [r4, #104]	; 0x68
100016dc:	66e3      	str	r3, [r4, #108]	; 0x6c
100016de:	6723      	str	r3, [r4, #112]	; 0x70
100016e0:	6763      	str	r3, [r4, #116]	; 0x74
100016e2:	67a3      	str	r3, [r4, #120]	; 0x78
100016e4:	67e3      	str	r3, [r4, #124]	; 0x7c
100016e6:	64a3      	str	r3, [r4, #72]	; 0x48
100016e8:	e7d1      	b.n	1000168e <__aeabi_double_init+0x22>
100016ea:	46c0      	nop			; (mov r8, r8)
100016ec:	00004453 	.word	0x00004453
100016f0:	20000330 	.word	0x20000330
100016f4:	0000334c 	.word	0x0000334c
100016f8:	200005e0 	.word	0x200005e0
100016fc:	10001701 	.word	0x10001701

10001700 <double_table_shim_on_use_helper>:
10001700:	b507      	push	{r0, r1, r2, lr}
10001702:	4660      	mov	r0, ip
10001704:	8801      	ldrh	r1, [r0, #0]
10001706:	0a0a      	lsrs	r2, r1, #8
10001708:	3002      	adds	r0, #2
1000170a:	2adf      	cmp	r2, #223	; 0xdf
1000170c:	d1fa      	bne.n	10001704 <double_table_shim_on_use_helper+0x4>
1000170e:	b2c9      	uxtb	r1, r1
10001710:	0882      	lsrs	r2, r0, #2
10001712:	d304      	bcc.n	1000171e <double_table_shim_on_use_helper+0x1e>
10001714:	8802      	ldrh	r2, [r0, #0]
10001716:	8840      	ldrh	r0, [r0, #2]
10001718:	0400      	lsls	r0, r0, #16
1000171a:	4310      	orrs	r0, r2
1000171c:	e000      	b.n	10001720 <double_table_shim_on_use_helper+0x20>
1000171e:	6800      	ldr	r0, [r0, #0]
10001720:	4a01      	ldr	r2, [pc, #4]	; (10001728 <double_table_shim_on_use_helper+0x28>)
10001722:	5050      	str	r0, [r2, r1]
10001724:	9003      	str	r0, [sp, #12]
10001726:	bd07      	pop	{r0, r1, r2, pc}
10001728:	20000330 	.word	0x20000330

1000172c <__aeabi_float_init>:
1000172c:	2313      	movs	r3, #19
1000172e:	b510      	push	{r4, lr}
10001730:	4812      	ldr	r0, [pc, #72]	; (1000177c <__aeabi_float_init+0x50>)
10001732:	781c      	ldrb	r4, [r3, #0]
10001734:	f7ff ff4a 	bl	100015cc <rom_data_lookup>
10001738:	0001      	movs	r1, r0
1000173a:	2c01      	cmp	r4, #1
1000173c:	d00a      	beq.n	10001754 <__aeabi_float_init+0x28>
1000173e:	dd03      	ble.n	10001748 <__aeabi_float_init+0x1c>
10001740:	2280      	movs	r2, #128	; 0x80
10001742:	480f      	ldr	r0, [pc, #60]	; (10001780 <__aeabi_float_init+0x54>)
10001744:	f000 f842 	bl	100017cc <__wrap___aeabi_memcpy>
10001748:	480e      	ldr	r0, [pc, #56]	; (10001784 <__aeabi_float_init+0x58>)
1000174a:	f7ff ff37 	bl	100015bc <rom_func_lookup>
1000174e:	4b0e      	ldr	r3, [pc, #56]	; (10001788 <__aeabi_float_init+0x5c>)
10001750:	6018      	str	r0, [r3, #0]
10001752:	bd10      	pop	{r4, pc}
10001754:	4c0a      	ldr	r4, [pc, #40]	; (10001780 <__aeabi_float_init+0x54>)
10001756:	2254      	movs	r2, #84	; 0x54
10001758:	0020      	movs	r0, r4
1000175a:	f000 f837 	bl	100017cc <__wrap___aeabi_memcpy>
1000175e:	4b0b      	ldr	r3, [pc, #44]	; (1000178c <__aeabi_float_init+0x60>)
10001760:	6563      	str	r3, [r4, #84]	; 0x54
10001762:	65a3      	str	r3, [r4, #88]	; 0x58
10001764:	65e3      	str	r3, [r4, #92]	; 0x5c
10001766:	6623      	str	r3, [r4, #96]	; 0x60
10001768:	6663      	str	r3, [r4, #100]	; 0x64
1000176a:	66a3      	str	r3, [r4, #104]	; 0x68
1000176c:	66e3      	str	r3, [r4, #108]	; 0x6c
1000176e:	6723      	str	r3, [r4, #112]	; 0x70
10001770:	6763      	str	r3, [r4, #116]	; 0x74
10001772:	67a3      	str	r3, [r4, #120]	; 0x78
10001774:	67e3      	str	r3, [r4, #124]	; 0x7c
10001776:	6223      	str	r3, [r4, #32]
10001778:	61e3      	str	r3, [r4, #28]
1000177a:	e7e5      	b.n	10001748 <__aeabi_float_init+0x1c>
1000177c:	00004653 	.word	0x00004653
10001780:	20000430 	.word	0x20000430
10001784:	0000334c 	.word	0x0000334c
10001788:	200005e0 	.word	0x200005e0
1000178c:	10001791 	.word	0x10001791

10001790 <float_table_shim_on_use_helper>:
10001790:	b507      	push	{r0, r1, r2, lr}
10001792:	4660      	mov	r0, ip
10001794:	8801      	ldrh	r1, [r0, #0]
10001796:	0a0a      	lsrs	r2, r1, #8
10001798:	3002      	adds	r0, #2
1000179a:	2adf      	cmp	r2, #223	; 0xdf
1000179c:	d1fa      	bne.n	10001794 <float_table_shim_on_use_helper+0x4>
1000179e:	b2c9      	uxtb	r1, r1
100017a0:	0882      	lsrs	r2, r0, #2
100017a2:	d304      	bcc.n	100017ae <float_table_shim_on_use_helper+0x1e>
100017a4:	8802      	ldrh	r2, [r0, #0]
100017a6:	8840      	ldrh	r0, [r0, #2]
100017a8:	0400      	lsls	r0, r0, #16
100017aa:	4310      	orrs	r0, r2
100017ac:	e000      	b.n	100017b0 <float_table_shim_on_use_helper+0x20>
100017ae:	6800      	ldr	r0, [r0, #0]
100017b0:	4a01      	ldr	r2, [pc, #4]	; (100017b8 <float_table_shim_on_use_helper+0x28>)
100017b2:	5050      	str	r0, [r2, r1]
100017b4:	9003      	str	r0, [sp, #12]
100017b6:	bd07      	pop	{r0, r1, r2, pc}
100017b8:	20000430 	.word	0x20000430

100017bc <__aeabi_mem_init>:
100017bc:	4801      	ldr	r0, [pc, #4]	; (100017c4 <__aeabi_mem_init+0x8>)
100017be:	2104      	movs	r1, #4
100017c0:	4b01      	ldr	r3, [pc, #4]	; (100017c8 <__aeabi_mem_init+0xc>)
100017c2:	4718      	bx	r3
100017c4:	20000200 	.word	0x20000200
100017c8:	100015dd 	.word	0x100015dd

100017cc <__wrap___aeabi_memcpy>:
100017cc:	4b01      	ldr	r3, [pc, #4]	; (100017d4 <__wrap___aeabi_memcpy+0x8>)
100017ce:	685b      	ldr	r3, [r3, #4]
100017d0:	4718      	bx	r3
100017d2:	0000      	.short	0x0000
100017d4:	20000200 	.word	0x20000200

100017d8 <stdio_out_chars_no_crlf>:
100017d8:	0003      	movs	r3, r0
100017da:	b510      	push	{r4, lr}
100017dc:	0008      	movs	r0, r1
100017de:	0011      	movs	r1, r2
100017e0:	681b      	ldr	r3, [r3, #0]
100017e2:	4798      	blx	r3
100017e4:	bd10      	pop	{r4, pc}
100017e6:	46c0      	nop			; (mov r8, r8)

100017e8 <stdio_out_chars_crlf>:
100017e8:	b5f0      	push	{r4, r5, r6, r7, lr}
100017ea:	4646      	mov	r6, r8
100017ec:	464f      	mov	r7, r9
100017ee:	46d6      	mov	lr, sl
100017f0:	b5c0      	push	{r6, r7, lr}
100017f2:	7c43      	ldrb	r3, [r0, #17]
100017f4:	4680      	mov	r8, r0
100017f6:	000e      	movs	r6, r1
100017f8:	0017      	movs	r7, r2
100017fa:	2b00      	cmp	r3, #0
100017fc:	d046      	beq.n	1000188c <stdio_out_chars_crlf+0xa4>
100017fe:	2a00      	cmp	r2, #0
10001800:	dd3f      	ble.n	10001882 <stdio_out_chars_crlf+0x9a>
10001802:	1e4b      	subs	r3, r1, #1
10001804:	4699      	mov	r9, r3
10001806:	4b24      	ldr	r3, [pc, #144]	; (10001898 <stdio_out_chars_crlf+0xb0>)
10001808:	2501      	movs	r5, #1
1000180a:	2400      	movs	r4, #0
1000180c:	2000      	movs	r0, #0
1000180e:	469a      	mov	sl, r3
10001810:	e00d      	b.n	1000182e <stdio_out_chars_crlf+0x46>
10001812:	464b      	mov	r3, r9
10001814:	5d1b      	ldrb	r3, [r3, r4]
10001816:	3b0d      	subs	r3, #13
10001818:	425a      	negs	r2, r3
1000181a:	4153      	adcs	r3, r2
1000181c:	5d32      	ldrb	r2, [r6, r4]
1000181e:	b2db      	uxtb	r3, r3
10001820:	2a0a      	cmp	r2, #10
10001822:	d00b      	beq.n	1000183c <stdio_out_chars_crlf+0x54>
10001824:	002b      	movs	r3, r5
10001826:	3401      	adds	r4, #1
10001828:	3501      	adds	r5, #1
1000182a:	429f      	cmp	r7, r3
1000182c:	dd1a      	ble.n	10001864 <stdio_out_chars_crlf+0x7c>
1000182e:	2c00      	cmp	r4, #0
10001830:	d1ef      	bne.n	10001812 <stdio_out_chars_crlf+0x2a>
10001832:	4643      	mov	r3, r8
10001834:	5d32      	ldrb	r2, [r6, r4]
10001836:	7c1b      	ldrb	r3, [r3, #16]
10001838:	2a0a      	cmp	r2, #10
1000183a:	d1f3      	bne.n	10001824 <stdio_out_chars_crlf+0x3c>
1000183c:	2b00      	cmp	r3, #0
1000183e:	d1f1      	bne.n	10001824 <stdio_out_chars_crlf+0x3c>
10001840:	42a0      	cmp	r0, r4
10001842:	da04      	bge.n	1000184e <stdio_out_chars_crlf+0x66>
10001844:	4643      	mov	r3, r8
10001846:	1a21      	subs	r1, r4, r0
10001848:	681b      	ldr	r3, [r3, #0]
1000184a:	1830      	adds	r0, r6, r0
1000184c:	4798      	blx	r3
1000184e:	4643      	mov	r3, r8
10001850:	4650      	mov	r0, sl
10001852:	681b      	ldr	r3, [r3, #0]
10001854:	2102      	movs	r1, #2
10001856:	4798      	blx	r3
10001858:	3401      	adds	r4, #1
1000185a:	0028      	movs	r0, r5
1000185c:	002b      	movs	r3, r5
1000185e:	3501      	adds	r5, #1
10001860:	429f      	cmp	r7, r3
10001862:	dce4      	bgt.n	1000182e <stdio_out_chars_crlf+0x46>
10001864:	4287      	cmp	r7, r0
10001866:	dd04      	ble.n	10001872 <stdio_out_chars_crlf+0x8a>
10001868:	4643      	mov	r3, r8
1000186a:	1a39      	subs	r1, r7, r0
1000186c:	681b      	ldr	r3, [r3, #0]
1000186e:	1830      	adds	r0, r6, r0
10001870:	4798      	blx	r3
10001872:	19f6      	adds	r6, r6, r7
10001874:	3e01      	subs	r6, #1
10001876:	7833      	ldrb	r3, [r6, #0]
10001878:	3b0d      	subs	r3, #13
1000187a:	425a      	negs	r2, r3
1000187c:	4153      	adcs	r3, r2
1000187e:	4642      	mov	r2, r8
10001880:	7413      	strb	r3, [r2, #16]
10001882:	bce0      	pop	{r5, r6, r7}
10001884:	46ba      	mov	sl, r7
10001886:	46b1      	mov	r9, r6
10001888:	46a8      	mov	r8, r5
1000188a:	bdf0      	pop	{r4, r5, r6, r7, pc}
1000188c:	6803      	ldr	r3, [r0, #0]
1000188e:	0011      	movs	r1, r2
10001890:	0030      	movs	r0, r6
10001892:	4798      	blx	r3
10001894:	e7f5      	b.n	10001882 <stdio_out_chars_crlf+0x9a>
10001896:	46c0      	nop			; (mov r8, r8)
10001898:	10001c00 	.word	0x10001c00

1000189c <stdio_put_string.isra.0>:
1000189c:	b5f0      	push	{r4, r5, r6, r7, lr}
1000189e:	4657      	mov	r7, sl
100018a0:	464e      	mov	r6, r9
100018a2:	4645      	mov	r5, r8
100018a4:	46de      	mov	lr, fp
100018a6:	001c      	movs	r4, r3
100018a8:	23d0      	movs	r3, #208	; 0xd0
100018aa:	b5e0      	push	{r5, r6, r7, lr}
100018ac:	061b      	lsls	r3, r3, #24
100018ae:	681f      	ldr	r7, [r3, #0]
100018b0:	4b34      	ldr	r3, [pc, #208]	; (10001984 <stdio_put_string.isra.0+0xe8>)
100018b2:	b083      	sub	sp, #12
100018b4:	0006      	movs	r6, r0
100018b6:	000d      	movs	r5, r1
100018b8:	0018      	movs	r0, r3
100018ba:	a901      	add	r1, sp, #4
100018bc:	4691      	mov	r9, r2
100018be:	469a      	mov	sl, r3
100018c0:	f000 f91a 	bl	10001af8 <__mutex_try_enter_veneer>
100018c4:	4680      	mov	r8, r0
100018c6:	2800      	cmp	r0, #0
100018c8:	d108      	bne.n	100018dc <stdio_put_string.isra.0+0x40>
100018ca:	9b01      	ldr	r3, [sp, #4]
100018cc:	b27f      	sxtb	r7, r7
100018ce:	429f      	cmp	r7, r3
100018d0:	d004      	beq.n	100018dc <stdio_put_string.isra.0+0x40>
100018d2:	4650      	mov	r0, sl
100018d4:	f000 f918 	bl	10001b08 <__mutex_enter_blocking_veneer>
100018d8:	2301      	movs	r3, #1
100018da:	4698      	mov	r8, r3
100018dc:	1c6b      	adds	r3, r5, #1
100018de:	d103      	bne.n	100018e8 <stdio_put_string.isra.0+0x4c>
100018e0:	0030      	movs	r0, r6
100018e2:	f000 f8c7 	bl	10001a74 <strlen>
100018e6:	0005      	movs	r5, r0
100018e8:	2c00      	cmp	r4, #0
100018ea:	d127      	bne.n	1000193c <stdio_put_string.isra.0+0xa0>
100018ec:	4f26      	ldr	r7, [pc, #152]	; (10001988 <stdio_put_string.isra.0+0xec>)
100018ee:	4b27      	ldr	r3, [pc, #156]	; (1000198c <stdio_put_string.isra.0+0xf0>)
100018f0:	681c      	ldr	r4, [r3, #0]
100018f2:	2c00      	cmp	r4, #0
100018f4:	d018      	beq.n	10001928 <stdio_put_string.isra.0+0x8c>
100018f6:	464b      	mov	r3, r9
100018f8:	2b00      	cmp	r3, #0
100018fa:	d121      	bne.n	10001940 <stdio_put_string.isra.0+0xa4>
100018fc:	4b24      	ldr	r3, [pc, #144]	; (10001990 <stdio_put_string.isra.0+0xf4>)
100018fe:	4699      	mov	r9, r3
10001900:	e002      	b.n	10001908 <stdio_put_string.isra.0+0x6c>
10001902:	68e4      	ldr	r4, [r4, #12]
10001904:	2c00      	cmp	r4, #0
10001906:	d00f      	beq.n	10001928 <stdio_put_string.isra.0+0x8c>
10001908:	6823      	ldr	r3, [r4, #0]
1000190a:	2b00      	cmp	r3, #0
1000190c:	d0f9      	beq.n	10001902 <stdio_put_string.isra.0+0x66>
1000190e:	464b      	mov	r3, r9
10001910:	681b      	ldr	r3, [r3, #0]
10001912:	2b00      	cmp	r3, #0
10001914:	d001      	beq.n	1000191a <stdio_put_string.isra.0+0x7e>
10001916:	42a3      	cmp	r3, r4
10001918:	d1f3      	bne.n	10001902 <stdio_put_string.isra.0+0x66>
1000191a:	0020      	movs	r0, r4
1000191c:	002a      	movs	r2, r5
1000191e:	0031      	movs	r1, r6
10001920:	47b8      	blx	r7
10001922:	68e4      	ldr	r4, [r4, #12]
10001924:	2c00      	cmp	r4, #0
10001926:	d1ef      	bne.n	10001908 <stdio_put_string.isra.0+0x6c>
10001928:	4643      	mov	r3, r8
1000192a:	2b00      	cmp	r3, #0
1000192c:	d125      	bne.n	1000197a <stdio_put_string.isra.0+0xde>
1000192e:	b003      	add	sp, #12
10001930:	bcf0      	pop	{r4, r5, r6, r7}
10001932:	46bb      	mov	fp, r7
10001934:	46b2      	mov	sl, r6
10001936:	46a9      	mov	r9, r5
10001938:	46a0      	mov	r8, r4
1000193a:	bdf0      	pop	{r4, r5, r6, r7, pc}
1000193c:	4f15      	ldr	r7, [pc, #84]	; (10001994 <stdio_put_string.isra.0+0xf8>)
1000193e:	e7d6      	b.n	100018ee <stdio_put_string.isra.0+0x52>
10001940:	4b13      	ldr	r3, [pc, #76]	; (10001990 <stdio_put_string.isra.0+0xf4>)
10001942:	4699      	mov	r9, r3
10001944:	230a      	movs	r3, #10
10001946:	469b      	mov	fp, r3
10001948:	e002      	b.n	10001950 <stdio_put_string.isra.0+0xb4>
1000194a:	68e4      	ldr	r4, [r4, #12]
1000194c:	2c00      	cmp	r4, #0
1000194e:	d0eb      	beq.n	10001928 <stdio_put_string.isra.0+0x8c>
10001950:	6823      	ldr	r3, [r4, #0]
10001952:	2b00      	cmp	r3, #0
10001954:	d0f9      	beq.n	1000194a <stdio_put_string.isra.0+0xae>
10001956:	464b      	mov	r3, r9
10001958:	681b      	ldr	r3, [r3, #0]
1000195a:	2b00      	cmp	r3, #0
1000195c:	d001      	beq.n	10001962 <stdio_put_string.isra.0+0xc6>
1000195e:	42a3      	cmp	r3, r4
10001960:	d1f3      	bne.n	1000194a <stdio_put_string.isra.0+0xae>
10001962:	002a      	movs	r2, r5
10001964:	0031      	movs	r1, r6
10001966:	0020      	movs	r0, r4
10001968:	47b8      	blx	r7
1000196a:	465a      	mov	r2, fp
1000196c:	466b      	mov	r3, sp
1000196e:	0020      	movs	r0, r4
10001970:	711a      	strb	r2, [r3, #4]
10001972:	a901      	add	r1, sp, #4
10001974:	2201      	movs	r2, #1
10001976:	47b8      	blx	r7
10001978:	e7e7      	b.n	1000194a <stdio_put_string.isra.0+0xae>
1000197a:	4650      	mov	r0, sl
1000197c:	f000 f8ac 	bl	10001ad8 <__mutex_exit_veneer>
10001980:	e7d5      	b.n	1000192e <stdio_put_string.isra.0+0x92>
10001982:	46c0      	nop			; (mov r8, r8)
10001984:	20000210 	.word	0x20000210
10001988:	100017e9 	.word	0x100017e9
1000198c:	200005c4 	.word	0x200005c4
10001990:	200005c8 	.word	0x200005c8
10001994:	100017d9 	.word	0x100017d9

10001998 <__wrap_putchar>:
10001998:	b5f0      	push	{r4, r5, r6, r7, lr}
1000199a:	46ce      	mov	lr, r9
1000199c:	4647      	mov	r7, r8
1000199e:	b580      	push	{r7, lr}
100019a0:	b083      	sub	sp, #12
100019a2:	466b      	mov	r3, sp
100019a4:	1cde      	adds	r6, r3, #3
100019a6:	23d0      	movs	r3, #208	; 0xd0
100019a8:	7030      	strb	r0, [r6, #0]
100019aa:	061b      	lsls	r3, r3, #24
100019ac:	681c      	ldr	r4, [r3, #0]
100019ae:	4b1f      	ldr	r3, [pc, #124]	; (10001a2c <__wrap_putchar+0x94>)
100019b0:	4680      	mov	r8, r0
100019b2:	a901      	add	r1, sp, #4
100019b4:	0018      	movs	r0, r3
100019b6:	4699      	mov	r9, r3
100019b8:	f000 f89e 	bl	10001af8 <__mutex_try_enter_veneer>
100019bc:	1e07      	subs	r7, r0, #0
100019be:	d020      	beq.n	10001a02 <__wrap_putchar+0x6a>
100019c0:	4b1b      	ldr	r3, [pc, #108]	; (10001a30 <__wrap_putchar+0x98>)
100019c2:	681c      	ldr	r4, [r3, #0]
100019c4:	2c00      	cmp	r4, #0
100019c6:	d028      	beq.n	10001a1a <__wrap_putchar+0x82>
100019c8:	4d1a      	ldr	r5, [pc, #104]	; (10001a34 <__wrap_putchar+0x9c>)
100019ca:	e002      	b.n	100019d2 <__wrap_putchar+0x3a>
100019cc:	68e4      	ldr	r4, [r4, #12]
100019ce:	2c00      	cmp	r4, #0
100019d0:	d00f      	beq.n	100019f2 <__wrap_putchar+0x5a>
100019d2:	6823      	ldr	r3, [r4, #0]
100019d4:	2b00      	cmp	r3, #0
100019d6:	d0f9      	beq.n	100019cc <__wrap_putchar+0x34>
100019d8:	682b      	ldr	r3, [r5, #0]
100019da:	2b00      	cmp	r3, #0
100019dc:	d001      	beq.n	100019e2 <__wrap_putchar+0x4a>
100019de:	42a3      	cmp	r3, r4
100019e0:	d1f4      	bne.n	100019cc <__wrap_putchar+0x34>
100019e2:	0020      	movs	r0, r4
100019e4:	2201      	movs	r2, #1
100019e6:	0031      	movs	r1, r6
100019e8:	f7ff fefe 	bl	100017e8 <stdio_out_chars_crlf>
100019ec:	68e4      	ldr	r4, [r4, #12]
100019ee:	2c00      	cmp	r4, #0
100019f0:	d1ef      	bne.n	100019d2 <__wrap_putchar+0x3a>
100019f2:	2f00      	cmp	r7, #0
100019f4:	d111      	bne.n	10001a1a <__wrap_putchar+0x82>
100019f6:	4640      	mov	r0, r8
100019f8:	b003      	add	sp, #12
100019fa:	bcc0      	pop	{r6, r7}
100019fc:	46b9      	mov	r9, r7
100019fe:	46b0      	mov	r8, r6
10001a00:	bdf0      	pop	{r4, r5, r6, r7, pc}
10001a02:	9b01      	ldr	r3, [sp, #4]
10001a04:	b264      	sxtb	r4, r4
10001a06:	429c      	cmp	r4, r3
10001a08:	d00b      	beq.n	10001a22 <__wrap_putchar+0x8a>
10001a0a:	4648      	mov	r0, r9
10001a0c:	f000 f87c 	bl	10001b08 <__mutex_enter_blocking_veneer>
10001a10:	4b07      	ldr	r3, [pc, #28]	; (10001a30 <__wrap_putchar+0x98>)
10001a12:	2701      	movs	r7, #1
10001a14:	681c      	ldr	r4, [r3, #0]
10001a16:	2c00      	cmp	r4, #0
10001a18:	d1d6      	bne.n	100019c8 <__wrap_putchar+0x30>
10001a1a:	4648      	mov	r0, r9
10001a1c:	f000 f85c 	bl	10001ad8 <__mutex_exit_veneer>
10001a20:	e7e9      	b.n	100019f6 <__wrap_putchar+0x5e>
10001a22:	4b03      	ldr	r3, [pc, #12]	; (10001a30 <__wrap_putchar+0x98>)
10001a24:	681c      	ldr	r4, [r3, #0]
10001a26:	2c00      	cmp	r4, #0
10001a28:	d1ce      	bne.n	100019c8 <__wrap_putchar+0x30>
10001a2a:	e7e4      	b.n	100019f6 <__wrap_putchar+0x5e>
10001a2c:	20000210 	.word	0x20000210
10001a30:	200005c4 	.word	0x200005c4
10001a34:	200005c8 	.word	0x200005c8

10001a38 <__wrap_puts>:
10001a38:	b570      	push	{r4, r5, r6, lr}
10001a3a:	0004      	movs	r4, r0
10001a3c:	f000 f81a 	bl	10001a74 <strlen>
10001a40:	2300      	movs	r3, #0
10001a42:	0001      	movs	r1, r0
10001a44:	0005      	movs	r5, r0
10001a46:	2201      	movs	r2, #1
10001a48:	0020      	movs	r0, r4
10001a4a:	f7ff ff27 	bl	1000189c <stdio_put_string.isra.0>
10001a4e:	4b08      	ldr	r3, [pc, #32]	; (10001a70 <__wrap_puts+0x38>)
10001a50:	681c      	ldr	r4, [r3, #0]
10001a52:	2c00      	cmp	r4, #0
10001a54:	d006      	beq.n	10001a64 <__wrap_puts+0x2c>
10001a56:	6863      	ldr	r3, [r4, #4]
10001a58:	2b00      	cmp	r3, #0
10001a5a:	d005      	beq.n	10001a68 <__wrap_puts+0x30>
10001a5c:	4798      	blx	r3
10001a5e:	68e4      	ldr	r4, [r4, #12]
10001a60:	2c00      	cmp	r4, #0
10001a62:	d1f8      	bne.n	10001a56 <__wrap_puts+0x1e>
10001a64:	0028      	movs	r0, r5
10001a66:	bd70      	pop	{r4, r5, r6, pc}
10001a68:	68e4      	ldr	r4, [r4, #12]
10001a6a:	2c00      	cmp	r4, #0
10001a6c:	d1f3      	bne.n	10001a56 <__wrap_puts+0x1e>
10001a6e:	e7f9      	b.n	10001a64 <__wrap_puts+0x2c>
10001a70:	200005c4 	.word	0x200005c4

10001a74 <strlen>:
10001a74:	b510      	push	{r4, lr}
10001a76:	0783      	lsls	r3, r0, #30
10001a78:	d00a      	beq.n	10001a90 <strlen+0x1c>
10001a7a:	0003      	movs	r3, r0
10001a7c:	2103      	movs	r1, #3
10001a7e:	e002      	b.n	10001a86 <strlen+0x12>
10001a80:	3301      	adds	r3, #1
10001a82:	420b      	tst	r3, r1
10001a84:	d005      	beq.n	10001a92 <strlen+0x1e>
10001a86:	781a      	ldrb	r2, [r3, #0]
10001a88:	2a00      	cmp	r2, #0
10001a8a:	d1f9      	bne.n	10001a80 <strlen+0xc>
10001a8c:	1a18      	subs	r0, r3, r0
10001a8e:	bd10      	pop	{r4, pc}
10001a90:	0003      	movs	r3, r0
10001a92:	6819      	ldr	r1, [r3, #0]
10001a94:	4a0c      	ldr	r2, [pc, #48]	; (10001ac8 <strlen+0x54>)
10001a96:	4c0d      	ldr	r4, [pc, #52]	; (10001acc <strlen+0x58>)
10001a98:	188a      	adds	r2, r1, r2
10001a9a:	438a      	bics	r2, r1
10001a9c:	4222      	tst	r2, r4
10001a9e:	d10f      	bne.n	10001ac0 <strlen+0x4c>
10001aa0:	6859      	ldr	r1, [r3, #4]
10001aa2:	4a09      	ldr	r2, [pc, #36]	; (10001ac8 <strlen+0x54>)
10001aa4:	3304      	adds	r3, #4
10001aa6:	188a      	adds	r2, r1, r2
10001aa8:	438a      	bics	r2, r1
10001aaa:	4222      	tst	r2, r4
10001aac:	d108      	bne.n	10001ac0 <strlen+0x4c>
10001aae:	6859      	ldr	r1, [r3, #4]
10001ab0:	4a05      	ldr	r2, [pc, #20]	; (10001ac8 <strlen+0x54>)
10001ab2:	3304      	adds	r3, #4
10001ab4:	188a      	adds	r2, r1, r2
10001ab6:	438a      	bics	r2, r1
10001ab8:	4222      	tst	r2, r4
10001aba:	d0f1      	beq.n	10001aa0 <strlen+0x2c>
10001abc:	e000      	b.n	10001ac0 <strlen+0x4c>
10001abe:	3301      	adds	r3, #1
10001ac0:	781a      	ldrb	r2, [r3, #0]
10001ac2:	2a00      	cmp	r2, #0
10001ac4:	d1fb      	bne.n	10001abe <strlen+0x4a>
10001ac6:	e7e1      	b.n	10001a8c <strlen+0x18>
10001ac8:	fefefeff 	.word	0xfefefeff
10001acc:	80808080 	.word	0x80808080

10001ad0 <_fini>:
10001ad0:	b5f8      	push	{r3, r4, r5, r6, r7, lr}
10001ad2:	46c0      	nop			; (mov r8, r8)
10001ad4:	0000      	movs	r0, r0
	...

10001ad8 <__mutex_exit_veneer>:
10001ad8:	b401      	push	{r0}
10001ada:	4802      	ldr	r0, [pc, #8]	; (10001ae4 <__mutex_exit_veneer+0xc>)
10001adc:	4684      	mov	ip, r0
10001ade:	bc01      	pop	{r0}
10001ae0:	4760      	bx	ip
10001ae2:	bf00      	nop
10001ae4:	2000014d 	.word	0x2000014d

10001ae8 <____aeabi_idiv0_veneer>:
10001ae8:	b401      	push	{r0}
10001aea:	4802      	ldr	r0, [pc, #8]	; (10001af4 <____aeabi_idiv0_veneer+0xc>)
10001aec:	4684      	mov	ip, r0
10001aee:	bc01      	pop	{r0}
10001af0:	4760      	bx	ip
10001af2:	bf00      	nop
10001af4:	20000175 	.word	0x20000175

10001af8 <__mutex_try_enter_veneer>:
10001af8:	b401      	push	{r0}
10001afa:	4802      	ldr	r0, [pc, #8]	; (10001b04 <__mutex_try_enter_veneer+0xc>)
10001afc:	4684      	mov	ip, r0
10001afe:	bc01      	pop	{r0}
10001b00:	4760      	bx	ip
10001b02:	bf00      	nop
10001b04:	20000109 	.word	0x20000109

10001b08 <__mutex_enter_blocking_veneer>:
10001b08:	b401      	push	{r0}
10001b0a:	4802      	ldr	r0, [pc, #8]	; (10001b14 <__mutex_enter_blocking_veneer+0xc>)
10001b0c:	4684      	mov	ip, r0
10001b0e:	bc01      	pop	{r0}
10001b10:	4760      	bx	ip
10001b12:	bf00      	nop
10001b14:	200000c1 	.word	0x200000c1

Disassembly of section .data:

200000c0 <mutex_enter_blocking>:
200000c0:	23d0      	movs	r3, #208	; 0xd0
200000c2:	b530      	push	{r4, r5, lr}
200000c4:	2500      	movs	r5, #0
200000c6:	061b      	lsls	r3, r3, #24
200000c8:	2400      	movs	r4, #0
200000ca:	575d      	ldrsb	r5, [r3, r5]
200000cc:	e006      	b.n	200000dc <mutex_enter_blocking+0x1c>
200000ce:	6803      	ldr	r3, [r0, #0]
200000d0:	f3bf 8f5f 	dmb	sy
200000d4:	601c      	str	r4, [r3, #0]
200000d6:	f381 8810 	msr	PRIMASK, r1
200000da:	bf20      	wfe
200000dc:	6802      	ldr	r2, [r0, #0]
200000de:	f3ef 8110 	mrs	r1, PRIMASK
200000e2:	b672      	cpsid	i
200000e4:	6813      	ldr	r3, [r2, #0]
200000e6:	2b00      	cmp	r3, #0
200000e8:	d0fc      	beq.n	200000e4 <mutex_enter_blocking+0x24>
200000ea:	f3bf 8f5f 	dmb	sy
200000ee:	7903      	ldrb	r3, [r0, #4]
200000f0:	2b7f      	cmp	r3, #127	; 0x7f
200000f2:	d9ec      	bls.n	200000ce <mutex_enter_blocking+0xe>
200000f4:	7105      	strb	r5, [r0, #4]
200000f6:	6803      	ldr	r3, [r0, #0]
200000f8:	f3bf 8f5f 	dmb	sy
200000fc:	2200      	movs	r2, #0
200000fe:	601a      	str	r2, [r3, #0]
20000100:	f381 8810 	msr	PRIMASK, r1
20000104:	bd30      	pop	{r4, r5, pc}
20000106:	46c0      	nop			; (mov r8, r8)

20000108 <mutex_try_enter>:
20000108:	0003      	movs	r3, r0
2000010a:	6800      	ldr	r0, [r0, #0]
2000010c:	f3ef 8c10 	mrs	ip, PRIMASK
20000110:	b672      	cpsid	i
20000112:	6802      	ldr	r2, [r0, #0]
20000114:	2a00      	cmp	r2, #0
20000116:	d0fc      	beq.n	20000112 <mutex_try_enter+0xa>
20000118:	f3bf 8f5f 	dmb	sy
2000011c:	2204      	movs	r2, #4
2000011e:	569a      	ldrsb	r2, [r3, r2]
20000120:	2a00      	cmp	r2, #0
20000122:	db0b      	blt.n	2000013c <mutex_try_enter+0x34>
20000124:	2900      	cmp	r1, #0
20000126:	d00f      	beq.n	20000148 <mutex_try_enter+0x40>
20000128:	2000      	movs	r0, #0
2000012a:	600a      	str	r2, [r1, #0]
2000012c:	681b      	ldr	r3, [r3, #0]
2000012e:	f3bf 8f5f 	dmb	sy
20000132:	2200      	movs	r2, #0
20000134:	601a      	str	r2, [r3, #0]
20000136:	f38c 8810 	msr	PRIMASK, ip
2000013a:	4770      	bx	lr
2000013c:	22d0      	movs	r2, #208	; 0xd0
2000013e:	0612      	lsls	r2, r2, #24
20000140:	6812      	ldr	r2, [r2, #0]
20000142:	2001      	movs	r0, #1
20000144:	711a      	strb	r2, [r3, #4]
20000146:	e7f1      	b.n	2000012c <mutex_try_enter+0x24>
20000148:	2000      	movs	r0, #0
2000014a:	e7ef      	b.n	2000012c <mutex_try_enter+0x24>

2000014c <mutex_exit>:
2000014c:	6802      	ldr	r2, [r0, #0]
2000014e:	f3ef 8110 	mrs	r1, PRIMASK
20000152:	b672      	cpsid	i
20000154:	6813      	ldr	r3, [r2, #0]
20000156:	2b00      	cmp	r3, #0
20000158:	d0fc      	beq.n	20000154 <mutex_exit+0x8>
2000015a:	f3bf 8f5f 	dmb	sy
2000015e:	23ff      	movs	r3, #255	; 0xff
20000160:	7103      	strb	r3, [r0, #4]
20000162:	6803      	ldr	r3, [r0, #0]
20000164:	f3bf 8f5f 	dmb	sy
20000168:	2200      	movs	r2, #0
2000016a:	601a      	str	r2, [r3, #0]
2000016c:	f381 8810 	msr	PRIMASK, r1
20000170:	bf40      	sev
20000172:	4770      	bx	lr

20000174 <__aeabi_idiv0>:
20000174:	4770      	bx	lr
20000176:	46c0      	nop			; (mov r8, r8)

20000178 <striped_spin_lock_num>:
20000178:	0010 0000                                   ....

2000017c <irq_handler_chain_slots>:
2000017c:	00000000 	.word	0x00000000
20000180:	00010000 	.word	0x00010000
	...
2000018c:	00020000 	.word	0x00020000
	...
20000198:	00030000 	.word	0x00030000
	...
200001a4:	00ff0000 	.word	0x00ff0000
200001a8:	00000000 	.word	0x00000000

200001ac <irq_handler_chain_first_slot>:
200001ac:	b500      	push	{lr}
200001ae:	6848      	ldr	r0, [r1, #4]
200001b0:	3101      	adds	r1, #1
200001b2:	468e      	mov	lr, r1
200001b4:	4700      	bx	r0

200001b6 <irq_handler_chain_remove_tail>:
200001b6:	4670      	mov	r0, lr
200001b8:	3809      	subs	r0, #9
200001ba:	4901      	ldr	r1, [pc, #4]	; (200001c0 <irq_handler_chain_remove_tail+0xa>)
200001bc:	4788      	blx	r1
200001be:	bd00      	pop	{pc}
200001c0:	100005e9 	.word	0x100005e9

200001c4 <default_alarm_pool>:
200001c4:	200001dc 00000000 20000230 20000584     ... ....0.. ... 
	...

200001dc <default_alarm_pool_heap>:
200001dc:	20000594 00000000 00000000 00000010     ... ............
200001ec:	00000000                                ....

200001f0 <aeabi_bits_funcs>:
200001f0:	00003350 	.word	0x00003350
200001f4:	0000334c 	.word	0x0000334c
200001f8:	00003354 	.word	0x00003354
200001fc:	00003352 	.word	0x00003352

20000200 <aeabi_bits_funcs_end>:
20000200:	0000534d 	.word	0x0000534d
20000204:	0000434d 	.word	0x0000434d
20000208:	00003453 	.word	0x00003453
2000020c:	00003443 	.word	0x00003443

20000210 <print_mutex>:
	...

20000218 <__mutex_array_end>:
20000218:	100017bd 	.word	0x100017bd
2000021c:	100015ad 	.word	0x100015ad
20000220:	1000166d 	.word	0x1000166d
20000224:	1000172d 	.word	0x1000172d

20000228 <__frame_dummy_init_array_entry>:
20000228:	100002ed                                ....
