
C:/Users/Administrator.ADMINTR-QA7FV09/Documents/College/Microprocessors/pico-apps/examples/ws2812_rgb/ws2812_rgb.elf:     file format elf32-littlearm

Sections:
Idx Name          Size      VMA       LMA       File off  Algn
  0 .boot2        00000100  10000000  10000000  00001000  2**0
                  CONTENTS, ALLOC, LOAD, READONLY, CODE
  1 .text         00002248  10000100  10000100  00001100  2**3
                  CONTENTS, ALLOC, LOAD, READONLY, CODE
  2 .rodata       00000158  10002348  10002348  00003348  2**2
                  CONTENTS, ALLOC, LOAD, READONLY, DATA
  3 .binary_info  00000028  100024a0  100024a0  000034a0  2**2
                  CONTENTS, ALLOC, LOAD, DATA
  4 .ram_vector_table 000000c0  20000000  20000000  00004240  2**2
                  CONTENTS
  5 .data         00000180  200000c0  100024c8  000040c0  2**4
                  CONTENTS, ALLOC, LOAD, CODE
  6 .uninitialized_data 00000000  20000240  20000240  00004300  2**0
                  CONTENTS
  7 .scratch_x    00000000  20040000  20040000  00004300  2**0
                  CONTENTS
  8 .scratch_y    00000000  20041000  20041000  00004300  2**0
                  CONTENTS
  9 .bss          000003dc  20000240  20000240  00004240  2**3
                  ALLOC
 10 .heap         00000800  2000061c  2000061c  00004300  2**2
                  CONTENTS, READONLY
 11 .stack_dummy  00000800  20041000  20041000  00004b00  2**5
                  CONTENTS, READONLY
 12 .ARM.attributes 00000028  00000000  00000000  00005300  2**0
                  CONTENTS, READONLY
 13 .comment      00000049  00000000  00000000  00005328  2**0
                  CONTENTS, READONLY
 14 .debug_frame  00000028  00000000  00000000  00005374  2**2
                  CONTENTS, READONLY, DEBUGGING, OCTETS

C:/Users/Administrator.ADMINTR-QA7FV09/Documents/College/Microprocessors/pico-apps/examples/ws2812_rgb/ws2812_rgb.elf:     file format elf32-littlearm


Disassembly of section .boot2:

10000000 <__boot2_start__>:
10000000:	4b32b500 	.word	0x4b32b500
10000004:	60582021 	.word	0x60582021
10000008:	21026898 	.word	0x21026898
1000000c:	60984388 	.word	0x60984388
10000010:	611860d8 	.word	0x611860d8
10000014:	4b2e6158 	.word	0x4b2e6158
10000018:	60992100 	.word	0x60992100
1000001c:	61592102 	.word	0x61592102
10000020:	22f02101 	.word	0x22f02101
10000024:	492b5099 	.word	0x492b5099
10000028:	21016019 	.word	0x21016019
1000002c:	20356099 	.word	0x20356099
10000030:	f844f000 	.word	0xf844f000
10000034:	42902202 	.word	0x42902202
10000038:	2106d014 	.word	0x2106d014
1000003c:	f0006619 	.word	0xf0006619
10000040:	6e19f834 	.word	0x6e19f834
10000044:	66192101 	.word	0x66192101
10000048:	66182000 	.word	0x66182000
1000004c:	f000661a 	.word	0xf000661a
10000050:	6e19f82c 	.word	0x6e19f82c
10000054:	6e196e19 	.word	0x6e196e19
10000058:	f0002005 	.word	0xf0002005
1000005c:	2101f82f 	.word	0x2101f82f
10000060:	d1f94208 	.word	0xd1f94208
10000064:	60992100 	.word	0x60992100
10000068:	6019491b 	.word	0x6019491b
1000006c:	60592100 	.word	0x60592100
10000070:	481b491a 	.word	0x481b491a
10000074:	21016001 	.word	0x21016001
10000078:	21eb6099 	.word	0x21eb6099
1000007c:	21a06619 	.word	0x21a06619
10000080:	f0006619 	.word	0xf0006619
10000084:	2100f812 	.word	0x2100f812
10000088:	49166099 	.word	0x49166099
1000008c:	60014814 	.word	0x60014814
10000090:	60992101 	.word	0x60992101
10000094:	2800bc01 	.word	0x2800bc01
10000098:	4700d000 	.word	0x4700d000
1000009c:	49134812 	.word	0x49134812
100000a0:	c8036008 	.word	0xc8036008
100000a4:	8808f380 	.word	0x8808f380
100000a8:	b5034708 	.word	0xb5034708
100000ac:	20046a99 	.word	0x20046a99
100000b0:	d0fb4201 	.word	0xd0fb4201
100000b4:	42012001 	.word	0x42012001
100000b8:	bd03d1f8 	.word	0xbd03d1f8
100000bc:	6618b502 	.word	0x6618b502
100000c0:	f7ff6618 	.word	0xf7ff6618
100000c4:	6e18fff2 	.word	0x6e18fff2
100000c8:	bd026e18 	.word	0xbd026e18
100000cc:	40020000 	.word	0x40020000
100000d0:	18000000 	.word	0x18000000
100000d4:	00070000 	.word	0x00070000
100000d8:	005f0300 	.word	0x005f0300
100000dc:	00002221 	.word	0x00002221
100000e0:	180000f4 	.word	0x180000f4
100000e4:	a0002022 	.word	0xa0002022
100000e8:	10000100 	.word	0x10000100
100000ec:	e000ed08 	.word	0xe000ed08
	...
100000fc:	7a4eb274 	.word	0x7a4eb274

Disassembly of section .text:

10000100 <__VECTOR_TABLE>:
10000100:	20042000 	.word	0x20042000
10000104:	100001f7 	.word	0x100001f7
10000108:	100001c3 	.word	0x100001c3
1000010c:	100001c5 	.word	0x100001c5
10000110:	100001c1 	.word	0x100001c1
10000114:	100001c1 	.word	0x100001c1
10000118:	100001c1 	.word	0x100001c1
1000011c:	100001c1 	.word	0x100001c1
10000120:	100001c1 	.word	0x100001c1
10000124:	100001c1 	.word	0x100001c1
10000128:	100001c1 	.word	0x100001c1
1000012c:	100001c7 	.word	0x100001c7
10000130:	100001c1 	.word	0x100001c1
10000134:	100001c1 	.word	0x100001c1
10000138:	100001c9 	.word	0x100001c9
1000013c:	100001cb 	.word	0x100001cb
10000140:	100001cd 	.word	0x100001cd
10000144:	100001cd 	.word	0x100001cd
10000148:	100001cd 	.word	0x100001cd
1000014c:	100001cd 	.word	0x100001cd
10000150:	100001cd 	.word	0x100001cd
10000154:	100001cd 	.word	0x100001cd
10000158:	100001cd 	.word	0x100001cd
1000015c:	100001cd 	.word	0x100001cd
10000160:	100001cd 	.word	0x100001cd
10000164:	100001cd 	.word	0x100001cd
10000168:	100001cd 	.word	0x100001cd
1000016c:	100001cd 	.word	0x100001cd
10000170:	100001cd 	.word	0x100001cd
10000174:	100001cd 	.word	0x100001cd
10000178:	100001cd 	.word	0x100001cd
1000017c:	100001cd 	.word	0x100001cd
10000180:	100001cd 	.word	0x100001cd
10000184:	100001cd 	.word	0x100001cd
10000188:	100001cd 	.word	0x100001cd
1000018c:	100001cd 	.word	0x100001cd
10000190:	100001cd 	.word	0x100001cd
10000194:	100001cd 	.word	0x100001cd
10000198:	100001cd 	.word	0x100001cd
1000019c:	100001cd 	.word	0x100001cd
100001a0:	100001cd 	.word	0x100001cd
100001a4:	100001cd 	.word	0x100001cd
100001a8:	100001cd 	.word	0x100001cd
100001ac:	100001cd 	.word	0x100001cd
100001b0:	100001cd 	.word	0x100001cd
100001b4:	100001cd 	.word	0x100001cd
100001b8:	100001cd 	.word	0x100001cd
100001bc:	100001cd 	.word	0x100001cd

100001c0 <isr_invalid>:
100001c0:	be00      	bkpt	0x0000

100001c2 <isr_nmi>:
100001c2:	be00      	bkpt	0x0000

100001c4 <isr_hardfault>:
100001c4:	be00      	bkpt	0x0000

100001c6 <isr_svcall>:
100001c6:	be00      	bkpt	0x0000

100001c8 <isr_pendsv>:
100001c8:	be00      	bkpt	0x0000

100001ca <isr_systick>:
100001ca:	be00      	bkpt	0x0000

100001cc <__unhandled_user_irq>:
100001cc:	f000 f84b 	bl	10000266 <__get_current_exception>
100001d0:	3810      	subs	r0, #16

100001d2 <unhandled_user_irq_num_in_r0>:
100001d2:	be00      	bkpt	0x0000

100001d4 <binary_info_header>:
100001d4:	7188ebf2 	.word	0x7188ebf2
100001d8:	100024a0 	.word	0x100024a0
100001dc:	100024c8 	.word	0x100024c8
100001e0:	10000234 	.word	0x10000234
100001e4:	e71aa390 	.word	0xe71aa390

100001e8 <_entry_point>:
100001e8:	2000      	movs	r0, #0
100001ea:	4921      	ldr	r1, [pc, #132]	; (10000270 <__get_current_exception+0xa>)
100001ec:	6008      	str	r0, [r1, #0]
100001ee:	c806      	ldmia	r0!, {r1, r2}
100001f0:	f381 8808 	msr	MSP, r1
100001f4:	4710      	bx	r2

100001f6 <_reset_handler>:
100001f6:	481f      	ldr	r0, [pc, #124]	; (10000274 <__get_current_exception+0xe>)
100001f8:	6800      	ldr	r0, [r0, #0]
100001fa:	2800      	cmp	r0, #0
100001fc:	d12f      	bne.n	1000025e <hold_non_core0_in_bootrom>
100001fe:	a40d      	add	r4, pc, #52	; (adr r4, 10000234 <data_cpy_table>)
10000200:	cc0e      	ldmia	r4!, {r1, r2, r3}
10000202:	2900      	cmp	r1, #0
10000204:	d002      	beq.n	1000020c <_reset_handler+0x16>
10000206:	f000 f812 	bl	1000022e <data_cpy>
1000020a:	e7f9      	b.n	10000200 <_reset_handler+0xa>
1000020c:	491a      	ldr	r1, [pc, #104]	; (10000278 <__get_current_exception+0x12>)
1000020e:	4a1b      	ldr	r2, [pc, #108]	; (1000027c <__get_current_exception+0x16>)
10000210:	2000      	movs	r0, #0
10000212:	e000      	b.n	10000216 <bss_fill_test>

10000214 <bss_fill_loop>:
10000214:	c101      	stmia	r1!, {r0}

10000216 <bss_fill_test>:
10000216:	4291      	cmp	r1, r2
10000218:	d1fc      	bne.n	10000214 <bss_fill_loop>

1000021a <platform_entry>:
1000021a:	4919      	ldr	r1, [pc, #100]	; (10000280 <__get_current_exception+0x1a>)
1000021c:	4788      	blx	r1
1000021e:	4919      	ldr	r1, [pc, #100]	; (10000284 <__get_current_exception+0x1e>)
10000220:	4788      	blx	r1
10000222:	4919      	ldr	r1, [pc, #100]	; (10000288 <__get_current_exception+0x22>)
10000224:	4788      	blx	r1
10000226:	be00      	bkpt	0x0000
10000228:	e7fd      	b.n	10000226 <platform_entry+0xc>

1000022a <data_cpy_loop>:
1000022a:	c901      	ldmia	r1!, {r0}
1000022c:	c201      	stmia	r2!, {r0}

1000022e <data_cpy>:
1000022e:	429a      	cmp	r2, r3
10000230:	d3fb      	bcc.n	1000022a <data_cpy_loop>
10000232:	4770      	bx	lr

10000234 <data_cpy_table>:
10000234:	100024c8 	.word	0x100024c8
10000238:	200000c0 	.word	0x200000c0
1000023c:	20000240 	.word	0x20000240
10000240:	10002648 	.word	0x10002648
10000244:	20040000 	.word	0x20040000
10000248:	20040000 	.word	0x20040000
1000024c:	10002648 	.word	0x10002648
10000250:	20041000 	.word	0x20041000
10000254:	20041000 	.word	0x20041000
10000258:	00000000 	.word	0x00000000
1000025c:	4770      	bx	lr

1000025e <hold_non_core0_in_bootrom>:
1000025e:	480b      	ldr	r0, [pc, #44]	; (1000028c <__get_current_exception+0x26>)
10000260:	f001 fbe8 	bl	10001a34 <rom_func_lookup>
10000264:	4700      	bx	r0

10000266 <__get_current_exception>:
10000266:	f3ef 8005 	mrs	r0, IPSR
1000026a:	b2c0      	uxtb	r0, r0
1000026c:	4770      	bx	lr
1000026e:	0000      	.short	0x0000
10000270:	e000ed08 	.word	0xe000ed08
10000274:	d0000000 	.word	0xd0000000
10000278:	20000240 	.word	0x20000240
1000027c:	2000061c 	.word	0x2000061c
10000280:	10001505 	.word	0x10001505
10000284:	1000030d 	.word	0x1000030d
10000288:	100015f5 	.word	0x100015f5
1000028c:	00005657 	.word	0x00005657

10000290 <__bi_50>:
10000290:	50520006 5360b3ab 100023fc              ..RP..`S.#..

1000029c <__bi_38>:
1000029c:	50520006 02031c86 100023f0              ..RP.....#..

100002a8 <__bi_30>:
100002a8:	50520006 9da22254 1000240c              ..RPT"...$..

100002b4 <__bi_22>:
100002b4:	50520005 68f465de 10002648              ..RP.e.hH&..

100002c0 <_init>:
100002c0:	b5f8      	push	{r3, r4, r5, r6, r7, lr}
100002c2:	46c0      	nop			; (mov r8, r8)

100002c4 <__do_global_dtors_aux>:
100002c4:	b510      	push	{r4, lr}
100002c6:	4c06      	ldr	r4, [pc, #24]	; (100002e0 <__do_global_dtors_aux+0x1c>)
100002c8:	7823      	ldrb	r3, [r4, #0]
100002ca:	2b00      	cmp	r3, #0
100002cc:	d107      	bne.n	100002de <__do_global_dtors_aux+0x1a>
100002ce:	4b05      	ldr	r3, [pc, #20]	; (100002e4 <__do_global_dtors_aux+0x20>)
100002d0:	2b00      	cmp	r3, #0
100002d2:	d002      	beq.n	100002da <__do_global_dtors_aux+0x16>
100002d4:	4804      	ldr	r0, [pc, #16]	; (100002e8 <__do_global_dtors_aux+0x24>)
100002d6:	e000      	b.n	100002da <__do_global_dtors_aux+0x16>
100002d8:	bf00      	nop
100002da:	2301      	movs	r3, #1
100002dc:	7023      	strb	r3, [r4, #0]
100002de:	bd10      	pop	{r4, pc}
100002e0:	20000540 	.word	0x20000540
100002e4:	00000000 	.word	0x00000000
100002e8:	10002348 	.word	0x10002348

100002ec <frame_dummy>:
100002ec:	4b04      	ldr	r3, [pc, #16]	; (10000300 <frame_dummy+0x14>)
100002ee:	b510      	push	{r4, lr}
100002f0:	2b00      	cmp	r3, #0
100002f2:	d003      	beq.n	100002fc <frame_dummy+0x10>
100002f4:	4903      	ldr	r1, [pc, #12]	; (10000304 <frame_dummy+0x18>)
100002f6:	4804      	ldr	r0, [pc, #16]	; (10000308 <frame_dummy+0x1c>)
100002f8:	e000      	b.n	100002fc <frame_dummy+0x10>
100002fa:	bf00      	nop
100002fc:	bd10      	pop	{r4, pc}
100002fe:	46c0      	nop			; (mov r8, r8)
10000300:	00000000 	.word	0x00000000
10000304:	20000544 	.word	0x20000544
10000308:	10002348 	.word	0x10002348

1000030c <main>:
1000030c:	b570      	push	{r4, r5, r6, lr}
1000030e:	b086      	sub	sp, #24
10000310:	f001 fe70 	bl	10001ff4 <stdio_init_all>
10000314:	4935      	ldr	r1, [pc, #212]	; (100003ec <main+0xe0>)
10000316:	4836      	ldr	r0, [pc, #216]	; (100003f0 <main+0xe4>)
10000318:	f001 fed6 	bl	100020c8 <pio_add_program>
1000031c:	2106      	movs	r1, #6
1000031e:	0005      	movs	r5, r0
10000320:	201c      	movs	r0, #28
10000322:	f000 f86f 	bl	10000404 <gpio_set_function>
10000326:	2301      	movs	r3, #1
10000328:	2100      	movs	r1, #0
1000032a:	221c      	movs	r2, #28
1000032c:	4830      	ldr	r0, [pc, #192]	; (100003f0 <main+0xe4>)
1000032e:	9300      	str	r3, [sp, #0]
10000330:	f001 ff2e 	bl	10002190 <pio_sm_set_consecutive_pindirs>
10000334:	2380      	movs	r3, #128	; 0x80
10000336:	025b      	lsls	r3, r3, #9
10000338:	9302      	str	r3, [sp, #8]
1000033a:	1ceb      	adds	r3, r5, #3
1000033c:	01ea      	lsls	r2, r5, #7
1000033e:	031b      	lsls	r3, r3, #12
10000340:	4313      	orrs	r3, r2
10000342:	4a2c      	ldr	r2, [pc, #176]	; (100003f4 <main+0xe8>)
10000344:	2005      	movs	r0, #5
10000346:	4013      	ands	r3, r2
10000348:	9303      	str	r3, [sp, #12]
1000034a:	4b2b      	ldr	r3, [pc, #172]	; (100003f8 <main+0xec>)
1000034c:	9305      	str	r3, [sp, #20]
1000034e:	4b2b      	ldr	r3, [pc, #172]	; (100003fc <main+0xf0>)
10000350:	9304      	str	r3, [sp, #16]
10000352:	f001 facd 	bl	100018f0 <clock_get_hz>
10000356:	f001 fc63 	bl	10001c20 <__wrap___aeabi_ui2f>
1000035a:	4929      	ldr	r1, [pc, #164]	; (10000400 <main+0xf4>)
1000035c:	f001 fc45 	bl	10001bea <__wrap___aeabi_fdiv>
10000360:	1c06      	adds	r6, r0, #0
10000362:	f001 fc85 	bl	10001c70 <__wrap___aeabi_f2uiz>
10000366:	b284      	uxth	r4, r0
10000368:	2300      	movs	r3, #0
1000036a:	2c00      	cmp	r4, #0
1000036c:	d00d      	beq.n	1000038a <main+0x7e>
1000036e:	0020      	movs	r0, r4
10000370:	f001 fc56 	bl	10001c20 <__wrap___aeabi_ui2f>
10000374:	1c01      	adds	r1, r0, #0
10000376:	1c30      	adds	r0, r6, #0
10000378:	f001 fc31 	bl	10001bde <__wrap___aeabi_fsub>
1000037c:	2187      	movs	r1, #135	; 0x87
1000037e:	05c9      	lsls	r1, r1, #23
10000380:	f001 fc47 	bl	10001c12 <__wrap___aeabi_fmul>
10000384:	f001 fc74 	bl	10001c70 <__wrap___aeabi_f2uiz>
10000388:	b2c3      	uxtb	r3, r0
1000038a:	0424      	lsls	r4, r4, #16
1000038c:	021b      	lsls	r3, r3, #8
1000038e:	4323      	orrs	r3, r4
10000390:	4c17      	ldr	r4, [pc, #92]	; (100003f0 <main+0xe4>)
10000392:	002a      	movs	r2, r5
10000394:	9302      	str	r3, [sp, #8]
10000396:	2100      	movs	r1, #0
10000398:	ab02      	add	r3, sp, #8
1000039a:	0020      	movs	r0, r4
1000039c:	f001 ff3a 	bl	10002214 <pio_sm_init>
100003a0:	2201      	movs	r2, #1
100003a2:	2580      	movs	r5, #128	; 0x80
100003a4:	6823      	ldr	r3, [r4, #0]
100003a6:	026d      	lsls	r5, r5, #9
100003a8:	4313      	orrs	r3, r2
100003aa:	6023      	str	r3, [r4, #0]
100003ac:	6863      	ldr	r3, [r4, #4]
100003ae:	422b      	tst	r3, r5
100003b0:	d1fc      	bne.n	100003ac <main+0xa0>
100003b2:	23fe      	movs	r3, #254	; 0xfe
100003b4:	20fa      	movs	r0, #250	; 0xfa
100003b6:	03db      	lsls	r3, r3, #15
100003b8:	6123      	str	r3, [r4, #16]
100003ba:	0040      	lsls	r0, r0, #1
100003bc:	f000 fcd2 	bl	10000d64 <sleep_ms>
100003c0:	6863      	ldr	r3, [r4, #4]
100003c2:	422b      	tst	r3, r5
100003c4:	d1fc      	bne.n	100003c0 <main+0xb4>
100003c6:	23fe      	movs	r3, #254	; 0xfe
100003c8:	20fa      	movs	r0, #250	; 0xfa
100003ca:	05db      	lsls	r3, r3, #23
100003cc:	6123      	str	r3, [r4, #16]
100003ce:	0040      	lsls	r0, r0, #1
100003d0:	f000 fcc8 	bl	10000d64 <sleep_ms>
100003d4:	6863      	ldr	r3, [r4, #4]
100003d6:	422b      	tst	r3, r5
100003d8:	d1fc      	bne.n	100003d4 <main+0xc8>
100003da:	23fe      	movs	r3, #254	; 0xfe
100003dc:	20fa      	movs	r0, #250	; 0xfa
100003de:	01db      	lsls	r3, r3, #7
100003e0:	6123      	str	r3, [r4, #16]
100003e2:	0040      	lsls	r0, r0, #1
100003e4:	f000 fcbe 	bl	10000d64 <sleep_ms>
100003e8:	e7e0      	b.n	100003ac <main+0xa0>
100003ea:	46c0      	nop			; (mov r8, r8)
100003ec:	10002348 	.word	0x10002348
100003f0:	50200000 	.word	0x50200000
100003f4:	9fffffff 	.word	0x9fffffff
100003f8:	20007000 	.word	0x20007000
100003fc:	40060000 	.word	0x40060000
10000400:	4af42400 	.word	0x4af42400

10000404 <gpio_set_function>:
10000404:	4a09      	ldr	r2, [pc, #36]	; (1000042c <gpio_set_function+0x28>)
10000406:	0083      	lsls	r3, r0, #2
10000408:	4694      	mov	ip, r2
1000040a:	2240      	movs	r2, #64	; 0x40
1000040c:	4463      	add	r3, ip
1000040e:	b510      	push	{r4, lr}
10000410:	681c      	ldr	r4, [r3, #0]
10000412:	00c0      	lsls	r0, r0, #3
10000414:	4062      	eors	r2, r4
10000416:	24c0      	movs	r4, #192	; 0xc0
10000418:	4014      	ands	r4, r2
1000041a:	2280      	movs	r2, #128	; 0x80
1000041c:	0152      	lsls	r2, r2, #5
1000041e:	4313      	orrs	r3, r2
10000420:	601c      	str	r4, [r3, #0]
10000422:	4b03      	ldr	r3, [pc, #12]	; (10000430 <gpio_set_function+0x2c>)
10000424:	469c      	mov	ip, r3
10000426:	4460      	add	r0, ip
10000428:	6041      	str	r1, [r0, #4]
1000042a:	bd10      	pop	{r4, pc}
1000042c:	4001c004 	.word	0x4001c004
10000430:	40014000 	.word	0x40014000

10000434 <hw_claim_lock>:
10000434:	f3ef 8010 	mrs	r0, PRIMASK
10000438:	b672      	cpsid	i
1000043a:	4a03      	ldr	r2, [pc, #12]	; (10000448 <hw_claim_lock+0x14>)
1000043c:	6813      	ldr	r3, [r2, #0]
1000043e:	2b00      	cmp	r3, #0
10000440:	d0fc      	beq.n	1000043c <hw_claim_lock+0x8>
10000442:	f3bf 8f5f 	dmb	sy
10000446:	4770      	bx	lr
10000448:	d000012c 	.word	0xd000012c

1000044c <hw_claim_unlock>:
1000044c:	f3bf 8f5f 	dmb	sy
10000450:	2200      	movs	r2, #0
10000452:	4b02      	ldr	r3, [pc, #8]	; (1000045c <hw_claim_unlock+0x10>)
10000454:	601a      	str	r2, [r3, #0]
10000456:	f380 8810 	msr	PRIMASK, r0
1000045a:	4770      	bx	lr
1000045c:	d000012c 	.word	0xd000012c

10000460 <hw_claim_or_assert>:
10000460:	b570      	push	{r4, r5, r6, lr}
10000462:	f3ef 8c10 	mrs	ip, PRIMASK
10000466:	b672      	cpsid	i
10000468:	4d0d      	ldr	r5, [pc, #52]	; (100004a0 <hw_claim_or_assert+0x40>)
1000046a:	682b      	ldr	r3, [r5, #0]
1000046c:	2b00      	cmp	r3, #0
1000046e:	d0fc      	beq.n	1000046a <hw_claim_or_assert+0xa>
10000470:	f3bf 8f5f 	dmb	sy
10000474:	2407      	movs	r4, #7
10000476:	08cb      	lsrs	r3, r1, #3
10000478:	18c6      	adds	r6, r0, r3
1000047a:	5cc0      	ldrb	r0, [r0, r3]
1000047c:	2301      	movs	r3, #1
1000047e:	400c      	ands	r4, r1
10000480:	40a3      	lsls	r3, r4
10000482:	001c      	movs	r4, r3
10000484:	4004      	ands	r4, r0
10000486:	4203      	tst	r3, r0
10000488:	d107      	bne.n	1000049a <hw_claim_or_assert+0x3a>
1000048a:	4303      	orrs	r3, r0
1000048c:	7033      	strb	r3, [r6, #0]
1000048e:	f3bf 8f5f 	dmb	sy
10000492:	602c      	str	r4, [r5, #0]
10000494:	f38c 8810 	msr	PRIMASK, ip
10000498:	bd70      	pop	{r4, r5, r6, pc}
1000049a:	0010      	movs	r0, r2
1000049c:	f001 f8ac 	bl	100015f8 <panic>
100004a0:	d000012c 	.word	0xd000012c

100004a4 <running_on_fpga>:
100004a4:	4b02      	ldr	r3, [pc, #8]	; (100004b0 <running_on_fpga+0xc>)
100004a6:	6818      	ldr	r0, [r3, #0]
100004a8:	0780      	lsls	r0, r0, #30
100004aa:	0fc0      	lsrs	r0, r0, #31
100004ac:	4770      	bx	lr
100004ae:	46c0      	nop			; (mov r8, r8)
100004b0:	4006c000 	.word	0x4006c000

100004b4 <spin_locks_reset>:
100004b4:	2100      	movs	r1, #0
100004b6:	4b04      	ldr	r3, [pc, #16]	; (100004c8 <spin_locks_reset+0x14>)
100004b8:	4a04      	ldr	r2, [pc, #16]	; (100004cc <spin_locks_reset+0x18>)
100004ba:	f3bf 8f5f 	dmb	sy
100004be:	c302      	stmia	r3!, {r1}
100004c0:	4293      	cmp	r3, r2
100004c2:	d1fa      	bne.n	100004ba <spin_locks_reset+0x6>
100004c4:	4770      	bx	lr
100004c6:	46c0      	nop			; (mov r8, r8)
100004c8:	d0000100 	.word	0xd0000100
100004cc:	d0000180 	.word	0xd0000180

100004d0 <next_striped_spin_lock_num>:
100004d0:	4a04      	ldr	r2, [pc, #16]	; (100004e4 <next_striped_spin_lock_num+0x14>)
100004d2:	7810      	ldrb	r0, [r2, #0]
100004d4:	1c43      	adds	r3, r0, #1
100004d6:	b2db      	uxtb	r3, r3
100004d8:	2b17      	cmp	r3, #23
100004da:	d900      	bls.n	100004de <next_striped_spin_lock_num+0xe>
100004dc:	2310      	movs	r3, #16
100004de:	7013      	strb	r3, [r2, #0]
100004e0:	4770      	bx	lr
100004e2:	46c0      	nop			; (mov r8, r8)
100004e4:	20000178 	.word	0x20000178

100004e8 <irq_set_enabled>:
100004e8:	2301      	movs	r3, #1
100004ea:	4083      	lsls	r3, r0
100004ec:	2900      	cmp	r1, #0
100004ee:	d004      	beq.n	100004fa <irq_set_enabled+0x12>
100004f0:	4a03      	ldr	r2, [pc, #12]	; (10000500 <irq_set_enabled+0x18>)
100004f2:	6013      	str	r3, [r2, #0]
100004f4:	4a03      	ldr	r2, [pc, #12]	; (10000504 <irq_set_enabled+0x1c>)
100004f6:	6013      	str	r3, [r2, #0]
100004f8:	4770      	bx	lr
100004fa:	4a03      	ldr	r2, [pc, #12]	; (10000508 <irq_set_enabled+0x20>)
100004fc:	6013      	str	r3, [r2, #0]
100004fe:	e7fb      	b.n	100004f8 <irq_set_enabled+0x10>
10000500:	e000e280 	.word	0xe000e280
10000504:	e000e100 	.word	0xe000e100
10000508:	e000e180 	.word	0xe000e180

1000050c <irq_get_vtable_handler>:
1000050c:	4b02      	ldr	r3, [pc, #8]	; (10000518 <irq_get_vtable_handler+0xc>)
1000050e:	3010      	adds	r0, #16
10000510:	689b      	ldr	r3, [r3, #8]
10000512:	0080      	lsls	r0, r0, #2
10000514:	58c0      	ldr	r0, [r0, r3]
10000516:	4770      	bx	lr
10000518:	e000ed00 	.word	0xe000ed00

1000051c <irq_set_exclusive_handler>:
1000051c:	b570      	push	{r4, r5, r6, lr}
1000051e:	000d      	movs	r5, r1
10000520:	f3ef 8610 	mrs	r6, PRIMASK
10000524:	b672      	cpsid	i
10000526:	4a0f      	ldr	r2, [pc, #60]	; (10000564 <irq_set_exclusive_handler+0x48>)
10000528:	6813      	ldr	r3, [r2, #0]
1000052a:	2b00      	cmp	r3, #0
1000052c:	d0fc      	beq.n	10000528 <irq_set_exclusive_handler+0xc>
1000052e:	f3bf 8f5f 	dmb	sy
10000532:	4b0d      	ldr	r3, [pc, #52]	; (10000568 <irq_set_exclusive_handler+0x4c>)
10000534:	3010      	adds	r0, #16
10000536:	689b      	ldr	r3, [r3, #8]
10000538:	0084      	lsls	r4, r0, #2
1000053a:	591b      	ldr	r3, [r3, r4]
1000053c:	4a0b      	ldr	r2, [pc, #44]	; (1000056c <irq_set_exclusive_handler+0x50>)
1000053e:	4293      	cmp	r3, r2
10000540:	d003      	beq.n	1000054a <irq_set_exclusive_handler+0x2e>
10000542:	429d      	cmp	r5, r3
10000544:	d001      	beq.n	1000054a <irq_set_exclusive_handler+0x2e>
10000546:	f001 f86f 	bl	10001628 <hard_assertion_failure>
1000054a:	4b07      	ldr	r3, [pc, #28]	; (10000568 <irq_set_exclusive_handler+0x4c>)
1000054c:	689b      	ldr	r3, [r3, #8]
1000054e:	511d      	str	r5, [r3, r4]
10000550:	f3bf 8f5f 	dmb	sy
10000554:	f3bf 8f5f 	dmb	sy
10000558:	2200      	movs	r2, #0
1000055a:	4b02      	ldr	r3, [pc, #8]	; (10000564 <irq_set_exclusive_handler+0x48>)
1000055c:	601a      	str	r2, [r3, #0]
1000055e:	f386 8810 	msr	PRIMASK, r6
10000562:	bd70      	pop	{r4, r5, r6, pc}
10000564:	d0000124 	.word	0xd0000124
10000568:	e000ed00 	.word	0xe000ed00
1000056c:	100001cd 	.word	0x100001cd

10000570 <irq_remove_handler>:
10000570:	b5f0      	push	{r4, r5, r6, r7, lr}
10000572:	46de      	mov	lr, fp
10000574:	4657      	mov	r7, sl
10000576:	464e      	mov	r6, r9
10000578:	4645      	mov	r5, r8
1000057a:	b5e0      	push	{r5, r6, r7, lr}
1000057c:	000c      	movs	r4, r1
1000057e:	b083      	sub	sp, #12
10000580:	f3ef 8a10 	mrs	sl, PRIMASK
10000584:	b672      	cpsid	i
10000586:	4a5a      	ldr	r2, [pc, #360]	; (100006f0 <irq_remove_handler+0x180>)
10000588:	6813      	ldr	r3, [r2, #0]
1000058a:	2b00      	cmp	r3, #0
1000058c:	d0fc      	beq.n	10000588 <irq_remove_handler+0x18>
1000058e:	f3bf 8f5f 	dmb	sy
10000592:	2210      	movs	r2, #16
10000594:	4691      	mov	r9, r2
10000596:	4481      	add	r9, r0
10000598:	464a      	mov	r2, r9
1000059a:	4b56      	ldr	r3, [pc, #344]	; (100006f4 <irq_remove_handler+0x184>)
1000059c:	0096      	lsls	r6, r2, #2
1000059e:	689b      	ldr	r3, [r3, #8]
100005a0:	599d      	ldr	r5, [r3, r6]
100005a2:	4b55      	ldr	r3, [pc, #340]	; (100006f8 <irq_remove_handler+0x188>)
100005a4:	4698      	mov	r8, r3
100005a6:	429d      	cmp	r5, r3
100005a8:	d005      	beq.n	100005b6 <irq_remove_handler+0x46>
100005aa:	42a5      	cmp	r5, r4
100005ac:	d016      	beq.n	100005dc <irq_remove_handler+0x6c>
100005ae:	4f53      	ldr	r7, [pc, #332]	; (100006fc <irq_remove_handler+0x18c>)
100005b0:	1beb      	subs	r3, r5, r7
100005b2:	2b2f      	cmp	r3, #47	; 0x2f
100005b4:	d914      	bls.n	100005e0 <irq_remove_handler+0x70>
100005b6:	4b4f      	ldr	r3, [pc, #316]	; (100006f4 <irq_remove_handler+0x184>)
100005b8:	689b      	ldr	r3, [r3, #8]
100005ba:	519d      	str	r5, [r3, r6]
100005bc:	f3bf 8f5f 	dmb	sy
100005c0:	f3bf 8f5f 	dmb	sy
100005c4:	2200      	movs	r2, #0
100005c6:	4b4a      	ldr	r3, [pc, #296]	; (100006f0 <irq_remove_handler+0x180>)
100005c8:	601a      	str	r2, [r3, #0]
100005ca:	f38a 8810 	msr	PRIMASK, sl
100005ce:	b003      	add	sp, #12
100005d0:	bcf0      	pop	{r4, r5, r6, r7}
100005d2:	46bb      	mov	fp, r7
100005d4:	46b2      	mov	sl, r6
100005d6:	46a9      	mov	r9, r5
100005d8:	46a0      	mov	r8, r4
100005da:	bdf0      	pop	{r4, r5, r6, r7, pc}
100005dc:	001d      	movs	r5, r3
100005de:	e7ea      	b.n	100005b6 <irq_remove_handler+0x46>
100005e0:	2301      	movs	r3, #1
100005e2:	4083      	lsls	r3, r0
100005e4:	469b      	mov	fp, r3
100005e6:	465a      	mov	r2, fp
100005e8:	4b45      	ldr	r3, [pc, #276]	; (10000700 <irq_remove_handler+0x190>)
100005ea:	681b      	ldr	r3, [r3, #0]
100005ec:	401a      	ands	r2, r3
100005ee:	9200      	str	r2, [sp, #0]
100005f0:	465a      	mov	r2, fp
100005f2:	4b44      	ldr	r3, [pc, #272]	; (10000704 <irq_remove_handler+0x194>)
100005f4:	601a      	str	r2, [r3, #0]
100005f6:	f3bf 8f5f 	dmb	sy
100005fa:	f7ff fe34 	bl	10000266 <__get_current_exception>
100005fe:	9001      	str	r0, [sp, #4]
10000600:	2800      	cmp	r0, #0
10000602:	d003      	beq.n	1000060c <irq_remove_handler+0x9c>
10000604:	4581      	cmp	r9, r0
10000606:	d001      	beq.n	1000060c <irq_remove_handler+0x9c>
10000608:	f001 f80e 	bl	10001628 <hard_assertion_failure>
1000060c:	2301      	movs	r3, #1
1000060e:	002a      	movs	r2, r5
10000610:	439a      	bics	r2, r3
10000612:	6893      	ldr	r3, [r2, #8]
10000614:	429c      	cmp	r4, r3
10000616:	d108      	bne.n	1000062a <irq_remove_handler+0xba>
10000618:	e05f      	b.n	100006da <irq_remove_handler+0x16a>
1000061a:	004b      	lsls	r3, r1, #1
1000061c:	185b      	adds	r3, r3, r1
1000061e:	009b      	lsls	r3, r3, #2
10000620:	18fb      	adds	r3, r7, r3
10000622:	6899      	ldr	r1, [r3, #8]
10000624:	42a1      	cmp	r1, r4
10000626:	d011      	beq.n	1000064c <irq_remove_handler+0xdc>
10000628:	001a      	movs	r2, r3
1000062a:	2106      	movs	r1, #6
1000062c:	5651      	ldrsb	r1, [r2, r1]
1000062e:	2900      	cmp	r1, #0
10000630:	daf3      	bge.n	1000061a <irq_remove_handler+0xaa>
10000632:	9b00      	ldr	r3, [sp, #0]
10000634:	2b00      	cmp	r3, #0
10000636:	d005      	beq.n	10000644 <irq_remove_handler+0xd4>
10000638:	465a      	mov	r2, fp
1000063a:	4b33      	ldr	r3, [pc, #204]	; (10000708 <irq_remove_handler+0x198>)
1000063c:	601a      	str	r2, [r3, #0]
1000063e:	4b30      	ldr	r3, [pc, #192]	; (10000700 <irq_remove_handler+0x190>)
10000640:	601a      	str	r2, [r3, #0]
10000642:	e7b8      	b.n	100005b6 <irq_remove_handler+0x46>
10000644:	465a      	mov	r2, fp
10000646:	4b2f      	ldr	r3, [pc, #188]	; (10000704 <irq_remove_handler+0x194>)
10000648:	601a      	str	r2, [r3, #0]
1000064a:	e7b4      	b.n	100005b6 <irq_remove_handler+0x46>
1000064c:	2106      	movs	r1, #6
1000064e:	5659      	ldrsb	r1, [r3, r1]
10000650:	2900      	cmp	r1, #0
10000652:	db21      	blt.n	10000698 <irq_remove_handler+0x128>
10000654:	004a      	lsls	r2, r1, #1
10000656:	1850      	adds	r0, r2, r1
10000658:	0080      	lsls	r0, r0, #2
1000065a:	183c      	adds	r4, r7, r0
1000065c:	4680      	mov	r8, r0
1000065e:	68a0      	ldr	r0, [r4, #8]
10000660:	6098      	str	r0, [r3, #8]
10000662:	79e0      	ldrb	r0, [r4, #7]
10000664:	71d8      	strb	r0, [r3, #7]
10000666:	2006      	movs	r0, #6
10000668:	5620      	ldrsb	r0, [r4, r0]
1000066a:	7198      	strb	r0, [r3, #6]
1000066c:	2800      	cmp	r0, #0
1000066e:	db24      	blt.n	100006ba <irq_remove_handler+0x14a>
10000670:	88a4      	ldrh	r4, [r4, #4]
10000672:	1af8      	subs	r0, r7, r3
10000674:	0564      	lsls	r4, r4, #21
10000676:	1524      	asrs	r4, r4, #20
10000678:	4444      	add	r4, r8
1000067a:	1900      	adds	r0, r0, r4
1000067c:	24e0      	movs	r4, #224	; 0xe0
1000067e:	0500      	lsls	r0, r0, #20
10000680:	0d40      	lsrs	r0, r0, #21
10000682:	0224      	lsls	r4, r4, #8
10000684:	4320      	orrs	r0, r4
10000686:	8098      	strh	r0, [r3, #4]
10000688:	1852      	adds	r2, r2, r1
1000068a:	4b20      	ldr	r3, [pc, #128]	; (1000070c <irq_remove_handler+0x19c>)
1000068c:	0092      	lsls	r2, r2, #2
1000068e:	18bf      	adds	r7, r7, r2
10000690:	781a      	ldrb	r2, [r3, #0]
10000692:	7019      	strb	r1, [r3, #0]
10000694:	71ba      	strb	r2, [r7, #6]
10000696:	e7cc      	b.n	10000632 <irq_remove_handler+0xc2>
10000698:	9901      	ldr	r1, [sp, #4]
1000069a:	2900      	cmp	r1, #0
1000069c:	d110      	bne.n	100006c0 <irq_remove_handler+0x150>
1000069e:	31ff      	adds	r1, #255	; 0xff
100006a0:	7191      	strb	r1, [r2, #6]
100006a2:	491b      	ldr	r1, [pc, #108]	; (10000710 <irq_remove_handler+0x1a0>)
100006a4:	8091      	strh	r1, [r2, #4]
100006a6:	4919      	ldr	r1, [pc, #100]	; (1000070c <irq_remove_handler+0x19c>)
100006a8:	780a      	ldrb	r2, [r1, #0]
100006aa:	719a      	strb	r2, [r3, #6]
100006ac:	4a19      	ldr	r2, [pc, #100]	; (10000714 <irq_remove_handler+0x1a4>)
100006ae:	1bdb      	subs	r3, r3, r7
100006b0:	415b      	adcs	r3, r3
100006b2:	435a      	muls	r2, r3
100006b4:	0d12      	lsrs	r2, r2, #20
100006b6:	700a      	strb	r2, [r1, #0]
100006b8:	e7bb      	b.n	10000632 <irq_remove_handler+0xc2>
100006ba:	20bd      	movs	r0, #189	; 0xbd
100006bc:	0200      	lsls	r0, r0, #8
100006be:	e7e2      	b.n	10000686 <irq_remove_handler+0x116>
100006c0:	4a15      	ldr	r2, [pc, #84]	; (10000718 <irq_remove_handler+0x1a8>)
100006c2:	4916      	ldr	r1, [pc, #88]	; (1000071c <irq_remove_handler+0x1ac>)
100006c4:	1ad2      	subs	r2, r2, r3
100006c6:	3a08      	subs	r2, #8
100006c8:	0250      	lsls	r0, r2, #9
100006ca:	0d40      	lsrs	r0, r0, #21
100006cc:	4301      	orrs	r1, r0
100006ce:	8099      	strh	r1, [r3, #4]
100006d0:	4913      	ldr	r1, [pc, #76]	; (10000720 <irq_remove_handler+0x1b0>)
100006d2:	0852      	lsrs	r2, r2, #1
100006d4:	430a      	orrs	r2, r1
100006d6:	80da      	strh	r2, [r3, #6]
100006d8:	e7ab      	b.n	10000632 <irq_remove_handler+0xc2>
100006da:	2106      	movs	r1, #6
100006dc:	5651      	ldrsb	r1, [r2, r1]
100006de:	0013      	movs	r3, r2
100006e0:	2900      	cmp	r1, #0
100006e2:	dab7      	bge.n	10000654 <irq_remove_handler+0xe4>
100006e4:	9a01      	ldr	r2, [sp, #4]
100006e6:	2a00      	cmp	r2, #0
100006e8:	d1ea      	bne.n	100006c0 <irq_remove_handler+0x150>
100006ea:	4645      	mov	r5, r8
100006ec:	e7db      	b.n	100006a6 <irq_remove_handler+0x136>
100006ee:	46c0      	nop			; (mov r8, r8)
100006f0:	d0000124 	.word	0xd0000124
100006f4:	e000ed00 	.word	0xe000ed00
100006f8:	100001cd 	.word	0x100001cd
100006fc:	2000017c 	.word	0x2000017c
10000700:	e000e100 	.word	0xe000e100
10000704:	e000e180 	.word	0xe000e180
10000708:	e000e280 	.word	0xe000e280
1000070c:	20000619 	.word	0x20000619
10000710:	ffffbd00 	.word	0xffffbd00
10000714:	0000aaaa 	.word	0x0000aaaa
10000718:	200001b6 	.word	0x200001b6
1000071c:	fffff000 	.word	0xfffff000
10000720:	fffff800 	.word	0xfffff800

10000724 <irq_add_tail_to_free_list>:
10000724:	b5f8      	push	{r3, r4, r5, r6, r7, lr}
10000726:	2501      	movs	r5, #1
10000728:	0004      	movs	r4, r0
1000072a:	4305      	orrs	r5, r0
1000072c:	f7ff fd9b 	bl	10000266 <__get_current_exception>
10000730:	f3ef 8c10 	mrs	ip, PRIMASK
10000734:	b672      	cpsid	i
10000736:	4a21      	ldr	r2, [pc, #132]	; (100007bc <irq_add_tail_to_free_list+0x98>)
10000738:	6813      	ldr	r3, [r2, #0]
1000073a:	2b00      	cmp	r3, #0
1000073c:	d0fc      	beq.n	10000738 <irq_add_tail_to_free_list+0x14>
1000073e:	f3bf 8f5f 	dmb	sy
10000742:	4e1f      	ldr	r6, [pc, #124]	; (100007c0 <irq_add_tail_to_free_list+0x9c>)
10000744:	0021      	movs	r1, r4
10000746:	68b7      	ldr	r7, [r6, #8]
10000748:	4a1e      	ldr	r2, [pc, #120]	; (100007c4 <irq_add_tail_to_free_list+0xa0>)
1000074a:	4b1f      	ldr	r3, [pc, #124]	; (100007c8 <irq_add_tail_to_free_list+0xa4>)
1000074c:	1a89      	subs	r1, r1, r2
1000074e:	4149      	adcs	r1, r1
10000750:	434b      	muls	r3, r1
10000752:	0d1b      	lsrs	r3, r3, #20
10000754:	b259      	sxtb	r1, r3
10000756:	0083      	lsls	r3, r0, #2
10000758:	58f8      	ldr	r0, [r7, r3]
1000075a:	42a8      	cmp	r0, r5
1000075c:	d01c      	beq.n	10000798 <irq_add_tail_to_free_list+0x74>
1000075e:	2306      	movs	r3, #6
10000760:	56d3      	ldrsb	r3, [r2, r3]
10000762:	428b      	cmp	r3, r1
10000764:	d01c      	beq.n	100007a0 <irq_add_tail_to_free_list+0x7c>
10000766:	2312      	movs	r3, #18
10000768:	56d3      	ldrsb	r3, [r2, r3]
1000076a:	428b      	cmp	r3, r1
1000076c:	d022      	beq.n	100007b4 <irq_add_tail_to_free_list+0x90>
1000076e:	231e      	movs	r3, #30
10000770:	56d3      	ldrsb	r3, [r2, r3]
10000772:	428b      	cmp	r3, r1
10000774:	d020      	beq.n	100007b8 <irq_add_tail_to_free_list+0x94>
10000776:	232a      	movs	r3, #42	; 0x2a
10000778:	56d3      	ldrsb	r3, [r2, r3]
1000077a:	2003      	movs	r0, #3
1000077c:	428b      	cmp	r3, r1
1000077e:	d010      	beq.n	100007a2 <irq_add_tail_to_free_list+0x7e>
10000780:	4b12      	ldr	r3, [pc, #72]	; (100007cc <irq_add_tail_to_free_list+0xa8>)
10000782:	781a      	ldrb	r2, [r3, #0]
10000784:	7019      	strb	r1, [r3, #0]
10000786:	71a2      	strb	r2, [r4, #6]
10000788:	f3bf 8f5f 	dmb	sy
1000078c:	2200      	movs	r2, #0
1000078e:	4b0b      	ldr	r3, [pc, #44]	; (100007bc <irq_add_tail_to_free_list+0x98>)
10000790:	601a      	str	r2, [r3, #0]
10000792:	f38c 8810 	msr	PRIMASK, ip
10000796:	bdf8      	pop	{r3, r4, r5, r6, r7, pc}
10000798:	68b2      	ldr	r2, [r6, #8]
1000079a:	480d      	ldr	r0, [pc, #52]	; (100007d0 <irq_add_tail_to_free_list+0xac>)
1000079c:	50d0      	str	r0, [r2, r3]
1000079e:	e7ef      	b.n	10000780 <irq_add_tail_to_free_list+0x5c>
100007a0:	2000      	movs	r0, #0
100007a2:	0043      	lsls	r3, r0, #1
100007a4:	181b      	adds	r3, r3, r0
100007a6:	009b      	lsls	r3, r3, #2
100007a8:	18d2      	adds	r2, r2, r3
100007aa:	23ff      	movs	r3, #255	; 0xff
100007ac:	7193      	strb	r3, [r2, #6]
100007ae:	4b09      	ldr	r3, [pc, #36]	; (100007d4 <irq_add_tail_to_free_list+0xb0>)
100007b0:	8093      	strh	r3, [r2, #4]
100007b2:	e7e5      	b.n	10000780 <irq_add_tail_to_free_list+0x5c>
100007b4:	2001      	movs	r0, #1
100007b6:	e7f4      	b.n	100007a2 <irq_add_tail_to_free_list+0x7e>
100007b8:	2002      	movs	r0, #2
100007ba:	e7f2      	b.n	100007a2 <irq_add_tail_to_free_list+0x7e>
100007bc:	d0000124 	.word	0xd0000124
100007c0:	e000ed00 	.word	0xe000ed00
100007c4:	2000017c 	.word	0x2000017c
100007c8:	0000aaaa 	.word	0x0000aaaa
100007cc:	20000619 	.word	0x20000619
100007d0:	100001cd 	.word	0x100001cd
100007d4:	ffffbd00 	.word	0xffffbd00

100007d8 <irq_init_priorities>:
100007d8:	4b05      	ldr	r3, [pc, #20]	; (100007f0 <irq_init_priorities+0x18>)
100007da:	4a06      	ldr	r2, [pc, #24]	; (100007f4 <irq_init_priorities+0x1c>)
100007dc:	6013      	str	r3, [r2, #0]
100007de:	4a06      	ldr	r2, [pc, #24]	; (100007f8 <irq_init_priorities+0x20>)
100007e0:	6013      	str	r3, [r2, #0]
100007e2:	6053      	str	r3, [r2, #4]
100007e4:	6093      	str	r3, [r2, #8]
100007e6:	60d3      	str	r3, [r2, #12]
100007e8:	6113      	str	r3, [r2, #16]
100007ea:	6153      	str	r3, [r2, #20]
100007ec:	6193      	str	r3, [r2, #24]
100007ee:	4770      	bx	lr
100007f0:	80808080 	.word	0x80808080
100007f4:	e000e400 	.word	0xe000e400
100007f8:	e000e404 	.word	0xe000e404

100007fc <lock_init>:
100007fc:	4b02      	ldr	r3, [pc, #8]	; (10000808 <lock_init+0xc>)
100007fe:	469c      	mov	ip, r3
10000800:	4461      	add	r1, ip
10000802:	0089      	lsls	r1, r1, #2
10000804:	6001      	str	r1, [r0, #0]
10000806:	4770      	bx	lr
10000808:	34000040 	.word	0x34000040

1000080c <timer_pool_entry_comparator>:
1000080c:	6883      	ldr	r3, [r0, #8]
1000080e:	480b      	ldr	r0, [pc, #44]	; (1000083c <timer_pool_entry_comparator+0x30>)
10000810:	b510      	push	{r4, lr}
10000812:	4684      	mov	ip, r0
10000814:	4461      	add	r1, ip
10000816:	4462      	add	r2, ip
10000818:	0109      	lsls	r1, r1, #4
1000081a:	0112      	lsls	r2, r2, #4
1000081c:	189a      	adds	r2, r3, r2
1000081e:	1859      	adds	r1, r3, r1
10000820:	6854      	ldr	r4, [r2, #4]
10000822:	684b      	ldr	r3, [r1, #4]
10000824:	2001      	movs	r0, #1
10000826:	429c      	cmp	r4, r3
10000828:	d801      	bhi.n	1000082e <timer_pool_entry_comparator+0x22>
1000082a:	d002      	beq.n	10000832 <timer_pool_entry_comparator+0x26>
1000082c:	2000      	movs	r0, #0
1000082e:	b2c0      	uxtb	r0, r0
10000830:	bd10      	pop	{r4, pc}
10000832:	6812      	ldr	r2, [r2, #0]
10000834:	680b      	ldr	r3, [r1, #0]
10000836:	429a      	cmp	r2, r3
10000838:	d8f9      	bhi.n	1000082e <timer_pool_entry_comparator+0x22>
1000083a:	e7f7      	b.n	1000082c <timer_pool_entry_comparator+0x20>
1000083c:	0fffffff 	.word	0x0fffffff

10000840 <sleep_until_callback>:
10000840:	4b0a      	ldr	r3, [pc, #40]	; (1000086c <sleep_until_callback+0x2c>)
10000842:	6819      	ldr	r1, [r3, #0]
10000844:	f3ef 8010 	mrs	r0, PRIMASK
10000848:	b672      	cpsid	i
1000084a:	680a      	ldr	r2, [r1, #0]
1000084c:	2a00      	cmp	r2, #0
1000084e:	d0fc      	beq.n	1000084a <sleep_until_callback+0xa>
10000850:	f3bf 8f5f 	dmb	sy
10000854:	681b      	ldr	r3, [r3, #0]
10000856:	f3bf 8f5f 	dmb	sy
1000085a:	2200      	movs	r2, #0
1000085c:	601a      	str	r2, [r3, #0]
1000085e:	f380 8810 	msr	PRIMASK, r0
10000862:	bf40      	sev
10000864:	2000      	movs	r0, #0
10000866:	2100      	movs	r1, #0
10000868:	4770      	bx	lr
1000086a:	46c0      	nop			; (mov r8, r8)
1000086c:	200005fc 	.word	0x200005fc

10000870 <add_alarm_under_lock.isra.0>:
10000870:	b5f8      	push	{r3, r4, r5, r6, r7, lr}
10000872:	4657      	mov	r7, sl
10000874:	464e      	mov	r6, r9
10000876:	4645      	mov	r5, r8
10000878:	46de      	mov	lr, fp
1000087a:	b5e0      	push	{r5, r6, r7, lr}
1000087c:	4699      	mov	r9, r3
1000087e:	ab0c      	add	r3, sp, #48	; 0x30
10000880:	781c      	ldrb	r4, [r3, #0]
10000882:	ab0d      	add	r3, sp, #52	; 0x34
10000884:	781b      	ldrb	r3, [r3, #0]
10000886:	0006      	movs	r6, r0
10000888:	4690      	mov	r8, r2
1000088a:	469a      	mov	sl, r3
1000088c:	6807      	ldr	r7, [r0, #0]
1000088e:	2c00      	cmp	r4, #0
10000890:	d111      	bne.n	100008b6 <add_alarm_under_lock.isra.0+0x46>
10000892:	7bbc      	ldrb	r4, [r7, #14]
10000894:	2c00      	cmp	r4, #0
10000896:	d042      	beq.n	1000091e <add_alarm_under_lock.isra.0+0xae>
10000898:	0065      	lsls	r5, r4, #1
1000089a:	683b      	ldr	r3, [r7, #0]
1000089c:	192d      	adds	r5, r5, r4
1000089e:	3d03      	subs	r5, #3
100008a0:	1959      	adds	r1, r3, r5
100008a2:	784b      	ldrb	r3, [r1, #1]
100008a4:	73bb      	strb	r3, [r7, #14]
100008a6:	2b00      	cmp	r3, #0
100008a8:	d100      	bne.n	100008ac <add_alarm_under_lock.isra.0+0x3c>
100008aa:	73fb      	strb	r3, [r7, #15]
100008ac:	2300      	movs	r3, #0
100008ae:	708b      	strb	r3, [r1, #2]
100008b0:	704b      	strb	r3, [r1, #1]
100008b2:	700b      	strb	r3, [r1, #0]
100008b4:	e004      	b.n	100008c0 <add_alarm_under_lock.isra.0+0x50>
100008b6:	0065      	lsls	r5, r4, #1
100008b8:	683b      	ldr	r3, [r7, #0]
100008ba:	192d      	adds	r5, r5, r4
100008bc:	3d03      	subs	r5, #3
100008be:	1959      	adds	r1, r3, r5
100008c0:	68b2      	ldr	r2, [r6, #8]
100008c2:	4b2a      	ldr	r3, [pc, #168]	; (1000096c <add_alarm_under_lock.isra.0+0xfc>)
100008c4:	4694      	mov	ip, r2
100008c6:	4642      	mov	r2, r8
100008c8:	18e3      	adds	r3, r4, r3
100008ca:	011b      	lsls	r3, r3, #4
100008cc:	4463      	add	r3, ip
100008ce:	601a      	str	r2, [r3, #0]
100008d0:	464a      	mov	r2, r9
100008d2:	605a      	str	r2, [r3, #4]
100008d4:	9a0a      	ldr	r2, [sp, #40]	; 0x28
100008d6:	609a      	str	r2, [r3, #8]
100008d8:	9a0b      	ldr	r2, [sp, #44]	; 0x2c
100008da:	60da      	str	r2, [r3, #12]
100008dc:	2300      	movs	r3, #0
100008de:	708b      	strb	r3, [r1, #2]
100008e0:	704b      	strb	r3, [r1, #1]
100008e2:	700b      	strb	r3, [r1, #0]
100008e4:	7b7b      	ldrb	r3, [r7, #13]
100008e6:	469b      	mov	fp, r3
100008e8:	2b00      	cmp	r3, #0
100008ea:	d02b      	beq.n	10000944 <add_alarm_under_lock.isra.0+0xd4>
100008ec:	0022      	movs	r2, r4
100008ee:	4659      	mov	r1, fp
100008f0:	68b8      	ldr	r0, [r7, #8]
100008f2:	687b      	ldr	r3, [r7, #4]
100008f4:	4798      	blx	r3
100008f6:	683a      	ldr	r2, [r7, #0]
100008f8:	2800      	cmp	r0, #0
100008fa:	d016      	beq.n	1000092a <add_alarm_under_lock.isra.0+0xba>
100008fc:	465b      	mov	r3, fp
100008fe:	4658      	mov	r0, fp
10000900:	005b      	lsls	r3, r3, #1
10000902:	445b      	add	r3, fp
10000904:	1955      	adds	r5, r2, r5
10000906:	3b03      	subs	r3, #3
10000908:	70a8      	strb	r0, [r5, #2]
1000090a:	18d1      	adds	r1, r2, r3
1000090c:	5cd3      	ldrb	r3, [r2, r3]
1000090e:	2b00      	cmp	r3, #0
10000910:	d000      	beq.n	10000914 <add_alarm_under_lock.isra.0+0xa4>
10000912:	706b      	strb	r3, [r5, #1]
10000914:	465b      	mov	r3, fp
10000916:	700c      	strb	r4, [r1, #0]
10000918:	737b      	strb	r3, [r7, #13]
1000091a:	45a3      	cmp	fp, r4
1000091c:	d013      	beq.n	10000946 <add_alarm_under_lock.isra.0+0xd6>
1000091e:	bcf0      	pop	{r4, r5, r6, r7}
10000920:	46bb      	mov	fp, r7
10000922:	46b2      	mov	sl, r6
10000924:	46a9      	mov	r9, r5
10000926:	46a0      	mov	r8, r4
10000928:	bdf8      	pop	{r3, r4, r5, r6, r7, pc}
1000092a:	465b      	mov	r3, fp
1000092c:	005b      	lsls	r3, r3, #1
1000092e:	445b      	add	r3, fp
10000930:	3b03      	subs	r3, #3
10000932:	18d3      	adds	r3, r2, r3
10000934:	709c      	strb	r4, [r3, #2]
10000936:	1951      	adds	r1, r2, r5
10000938:	5d52      	ldrb	r2, [r2, r5]
1000093a:	2a00      	cmp	r2, #0
1000093c:	d000      	beq.n	10000940 <add_alarm_under_lock.isra.0+0xd0>
1000093e:	705a      	strb	r2, [r3, #1]
10000940:	465b      	mov	r3, fp
10000942:	700b      	strb	r3, [r1, #0]
10000944:	737c      	strb	r4, [r7, #13]
10000946:	4642      	mov	r2, r8
10000948:	464b      	mov	r3, r9
1000094a:	7d30      	ldrb	r0, [r6, #20]
1000094c:	f000 faee 	bl	10000f2c <hardware_alarm_set_target>
10000950:	1e05      	subs	r5, r0, #0
10000952:	d006      	beq.n	10000962 <add_alarm_under_lock.isra.0+0xf2>
10000954:	4653      	mov	r3, sl
10000956:	2b00      	cmp	r3, #0
10000958:	d103      	bne.n	10000962 <add_alarm_under_lock.isra.0+0xf2>
1000095a:	0021      	movs	r1, r4
1000095c:	6830      	ldr	r0, [r6, #0]
1000095e:	f000 fd07 	bl	10001370 <ph_remove_and_free_node>
10000962:	9b0e      	ldr	r3, [sp, #56]	; 0x38
10000964:	2b00      	cmp	r3, #0
10000966:	d0da      	beq.n	1000091e <add_alarm_under_lock.isra.0+0xae>
10000968:	701d      	strb	r5, [r3, #0]
1000096a:	e7d8      	b.n	1000091e <add_alarm_under_lock.isra.0+0xae>
1000096c:	0fffffff 	.word	0x0fffffff

10000970 <alarm_pool_alarm_callback>:
10000970:	b5f0      	push	{r4, r5, r6, r7, lr}
10000972:	46de      	mov	lr, fp
10000974:	464e      	mov	r6, r9
10000976:	4657      	mov	r7, sl
10000978:	4645      	mov	r5, r8
1000097a:	2300      	movs	r3, #0
1000097c:	b5e0      	push	{r5, r6, r7, lr}
1000097e:	b08d      	sub	sp, #52	; 0x34
10000980:	930a      	str	r3, [sp, #40]	; 0x28
10000982:	4b6b      	ldr	r3, [pc, #428]	; (10000b30 <alarm_pool_alarm_callback+0x1c0>)
10000984:	0082      	lsls	r2, r0, #2
10000986:	58d3      	ldr	r3, [r2, r3]
10000988:	900b      	str	r0, [sp, #44]	; 0x2c
1000098a:	4699      	mov	r9, r3
1000098c:	2300      	movs	r3, #0
1000098e:	469b      	mov	fp, r3
10000990:	464b      	mov	r3, r9
10000992:	9307      	str	r3, [sp, #28]
10000994:	f000 fa6a 	bl	10000e6c <time_us_64>
10000998:	9c07      	ldr	r4, [sp, #28]
1000099a:	0006      	movs	r6, r0
1000099c:	000f      	movs	r7, r1
1000099e:	6862      	ldr	r2, [r4, #4]
100009a0:	f3ef 8510 	mrs	r5, PRIMASK
100009a4:	b672      	cpsid	i
100009a6:	6813      	ldr	r3, [r2, #0]
100009a8:	2b00      	cmp	r3, #0
100009aa:	d0fc      	beq.n	100009a6 <alarm_pool_alarm_callback+0x36>
100009ac:	0022      	movs	r2, r4
100009ae:	9407      	str	r4, [sp, #28]
100009b0:	f3bf 8f5f 	dmb	sy
100009b4:	6824      	ldr	r4, [r4, #0]
100009b6:	7b63      	ldrb	r3, [r4, #13]
100009b8:	4699      	mov	r9, r3
100009ba:	2b00      	cmp	r3, #0
100009bc:	d067      	beq.n	10000a8e <alarm_pool_alarm_callback+0x11e>
100009be:	6892      	ldr	r2, [r2, #8]
100009c0:	4b5c      	ldr	r3, [pc, #368]	; (10000b34 <alarm_pool_alarm_callback+0x1c4>)
100009c2:	4690      	mov	r8, r2
100009c4:	444b      	add	r3, r9
100009c6:	011b      	lsls	r3, r3, #4
100009c8:	4498      	add	r8, r3
100009ca:	4643      	mov	r3, r8
100009cc:	681a      	ldr	r2, [r3, #0]
100009ce:	685b      	ldr	r3, [r3, #4]
100009d0:	0010      	movs	r0, r2
100009d2:	0019      	movs	r1, r3
100009d4:	1b80      	subs	r0, r0, r6
100009d6:	41b9      	sbcs	r1, r7
100009d8:	2900      	cmp	r1, #0
100009da:	dd5f      	ble.n	10000a9c <alarm_pool_alarm_callback+0x12c>
100009dc:	980b      	ldr	r0, [sp, #44]	; 0x2c
100009de:	f000 faa5 	bl	10000f2c <hardware_alarm_set_target>
100009e2:	2300      	movs	r3, #0
100009e4:	2600      	movs	r6, #0
100009e6:	4698      	mov	r8, r3
100009e8:	2700      	movs	r7, #0
100009ea:	469a      	mov	sl, r3
100009ec:	9c07      	ldr	r4, [sp, #28]
100009ee:	6863      	ldr	r3, [r4, #4]
100009f0:	f3bf 8f5f 	dmb	sy
100009f4:	465a      	mov	r2, fp
100009f6:	601a      	str	r2, [r3, #0]
100009f8:	f385 8810 	msr	PRIMASK, r5
100009fc:	4653      	mov	r3, sl
100009fe:	2b00      	cmp	r3, #0
10000a00:	d108      	bne.n	10000a14 <alarm_pool_alarm_callback+0xa4>
10000a02:	2800      	cmp	r0, #0
10000a04:	d1c6      	bne.n	10000994 <alarm_pool_alarm_callback+0x24>
10000a06:	b00d      	add	sp, #52	; 0x34
10000a08:	bcf0      	pop	{r4, r5, r6, r7}
10000a0a:	46bb      	mov	fp, r7
10000a0c:	46b2      	mov	sl, r6
10000a0e:	46a9      	mov	r9, r5
10000a10:	46a0      	mov	r8, r4
10000a12:	bdf0      	pop	{r4, r5, r6, r7, pc}
10000a14:	9b0a      	ldr	r3, [sp, #40]	; 0x28
10000a16:	4641      	mov	r1, r8
10000a18:	0218      	lsls	r0, r3, #8
10000a1a:	464b      	mov	r3, r9
10000a1c:	4318      	orrs	r0, r3
10000a1e:	47d0      	blx	sl
10000a20:	9008      	str	r0, [sp, #32]
10000a22:	9109      	str	r1, [sp, #36]	; 0x24
10000a24:	6862      	ldr	r2, [r4, #4]
10000a26:	f3ef 8510 	mrs	r5, PRIMASK
10000a2a:	b672      	cpsid	i
10000a2c:	6813      	ldr	r3, [r2, #0]
10000a2e:	2b00      	cmp	r3, #0
10000a30:	d0fc      	beq.n	10000a2c <alarm_pool_alarm_callback+0xbc>
10000a32:	9407      	str	r4, [sp, #28]
10000a34:	f3bf 8f5f 	dmb	sy
10000a38:	9908      	ldr	r1, [sp, #32]
10000a3a:	9a09      	ldr	r2, [sp, #36]	; 0x24
10000a3c:	2a00      	cmp	r2, #0
10000a3e:	db48      	blt.n	10000ad2 <alarm_pool_alarm_callback+0x162>
10000a40:	4311      	orrs	r1, r2
10000a42:	d003      	beq.n	10000a4c <alarm_pool_alarm_callback+0xdc>
10000a44:	9b07      	ldr	r3, [sp, #28]
10000a46:	691b      	ldr	r3, [r3, #16]
10000a48:	2b00      	cmp	r3, #0
10000a4a:	d15d      	bne.n	10000b08 <alarm_pool_alarm_callback+0x198>
10000a4c:	9b07      	ldr	r3, [sp, #28]
10000a4e:	681b      	ldr	r3, [r3, #0]
10000a50:	7bd9      	ldrb	r1, [r3, #15]
10000a52:	2900      	cmp	r1, #0
10000a54:	d007      	beq.n	10000a66 <alarm_pool_alarm_callback+0xf6>
10000a56:	004a      	lsls	r2, r1, #1
10000a58:	1852      	adds	r2, r2, r1
10000a5a:	6819      	ldr	r1, [r3, #0]
10000a5c:	468c      	mov	ip, r1
10000a5e:	4649      	mov	r1, r9
10000a60:	4462      	add	r2, ip
10000a62:	3a03      	subs	r2, #3
10000a64:	7051      	strb	r1, [r2, #1]
10000a66:	464a      	mov	r2, r9
10000a68:	73da      	strb	r2, [r3, #15]
10000a6a:	464b      	mov	r3, r9
10000a6c:	9a07      	ldr	r2, [sp, #28]
10000a6e:	3b01      	subs	r3, #1
10000a70:	68d1      	ldr	r1, [r2, #12]
10000a72:	5cca      	ldrb	r2, [r1, r3]
10000a74:	3201      	adds	r2, #1
10000a76:	54ca      	strb	r2, [r1, r3]
10000a78:	465b      	mov	r3, fp
10000a7a:	9a07      	ldr	r2, [sp, #28]
10000a7c:	6113      	str	r3, [r2, #16]
10000a7e:	6853      	ldr	r3, [r2, #4]
10000a80:	f3bf 8f5f 	dmb	sy
10000a84:	465a      	mov	r2, fp
10000a86:	601a      	str	r2, [r3, #0]
10000a88:	f385 8810 	msr	PRIMASK, r5
10000a8c:	e782      	b.n	10000994 <alarm_pool_alarm_callback+0x24>
10000a8e:	2300      	movs	r3, #0
10000a90:	2600      	movs	r6, #0
10000a92:	4698      	mov	r8, r3
10000a94:	2700      	movs	r7, #0
10000a96:	469a      	mov	sl, r3
10000a98:	2000      	movs	r0, #0
10000a9a:	e7a7      	b.n	100009ec <alarm_pool_alarm_callback+0x7c>
10000a9c:	2900      	cmp	r1, #0
10000a9e:	d101      	bne.n	10000aa4 <alarm_pool_alarm_callback+0x134>
10000aa0:	2800      	cmp	r0, #0
10000aa2:	d19b      	bne.n	100009dc <alarm_pool_alarm_callback+0x6c>
10000aa4:	2100      	movs	r1, #0
10000aa6:	0020      	movs	r0, r4
10000aa8:	f000 fbe4 	bl	10001274 <ph_remove_head>
10000aac:	4643      	mov	r3, r8
10000aae:	681e      	ldr	r6, [r3, #0]
10000ab0:	685f      	ldr	r7, [r3, #4]
10000ab2:	689b      	ldr	r3, [r3, #8]
10000ab4:	9a07      	ldr	r2, [sp, #28]
10000ab6:	469a      	mov	sl, r3
10000ab8:	4643      	mov	r3, r8
10000aba:	68db      	ldr	r3, [r3, #12]
10000abc:	4698      	mov	r8, r3
10000abe:	68d3      	ldr	r3, [r2, #12]
10000ac0:	444b      	add	r3, r9
10000ac2:	3b01      	subs	r3, #1
10000ac4:	781b      	ldrb	r3, [r3, #0]
10000ac6:	930a      	str	r3, [sp, #40]	; 0x28
10000ac8:	021b      	lsls	r3, r3, #8
10000aca:	4303      	orrs	r3, r0
10000acc:	6113      	str	r3, [r2, #16]
10000ace:	2000      	movs	r0, #0
10000ad0:	e78c      	b.n	100009ec <alarm_pool_alarm_callback+0x7c>
10000ad2:	6923      	ldr	r3, [r4, #16]
10000ad4:	2b00      	cmp	r3, #0
10000ad6:	d0b9      	beq.n	10000a4c <alarm_pool_alarm_callback+0xdc>
10000ad8:	0033      	movs	r3, r6
10000ada:	003c      	movs	r4, r7
10000adc:	1a5b      	subs	r3, r3, r1
10000ade:	4194      	sbcs	r4, r2
10000ae0:	001a      	movs	r2, r3
10000ae2:	0023      	movs	r3, r4
10000ae4:	42a7      	cmp	r7, r4
10000ae6:	d819      	bhi.n	10000b1c <alarm_pool_alarm_callback+0x1ac>
10000ae8:	429f      	cmp	r7, r3
10000aea:	d01b      	beq.n	10000b24 <alarm_pool_alarm_callback+0x1b4>
10000aec:	4659      	mov	r1, fp
10000aee:	9104      	str	r1, [sp, #16]
10000af0:	2101      	movs	r1, #1
10000af2:	9103      	str	r1, [sp, #12]
10000af4:	4649      	mov	r1, r9
10000af6:	9102      	str	r1, [sp, #8]
10000af8:	4641      	mov	r1, r8
10000afa:	9101      	str	r1, [sp, #4]
10000afc:	4651      	mov	r1, sl
10000afe:	9807      	ldr	r0, [sp, #28]
10000b00:	9100      	str	r1, [sp, #0]
10000b02:	f7ff feb5 	bl	10000870 <add_alarm_under_lock.isra.0>
10000b06:	e7b7      	b.n	10000a78 <alarm_pool_alarm_callback+0x108>
10000b08:	f000 f9b0 	bl	10000e6c <time_us_64>
10000b0c:	9a08      	ldr	r2, [sp, #32]
10000b0e:	9b09      	ldr	r3, [sp, #36]	; 0x24
10000b10:	0006      	movs	r6, r0
10000b12:	000f      	movs	r7, r1
10000b14:	1992      	adds	r2, r2, r6
10000b16:	417b      	adcs	r3, r7
10000b18:	4299      	cmp	r1, r3
10000b1a:	d9e5      	bls.n	10000ae8 <alarm_pool_alarm_callback+0x178>
10000b1c:	2201      	movs	r2, #1
10000b1e:	4252      	negs	r2, r2
10000b20:	17d3      	asrs	r3, r2, #31
10000b22:	e7e3      	b.n	10000aec <alarm_pool_alarm_callback+0x17c>
10000b24:	4296      	cmp	r6, r2
10000b26:	d9e1      	bls.n	10000aec <alarm_pool_alarm_callback+0x17c>
10000b28:	2201      	movs	r2, #1
10000b2a:	4252      	negs	r2, r2
10000b2c:	17d3      	asrs	r3, r2, #31
10000b2e:	e7dd      	b.n	10000aec <alarm_pool_alarm_callback+0x17c>
10000b30:	200005e8 	.word	0x200005e8
10000b34:	0fffffff 	.word	0x0fffffff

10000b38 <alarm_pool_add_alarm_at.constprop.0>:
10000b38:	b5f8      	push	{r3, r4, r5, r6, r7, lr}
10000b3a:	4657      	mov	r7, sl
10000b3c:	464e      	mov	r6, r9
10000b3e:	4645      	mov	r5, r8
10000b40:	46de      	mov	lr, fp
10000b42:	b5e0      	push	{r5, r6, r7, lr}
10000b44:	4d40      	ldr	r5, [pc, #256]	; (10000c48 <alarm_pool_add_alarm_at.constprop.0+0x110>)
10000b46:	4681      	mov	r9, r0
10000b48:	468a      	mov	sl, r1
10000b4a:	686a      	ldr	r2, [r5, #4]
10000b4c:	f3ef 8810 	mrs	r8, PRIMASK
10000b50:	b672      	cpsid	i
10000b52:	6813      	ldr	r3, [r2, #0]
10000b54:	2b00      	cmp	r3, #0
10000b56:	d0fc      	beq.n	10000b52 <alarm_pool_add_alarm_at.constprop.0+0x1a>
10000b58:	f3bf 8f5f 	dmb	sy
10000b5c:	682e      	ldr	r6, [r5, #0]
10000b5e:	7bb4      	ldrb	r4, [r6, #14]
10000b60:	2c00      	cmp	r4, #0
10000b62:	d039      	beq.n	10000bd8 <alarm_pool_add_alarm_at.constprop.0+0xa0>
10000b64:	0067      	lsls	r7, r4, #1
10000b66:	6833      	ldr	r3, [r6, #0]
10000b68:	193f      	adds	r7, r7, r4
10000b6a:	3f03      	subs	r7, #3
10000b6c:	19db      	adds	r3, r3, r7
10000b6e:	785a      	ldrb	r2, [r3, #1]
10000b70:	73b2      	strb	r2, [r6, #14]
10000b72:	2a00      	cmp	r2, #0
10000b74:	d100      	bne.n	10000b78 <alarm_pool_add_alarm_at.constprop.0+0x40>
10000b76:	73f2      	strb	r2, [r6, #15]
10000b78:	68a9      	ldr	r1, [r5, #8]
10000b7a:	4a34      	ldr	r2, [pc, #208]	; (10000c4c <alarm_pool_add_alarm_at.constprop.0+0x114>)
10000b7c:	468c      	mov	ip, r1
10000b7e:	4649      	mov	r1, r9
10000b80:	18a2      	adds	r2, r4, r2
10000b82:	0112      	lsls	r2, r2, #4
10000b84:	4462      	add	r2, ip
10000b86:	6011      	str	r1, [r2, #0]
10000b88:	4651      	mov	r1, sl
10000b8a:	6051      	str	r1, [r2, #4]
10000b8c:	4930      	ldr	r1, [pc, #192]	; (10000c50 <alarm_pool_add_alarm_at.constprop.0+0x118>)
10000b8e:	6091      	str	r1, [r2, #8]
10000b90:	2100      	movs	r1, #0
10000b92:	60d1      	str	r1, [r2, #12]
10000b94:	7099      	strb	r1, [r3, #2]
10000b96:	7059      	strb	r1, [r3, #1]
10000b98:	7019      	strb	r1, [r3, #0]
10000b9a:	7b73      	ldrb	r3, [r6, #13]
10000b9c:	469b      	mov	fp, r3
10000b9e:	2b00      	cmp	r3, #0
10000ba0:	d035      	beq.n	10000c0e <alarm_pool_add_alarm_at.constprop.0+0xd6>
10000ba2:	0022      	movs	r2, r4
10000ba4:	0019      	movs	r1, r3
10000ba6:	68b0      	ldr	r0, [r6, #8]
10000ba8:	6873      	ldr	r3, [r6, #4]
10000baa:	4798      	blx	r3
10000bac:	6832      	ldr	r2, [r6, #0]
10000bae:	2800      	cmp	r0, #0
10000bb0:	d020      	beq.n	10000bf4 <alarm_pool_add_alarm_at.constprop.0+0xbc>
10000bb2:	465b      	mov	r3, fp
10000bb4:	4658      	mov	r0, fp
10000bb6:	005b      	lsls	r3, r3, #1
10000bb8:	445b      	add	r3, fp
10000bba:	19d7      	adds	r7, r2, r7
10000bbc:	3b03      	subs	r3, #3
10000bbe:	70b8      	strb	r0, [r7, #2]
10000bc0:	18d1      	adds	r1, r2, r3
10000bc2:	5cd3      	ldrb	r3, [r2, r3]
10000bc4:	2b00      	cmp	r3, #0
10000bc6:	d000      	beq.n	10000bca <alarm_pool_add_alarm_at.constprop.0+0x92>
10000bc8:	707b      	strb	r3, [r7, #1]
10000bca:	465b      	mov	r3, fp
10000bcc:	700c      	strb	r4, [r1, #0]
10000bce:	7373      	strb	r3, [r6, #13]
10000bd0:	455c      	cmp	r4, fp
10000bd2:	d01d      	beq.n	10000c10 <alarm_pool_add_alarm_at.constprop.0+0xd8>
10000bd4:	2600      	movs	r6, #0
10000bd6:	e026      	b.n	10000c26 <alarm_pool_add_alarm_at.constprop.0+0xee>
10000bd8:	686b      	ldr	r3, [r5, #4]
10000bda:	f3bf 8f5f 	dmb	sy
10000bde:	601c      	str	r4, [r3, #0]
10000be0:	f388 8810 	msr	PRIMASK, r8
10000be4:	2001      	movs	r0, #1
10000be6:	4240      	negs	r0, r0
10000be8:	bcf0      	pop	{r4, r5, r6, r7}
10000bea:	46bb      	mov	fp, r7
10000bec:	46b2      	mov	sl, r6
10000bee:	46a9      	mov	r9, r5
10000bf0:	46a0      	mov	r8, r4
10000bf2:	bdf8      	pop	{r3, r4, r5, r6, r7, pc}
10000bf4:	465b      	mov	r3, fp
10000bf6:	005b      	lsls	r3, r3, #1
10000bf8:	445b      	add	r3, fp
10000bfa:	3b03      	subs	r3, #3
10000bfc:	18d3      	adds	r3, r2, r3
10000bfe:	709c      	strb	r4, [r3, #2]
10000c00:	19d1      	adds	r1, r2, r7
10000c02:	5dd2      	ldrb	r2, [r2, r7]
10000c04:	2a00      	cmp	r2, #0
10000c06:	d000      	beq.n	10000c0a <alarm_pool_add_alarm_at.constprop.0+0xd2>
10000c08:	705a      	strb	r2, [r3, #1]
10000c0a:	465b      	mov	r3, fp
10000c0c:	700b      	strb	r3, [r1, #0]
10000c0e:	7374      	strb	r4, [r6, #13]
10000c10:	464a      	mov	r2, r9
10000c12:	4653      	mov	r3, sl
10000c14:	7d28      	ldrb	r0, [r5, #20]
10000c16:	f000 f989 	bl	10000f2c <hardware_alarm_set_target>
10000c1a:	1e06      	subs	r6, r0, #0
10000c1c:	d0da      	beq.n	10000bd4 <alarm_pool_add_alarm_at.constprop.0+0x9c>
10000c1e:	0021      	movs	r1, r4
10000c20:	6828      	ldr	r0, [r5, #0]
10000c22:	f000 fba5 	bl	10001370 <ph_remove_and_free_node>
10000c26:	68eb      	ldr	r3, [r5, #12]
10000c28:	191b      	adds	r3, r3, r4
10000c2a:	3b01      	subs	r3, #1
10000c2c:	7819      	ldrb	r1, [r3, #0]
10000c2e:	686b      	ldr	r3, [r5, #4]
10000c30:	f3bf 8f5f 	dmb	sy
10000c34:	2200      	movs	r2, #0
10000c36:	601a      	str	r2, [r3, #0]
10000c38:	f388 8810 	msr	PRIMASK, r8
10000c3c:	2000      	movs	r0, #0
10000c3e:	2e00      	cmp	r6, #0
10000c40:	d1d2      	bne.n	10000be8 <alarm_pool_add_alarm_at.constprop.0+0xb0>
10000c42:	0208      	lsls	r0, r1, #8
10000c44:	4320      	orrs	r0, r4
10000c46:	e7cf      	b.n	10000be8 <alarm_pool_add_alarm_at.constprop.0+0xb0>
10000c48:	200001c4 	.word	0x200001c4
10000c4c:	0fffffff 	.word	0x0fffffff
10000c50:	10000841 	.word	0x10000841

10000c54 <alarm_pool_init_default>:
10000c54:	b510      	push	{r4, lr}
10000c56:	4c12      	ldr	r4, [pc, #72]	; (10000ca0 <alarm_pool_init_default+0x4c>)
10000c58:	6863      	ldr	r3, [r4, #4]
10000c5a:	2b00      	cmp	r3, #0
10000c5c:	d004      	beq.n	10000c68 <alarm_pool_init_default+0x14>
10000c5e:	210a      	movs	r1, #10
10000c60:	4810      	ldr	r0, [pc, #64]	; (10000ca4 <alarm_pool_init_default+0x50>)
10000c62:	f7ff fdcb 	bl	100007fc <lock_init>
10000c66:	bd10      	pop	{r4, pc}
10000c68:	0023      	movs	r3, r4
10000c6a:	4a0f      	ldr	r2, [pc, #60]	; (10000ca8 <alarm_pool_init_default+0x54>)
10000c6c:	2110      	movs	r1, #16
10000c6e:	6820      	ldr	r0, [r4, #0]
10000c70:	f000 fa1e 	bl	100010b0 <ph_post_alloc_init>
10000c74:	2003      	movs	r0, #3
10000c76:	f000 f8ed 	bl	10000e54 <hardware_alarm_claim>
10000c7a:	2003      	movs	r0, #3
10000c7c:	f000 f9c6 	bl	1000100c <hardware_alarm_cancel>
10000c80:	2003      	movs	r0, #3
10000c82:	490a      	ldr	r1, [pc, #40]	; (10000cac <alarm_pool_init_default+0x58>)
10000c84:	f000 f90c 	bl	10000ea0 <hardware_alarm_set_callback>
10000c88:	f7ff fc22 	bl	100004d0 <next_striped_spin_lock_num>
10000c8c:	4b08      	ldr	r3, [pc, #32]	; (10000cb0 <alarm_pool_init_default+0x5c>)
10000c8e:	469c      	mov	ip, r3
10000c90:	2303      	movs	r3, #3
10000c92:	4460      	add	r0, ip
10000c94:	7523      	strb	r3, [r4, #20]
10000c96:	4b07      	ldr	r3, [pc, #28]	; (10000cb4 <alarm_pool_init_default+0x60>)
10000c98:	0080      	lsls	r0, r0, #2
10000c9a:	6060      	str	r0, [r4, #4]
10000c9c:	60dc      	str	r4, [r3, #12]
10000c9e:	e7de      	b.n	10000c5e <alarm_pool_init_default+0xa>
10000ca0:	200001c4 	.word	0x200001c4
10000ca4:	200005fc 	.word	0x200005fc
10000ca8:	1000080d 	.word	0x1000080d
10000cac:	10000971 	.word	0x10000971
10000cb0:	34000040 	.word	0x34000040
10000cb4:	200005e8 	.word	0x200005e8

10000cb8 <sleep_until>:
10000cb8:	b5f0      	push	{r4, r5, r6, r7, lr}
10000cba:	0004      	movs	r4, r0
10000cbc:	000d      	movs	r5, r1
10000cbe:	2606      	movs	r6, #6
10000cc0:	4276      	negs	r6, r6
10000cc2:	17f7      	asrs	r7, r6, #31
10000cc4:	46c6      	mov	lr, r8
10000cc6:	1936      	adds	r6, r6, r4
10000cc8:	416f      	adcs	r7, r5
10000cca:	b500      	push	{lr}
10000ccc:	428f      	cmp	r7, r1
10000cce:	d813      	bhi.n	10000cf8 <sleep_until+0x40>
10000cd0:	d010      	beq.n	10000cf4 <sleep_until+0x3c>
10000cd2:	f000 f8cb 	bl	10000e6c <time_us_64>
10000cd6:	0032      	movs	r2, r6
10000cd8:	003b      	movs	r3, r7
10000cda:	1a12      	subs	r2, r2, r0
10000cdc:	418b      	sbcs	r3, r1
10000cde:	2b00      	cmp	r3, #0
10000ce0:	dc14      	bgt.n	10000d0c <sleep_until+0x54>
10000ce2:	2b00      	cmp	r3, #0
10000ce4:	d037      	beq.n	10000d56 <sleep_until+0x9e>
10000ce6:	0029      	movs	r1, r5
10000ce8:	0020      	movs	r0, r4
10000cea:	f000 f8c9 	bl	10000e80 <busy_wait_until>
10000cee:	bc80      	pop	{r7}
10000cf0:	46b8      	mov	r8, r7
10000cf2:	bdf0      	pop	{r4, r5, r6, r7, pc}
10000cf4:	4286      	cmp	r6, r0
10000cf6:	d9ec      	bls.n	10000cd2 <sleep_until+0x1a>
10000cf8:	2600      	movs	r6, #0
10000cfa:	2700      	movs	r7, #0
10000cfc:	f000 f8b6 	bl	10000e6c <time_us_64>
10000d00:	0032      	movs	r2, r6
10000d02:	003b      	movs	r3, r7
10000d04:	1a12      	subs	r2, r2, r0
10000d06:	418b      	sbcs	r3, r1
10000d08:	2b00      	cmp	r3, #0
10000d0a:	ddea      	ble.n	10000ce2 <sleep_until+0x2a>
10000d0c:	0030      	movs	r0, r6
10000d0e:	0039      	movs	r1, r7
10000d10:	f7ff ff12 	bl	10000b38 <alarm_pool_add_alarm_at.constprop.0>
10000d14:	2800      	cmp	r0, #0
10000d16:	dbe6      	blt.n	10000ce6 <sleep_until+0x2e>
10000d18:	2300      	movs	r3, #0
10000d1a:	4698      	mov	r8, r3
10000d1c:	46bc      	mov	ip, r7
10000d1e:	4a0f      	ldr	r2, [pc, #60]	; (10000d5c <sleep_until+0xa4>)
10000d20:	4f0f      	ldr	r7, [pc, #60]	; (10000d60 <sleep_until+0xa8>)
10000d22:	6a7b      	ldr	r3, [r7, #36]	; 0x24
10000d24:	459c      	cmp	ip, r3
10000d26:	d804      	bhi.n	10000d32 <sleep_until+0x7a>
10000d28:	6ab9      	ldr	r1, [r7, #40]	; 0x28
10000d2a:	428e      	cmp	r6, r1
10000d2c:	d9db      	bls.n	10000ce6 <sleep_until+0x2e>
10000d2e:	459c      	cmp	ip, r3
10000d30:	d1d9      	bne.n	10000ce6 <sleep_until+0x2e>
10000d32:	6811      	ldr	r1, [r2, #0]
10000d34:	f3ef 8010 	mrs	r0, PRIMASK
10000d38:	b672      	cpsid	i
10000d3a:	680b      	ldr	r3, [r1, #0]
10000d3c:	2b00      	cmp	r3, #0
10000d3e:	d0fc      	beq.n	10000d3a <sleep_until+0x82>
10000d40:	f3bf 8f5f 	dmb	sy
10000d44:	6813      	ldr	r3, [r2, #0]
10000d46:	f3bf 8f5f 	dmb	sy
10000d4a:	4641      	mov	r1, r8
10000d4c:	6019      	str	r1, [r3, #0]
10000d4e:	f380 8810 	msr	PRIMASK, r0
10000d52:	bf20      	wfe
10000d54:	e7e5      	b.n	10000d22 <sleep_until+0x6a>
10000d56:	2a00      	cmp	r2, #0
10000d58:	d0c5      	beq.n	10000ce6 <sleep_until+0x2e>
10000d5a:	e7d7      	b.n	10000d0c <sleep_until+0x54>
10000d5c:	200005fc 	.word	0x200005fc
10000d60:	40054000 	.word	0x40054000

10000d64 <sleep_ms>:
10000d64:	b570      	push	{r4, r5, r6, lr}
10000d66:	0006      	movs	r6, r0
10000d68:	f000 f880 	bl	10000e6c <time_us_64>
10000d6c:	22fa      	movs	r2, #250	; 0xfa
10000d6e:	0004      	movs	r4, r0
10000d70:	000d      	movs	r5, r1
10000d72:	2300      	movs	r3, #0
10000d74:	0030      	movs	r0, r6
10000d76:	2100      	movs	r1, #0
10000d78:	0092      	lsls	r2, r2, #2
10000d7a:	f000 ff13 	bl	10001ba4 <__wrap___aeabi_lmul>
10000d7e:	1900      	adds	r0, r0, r4
10000d80:	4169      	adcs	r1, r5
10000d82:	428d      	cmp	r5, r1
10000d84:	d805      	bhi.n	10000d92 <sleep_ms+0x2e>
10000d86:	d002      	beq.n	10000d8e <sleep_ms+0x2a>
10000d88:	f7ff ff96 	bl	10000cb8 <sleep_until>
10000d8c:	bd70      	pop	{r4, r5, r6, pc}
10000d8e:	4284      	cmp	r4, r0
10000d90:	d9fa      	bls.n	10000d88 <sleep_ms+0x24>
10000d92:	2001      	movs	r0, #1
10000d94:	4240      	negs	r0, r0
10000d96:	17c1      	asrs	r1, r0, #31
10000d98:	e7f6      	b.n	10000d88 <sleep_ms+0x24>
10000d9a:	46c0      	nop			; (mov r8, r8)

10000d9c <hardware_alarm_irq_handler>:
10000d9c:	b5f0      	push	{r4, r5, r6, r7, lr}
10000d9e:	46d6      	mov	lr, sl
10000da0:	464f      	mov	r7, r9
10000da2:	4646      	mov	r6, r8
10000da4:	b5c0      	push	{r6, r7, lr}
10000da6:	f3ef 8305 	mrs	r3, IPSR
10000daa:	223f      	movs	r2, #63	; 0x3f
10000dac:	4013      	ands	r3, r2
10000dae:	0018      	movs	r0, r3
10000db0:	3810      	subs	r0, #16
10000db2:	f3ef 8c10 	mrs	ip, PRIMASK
10000db6:	b672      	cpsid	i
10000db8:	4d20      	ldr	r5, [pc, #128]	; (10000e3c <hardware_alarm_irq_handler+0xa0>)
10000dba:	682a      	ldr	r2, [r5, #0]
10000dbc:	2a00      	cmp	r2, #0
10000dbe:	d0fc      	beq.n	10000dba <hardware_alarm_irq_handler+0x1e>
10000dc0:	f3bf 8f5f 	dmb	sy
10000dc4:	2201      	movs	r2, #1
10000dc6:	0011      	movs	r1, r2
10000dc8:	4081      	lsls	r1, r0
10000dca:	4c1d      	ldr	r4, [pc, #116]	; (10000e40 <hardware_alarm_irq_handler+0xa4>)
10000dcc:	4688      	mov	r8, r1
10000dce:	6361      	str	r1, [r4, #52]	; 0x34
10000dd0:	491c      	ldr	r1, [pc, #112]	; (10000e44 <hardware_alarm_irq_handler+0xa8>)
10000dd2:	0017      	movs	r7, r2
10000dd4:	780e      	ldrb	r6, [r1, #0]
10000dd6:	468a      	mov	sl, r1
10000dd8:	0031      	movs	r1, r6
10000dda:	40c1      	lsrs	r1, r0
10000ddc:	400f      	ands	r7, r1
10000dde:	420a      	tst	r2, r1
10000de0:	d109      	bne.n	10000df6 <hardware_alarm_irq_handler+0x5a>
10000de2:	f3bf 8f5f 	dmb	sy
10000de6:	602f      	str	r7, [r5, #0]
10000de8:	f38c 8810 	msr	PRIMASK, ip
10000dec:	bce0      	pop	{r5, r6, r7}
10000dee:	46ba      	mov	sl, r7
10000df0:	46b1      	mov	r9, r6
10000df2:	46a8      	mov	r8, r5
10000df4:	bdf0      	pop	{r4, r5, r6, r7, pc}
10000df6:	4914      	ldr	r1, [pc, #80]	; (10000e48 <hardware_alarm_irq_handler+0xac>)
10000df8:	0082      	lsls	r2, r0, #2
10000dfa:	6a64      	ldr	r4, [r4, #36]	; 0x24
10000dfc:	5851      	ldr	r1, [r2, r1]
10000dfe:	428c      	cmp	r4, r1
10000e00:	d30f      	bcc.n	10000e22 <hardware_alarm_irq_handler+0x86>
10000e02:	4b12      	ldr	r3, [pc, #72]	; (10000e4c <hardware_alarm_irq_handler+0xb0>)
10000e04:	58d2      	ldr	r2, [r2, r3]
10000e06:	4643      	mov	r3, r8
10000e08:	439e      	bics	r6, r3
10000e0a:	4653      	mov	r3, sl
10000e0c:	701e      	strb	r6, [r3, #0]
10000e0e:	f3bf 8f5f 	dmb	sy
10000e12:	2300      	movs	r3, #0
10000e14:	602b      	str	r3, [r5, #0]
10000e16:	f38c 8810 	msr	PRIMASK, ip
10000e1a:	2a00      	cmp	r2, #0
10000e1c:	d0e6      	beq.n	10000dec <hardware_alarm_irq_handler+0x50>
10000e1e:	4790      	blx	r2
10000e20:	e7e4      	b.n	10000dec <hardware_alarm_irq_handler+0x50>
10000e22:	4a0b      	ldr	r2, [pc, #44]	; (10000e50 <hardware_alarm_irq_handler+0xb4>)
10000e24:	009b      	lsls	r3, r3, #2
10000e26:	4690      	mov	r8, r2
10000e28:	4443      	add	r3, r8
10000e2a:	681a      	ldr	r2, [r3, #0]
10000e2c:	601a      	str	r2, [r3, #0]
10000e2e:	f3bf 8f5f 	dmb	sy
10000e32:	2300      	movs	r3, #0
10000e34:	602b      	str	r3, [r5, #0]
10000e36:	f38c 8810 	msr	PRIMASK, ip
10000e3a:	e7d7      	b.n	10000dec <hardware_alarm_irq_handler+0x50>
10000e3c:	d0000128 	.word	0xd0000128
10000e40:	40054000 	.word	0x40054000
10000e44:	2000061a 	.word	0x2000061a
10000e48:	20000600 	.word	0x20000600
10000e4c:	20000564 	.word	0x20000564
10000e50:	40053fd0 	.word	0x40053fd0

10000e54 <hardware_alarm_claim>:
10000e54:	b510      	push	{r4, lr}
10000e56:	0001      	movs	r1, r0
10000e58:	4a02      	ldr	r2, [pc, #8]	; (10000e64 <hardware_alarm_claim+0x10>)
10000e5a:	4803      	ldr	r0, [pc, #12]	; (10000e68 <hardware_alarm_claim+0x14>)
10000e5c:	f7ff fb00 	bl	10000460 <hw_claim_or_assert>
10000e60:	bd10      	pop	{r4, pc}
10000e62:	46c0      	nop			; (mov r8, r8)
10000e64:	10002358 	.word	0x10002358
10000e68:	20000618 	.word	0x20000618

10000e6c <time_us_64>:
10000e6c:	4b03      	ldr	r3, [pc, #12]	; (10000e7c <time_us_64+0x10>)
10000e6e:	6a59      	ldr	r1, [r3, #36]	; 0x24
10000e70:	000a      	movs	r2, r1
10000e72:	6a98      	ldr	r0, [r3, #40]	; 0x28
10000e74:	6a59      	ldr	r1, [r3, #36]	; 0x24
10000e76:	428a      	cmp	r2, r1
10000e78:	d1fa      	bne.n	10000e70 <time_us_64+0x4>
10000e7a:	4770      	bx	lr
10000e7c:	40054000 	.word	0x40054000

10000e80 <busy_wait_until>:
10000e80:	4a06      	ldr	r2, [pc, #24]	; (10000e9c <busy_wait_until+0x1c>)
10000e82:	6a53      	ldr	r3, [r2, #36]	; 0x24
10000e84:	4299      	cmp	r1, r3
10000e86:	d8fc      	bhi.n	10000e82 <busy_wait_until+0x2>
10000e88:	d107      	bne.n	10000e9a <busy_wait_until+0x1a>
10000e8a:	4b04      	ldr	r3, [pc, #16]	; (10000e9c <busy_wait_until+0x1c>)
10000e8c:	e002      	b.n	10000e94 <busy_wait_until+0x14>
10000e8e:	6a5a      	ldr	r2, [r3, #36]	; 0x24
10000e90:	4291      	cmp	r1, r2
10000e92:	d102      	bne.n	10000e9a <busy_wait_until+0x1a>
10000e94:	6a9a      	ldr	r2, [r3, #40]	; 0x28
10000e96:	4282      	cmp	r2, r0
10000e98:	d3f9      	bcc.n	10000e8e <busy_wait_until+0xe>
10000e9a:	4770      	bx	lr
10000e9c:	40054000 	.word	0x40054000

10000ea0 <hardware_alarm_set_callback>:
10000ea0:	b570      	push	{r4, r5, r6, lr}
10000ea2:	0004      	movs	r4, r0
10000ea4:	000d      	movs	r5, r1
10000ea6:	f3ef 8610 	mrs	r6, PRIMASK
10000eaa:	b672      	cpsid	i
10000eac:	4a1a      	ldr	r2, [pc, #104]	; (10000f18 <hardware_alarm_set_callback+0x78>)
10000eae:	6813      	ldr	r3, [r2, #0]
10000eb0:	2b00      	cmp	r3, #0
10000eb2:	d0fc      	beq.n	10000eae <hardware_alarm_set_callback+0xe>
10000eb4:	f3bf 8f5f 	dmb	sy
10000eb8:	2d00      	cmp	r5, #0
10000eba:	d01b      	beq.n	10000ef4 <hardware_alarm_set_callback+0x54>
10000ebc:	0020      	movs	r0, r4
10000ebe:	f7ff fb25 	bl	1000050c <irq_get_vtable_handler>
10000ec2:	4916      	ldr	r1, [pc, #88]	; (10000f1c <hardware_alarm_set_callback+0x7c>)
10000ec4:	4281      	cmp	r1, r0
10000ec6:	d00a      	beq.n	10000ede <hardware_alarm_set_callback+0x3e>
10000ec8:	0020      	movs	r0, r4
10000eca:	f7ff fb27 	bl	1000051c <irq_set_exclusive_handler>
10000ece:	2101      	movs	r1, #1
10000ed0:	0020      	movs	r0, r4
10000ed2:	f7ff fb09 	bl	100004e8 <irq_set_enabled>
10000ed6:	2301      	movs	r3, #1
10000ed8:	40a3      	lsls	r3, r4
10000eda:	4a11      	ldr	r2, [pc, #68]	; (10000f20 <hardware_alarm_set_callback+0x80>)
10000edc:	6013      	str	r3, [r2, #0]
10000ede:	4b11      	ldr	r3, [pc, #68]	; (10000f24 <hardware_alarm_set_callback+0x84>)
10000ee0:	00a4      	lsls	r4, r4, #2
10000ee2:	50e5      	str	r5, [r4, r3]
10000ee4:	f3bf 8f5f 	dmb	sy
10000ee8:	2200      	movs	r2, #0
10000eea:	4b0b      	ldr	r3, [pc, #44]	; (10000f18 <hardware_alarm_set_callback+0x78>)
10000eec:	601a      	str	r2, [r3, #0]
10000eee:	f386 8810 	msr	PRIMASK, r6
10000ef2:	bd70      	pop	{r4, r5, r6, pc}
10000ef4:	4b0b      	ldr	r3, [pc, #44]	; (10000f24 <hardware_alarm_set_callback+0x84>)
10000ef6:	00a2      	lsls	r2, r4, #2
10000ef8:	50d5      	str	r5, [r2, r3]
10000efa:	2201      	movs	r2, #1
10000efc:	40a2      	lsls	r2, r4
10000efe:	490a      	ldr	r1, [pc, #40]	; (10000f28 <hardware_alarm_set_callback+0x88>)
10000f00:	0020      	movs	r0, r4
10000f02:	780b      	ldrb	r3, [r1, #0]
10000f04:	4393      	bics	r3, r2
10000f06:	700b      	strb	r3, [r1, #0]
10000f08:	4904      	ldr	r1, [pc, #16]	; (10000f1c <hardware_alarm_set_callback+0x7c>)
10000f0a:	f7ff fb31 	bl	10000570 <irq_remove_handler>
10000f0e:	2100      	movs	r1, #0
10000f10:	0020      	movs	r0, r4
10000f12:	f7ff fae9 	bl	100004e8 <irq_set_enabled>
10000f16:	e7e5      	b.n	10000ee4 <hardware_alarm_set_callback+0x44>
10000f18:	d0000128 	.word	0xd0000128
10000f1c:	10000d9d 	.word	0x10000d9d
10000f20:	40056038 	.word	0x40056038
10000f24:	20000564 	.word	0x20000564
10000f28:	2000061a 	.word	0x2000061a

10000f2c <hardware_alarm_set_target>:
10000f2c:	b5f0      	push	{r4, r5, r6, r7, lr}
10000f2e:	464f      	mov	r7, r9
10000f30:	46d6      	mov	lr, sl
10000f32:	4646      	mov	r6, r8
10000f34:	b5c0      	push	{r6, r7, lr}
10000f36:	0007      	movs	r7, r0
10000f38:	4c2f      	ldr	r4, [pc, #188]	; (10000ff8 <hardware_alarm_set_target+0xcc>)
10000f3a:	6a61      	ldr	r1, [r4, #36]	; 0x24
10000f3c:	000d      	movs	r5, r1
10000f3e:	6aa6      	ldr	r6, [r4, #40]	; 0x28
10000f40:	6a61      	ldr	r1, [r4, #36]	; 0x24
10000f42:	42a9      	cmp	r1, r5
10000f44:	d1fa      	bne.n	10000f3c <hardware_alarm_set_target+0x10>
10000f46:	428b      	cmp	r3, r1
10000f48:	d808      	bhi.n	10000f5c <hardware_alarm_set_target+0x30>
10000f4a:	d005      	beq.n	10000f58 <hardware_alarm_set_target+0x2c>
10000f4c:	2001      	movs	r0, #1
10000f4e:	bce0      	pop	{r5, r6, r7}
10000f50:	46ba      	mov	sl, r7
10000f52:	46b1      	mov	r9, r6
10000f54:	46a8      	mov	r8, r5
10000f56:	bdf0      	pop	{r4, r5, r6, r7, pc}
10000f58:	42b2      	cmp	r2, r6
10000f5a:	d9f7      	bls.n	10000f4c <hardware_alarm_set_target+0x20>
10000f5c:	f3ef 8a10 	mrs	sl, PRIMASK
10000f60:	b672      	cpsid	i
10000f62:	4826      	ldr	r0, [pc, #152]	; (10000ffc <hardware_alarm_set_target+0xd0>)
10000f64:	6801      	ldr	r1, [r0, #0]
10000f66:	2900      	cmp	r1, #0
10000f68:	d0fc      	beq.n	10000f64 <hardware_alarm_set_target+0x38>
10000f6a:	f3bf 8f5f 	dmb	sy
10000f6e:	2501      	movs	r5, #1
10000f70:	40bd      	lsls	r5, r7
10000f72:	4923      	ldr	r1, [pc, #140]	; (10001000 <hardware_alarm_set_target+0xd4>)
10000f74:	4c20      	ldr	r4, [pc, #128]	; (10000ff8 <hardware_alarm_set_target+0xcc>)
10000f76:	4688      	mov	r8, r1
10000f78:	7809      	ldrb	r1, [r1, #0]
10000f7a:	4689      	mov	r9, r1
10000f7c:	4329      	orrs	r1, r5
10000f7e:	b2c9      	uxtb	r1, r1
10000f80:	468c      	mov	ip, r1
10000f82:	4641      	mov	r1, r8
10000f84:	4660      	mov	r0, ip
10000f86:	7008      	strb	r0, [r1, #0]
10000f88:	1d39      	adds	r1, r7, #4
10000f8a:	481e      	ldr	r0, [pc, #120]	; (10001004 <hardware_alarm_set_target+0xd8>)
10000f8c:	0089      	lsls	r1, r1, #2
10000f8e:	6365      	str	r5, [r4, #52]	; 0x34
10000f90:	510a      	str	r2, [r1, r4]
10000f92:	00b9      	lsls	r1, r7, #2
10000f94:	500b      	str	r3, [r1, r0]
10000f96:	6a21      	ldr	r1, [r4, #32]
10000f98:	2000      	movs	r0, #0
10000f9a:	4229      	tst	r1, r5
10000f9c:	d019      	beq.n	10000fd2 <hardware_alarm_set_target+0xa6>
10000f9e:	6a61      	ldr	r1, [r4, #36]	; 0x24
10000fa0:	0008      	movs	r0, r1
10000fa2:	6aa6      	ldr	r6, [r4, #40]	; 0x28
10000fa4:	6a61      	ldr	r1, [r4, #36]	; 0x24
10000fa6:	4281      	cmp	r1, r0
10000fa8:	d1fa      	bne.n	10000fa0 <hardware_alarm_set_target+0x74>
10000faa:	428b      	cmp	r3, r1
10000fac:	d819      	bhi.n	10000fe2 <hardware_alarm_set_target+0xb6>
10000fae:	d101      	bne.n	10000fb4 <hardware_alarm_set_target+0x88>
10000fb0:	42b2      	cmp	r2, r6
10000fb2:	d816      	bhi.n	10000fe2 <hardware_alarm_set_target+0xb6>
10000fb4:	45cc      	cmp	ip, r9
10000fb6:	d01d      	beq.n	10000ff4 <hardware_alarm_set_target+0xc8>
10000fb8:	4b0f      	ldr	r3, [pc, #60]	; (10000ff8 <hardware_alarm_set_target+0xcc>)
10000fba:	201f      	movs	r0, #31
10000fbc:	621d      	str	r5, [r3, #32]
10000fbe:	635d      	str	r5, [r3, #52]	; 0x34
10000fc0:	2301      	movs	r3, #1
10000fc2:	4007      	ands	r7, r0
10000fc4:	40bb      	lsls	r3, r7
10000fc6:	4a10      	ldr	r2, [pc, #64]	; (10001008 <hardware_alarm_set_target+0xdc>)
10000fc8:	381e      	subs	r0, #30
10000fca:	6013      	str	r3, [r2, #0]
10000fcc:	4643      	mov	r3, r8
10000fce:	464a      	mov	r2, r9
10000fd0:	701a      	strb	r2, [r3, #0]
10000fd2:	f3bf 8f5f 	dmb	sy
10000fd6:	2200      	movs	r2, #0
10000fd8:	4b08      	ldr	r3, [pc, #32]	; (10000ffc <hardware_alarm_set_target+0xd0>)
10000fda:	601a      	str	r2, [r3, #0]
10000fdc:	f38a 8810 	msr	PRIMASK, sl
10000fe0:	e7b5      	b.n	10000f4e <hardware_alarm_set_target+0x22>
10000fe2:	2000      	movs	r0, #0
10000fe4:	f3bf 8f5f 	dmb	sy
10000fe8:	2200      	movs	r2, #0
10000fea:	4b04      	ldr	r3, [pc, #16]	; (10000ffc <hardware_alarm_set_target+0xd0>)
10000fec:	601a      	str	r2, [r3, #0]
10000fee:	f38a 8810 	msr	PRIMASK, sl
10000ff2:	e7ac      	b.n	10000f4e <hardware_alarm_set_target+0x22>
10000ff4:	2001      	movs	r0, #1
10000ff6:	e7ec      	b.n	10000fd2 <hardware_alarm_set_target+0xa6>
10000ff8:	40054000 	.word	0x40054000
10000ffc:	d0000128 	.word	0xd0000128
10001000:	2000061a 	.word	0x2000061a
10001004:	20000600 	.word	0x20000600
10001008:	e000e280 	.word	0xe000e280

1000100c <hardware_alarm_cancel>:
1000100c:	f3ef 8c10 	mrs	ip, PRIMASK
10001010:	b672      	cpsid	i
10001012:	490a      	ldr	r1, [pc, #40]	; (1000103c <hardware_alarm_cancel+0x30>)
10001014:	680b      	ldr	r3, [r1, #0]
10001016:	2b00      	cmp	r3, #0
10001018:	d0fc      	beq.n	10001014 <hardware_alarm_cancel+0x8>
1000101a:	f3bf 8f5f 	dmb	sy
1000101e:	2301      	movs	r3, #1
10001020:	4083      	lsls	r3, r0
10001022:	4a07      	ldr	r2, [pc, #28]	; (10001040 <hardware_alarm_cancel+0x34>)
10001024:	4807      	ldr	r0, [pc, #28]	; (10001044 <hardware_alarm_cancel+0x38>)
10001026:	6213      	str	r3, [r2, #32]
10001028:	7802      	ldrb	r2, [r0, #0]
1000102a:	439a      	bics	r2, r3
1000102c:	7002      	strb	r2, [r0, #0]
1000102e:	f3bf 8f5f 	dmb	sy
10001032:	2300      	movs	r3, #0
10001034:	600b      	str	r3, [r1, #0]
10001036:	f38c 8810 	msr	PRIMASK, ip
1000103a:	4770      	bx	lr
1000103c:	d0000128 	.word	0xd0000128
10001040:	40054000 	.word	0x40054000
10001044:	2000061a 	.word	0x2000061a

10001048 <ph_merge_nodes>:
10001048:	b570      	push	{r4, r5, r6, lr}
1000104a:	0005      	movs	r5, r0
1000104c:	0014      	movs	r4, r2
1000104e:	0016      	movs	r6, r2
10001050:	2900      	cmp	r1, #0
10001052:	d015      	beq.n	10001080 <ph_merge_nodes+0x38>
10001054:	000c      	movs	r4, r1
10001056:	2a00      	cmp	r2, #0
10001058:	d012      	beq.n	10001080 <ph_merge_nodes+0x38>
1000105a:	6880      	ldr	r0, [r0, #8]
1000105c:	686b      	ldr	r3, [r5, #4]
1000105e:	4798      	blx	r3
10001060:	6829      	ldr	r1, [r5, #0]
10001062:	2800      	cmp	r0, #0
10001064:	d00e      	beq.n	10001084 <ph_merge_nodes+0x3c>
10001066:	0073      	lsls	r3, r6, #1
10001068:	199b      	adds	r3, r3, r6
1000106a:	0062      	lsls	r2, r4, #1
1000106c:	3b03      	subs	r3, #3
1000106e:	1912      	adds	r2, r2, r4
10001070:	18cb      	adds	r3, r1, r3
10001072:	3a03      	subs	r2, #3
10001074:	709c      	strb	r4, [r3, #2]
10001076:	1888      	adds	r0, r1, r2
10001078:	5c8a      	ldrb	r2, [r1, r2]
1000107a:	2a00      	cmp	r2, #0
1000107c:	d115      	bne.n	100010aa <ph_merge_nodes+0x62>
1000107e:	7006      	strb	r6, [r0, #0]
10001080:	0020      	movs	r0, r4
10001082:	bd70      	pop	{r4, r5, r6, pc}
10001084:	0063      	lsls	r3, r4, #1
10001086:	191b      	adds	r3, r3, r4
10001088:	0072      	lsls	r2, r6, #1
1000108a:	3b03      	subs	r3, #3
1000108c:	1992      	adds	r2, r2, r6
1000108e:	18cb      	adds	r3, r1, r3
10001090:	3a03      	subs	r2, #3
10001092:	709e      	strb	r6, [r3, #2]
10001094:	1888      	adds	r0, r1, r2
10001096:	5c8a      	ldrb	r2, [r1, r2]
10001098:	2a00      	cmp	r2, #0
1000109a:	d102      	bne.n	100010a2 <ph_merge_nodes+0x5a>
1000109c:	7004      	strb	r4, [r0, #0]
1000109e:	0034      	movs	r4, r6
100010a0:	e7ee      	b.n	10001080 <ph_merge_nodes+0x38>
100010a2:	705a      	strb	r2, [r3, #1]
100010a4:	7004      	strb	r4, [r0, #0]
100010a6:	0034      	movs	r4, r6
100010a8:	e7ea      	b.n	10001080 <ph_merge_nodes+0x38>
100010aa:	705a      	strb	r2, [r3, #1]
100010ac:	7006      	strb	r6, [r0, #0]
100010ae:	e7e7      	b.n	10001080 <ph_merge_nodes+0x38>

100010b0 <ph_post_alloc_init>:
100010b0:	b530      	push	{r4, r5, lr}
100010b2:	6083      	str	r3, [r0, #8]
100010b4:	2300      	movs	r3, #0
100010b6:	b2cc      	uxtb	r4, r1
100010b8:	7343      	strb	r3, [r0, #13]
100010ba:	3301      	adds	r3, #1
100010bc:	7304      	strb	r4, [r0, #12]
100010be:	6042      	str	r2, [r0, #4]
100010c0:	7383      	strb	r3, [r0, #14]
100010c2:	73c4      	strb	r4, [r0, #15]
100010c4:	000d      	movs	r5, r1
100010c6:	6800      	ldr	r0, [r0, #0]
100010c8:	2c01      	cmp	r4, #1
100010ca:	d906      	bls.n	100010da <ph_post_alloc_init+0x2a>
100010cc:	1c42      	adds	r2, r0, #1
100010ce:	3301      	adds	r3, #1
100010d0:	b2db      	uxtb	r3, r3
100010d2:	7013      	strb	r3, [r2, #0]
100010d4:	3203      	adds	r2, #3
100010d6:	429c      	cmp	r4, r3
100010d8:	d1f9      	bne.n	100010ce <ph_post_alloc_init+0x1e>
100010da:	21ff      	movs	r1, #255	; 0xff
100010dc:	4029      	ands	r1, r5
100010de:	004b      	lsls	r3, r1, #1
100010e0:	1859      	adds	r1, r3, r1
100010e2:	2300      	movs	r3, #0
100010e4:	1840      	adds	r0, r0, r1
100010e6:	3803      	subs	r0, #3
100010e8:	7043      	strb	r3, [r0, #1]
100010ea:	bd30      	pop	{r4, r5, pc}

100010ec <ph_merge_two_pass>:
100010ec:	b5f8      	push	{r3, r4, r5, r6, r7, lr}
100010ee:	46ce      	mov	lr, r9
100010f0:	4647      	mov	r7, r8
100010f2:	0006      	movs	r6, r0
100010f4:	000c      	movs	r4, r1
100010f6:	b580      	push	{r7, lr}
100010f8:	2900      	cmp	r1, #0
100010fa:	d007      	beq.n	1000110c <ph_merge_two_pass+0x20>
100010fc:	004d      	lsls	r5, r1, #1
100010fe:	6803      	ldr	r3, [r0, #0]
10001100:	186d      	adds	r5, r5, r1
10001102:	3d03      	subs	r5, #3
10001104:	195a      	adds	r2, r3, r5
10001106:	7857      	ldrb	r7, [r2, #1]
10001108:	2f00      	cmp	r7, #0
1000110a:	d104      	bne.n	10001116 <ph_merge_two_pass+0x2a>
1000110c:	0020      	movs	r0, r4
1000110e:	bcc0      	pop	{r6, r7}
10001110:	46b9      	mov	r9, r7
10001112:	46b0      	mov	r8, r6
10001114:	bdf8      	pop	{r3, r4, r5, r6, r7, pc}
10001116:	0079      	lsls	r1, r7, #1
10001118:	19c9      	adds	r1, r1, r7
1000111a:	3903      	subs	r1, #3
1000111c:	4688      	mov	r8, r1
1000111e:	4443      	add	r3, r8
10001120:	7859      	ldrb	r1, [r3, #1]
10001122:	4689      	mov	r9, r1
10001124:	2100      	movs	r1, #0
10001126:	7059      	strb	r1, [r3, #1]
10001128:	7051      	strb	r1, [r2, #1]
1000112a:	6873      	ldr	r3, [r6, #4]
1000112c:	003a      	movs	r2, r7
1000112e:	0021      	movs	r1, r4
10001130:	6880      	ldr	r0, [r0, #8]
10001132:	4798      	blx	r3
10001134:	6833      	ldr	r3, [r6, #0]
10001136:	2800      	cmp	r0, #0
10001138:	d014      	beq.n	10001164 <ph_merge_two_pass+0x78>
1000113a:	4642      	mov	r2, r8
1000113c:	189a      	adds	r2, r3, r2
1000113e:	7094      	strb	r4, [r2, #2]
10001140:	1959      	adds	r1, r3, r5
10001142:	5d5b      	ldrb	r3, [r3, r5]
10001144:	2b00      	cmp	r3, #0
10001146:	d000      	beq.n	1000114a <ph_merge_two_pass+0x5e>
10001148:	7053      	strb	r3, [r2, #1]
1000114a:	700f      	strb	r7, [r1, #0]
1000114c:	0027      	movs	r7, r4
1000114e:	4649      	mov	r1, r9
10001150:	0030      	movs	r0, r6
10001152:	f7ff ffcb 	bl	100010ec <ph_merge_two_pass>
10001156:	0039      	movs	r1, r7
10001158:	0002      	movs	r2, r0
1000115a:	0030      	movs	r0, r6
1000115c:	f7ff ff74 	bl	10001048 <ph_merge_nodes>
10001160:	0004      	movs	r4, r0
10001162:	e7d3      	b.n	1000110c <ph_merge_two_pass+0x20>
10001164:	4642      	mov	r2, r8
10001166:	4641      	mov	r1, r8
10001168:	195d      	adds	r5, r3, r5
1000116a:	70af      	strb	r7, [r5, #2]
1000116c:	189a      	adds	r2, r3, r2
1000116e:	5c5b      	ldrb	r3, [r3, r1]
10001170:	2b00      	cmp	r3, #0
10001172:	d000      	beq.n	10001176 <ph_merge_two_pass+0x8a>
10001174:	706b      	strb	r3, [r5, #1]
10001176:	7014      	strb	r4, [r2, #0]
10001178:	e7e9      	b.n	1000114e <ph_merge_two_pass+0x62>
1000117a:	46c0      	nop			; (mov r8, r8)

1000117c <ph_remove_any_head>:
1000117c:	b5f0      	push	{r4, r5, r6, r7, lr}
1000117e:	4657      	mov	r7, sl
10001180:	4645      	mov	r5, r8
10001182:	46de      	mov	lr, fp
10001184:	464e      	mov	r6, r9
10001186:	b5e0      	push	{r5, r6, r7, lr}
10001188:	000d      	movs	r5, r1
1000118a:	006b      	lsls	r3, r5, #1
1000118c:	6801      	ldr	r1, [r0, #0]
1000118e:	195b      	adds	r3, r3, r5
10001190:	1edf      	subs	r7, r3, #3
10001192:	0004      	movs	r4, r0
10001194:	5dc8      	ldrb	r0, [r1, r7]
10001196:	b083      	sub	sp, #12
10001198:	9201      	str	r2, [sp, #4]
1000119a:	19ca      	adds	r2, r1, r7
1000119c:	2800      	cmp	r0, #0
1000119e:	d04c      	beq.n	1000123a <ph_remove_any_head+0xbe>
100011a0:	0043      	lsls	r3, r0, #1
100011a2:	181b      	adds	r3, r3, r0
100011a4:	3b03      	subs	r3, #3
100011a6:	18cb      	adds	r3, r1, r3
100011a8:	785e      	ldrb	r6, [r3, #1]
100011aa:	46b4      	mov	ip, r6
100011ac:	2e00      	cmp	r6, #0
100011ae:	d116      	bne.n	100011de <ph_remove_any_head+0x62>
100011b0:	9e01      	ldr	r6, [sp, #4]
100011b2:	2e00      	cmp	r6, #0
100011b4:	d03e      	beq.n	10001234 <ph_remove_any_head+0xb8>
100011b6:	7be6      	ldrb	r6, [r4, #15]
100011b8:	2e00      	cmp	r6, #0
100011ba:	d004      	beq.n	100011c6 <ph_remove_any_head+0x4a>
100011bc:	0073      	lsls	r3, r6, #1
100011be:	199b      	adds	r3, r3, r6
100011c0:	18cb      	adds	r3, r1, r3
100011c2:	3b03      	subs	r3, #3
100011c4:	705d      	strb	r5, [r3, #1]
100011c6:	73e5      	strb	r5, [r4, #15]
100011c8:	2800      	cmp	r0, #0
100011ca:	d12f      	bne.n	1000122c <ph_remove_any_head+0xb0>
100011cc:	2300      	movs	r3, #0
100011ce:	7053      	strb	r3, [r2, #1]
100011d0:	b003      	add	sp, #12
100011d2:	bcf0      	pop	{r4, r5, r6, r7}
100011d4:	46bb      	mov	fp, r7
100011d6:	46b2      	mov	sl, r6
100011d8:	46a9      	mov	r9, r5
100011da:	46a0      	mov	r8, r4
100011dc:	bdf0      	pop	{r4, r5, r6, r7, pc}
100011de:	0072      	lsls	r2, r6, #1
100011e0:	4462      	add	r2, ip
100011e2:	3a03      	subs	r2, #3
100011e4:	1889      	adds	r1, r1, r2
100011e6:	784a      	ldrb	r2, [r1, #1]
100011e8:	4690      	mov	r8, r2
100011ea:	2200      	movs	r2, #0
100011ec:	704a      	strb	r2, [r1, #1]
100011ee:	4691      	mov	r9, r2
100011f0:	705a      	strb	r2, [r3, #1]
100011f2:	0001      	movs	r1, r0
100011f4:	0032      	movs	r2, r6
100011f6:	0020      	movs	r0, r4
100011f8:	f7ff ff26 	bl	10001048 <ph_merge_nodes>
100011fc:	4643      	mov	r3, r8
100011fe:	4682      	mov	sl, r0
10001200:	2b00      	cmp	r3, #0
10001202:	d007      	beq.n	10001214 <ph_remove_any_head+0x98>
10001204:	005b      	lsls	r3, r3, #1
10001206:	6821      	ldr	r1, [r4, #0]
10001208:	4443      	add	r3, r8
1000120a:	3b03      	subs	r3, #3
1000120c:	18cb      	adds	r3, r1, r3
1000120e:	785a      	ldrb	r2, [r3, #1]
10001210:	2a00      	cmp	r2, #0
10001212:	d116      	bne.n	10001242 <ph_remove_any_head+0xc6>
10001214:	4642      	mov	r2, r8
10001216:	4651      	mov	r1, sl
10001218:	0020      	movs	r0, r4
1000121a:	f7ff ff15 	bl	10001048 <ph_merge_nodes>
1000121e:	6821      	ldr	r1, [r4, #0]
10001220:	9b01      	ldr	r3, [sp, #4]
10001222:	19ca      	adds	r2, r1, r7
10001224:	2b00      	cmp	r3, #0
10001226:	d1c6      	bne.n	100011b6 <ph_remove_any_head+0x3a>
10001228:	2800      	cmp	r0, #0
1000122a:	d0cf      	beq.n	100011cc <ph_remove_any_head+0x50>
1000122c:	0043      	lsls	r3, r0, #1
1000122e:	181b      	adds	r3, r3, r0
10001230:	3b03      	subs	r3, #3
10001232:	18cb      	adds	r3, r1, r3
10001234:	2100      	movs	r1, #0
10001236:	7099      	strb	r1, [r3, #2]
10001238:	e7c8      	b.n	100011cc <ph_remove_any_head+0x50>
1000123a:	9b01      	ldr	r3, [sp, #4]
1000123c:	2b00      	cmp	r3, #0
1000123e:	d1ba      	bne.n	100011b6 <ph_remove_any_head+0x3a>
10001240:	e7c4      	b.n	100011cc <ph_remove_any_head+0x50>
10001242:	0050      	lsls	r0, r2, #1
10001244:	1880      	adds	r0, r0, r2
10001246:	3803      	subs	r0, #3
10001248:	1809      	adds	r1, r1, r0
1000124a:	7848      	ldrb	r0, [r1, #1]
1000124c:	4683      	mov	fp, r0
1000124e:	4648      	mov	r0, r9
10001250:	7048      	strb	r0, [r1, #1]
10001252:	7058      	strb	r0, [r3, #1]
10001254:	4641      	mov	r1, r8
10001256:	0020      	movs	r0, r4
10001258:	f7ff fef6 	bl	10001048 <ph_merge_nodes>
1000125c:	4659      	mov	r1, fp
1000125e:	4680      	mov	r8, r0
10001260:	0020      	movs	r0, r4
10001262:	f7ff ff43 	bl	100010ec <ph_merge_two_pass>
10001266:	4641      	mov	r1, r8
10001268:	0002      	movs	r2, r0
1000126a:	0020      	movs	r0, r4
1000126c:	f7ff feec 	bl	10001048 <ph_merge_nodes>
10001270:	4680      	mov	r8, r0
10001272:	e7cf      	b.n	10001214 <ph_remove_any_head+0x98>

10001274 <ph_remove_head>:
10001274:	b5f0      	push	{r4, r5, r6, r7, lr}
10001276:	4657      	mov	r7, sl
10001278:	4645      	mov	r5, r8
1000127a:	46de      	mov	lr, fp
1000127c:	464e      	mov	r6, r9
1000127e:	b5e0      	push	{r5, r6, r7, lr}
10001280:	b083      	sub	sp, #12
10001282:	9101      	str	r1, [sp, #4]
10001284:	7b45      	ldrb	r5, [r0, #13]
10001286:	0004      	movs	r4, r0
10001288:	006b      	lsls	r3, r5, #1
1000128a:	6800      	ldr	r0, [r0, #0]
1000128c:	195b      	adds	r3, r3, r5
1000128e:	1edf      	subs	r7, r3, #3
10001290:	5dc1      	ldrb	r1, [r0, r7]
10001292:	19c2      	adds	r2, r0, r7
10001294:	2900      	cmp	r1, #0
10001296:	d04e      	beq.n	10001336 <ph_remove_head+0xc2>
10001298:	004b      	lsls	r3, r1, #1
1000129a:	185b      	adds	r3, r3, r1
1000129c:	3b03      	subs	r3, #3
1000129e:	18c3      	adds	r3, r0, r3
100012a0:	785e      	ldrb	r6, [r3, #1]
100012a2:	46b4      	mov	ip, r6
100012a4:	2e00      	cmp	r6, #0
100012a6:	d118      	bne.n	100012da <ph_remove_head+0x66>
100012a8:	9e01      	ldr	r6, [sp, #4]
100012aa:	2e00      	cmp	r6, #0
100012ac:	d040      	beq.n	10001330 <ph_remove_head+0xbc>
100012ae:	7be6      	ldrb	r6, [r4, #15]
100012b0:	2e00      	cmp	r6, #0
100012b2:	d004      	beq.n	100012be <ph_remove_head+0x4a>
100012b4:	0073      	lsls	r3, r6, #1
100012b6:	199b      	adds	r3, r3, r6
100012b8:	18c3      	adds	r3, r0, r3
100012ba:	3b03      	subs	r3, #3
100012bc:	705d      	strb	r5, [r3, #1]
100012be:	73e5      	strb	r5, [r4, #15]
100012c0:	2900      	cmp	r1, #0
100012c2:	d131      	bne.n	10001328 <ph_remove_head+0xb4>
100012c4:	2300      	movs	r3, #0
100012c6:	0028      	movs	r0, r5
100012c8:	7053      	strb	r3, [r2, #1]
100012ca:	7361      	strb	r1, [r4, #13]
100012cc:	b003      	add	sp, #12
100012ce:	bcf0      	pop	{r4, r5, r6, r7}
100012d0:	46bb      	mov	fp, r7
100012d2:	46b2      	mov	sl, r6
100012d4:	46a9      	mov	r9, r5
100012d6:	46a0      	mov	r8, r4
100012d8:	bdf0      	pop	{r4, r5, r6, r7, pc}
100012da:	0072      	lsls	r2, r6, #1
100012dc:	4462      	add	r2, ip
100012de:	3a03      	subs	r2, #3
100012e0:	1880      	adds	r0, r0, r2
100012e2:	7842      	ldrb	r2, [r0, #1]
100012e4:	4690      	mov	r8, r2
100012e6:	2200      	movs	r2, #0
100012e8:	7042      	strb	r2, [r0, #1]
100012ea:	4691      	mov	r9, r2
100012ec:	705a      	strb	r2, [r3, #1]
100012ee:	0020      	movs	r0, r4
100012f0:	0032      	movs	r2, r6
100012f2:	f7ff fea9 	bl	10001048 <ph_merge_nodes>
100012f6:	4643      	mov	r3, r8
100012f8:	4682      	mov	sl, r0
100012fa:	2b00      	cmp	r3, #0
100012fc:	d007      	beq.n	1000130e <ph_remove_head+0x9a>
100012fe:	005b      	lsls	r3, r3, #1
10001300:	6821      	ldr	r1, [r4, #0]
10001302:	4443      	add	r3, r8
10001304:	3b03      	subs	r3, #3
10001306:	18cb      	adds	r3, r1, r3
10001308:	785a      	ldrb	r2, [r3, #1]
1000130a:	2a00      	cmp	r2, #0
1000130c:	d117      	bne.n	1000133e <ph_remove_head+0xca>
1000130e:	4642      	mov	r2, r8
10001310:	4651      	mov	r1, sl
10001312:	0020      	movs	r0, r4
10001314:	f7ff fe98 	bl	10001048 <ph_merge_nodes>
10001318:	9b01      	ldr	r3, [sp, #4]
1000131a:	0001      	movs	r1, r0
1000131c:	6820      	ldr	r0, [r4, #0]
1000131e:	19c2      	adds	r2, r0, r7
10001320:	2b00      	cmp	r3, #0
10001322:	d1c4      	bne.n	100012ae <ph_remove_head+0x3a>
10001324:	2900      	cmp	r1, #0
10001326:	d0cd      	beq.n	100012c4 <ph_remove_head+0x50>
10001328:	004b      	lsls	r3, r1, #1
1000132a:	185b      	adds	r3, r3, r1
1000132c:	3b03      	subs	r3, #3
1000132e:	18c3      	adds	r3, r0, r3
10001330:	2000      	movs	r0, #0
10001332:	7098      	strb	r0, [r3, #2]
10001334:	e7c6      	b.n	100012c4 <ph_remove_head+0x50>
10001336:	9b01      	ldr	r3, [sp, #4]
10001338:	2b00      	cmp	r3, #0
1000133a:	d1b8      	bne.n	100012ae <ph_remove_head+0x3a>
1000133c:	e7c2      	b.n	100012c4 <ph_remove_head+0x50>
1000133e:	0050      	lsls	r0, r2, #1
10001340:	1880      	adds	r0, r0, r2
10001342:	3803      	subs	r0, #3
10001344:	1809      	adds	r1, r1, r0
10001346:	7848      	ldrb	r0, [r1, #1]
10001348:	4683      	mov	fp, r0
1000134a:	4648      	mov	r0, r9
1000134c:	7048      	strb	r0, [r1, #1]
1000134e:	7058      	strb	r0, [r3, #1]
10001350:	4641      	mov	r1, r8
10001352:	0020      	movs	r0, r4
10001354:	f7ff fe78 	bl	10001048 <ph_merge_nodes>
10001358:	4659      	mov	r1, fp
1000135a:	4680      	mov	r8, r0
1000135c:	0020      	movs	r0, r4
1000135e:	f7ff fec5 	bl	100010ec <ph_merge_two_pass>
10001362:	4641      	mov	r1, r8
10001364:	0002      	movs	r2, r0
10001366:	0020      	movs	r0, r4
10001368:	f7ff fe6e 	bl	10001048 <ph_merge_nodes>
1000136c:	4680      	mov	r8, r0
1000136e:	e7ce      	b.n	1000130e <ph_remove_head+0x9a>

10001370 <ph_remove_and_free_node>:
10001370:	b570      	push	{r4, r5, r6, lr}
10001372:	0004      	movs	r4, r0
10001374:	2900      	cmp	r1, #0
10001376:	d02c      	beq.n	100013d2 <ph_remove_and_free_node+0x62>
10001378:	7b43      	ldrb	r3, [r0, #13]
1000137a:	428b      	cmp	r3, r1
1000137c:	d02e      	beq.n	100013dc <ph_remove_and_free_node+0x6c>
1000137e:	6805      	ldr	r5, [r0, #0]
10001380:	0048      	lsls	r0, r1, #1
10001382:	1840      	adds	r0, r0, r1
10001384:	3803      	subs	r0, #3
10001386:	1828      	adds	r0, r5, r0
10001388:	7882      	ldrb	r2, [r0, #2]
1000138a:	2a00      	cmp	r2, #0
1000138c:	d021      	beq.n	100013d2 <ph_remove_and_free_node+0x62>
1000138e:	0053      	lsls	r3, r2, #1
10001390:	189b      	adds	r3, r3, r2
10001392:	3b03      	subs	r3, #3
10001394:	5cea      	ldrb	r2, [r5, r3]
10001396:	18ee      	adds	r6, r5, r3
10001398:	428a      	cmp	r2, r1
1000139a:	d102      	bne.n	100013a2 <ph_remove_and_free_node+0x32>
1000139c:	e01b      	b.n	100013d6 <ph_remove_and_free_node+0x66>
1000139e:	2a00      	cmp	r2, #0
100013a0:	d008      	beq.n	100013b4 <ph_remove_and_free_node+0x44>
100013a2:	0053      	lsls	r3, r2, #1
100013a4:	189b      	adds	r3, r3, r2
100013a6:	3b03      	subs	r3, #3
100013a8:	18eb      	adds	r3, r5, r3
100013aa:	785a      	ldrb	r2, [r3, #1]
100013ac:	428a      	cmp	r2, r1
100013ae:	d1f6      	bne.n	1000139e <ph_remove_and_free_node+0x2e>
100013b0:	7842      	ldrb	r2, [r0, #1]
100013b2:	705a      	strb	r2, [r3, #1]
100013b4:	2300      	movs	r3, #0
100013b6:	2201      	movs	r2, #1
100013b8:	7083      	strb	r3, [r0, #2]
100013ba:	7043      	strb	r3, [r0, #1]
100013bc:	0020      	movs	r0, r4
100013be:	f7ff fedd 	bl	1000117c <ph_remove_any_head>
100013c2:	7b61      	ldrb	r1, [r4, #13]
100013c4:	0002      	movs	r2, r0
100013c6:	0020      	movs	r0, r4
100013c8:	f7ff fe3e 	bl	10001048 <ph_merge_nodes>
100013cc:	7360      	strb	r0, [r4, #13]
100013ce:	2001      	movs	r0, #1
100013d0:	e000      	b.n	100013d4 <ph_remove_and_free_node+0x64>
100013d2:	2000      	movs	r0, #0
100013d4:	bd70      	pop	{r4, r5, r6, pc}
100013d6:	7843      	ldrb	r3, [r0, #1]
100013d8:	7033      	strb	r3, [r6, #0]
100013da:	e7eb      	b.n	100013b4 <ph_remove_and_free_node+0x44>
100013dc:	2201      	movs	r2, #1
100013de:	0019      	movs	r1, r3
100013e0:	f7ff fecc 	bl	1000117c <ph_remove_any_head>
100013e4:	7360      	strb	r0, [r4, #13]
100013e6:	2001      	movs	r0, #1
100013e8:	e7f4      	b.n	100013d4 <ph_remove_and_free_node+0x64>
100013ea:	46c0      	nop			; (mov r8, r8)

100013ec <mutex_init>:
100013ec:	b510      	push	{r4, lr}
100013ee:	0004      	movs	r4, r0
100013f0:	f7ff f86e 	bl	100004d0 <next_striped_spin_lock_num>
100013f4:	0001      	movs	r1, r0
100013f6:	0020      	movs	r0, r4
100013f8:	f7ff fa00 	bl	100007fc <lock_init>
100013fc:	23ff      	movs	r3, #255	; 0xff
100013fe:	7123      	strb	r3, [r4, #4]
10001400:	f3bf 8f5f 	dmb	sy
10001404:	bd10      	pop	{r4, pc}
10001406:	46c0      	nop			; (mov r8, r8)

10001408 <recursive_mutex_init>:
10001408:	b510      	push	{r4, lr}
1000140a:	0004      	movs	r4, r0
1000140c:	f7ff f860 	bl	100004d0 <next_striped_spin_lock_num>
10001410:	0001      	movs	r1, r0
10001412:	0020      	movs	r0, r4
10001414:	f7ff f9f2 	bl	100007fc <lock_init>
10001418:	23ff      	movs	r3, #255	; 0xff
1000141a:	80a3      	strh	r3, [r4, #4]
1000141c:	f3bf 8f5f 	dmb	sy
10001420:	bd10      	pop	{r4, pc}
10001422:	46c0      	nop			; (mov r8, r8)

10001424 <uart_init>:
10001424:	b5f8      	push	{r3, r4, r5, r6, r7, lr}
10001426:	0004      	movs	r4, r0
10001428:	2006      	movs	r0, #6
1000142a:	000d      	movs	r5, r1
1000142c:	f000 fa60 	bl	100018f0 <clock_get_hz>
10001430:	2800      	cmp	r0, #0
10001432:	d044      	beq.n	100014be <uart_init+0x9a>
10001434:	4b2a      	ldr	r3, [pc, #168]	; (100014e0 <uart_init+0xbc>)
10001436:	492b      	ldr	r1, [pc, #172]	; (100014e4 <uart_init+0xc0>)
10001438:	18e2      	adds	r2, r4, r3
1000143a:	4253      	negs	r3, r2
1000143c:	415a      	adcs	r2, r3
1000143e:	2380      	movs	r3, #128	; 0x80
10001440:	03db      	lsls	r3, r3, #15
10001442:	469c      	mov	ip, r3
10001444:	0592      	lsls	r2, r2, #22
10001446:	4b28      	ldr	r3, [pc, #160]	; (100014e8 <uart_init+0xc4>)
10001448:	4462      	add	r2, ip
1000144a:	601a      	str	r2, [r3, #0]
1000144c:	4b27      	ldr	r3, [pc, #156]	; (100014ec <uart_init+0xc8>)
1000144e:	601a      	str	r2, [r3, #0]
10001450:	0010      	movs	r0, r2
10001452:	688b      	ldr	r3, [r1, #8]
10001454:	4398      	bics	r0, r3
10001456:	d1fb      	bne.n	10001450 <uart_init+0x2c>
10001458:	4b21      	ldr	r3, [pc, #132]	; (100014e0 <uart_init+0xbc>)
1000145a:	2180      	movs	r1, #128	; 0x80
1000145c:	18e3      	adds	r3, r4, r3
1000145e:	425a      	negs	r2, r3
10001460:	4153      	adcs	r3, r2
10001462:	4a23      	ldr	r2, [pc, #140]	; (100014f0 <uart_init+0xcc>)
10001464:	005b      	lsls	r3, r3, #1
10001466:	0049      	lsls	r1, r1, #1
10001468:	5299      	strh	r1, [r3, r2]
1000146a:	2006      	movs	r0, #6
1000146c:	f000 fa40 	bl	100018f0 <clock_get_hz>
10001470:	0029      	movs	r1, r5
10001472:	00c0      	lsls	r0, r0, #3
10001474:	f000 fb10 	bl	10001a98 <__wrap___aeabi_uidiv>
10001478:	09c3      	lsrs	r3, r0, #7
1000147a:	d121      	bne.n	100014c0 <uart_init+0x9c>
1000147c:	2740      	movs	r7, #64	; 0x40
1000147e:	2101      	movs	r1, #1
10001480:	0026      	movs	r6, r4
10001482:	2580      	movs	r5, #128	; 0x80
10001484:	6261      	str	r1, [r4, #36]	; 0x24
10001486:	62a3      	str	r3, [r4, #40]	; 0x28
10001488:	2300      	movs	r3, #0
1000148a:	362c      	adds	r6, #44	; 0x2c
1000148c:	01ad      	lsls	r5, r5, #6
1000148e:	4335      	orrs	r5, r6
10001490:	602b      	str	r3, [r5, #0]
10001492:	2006      	movs	r0, #6
10001494:	f000 fa2c 	bl	100018f0 <clock_get_hz>
10001498:	0039      	movs	r1, r7
1000149a:	0080      	lsls	r0, r0, #2
1000149c:	f000 fafc 	bl	10001a98 <__wrap___aeabi_uidiv>
100014a0:	2360      	movs	r3, #96	; 0x60
100014a2:	6ae2      	ldr	r2, [r4, #44]	; 0x2c
100014a4:	4053      	eors	r3, r2
100014a6:	226e      	movs	r2, #110	; 0x6e
100014a8:	401a      	ands	r2, r3
100014aa:	2380      	movs	r3, #128	; 0x80
100014ac:	015b      	lsls	r3, r3, #5
100014ae:	4333      	orrs	r3, r6
100014b0:	601a      	str	r2, [r3, #0]
100014b2:	4b10      	ldr	r3, [pc, #64]	; (100014f4 <uart_init+0xd0>)
100014b4:	6323      	str	r3, [r4, #48]	; 0x30
100014b6:	2310      	movs	r3, #16
100014b8:	602b      	str	r3, [r5, #0]
100014ba:	3b0d      	subs	r3, #13
100014bc:	64a3      	str	r3, [r4, #72]	; 0x48
100014be:	bdf8      	pop	{r3, r4, r5, r6, r7, pc}
100014c0:	4a0d      	ldr	r2, [pc, #52]	; (100014f8 <uart_init+0xd4>)
100014c2:	4293      	cmp	r3, r2
100014c4:	d903      	bls.n	100014ce <uart_init+0xaa>
100014c6:	2300      	movs	r3, #0
100014c8:	4f0c      	ldr	r7, [pc, #48]	; (100014fc <uart_init+0xd8>)
100014ca:	490d      	ldr	r1, [pc, #52]	; (10001500 <uart_init+0xdc>)
100014cc:	e7d8      	b.n	10001480 <uart_init+0x5c>
100014ce:	227f      	movs	r2, #127	; 0x7f
100014d0:	4010      	ands	r0, r2
100014d2:	3001      	adds	r0, #1
100014d4:	0840      	lsrs	r0, r0, #1
100014d6:	019f      	lsls	r7, r3, #6
100014d8:	0019      	movs	r1, r3
100014da:	183f      	adds	r7, r7, r0
100014dc:	0003      	movs	r3, r0
100014de:	e7cf      	b.n	10001480 <uart_init+0x5c>
100014e0:	bffc8000 	.word	0xbffc8000
100014e4:	4000c000 	.word	0x4000c000
100014e8:	4000e000 	.word	0x4000e000
100014ec:	4000f000 	.word	0x4000f000
100014f0:	20000610 	.word	0x20000610
100014f4:	00000301 	.word	0x00000301
100014f8:	0000fffe 	.word	0x0000fffe
100014fc:	003fffc0 	.word	0x003fffc0
10001500:	0000ffff 	.word	0x0000ffff

10001504 <runtime_init>:
10001504:	4b2c      	ldr	r3, [pc, #176]	; (100015b8 <runtime_init+0xb4>)
10001506:	4a2d      	ldr	r2, [pc, #180]	; (100015bc <runtime_init+0xb8>)
10001508:	b570      	push	{r4, r5, r6, lr}
1000150a:	601a      	str	r2, [r3, #0]
1000150c:	4a2c      	ldr	r2, [pc, #176]	; (100015c0 <runtime_init+0xbc>)
1000150e:	4b2d      	ldr	r3, [pc, #180]	; (100015c4 <runtime_init+0xc0>)
10001510:	492d      	ldr	r1, [pc, #180]	; (100015c8 <runtime_init+0xc4>)
10001512:	601a      	str	r2, [r3, #0]
10001514:	0014      	movs	r4, r2
10001516:	688b      	ldr	r3, [r1, #8]
10001518:	439c      	bics	r4, r3
1000151a:	d1fb      	bne.n	10001514 <runtime_init+0x10>
1000151c:	4d2b      	ldr	r5, [pc, #172]	; (100015cc <runtime_init+0xc8>)
1000151e:	4e2c      	ldr	r6, [pc, #176]	; (100015d0 <runtime_init+0xcc>)
10001520:	42b5      	cmp	r5, r6
10001522:	d208      	bcs.n	10001536 <runtime_init+0x32>
10001524:	3e01      	subs	r6, #1
10001526:	1b76      	subs	r6, r6, r5
10001528:	08b6      	lsrs	r6, r6, #2
1000152a:	cd08      	ldmia	r5!, {r3}
1000152c:	4798      	blx	r3
1000152e:	0023      	movs	r3, r4
10001530:	3401      	adds	r4, #1
10001532:	42b3      	cmp	r3, r6
10001534:	d1f9      	bne.n	1000152a <runtime_init+0x26>
10001536:	f000 f87d 	bl	10001634 <clocks_init>
1000153a:	4a26      	ldr	r2, [pc, #152]	; (100015d4 <runtime_init+0xd0>)
1000153c:	4b21      	ldr	r3, [pc, #132]	; (100015c4 <runtime_init+0xc0>)
1000153e:	601a      	str	r2, [r3, #0]
10001540:	4a21      	ldr	r2, [pc, #132]	; (100015c8 <runtime_init+0xc4>)
10001542:	6893      	ldr	r3, [r2, #8]
10001544:	43db      	mvns	r3, r3
10001546:	01db      	lsls	r3, r3, #7
10001548:	09dd      	lsrs	r5, r3, #7
1000154a:	2b00      	cmp	r3, #0
1000154c:	d1f9      	bne.n	10001542 <runtime_init+0x3e>
1000154e:	2240      	movs	r2, #64	; 0x40
10001550:	4b21      	ldr	r3, [pc, #132]	; (100015d8 <runtime_init+0xd4>)
10001552:	4c22      	ldr	r4, [pc, #136]	; (100015dc <runtime_init+0xd8>)
10001554:	4e22      	ldr	r6, [pc, #136]	; (100015e0 <runtime_init+0xdc>)
10001556:	679a      	str	r2, [r3, #120]	; 0x78
10001558:	675a      	str	r2, [r3, #116]	; 0x74
1000155a:	671a      	str	r2, [r3, #112]	; 0x70
1000155c:	66da      	str	r2, [r3, #108]	; 0x6c
1000155e:	42b4      	cmp	r4, r6
10001560:	d208      	bcs.n	10001574 <runtime_init+0x70>
10001562:	6823      	ldr	r3, [r4, #0]
10001564:	0020      	movs	r0, r4
10001566:	2b00      	cmp	r3, #0
10001568:	d020      	beq.n	100015ac <runtime_init+0xa8>
1000156a:	3408      	adds	r4, #8
1000156c:	f7ff ff4c 	bl	10001408 <recursive_mutex_init>
10001570:	42b4      	cmp	r4, r6
10001572:	d3f6      	bcc.n	10001562 <runtime_init+0x5e>
10001574:	4e1b      	ldr	r6, [pc, #108]	; (100015e4 <runtime_init+0xe0>)
10001576:	4c1c      	ldr	r4, [pc, #112]	; (100015e8 <runtime_init+0xe4>)
10001578:	22c0      	movs	r2, #192	; 0xc0
1000157a:	68a1      	ldr	r1, [r4, #8]
1000157c:	0030      	movs	r0, r6
1000157e:	f000 fbcd 	bl	10001d1c <__wrap___aeabi_memcpy>
10001582:	60a6      	str	r6, [r4, #8]
10001584:	f7fe ff96 	bl	100004b4 <spin_locks_reset>
10001588:	f7ff f926 	bl	100007d8 <irq_init_priorities>
1000158c:	f7ff fb62 	bl	10000c54 <alarm_pool_init_default>
10001590:	4c16      	ldr	r4, [pc, #88]	; (100015ec <runtime_init+0xe8>)
10001592:	4e17      	ldr	r6, [pc, #92]	; (100015f0 <runtime_init+0xec>)
10001594:	42b4      	cmp	r4, r6
10001596:	d208      	bcs.n	100015aa <runtime_init+0xa6>
10001598:	3e01      	subs	r6, #1
1000159a:	1b36      	subs	r6, r6, r4
1000159c:	08b6      	lsrs	r6, r6, #2
1000159e:	cc08      	ldmia	r4!, {r3}
100015a0:	4798      	blx	r3
100015a2:	002b      	movs	r3, r5
100015a4:	3501      	adds	r5, #1
100015a6:	429e      	cmp	r6, r3
100015a8:	d1f9      	bne.n	1000159e <runtime_init+0x9a>
100015aa:	bd70      	pop	{r4, r5, r6, pc}
100015ac:	3408      	adds	r4, #8
100015ae:	f7ff ff1d 	bl	100013ec <mutex_init>
100015b2:	42b4      	cmp	r4, r6
100015b4:	d3d5      	bcc.n	10001562 <runtime_init+0x5e>
100015b6:	e7dd      	b.n	10001574 <runtime_init+0x70>
100015b8:	4000e000 	.word	0x4000e000
100015bc:	fefbcdbf 	.word	0xfefbcdbf
100015c0:	003c7ffe 	.word	0x003c7ffe
100015c4:	4000f000 	.word	0x4000f000
100015c8:	4000c000 	.word	0x4000c000
100015cc:	2000022c 	.word	0x2000022c
100015d0:	2000023c 	.word	0x2000023c
100015d4:	01ffffff 	.word	0x01ffffff
100015d8:	4001f000 	.word	0x4001f000
100015dc:	20000224 	.word	0x20000224
100015e0:	2000022c 	.word	0x2000022c
100015e4:	20000000 	.word	0x20000000
100015e8:	e000ed00 	.word	0xe000ed00
100015ec:	2000023c 	.word	0x2000023c
100015f0:	20000240 	.word	0x20000240

100015f4 <exit>:
100015f4:	be00      	bkpt	0x0000
100015f6:	e7fd      	b.n	100015f4 <exit>

100015f8 <panic>:
100015f8:	b40f      	push	{r0, r1, r2, r3}
100015fa:	b500      	push	{lr}
100015fc:	4808      	ldr	r0, [pc, #32]	; (10001620 <panic+0x28>)
100015fe:	b083      	sub	sp, #12
10001600:	f000 fcc2 	bl	10001f88 <__wrap_puts>
10001604:	9b04      	ldr	r3, [sp, #16]
10001606:	2b00      	cmp	r3, #0
10001608:	d007      	beq.n	1000161a <panic+0x22>
1000160a:	a905      	add	r1, sp, #20
1000160c:	0018      	movs	r0, r3
1000160e:	9101      	str	r1, [sp, #4]
10001610:	f000 f9f0 	bl	100019f4 <weak_raw_vprintf>
10001614:	4803      	ldr	r0, [pc, #12]	; (10001624 <panic+0x2c>)
10001616:	f000 fcb7 	bl	10001f88 <__wrap_puts>
1000161a:	be00      	bkpt	0x0000
1000161c:	e7fd      	b.n	1000161a <panic+0x22>
1000161e:	46c0      	nop			; (mov r8, r8)
10001620:	1000237c 	.word	0x1000237c
10001624:	1000238c 	.word	0x1000238c

10001628 <hard_assertion_failure>:
10001628:	b510      	push	{r4, lr}
1000162a:	4801      	ldr	r0, [pc, #4]	; (10001630 <hard_assertion_failure+0x8>)
1000162c:	f7ff ffe4 	bl	100015f8 <panic>
10001630:	10002390 	.word	0x10002390

10001634 <clocks_init>:
10001634:	b530      	push	{r4, r5, lr}
10001636:	200c      	movs	r0, #12
10001638:	b083      	sub	sp, #12
1000163a:	f000 f9b7 	bl	100019ac <watchdog_start_tick>
1000163e:	f7fe ff31 	bl	100004a4 <running_on_fpga>
10001642:	2800      	cmp	r0, #0
10001644:	d00e      	beq.n	10001664 <clocks_init+0x30>
10001646:	4b94      	ldr	r3, [pc, #592]	; (10001898 <clocks_init+0x264>)
10001648:	4a94      	ldr	r2, [pc, #592]	; (1000189c <clocks_init+0x268>)
1000164a:	601a      	str	r2, [r3, #0]
1000164c:	605a      	str	r2, [r3, #4]
1000164e:	609a      	str	r2, [r3, #8]
10001650:	60da      	str	r2, [r3, #12]
10001652:	611a      	str	r2, [r3, #16]
10001654:	615a      	str	r2, [r3, #20]
10001656:	619a      	str	r2, [r3, #24]
10001658:	61da      	str	r2, [r3, #28]
1000165a:	621a      	str	r2, [r3, #32]
1000165c:	4a90      	ldr	r2, [pc, #576]	; (100018a0 <clocks_init+0x26c>)
1000165e:	625a      	str	r2, [r3, #36]	; 0x24
10001660:	b003      	add	sp, #12
10001662:	bd30      	pop	{r4, r5, pc}
10001664:	4c8f      	ldr	r4, [pc, #572]	; (100018a4 <clocks_init+0x270>)
10001666:	67a0      	str	r0, [r4, #120]	; 0x78
10001668:	f000 f9a8 	bl	100019bc <xosc_init>
1000166c:	2201      	movs	r2, #1
1000166e:	4b8e      	ldr	r3, [pc, #568]	; (100018a8 <clocks_init+0x274>)
10001670:	601a      	str	r2, [r3, #0]
10001672:	6c63      	ldr	r3, [r4, #68]	; 0x44
10001674:	2b01      	cmp	r3, #1
10001676:	d1fc      	bne.n	10001672 <clocks_init+0x3e>
10001678:	2203      	movs	r2, #3
1000167a:	4b8c      	ldr	r3, [pc, #560]	; (100018ac <clocks_init+0x278>)
1000167c:	601a      	str	r2, [r3, #0]
1000167e:	4a89      	ldr	r2, [pc, #548]	; (100018a4 <clocks_init+0x270>)
10001680:	6b93      	ldr	r3, [r2, #56]	; 0x38
10001682:	2b01      	cmp	r3, #1
10001684:	d1fc      	bne.n	10001680 <clocks_init+0x4c>
10001686:	3301      	adds	r3, #1
10001688:	2101      	movs	r1, #1
1000168a:	4a89      	ldr	r2, [pc, #548]	; (100018b0 <clocks_init+0x27c>)
1000168c:	4889      	ldr	r0, [pc, #548]	; (100018b4 <clocks_init+0x280>)
1000168e:	9300      	str	r3, [sp, #0]
10001690:	3304      	adds	r3, #4
10001692:	f000 f933 	bl	100018fc <pll_init>
10001696:	2305      	movs	r3, #5
10001698:	4a87      	ldr	r2, [pc, #540]	; (100018b8 <clocks_init+0x284>)
1000169a:	9300      	str	r3, [sp, #0]
1000169c:	2101      	movs	r1, #1
1000169e:	4887      	ldr	r0, [pc, #540]	; (100018bc <clocks_init+0x288>)
100016a0:	f000 f92c 	bl	100018fc <pll_init>
100016a4:	4b86      	ldr	r3, [pc, #536]	; (100018c0 <clocks_init+0x28c>)
100016a6:	685a      	ldr	r2, [r3, #4]
100016a8:	2aff      	cmp	r2, #255	; 0xff
100016aa:	d802      	bhi.n	100016b2 <clocks_init+0x7e>
100016ac:	2280      	movs	r2, #128	; 0x80
100016ae:	0052      	lsls	r2, r2, #1
100016b0:	605a      	str	r2, [r3, #4]
100016b2:	2280      	movs	r2, #128	; 0x80
100016b4:	4c78      	ldr	r4, [pc, #480]	; (10001898 <clocks_init+0x264>)
100016b6:	4b7d      	ldr	r3, [pc, #500]	; (100018ac <clocks_init+0x278>)
100016b8:	6921      	ldr	r1, [r4, #16]
100016ba:	0112      	lsls	r2, r2, #4
100016bc:	4d80      	ldr	r5, [pc, #512]	; (100018c0 <clocks_init+0x28c>)
100016be:	601a      	str	r2, [r3, #0]
100016c0:	2900      	cmp	r1, #0
100016c2:	d005      	beq.n	100016d0 <clocks_init+0x9c>
100016c4:	6960      	ldr	r0, [r4, #20]
100016c6:	f000 f9e7 	bl	10001a98 <__wrap___aeabi_uidiv>
100016ca:	3001      	adds	r0, #1
100016cc:	3801      	subs	r0, #1
100016ce:	d1fd      	bne.n	100016cc <clocks_init+0x98>
100016d0:	21e0      	movs	r1, #224	; 0xe0
100016d2:	4b7b      	ldr	r3, [pc, #492]	; (100018c0 <clocks_init+0x28c>)
100016d4:	2002      	movs	r0, #2
100016d6:	681a      	ldr	r2, [r3, #0]
100016d8:	4011      	ands	r1, r2
100016da:	2280      	movs	r2, #128	; 0x80
100016dc:	0152      	lsls	r2, r2, #5
100016de:	432a      	orrs	r2, r5
100016e0:	6011      	str	r1, [r2, #0]
100016e2:	6819      	ldr	r1, [r3, #0]
100016e4:	4048      	eors	r0, r1
100016e6:	2103      	movs	r1, #3
100016e8:	4001      	ands	r1, r0
100016ea:	6011      	str	r1, [r2, #0]
100016ec:	2104      	movs	r1, #4
100016ee:	689a      	ldr	r2, [r3, #8]
100016f0:	4211      	tst	r1, r2
100016f2:	d0fc      	beq.n	100016ee <clocks_init+0xba>
100016f4:	2280      	movs	r2, #128	; 0x80
100016f6:	2180      	movs	r1, #128	; 0x80
100016f8:	0192      	lsls	r2, r2, #6
100016fa:	432a      	orrs	r2, r5
100016fc:	0109      	lsls	r1, r1, #4
100016fe:	6011      	str	r1, [r2, #0]
10001700:	2280      	movs	r2, #128	; 0x80
10001702:	0052      	lsls	r2, r2, #1
10001704:	605a      	str	r2, [r3, #4]
10001706:	4b6f      	ldr	r3, [pc, #444]	; (100018c4 <clocks_init+0x290>)
10001708:	6123      	str	r3, [r4, #16]
1000170a:	4b6f      	ldr	r3, [pc, #444]	; (100018c8 <clocks_init+0x294>)
1000170c:	6859      	ldr	r1, [r3, #4]
1000170e:	29ff      	cmp	r1, #255	; 0xff
10001710:	d800      	bhi.n	10001714 <clocks_init+0xe0>
10001712:	605a      	str	r2, [r3, #4]
10001714:	2103      	movs	r1, #3
10001716:	4a64      	ldr	r2, [pc, #400]	; (100018a8 <clocks_init+0x274>)
10001718:	4b6b      	ldr	r3, [pc, #428]	; (100018c8 <clocks_init+0x294>)
1000171a:	6011      	str	r1, [r2, #0]
1000171c:	3902      	subs	r1, #2
1000171e:	689a      	ldr	r2, [r3, #8]
10001720:	4211      	tst	r1, r2
10001722:	d0fc      	beq.n	1000171e <clocks_init+0xea>
10001724:	20e0      	movs	r0, #224	; 0xe0
10001726:	681a      	ldr	r2, [r3, #0]
10001728:	4010      	ands	r0, r2
1000172a:	2280      	movs	r2, #128	; 0x80
1000172c:	0152      	lsls	r2, r2, #5
1000172e:	431a      	orrs	r2, r3
10001730:	6010      	str	r0, [r2, #0]
10001732:	6818      	ldr	r0, [r3, #0]
10001734:	4048      	eors	r0, r1
10001736:	2103      	movs	r1, #3
10001738:	4001      	ands	r1, r0
1000173a:	2002      	movs	r0, #2
1000173c:	6011      	str	r1, [r2, #0]
1000173e:	4962      	ldr	r1, [pc, #392]	; (100018c8 <clocks_init+0x294>)
10001740:	688a      	ldr	r2, [r1, #8]
10001742:	4210      	tst	r0, r2
10001744:	d0fc      	beq.n	10001740 <clocks_init+0x10c>
10001746:	2280      	movs	r2, #128	; 0x80
10001748:	0192      	lsls	r2, r2, #6
1000174a:	4313      	orrs	r3, r2
1000174c:	2280      	movs	r2, #128	; 0x80
1000174e:	0112      	lsls	r2, r2, #4
10001750:	601a      	str	r2, [r3, #0]
10001752:	2280      	movs	r2, #128	; 0x80
10001754:	4b5d      	ldr	r3, [pc, #372]	; (100018cc <clocks_init+0x298>)
10001756:	0052      	lsls	r2, r2, #1
10001758:	604a      	str	r2, [r1, #4]
1000175a:	6163      	str	r3, [r4, #20]
1000175c:	4b5c      	ldr	r3, [pc, #368]	; (100018d0 <clocks_init+0x29c>)
1000175e:	6859      	ldr	r1, [r3, #4]
10001760:	29ff      	cmp	r1, #255	; 0xff
10001762:	d800      	bhi.n	10001766 <clocks_init+0x132>
10001764:	605a      	str	r2, [r3, #4]
10001766:	2280      	movs	r2, #128	; 0x80
10001768:	4b5a      	ldr	r3, [pc, #360]	; (100018d4 <clocks_init+0x2a0>)
1000176a:	69e1      	ldr	r1, [r4, #28]
1000176c:	0112      	lsls	r2, r2, #4
1000176e:	4d58      	ldr	r5, [pc, #352]	; (100018d0 <clocks_init+0x29c>)
10001770:	601a      	str	r2, [r3, #0]
10001772:	2900      	cmp	r1, #0
10001774:	d005      	beq.n	10001782 <clocks_init+0x14e>
10001776:	6960      	ldr	r0, [r4, #20]
10001778:	f000 f98e 	bl	10001a98 <__wrap___aeabi_uidiv>
1000177c:	3001      	adds	r0, #1
1000177e:	3801      	subs	r0, #1
10001780:	d1fd      	bne.n	1000177e <clocks_init+0x14a>
10001782:	22e0      	movs	r2, #224	; 0xe0
10001784:	4952      	ldr	r1, [pc, #328]	; (100018d0 <clocks_init+0x29c>)
10001786:	680b      	ldr	r3, [r1, #0]
10001788:	401a      	ands	r2, r3
1000178a:	2380      	movs	r3, #128	; 0x80
1000178c:	015b      	lsls	r3, r3, #5
1000178e:	432b      	orrs	r3, r5
10001790:	601a      	str	r2, [r3, #0]
10001792:	2380      	movs	r3, #128	; 0x80
10001794:	2280      	movs	r2, #128	; 0x80
10001796:	019b      	lsls	r3, r3, #6
10001798:	432b      	orrs	r3, r5
1000179a:	0112      	lsls	r2, r2, #4
1000179c:	601a      	str	r2, [r3, #0]
1000179e:	2280      	movs	r2, #128	; 0x80
100017a0:	4b3e      	ldr	r3, [pc, #248]	; (1000189c <clocks_init+0x268>)
100017a2:	0052      	lsls	r2, r2, #1
100017a4:	604a      	str	r2, [r1, #4]
100017a6:	61e3      	str	r3, [r4, #28]
100017a8:	4b4b      	ldr	r3, [pc, #300]	; (100018d8 <clocks_init+0x2a4>)
100017aa:	6859      	ldr	r1, [r3, #4]
100017ac:	29ff      	cmp	r1, #255	; 0xff
100017ae:	d800      	bhi.n	100017b2 <clocks_init+0x17e>
100017b0:	605a      	str	r2, [r3, #4]
100017b2:	2280      	movs	r2, #128	; 0x80
100017b4:	4b49      	ldr	r3, [pc, #292]	; (100018dc <clocks_init+0x2a8>)
100017b6:	6a21      	ldr	r1, [r4, #32]
100017b8:	0112      	lsls	r2, r2, #4
100017ba:	4d47      	ldr	r5, [pc, #284]	; (100018d8 <clocks_init+0x2a4>)
100017bc:	601a      	str	r2, [r3, #0]
100017be:	2900      	cmp	r1, #0
100017c0:	d005      	beq.n	100017ce <clocks_init+0x19a>
100017c2:	6960      	ldr	r0, [r4, #20]
100017c4:	f000 f968 	bl	10001a98 <__wrap___aeabi_uidiv>
100017c8:	3001      	adds	r0, #1
100017ca:	3801      	subs	r0, #1
100017cc:	d1fd      	bne.n	100017ca <clocks_init+0x196>
100017ce:	22e0      	movs	r2, #224	; 0xe0
100017d0:	4941      	ldr	r1, [pc, #260]	; (100018d8 <clocks_init+0x2a4>)
100017d2:	680b      	ldr	r3, [r1, #0]
100017d4:	401a      	ands	r2, r3
100017d6:	2380      	movs	r3, #128	; 0x80
100017d8:	015b      	lsls	r3, r3, #5
100017da:	432b      	orrs	r3, r5
100017dc:	601a      	str	r2, [r3, #0]
100017de:	2380      	movs	r3, #128	; 0x80
100017e0:	2280      	movs	r2, #128	; 0x80
100017e2:	019b      	lsls	r3, r3, #6
100017e4:	432b      	orrs	r3, r5
100017e6:	0112      	lsls	r2, r2, #4
100017e8:	601a      	str	r2, [r3, #0]
100017ea:	2380      	movs	r3, #128	; 0x80
100017ec:	2280      	movs	r2, #128	; 0x80
100017ee:	005b      	lsls	r3, r3, #1
100017f0:	604b      	str	r3, [r1, #4]
100017f2:	4b2a      	ldr	r3, [pc, #168]	; (1000189c <clocks_init+0x268>)
100017f4:	02d2      	lsls	r2, r2, #11
100017f6:	6223      	str	r3, [r4, #32]
100017f8:	4b39      	ldr	r3, [pc, #228]	; (100018e0 <clocks_init+0x2ac>)
100017fa:	6859      	ldr	r1, [r3, #4]
100017fc:	4291      	cmp	r1, r2
100017fe:	d200      	bcs.n	10001802 <clocks_init+0x1ce>
10001800:	605a      	str	r2, [r3, #4]
10001802:	2280      	movs	r2, #128	; 0x80
10001804:	4b37      	ldr	r3, [pc, #220]	; (100018e4 <clocks_init+0x2b0>)
10001806:	6a61      	ldr	r1, [r4, #36]	; 0x24
10001808:	0112      	lsls	r2, r2, #4
1000180a:	4d35      	ldr	r5, [pc, #212]	; (100018e0 <clocks_init+0x2ac>)
1000180c:	601a      	str	r2, [r3, #0]
1000180e:	2900      	cmp	r1, #0
10001810:	d005      	beq.n	1000181e <clocks_init+0x1ea>
10001812:	6960      	ldr	r0, [r4, #20]
10001814:	f000 f940 	bl	10001a98 <__wrap___aeabi_uidiv>
10001818:	3001      	adds	r0, #1
1000181a:	3801      	subs	r0, #1
1000181c:	d1fd      	bne.n	1000181a <clocks_init+0x1e6>
1000181e:	22e0      	movs	r2, #224	; 0xe0
10001820:	492f      	ldr	r1, [pc, #188]	; (100018e0 <clocks_init+0x2ac>)
10001822:	680b      	ldr	r3, [r1, #0]
10001824:	401a      	ands	r2, r3
10001826:	2380      	movs	r3, #128	; 0x80
10001828:	015b      	lsls	r3, r3, #5
1000182a:	432b      	orrs	r3, r5
1000182c:	601a      	str	r2, [r3, #0]
1000182e:	2380      	movs	r3, #128	; 0x80
10001830:	2280      	movs	r2, #128	; 0x80
10001832:	019b      	lsls	r3, r3, #6
10001834:	432b      	orrs	r3, r5
10001836:	0112      	lsls	r2, r2, #4
10001838:	601a      	str	r2, [r3, #0]
1000183a:	2380      	movs	r3, #128	; 0x80
1000183c:	02db      	lsls	r3, r3, #11
1000183e:	604b      	str	r3, [r1, #4]
10001840:	4b17      	ldr	r3, [pc, #92]	; (100018a0 <clocks_init+0x26c>)
10001842:	6263      	str	r3, [r4, #36]	; 0x24
10001844:	4b28      	ldr	r3, [pc, #160]	; (100018e8 <clocks_init+0x2b4>)
10001846:	685a      	ldr	r2, [r3, #4]
10001848:	2aff      	cmp	r2, #255	; 0xff
1000184a:	d802      	bhi.n	10001852 <clocks_init+0x21e>
1000184c:	2280      	movs	r2, #128	; 0x80
1000184e:	0052      	lsls	r2, r2, #1
10001850:	605a      	str	r2, [r3, #4]
10001852:	2280      	movs	r2, #128	; 0x80
10001854:	4b25      	ldr	r3, [pc, #148]	; (100018ec <clocks_init+0x2b8>)
10001856:	69a1      	ldr	r1, [r4, #24]
10001858:	0112      	lsls	r2, r2, #4
1000185a:	4d23      	ldr	r5, [pc, #140]	; (100018e8 <clocks_init+0x2b4>)
1000185c:	601a      	str	r2, [r3, #0]
1000185e:	2900      	cmp	r1, #0
10001860:	d005      	beq.n	1000186e <clocks_init+0x23a>
10001862:	6960      	ldr	r0, [r4, #20]
10001864:	f000 f918 	bl	10001a98 <__wrap___aeabi_uidiv>
10001868:	3001      	adds	r0, #1
1000186a:	3801      	subs	r0, #1
1000186c:	d1fd      	bne.n	1000186a <clocks_init+0x236>
1000186e:	22e0      	movs	r2, #224	; 0xe0
10001870:	491d      	ldr	r1, [pc, #116]	; (100018e8 <clocks_init+0x2b4>)
10001872:	680b      	ldr	r3, [r1, #0]
10001874:	401a      	ands	r2, r3
10001876:	2380      	movs	r3, #128	; 0x80
10001878:	015b      	lsls	r3, r3, #5
1000187a:	432b      	orrs	r3, r5
1000187c:	601a      	str	r2, [r3, #0]
1000187e:	2380      	movs	r3, #128	; 0x80
10001880:	2280      	movs	r2, #128	; 0x80
10001882:	019b      	lsls	r3, r3, #6
10001884:	432b      	orrs	r3, r5
10001886:	0112      	lsls	r2, r2, #4
10001888:	601a      	str	r2, [r3, #0]
1000188a:	2380      	movs	r3, #128	; 0x80
1000188c:	005b      	lsls	r3, r3, #1
1000188e:	604b      	str	r3, [r1, #4]
10001890:	4b0e      	ldr	r3, [pc, #56]	; (100018cc <clocks_init+0x298>)
10001892:	61a3      	str	r3, [r4, #24]
10001894:	e6e4      	b.n	10001660 <clocks_init+0x2c>
10001896:	46c0      	nop			; (mov r8, r8)
10001898:	20000574 	.word	0x20000574
1000189c:	02dc6c00 	.word	0x02dc6c00
100018a0:	0000b71b 	.word	0x0000b71b
100018a4:	40008000 	.word	0x40008000
100018a8:	4000b03c 	.word	0x4000b03c
100018ac:	4000b030 	.word	0x4000b030
100018b0:	59682f00 	.word	0x59682f00
100018b4:	40028000 	.word	0x40028000
100018b8:	47868c00 	.word	0x47868c00
100018bc:	4002c000 	.word	0x4002c000
100018c0:	40008030 	.word	0x40008030
100018c4:	00b71b00 	.word	0x00b71b00
100018c8:	4000803c 	.word	0x4000803c
100018cc:	07735940 	.word	0x07735940
100018d0:	40008054 	.word	0x40008054
100018d4:	4000b054 	.word	0x4000b054
100018d8:	40008060 	.word	0x40008060
100018dc:	4000b060 	.word	0x4000b060
100018e0:	4000806c 	.word	0x4000806c
100018e4:	4000b06c 	.word	0x4000b06c
100018e8:	40008048 	.word	0x40008048
100018ec:	4000b048 	.word	0x4000b048

100018f0 <clock_get_hz>:
100018f0:	4b01      	ldr	r3, [pc, #4]	; (100018f8 <clock_get_hz+0x8>)
100018f2:	0080      	lsls	r0, r0, #2
100018f4:	58c0      	ldr	r0, [r0, r3]
100018f6:	4770      	bx	lr
100018f8:	20000574 	.word	0x20000574

100018fc <pll_init>:
100018fc:	b5f0      	push	{r4, r5, r6, r7, lr}
100018fe:	46c6      	mov	lr, r8
10001900:	0004      	movs	r4, r0
10001902:	b500      	push	{lr}
10001904:	200c      	movs	r0, #12
10001906:	4690      	mov	r8, r2
10001908:	001f      	movs	r7, r3
1000190a:	000e      	movs	r6, r1
1000190c:	f000 f8c4 	bl	10001a98 <__wrap___aeabi_uidiv>
10001910:	0141      	lsls	r1, r0, #5
10001912:	1a09      	subs	r1, r1, r0
10001914:	018d      	lsls	r5, r1, #6
10001916:	1a69      	subs	r1, r5, r1
10001918:	00c9      	lsls	r1, r1, #3
1000191a:	1809      	adds	r1, r1, r0
1000191c:	0189      	lsls	r1, r1, #6
1000191e:	4640      	mov	r0, r8
10001920:	f000 f8ba 	bl	10001a98 <__wrap___aeabi_uidiv>
10001924:	9b06      	ldr	r3, [sp, #24]
10001926:	043f      	lsls	r7, r7, #16
10001928:	031a      	lsls	r2, r3, #12
1000192a:	6823      	ldr	r3, [r4, #0]
1000192c:	4317      	orrs	r7, r2
1000192e:	2b00      	cmp	r3, #0
10001930:	db22      	blt.n	10001978 <pll_init+0x7c>
10001932:	4b1a      	ldr	r3, [pc, #104]	; (1000199c <pll_init+0xa0>)
10001934:	4d1a      	ldr	r5, [pc, #104]	; (100019a0 <pll_init+0xa4>)
10001936:	18e2      	adds	r2, r4, r3
10001938:	4253      	negs	r3, r2
1000193a:	415a      	adcs	r2, r3
1000193c:	2380      	movs	r3, #128	; 0x80
1000193e:	015b      	lsls	r3, r3, #5
10001940:	469c      	mov	ip, r3
10001942:	0312      	lsls	r2, r2, #12
10001944:	4b17      	ldr	r3, [pc, #92]	; (100019a4 <pll_init+0xa8>)
10001946:	4462      	add	r2, ip
10001948:	601a      	str	r2, [r3, #0]
1000194a:	4b17      	ldr	r3, [pc, #92]	; (100019a8 <pll_init+0xac>)
1000194c:	601a      	str	r2, [r3, #0]
1000194e:	0011      	movs	r1, r2
10001950:	68ab      	ldr	r3, [r5, #8]
10001952:	4399      	bics	r1, r3
10001954:	d1fb      	bne.n	1000194e <pll_init+0x52>
10001956:	22c0      	movs	r2, #192	; 0xc0
10001958:	1d23      	adds	r3, r4, #4
1000195a:	0192      	lsls	r2, r2, #6
1000195c:	431a      	orrs	r2, r3
1000195e:	2321      	movs	r3, #33	; 0x21
10001960:	6026      	str	r6, [r4, #0]
10001962:	60a0      	str	r0, [r4, #8]
10001964:	6013      	str	r3, [r2, #0]
10001966:	6823      	ldr	r3, [r4, #0]
10001968:	2b00      	cmp	r3, #0
1000196a:	dafc      	bge.n	10001966 <pll_init+0x6a>
1000196c:	2308      	movs	r3, #8
1000196e:	60e7      	str	r7, [r4, #12]
10001970:	6013      	str	r3, [r2, #0]
10001972:	bc80      	pop	{r7}
10001974:	46b8      	mov	r8, r7
10001976:	bdf0      	pop	{r4, r5, r6, r7, pc}
10001978:	233f      	movs	r3, #63	; 0x3f
1000197a:	6822      	ldr	r2, [r4, #0]
1000197c:	4013      	ands	r3, r2
1000197e:	42b3      	cmp	r3, r6
10001980:	d1d7      	bne.n	10001932 <pll_init+0x36>
10001982:	68a3      	ldr	r3, [r4, #8]
10001984:	051b      	lsls	r3, r3, #20
10001986:	0d1b      	lsrs	r3, r3, #20
10001988:	4283      	cmp	r3, r0
1000198a:	d1d2      	bne.n	10001932 <pll_init+0x36>
1000198c:	22ee      	movs	r2, #238	; 0xee
1000198e:	68e3      	ldr	r3, [r4, #12]
10001990:	02d2      	lsls	r2, r2, #11
10001992:	4013      	ands	r3, r2
10001994:	42bb      	cmp	r3, r7
10001996:	d1cc      	bne.n	10001932 <pll_init+0x36>
10001998:	e7eb      	b.n	10001972 <pll_init+0x76>
1000199a:	46c0      	nop			; (mov r8, r8)
1000199c:	bffd4000 	.word	0xbffd4000
100019a0:	4000c000 	.word	0x4000c000
100019a4:	4000e000 	.word	0x4000e000
100019a8:	4000f000 	.word	0x4000f000

100019ac <watchdog_start_tick>:
100019ac:	2380      	movs	r3, #128	; 0x80
100019ae:	4a02      	ldr	r2, [pc, #8]	; (100019b8 <watchdog_start_tick+0xc>)
100019b0:	009b      	lsls	r3, r3, #2
100019b2:	4303      	orrs	r3, r0
100019b4:	62d3      	str	r3, [r2, #44]	; 0x2c
100019b6:	4770      	bx	lr
100019b8:	40058000 	.word	0x40058000

100019bc <xosc_init>:
100019bc:	23aa      	movs	r3, #170	; 0xaa
100019be:	4a06      	ldr	r2, [pc, #24]	; (100019d8 <xosc_init+0x1c>)
100019c0:	011b      	lsls	r3, r3, #4
100019c2:	6013      	str	r3, [r2, #0]
100019c4:	232f      	movs	r3, #47	; 0x2f
100019c6:	4905      	ldr	r1, [pc, #20]	; (100019dc <xosc_init+0x20>)
100019c8:	60d3      	str	r3, [r2, #12]
100019ca:	4b05      	ldr	r3, [pc, #20]	; (100019e0 <xosc_init+0x24>)
100019cc:	6019      	str	r1, [r3, #0]
100019ce:	6853      	ldr	r3, [r2, #4]
100019d0:	2b00      	cmp	r3, #0
100019d2:	dafc      	bge.n	100019ce <xosc_init+0x12>
100019d4:	4770      	bx	lr
100019d6:	46c0      	nop			; (mov r8, r8)
100019d8:	40024000 	.word	0x40024000
100019dc:	00fab000 	.word	0x00fab000
100019e0:	40026000 	.word	0x40026000

100019e4 <_out_char>:
100019e4:	b510      	push	{r4, lr}
100019e6:	2800      	cmp	r0, #0
100019e8:	d100      	bne.n	100019ec <_out_char+0x8>
100019ea:	bd10      	pop	{r4, pc}
100019ec:	f000 fa7c 	bl	10001ee8 <__wrap_putchar>
100019f0:	e7fb      	b.n	100019ea <_out_char+0x6>
100019f2:	46c0      	nop			; (mov r8, r8)

100019f4 <weak_raw_vprintf>:
100019f4:	b510      	push	{r4, lr}
100019f6:	4a09      	ldr	r2, [pc, #36]	; (10001a1c <weak_raw_vprintf+0x28>)
100019f8:	0003      	movs	r3, r0
100019fa:	6814      	ldr	r4, [r2, #0]
100019fc:	b084      	sub	sp, #16
100019fe:	2c00      	cmp	r4, #0
10001a00:	d008      	beq.n	10001a14 <weak_raw_vprintf+0x20>
10001a02:	2201      	movs	r2, #1
10001a04:	9100      	str	r1, [sp, #0]
10001a06:	4806      	ldr	r0, [pc, #24]	; (10001a20 <weak_raw_vprintf+0x2c>)
10001a08:	4252      	negs	r2, r2
10001a0a:	a903      	add	r1, sp, #12
10001a0c:	47a0      	blx	r4
10001a0e:	2001      	movs	r0, #1
10001a10:	b004      	add	sp, #16
10001a12:	bd10      	pop	{r4, pc}
10001a14:	f000 fab8 	bl	10001f88 <__wrap_puts>
10001a18:	2000      	movs	r0, #0
10001a1a:	e7f9      	b.n	10001a10 <weak_raw_vprintf+0x1c>
10001a1c:	200005e4 	.word	0x200005e4
10001a20:	100019e5 	.word	0x100019e5

10001a24 <__aeabi_bits_init>:
10001a24:	4801      	ldr	r0, [pc, #4]	; (10001a2c <__aeabi_bits_init+0x8>)
10001a26:	2104      	movs	r1, #4
10001a28:	4b01      	ldr	r3, [pc, #4]	; (10001a30 <__aeabi_bits_init+0xc>)
10001a2a:	4718      	bx	r3
10001a2c:	200001f0 	.word	0x200001f0
10001a30:	10001a55 	.word	0x10001a55

10001a34 <rom_func_lookup>:
10001a34:	2314      	movs	r3, #20
10001a36:	b510      	push	{r4, lr}
10001a38:	0001      	movs	r1, r0
10001a3a:	8818      	ldrh	r0, [r3, #0]
10001a3c:	3304      	adds	r3, #4
10001a3e:	881b      	ldrh	r3, [r3, #0]
10001a40:	4798      	blx	r3
10001a42:	bd10      	pop	{r4, pc}

10001a44 <rom_data_lookup>:
10001a44:	2316      	movs	r3, #22
10001a46:	b510      	push	{r4, lr}
10001a48:	0001      	movs	r1, r0
10001a4a:	8818      	ldrh	r0, [r3, #0]
10001a4c:	3302      	adds	r3, #2
10001a4e:	881b      	ldrh	r3, [r3, #0]
10001a50:	4798      	blx	r3
10001a52:	bd10      	pop	{r4, pc}

10001a54 <rom_funcs_lookup>:
10001a54:	b5f8      	push	{r3, r4, r5, r6, r7, lr}
10001a56:	4647      	mov	r7, r8
10001a58:	46ce      	mov	lr, r9
10001a5a:	b580      	push	{r7, lr}
10001a5c:	1e0f      	subs	r7, r1, #0
10001a5e:	d019      	beq.n	10001a94 <rom_funcs_lookup+0x40>
10001a60:	2314      	movs	r3, #20
10001a62:	4699      	mov	r9, r3
10001a64:	3304      	adds	r3, #4
10001a66:	0004      	movs	r4, r0
10001a68:	2500      	movs	r5, #0
10001a6a:	2601      	movs	r6, #1
10001a6c:	4698      	mov	r8, r3
10001a6e:	464b      	mov	r3, r9
10001a70:	8818      	ldrh	r0, [r3, #0]
10001a72:	4643      	mov	r3, r8
10001a74:	6821      	ldr	r1, [r4, #0]
10001a76:	881b      	ldrh	r3, [r3, #0]
10001a78:	4798      	blx	r3
10001a7a:	c401      	stmia	r4!, {r0}
10001a7c:	1e43      	subs	r3, r0, #1
10001a7e:	4198      	sbcs	r0, r3
10001a80:	3501      	adds	r5, #1
10001a82:	4240      	negs	r0, r0
10001a84:	4006      	ands	r6, r0
10001a86:	42af      	cmp	r7, r5
10001a88:	d1f1      	bne.n	10001a6e <rom_funcs_lookup+0x1a>
10001a8a:	0030      	movs	r0, r6
10001a8c:	bcc0      	pop	{r6, r7}
10001a8e:	46b9      	mov	r9, r7
10001a90:	46b0      	mov	r8, r6
10001a92:	bdf8      	pop	{r3, r4, r5, r6, r7, pc}
10001a94:	2601      	movs	r6, #1
10001a96:	e7f8      	b.n	10001a8a <rom_funcs_lookup+0x36>

10001a98 <__wrap___aeabi_uidiv>:
10001a98:	4a11      	ldr	r2, [pc, #68]	; (10001ae0 <divmod_u32u32_savestate+0x18>)
10001a9a:	6f93      	ldr	r3, [r2, #120]	; 0x78
10001a9c:	089b      	lsrs	r3, r3, #2
10001a9e:	d213      	bcs.n	10001ac8 <divmod_u32u32_savestate>

10001aa0 <divmod_u32u32_unsafe>:
10001aa0:	6610      	str	r0, [r2, #96]	; 0x60
10001aa2:	6651      	str	r1, [r2, #100]	; 0x64
10001aa4:	2900      	cmp	r1, #0
10001aa6:	d005      	beq.n	10001ab4 <divmod_u32u32_unsafe+0x14>
10001aa8:	e7ff      	b.n	10001aaa <divmod_u32u32_unsafe+0xa>
10001aaa:	e7ff      	b.n	10001aac <divmod_u32u32_unsafe+0xc>
10001aac:	e7ff      	b.n	10001aae <divmod_u32u32_unsafe+0xe>
10001aae:	6f51      	ldr	r1, [r2, #116]	; 0x74
10001ab0:	6f10      	ldr	r0, [r2, #112]	; 0x70
10001ab2:	4770      	bx	lr
10001ab4:	b504      	push	{r2, lr}
10001ab6:	2800      	cmp	r0, #0
10001ab8:	d001      	beq.n	10001abe <divmod_u32u32_unsafe+0x1e>
10001aba:	2000      	movs	r0, #0
10001abc:	43c0      	mvns	r0, r0
10001abe:	f000 fc2b 	bl	10002318 <____aeabi_idiv0_veneer>
10001ac2:	2100      	movs	r1, #0
10001ac4:	bd04      	pop	{r2, pc}
10001ac6:	46c0      	nop			; (mov r8, r8)

10001ac8 <divmod_u32u32_savestate>:
10001ac8:	b5f0      	push	{r4, r5, r6, r7, lr}
10001aca:	6e14      	ldr	r4, [r2, #96]	; 0x60
10001acc:	6e55      	ldr	r5, [r2, #100]	; 0x64
10001ace:	6f57      	ldr	r7, [r2, #116]	; 0x74
10001ad0:	6f16      	ldr	r6, [r2, #112]	; 0x70
10001ad2:	f7ff ffe5 	bl	10001aa0 <divmod_u32u32_unsafe>
10001ad6:	6614      	str	r4, [r2, #96]	; 0x60
10001ad8:	6655      	str	r5, [r2, #100]	; 0x64
10001ada:	6757      	str	r7, [r2, #116]	; 0x74
10001adc:	6716      	str	r6, [r2, #112]	; 0x70
10001ade:	bdf0      	pop	{r4, r5, r6, r7, pc}
10001ae0:	d0000000 	.word	0xd0000000

10001ae4 <__aeabi_double_init>:
10001ae4:	2313      	movs	r3, #19
10001ae6:	b570      	push	{r4, r5, r6, lr}
10001ae8:	781d      	ldrb	r5, [r3, #0]
10001aea:	2d01      	cmp	r5, #1
10001aec:	d015      	beq.n	10001b1a <__aeabi_double_init+0x36>
10001aee:	dd10      	ble.n	10001b12 <__aeabi_double_init+0x2e>
10001af0:	481c      	ldr	r0, [pc, #112]	; (10001b64 <__aeabi_double_init+0x80>)
10001af2:	f7ff ffa7 	bl	10001a44 <rom_data_lookup>
10001af6:	4c1c      	ldr	r4, [pc, #112]	; (10001b68 <__aeabi_double_init+0x84>)
10001af8:	0001      	movs	r1, r0
10001afa:	2280      	movs	r2, #128	; 0x80
10001afc:	0020      	movs	r0, r4
10001afe:	f000 f90d 	bl	10001d1c <__wrap___aeabi_memcpy>
10001b02:	2d02      	cmp	r5, #2
10001b04:	d006      	beq.n	10001b14 <__aeabi_double_init+0x30>
10001b06:	4819      	ldr	r0, [pc, #100]	; (10001b6c <__aeabi_double_init+0x88>)
10001b08:	f7ff ff94 	bl	10001a34 <rom_func_lookup>
10001b0c:	4b18      	ldr	r3, [pc, #96]	; (10001b70 <__aeabi_double_init+0x8c>)
10001b0e:	6018      	str	r0, [r3, #0]
10001b10:	bd70      	pop	{r4, r5, r6, pc}
10001b12:	4c15      	ldr	r4, [pc, #84]	; (10001b68 <__aeabi_double_init+0x84>)
10001b14:	4b17      	ldr	r3, [pc, #92]	; (10001b74 <__aeabi_double_init+0x90>)
10001b16:	64a3      	str	r3, [r4, #72]	; 0x48
10001b18:	e7f5      	b.n	10001b06 <__aeabi_double_init+0x22>
10001b1a:	4b16      	ldr	r3, [pc, #88]	; (10001b74 <__aeabi_double_init+0x90>)
10001b1c:	4c12      	ldr	r4, [pc, #72]	; (10001b68 <__aeabi_double_init+0x84>)
10001b1e:	6023      	str	r3, [r4, #0]
10001b20:	6063      	str	r3, [r4, #4]
10001b22:	60a3      	str	r3, [r4, #8]
10001b24:	60e3      	str	r3, [r4, #12]
10001b26:	6123      	str	r3, [r4, #16]
10001b28:	6163      	str	r3, [r4, #20]
10001b2a:	61a3      	str	r3, [r4, #24]
10001b2c:	61e3      	str	r3, [r4, #28]
10001b2e:	6223      	str	r3, [r4, #32]
10001b30:	6263      	str	r3, [r4, #36]	; 0x24
10001b32:	62a3      	str	r3, [r4, #40]	; 0x28
10001b34:	62e3      	str	r3, [r4, #44]	; 0x2c
10001b36:	6323      	str	r3, [r4, #48]	; 0x30
10001b38:	6363      	str	r3, [r4, #52]	; 0x34
10001b3a:	63a3      	str	r3, [r4, #56]	; 0x38
10001b3c:	63e3      	str	r3, [r4, #60]	; 0x3c
10001b3e:	6423      	str	r3, [r4, #64]	; 0x40
10001b40:	6463      	str	r3, [r4, #68]	; 0x44
10001b42:	64a3      	str	r3, [r4, #72]	; 0x48
10001b44:	64e3      	str	r3, [r4, #76]	; 0x4c
10001b46:	6523      	str	r3, [r4, #80]	; 0x50
10001b48:	6563      	str	r3, [r4, #84]	; 0x54
10001b4a:	65a3      	str	r3, [r4, #88]	; 0x58
10001b4c:	65e3      	str	r3, [r4, #92]	; 0x5c
10001b4e:	6623      	str	r3, [r4, #96]	; 0x60
10001b50:	6663      	str	r3, [r4, #100]	; 0x64
10001b52:	66a3      	str	r3, [r4, #104]	; 0x68
10001b54:	66e3      	str	r3, [r4, #108]	; 0x6c
10001b56:	6723      	str	r3, [r4, #112]	; 0x70
10001b58:	6763      	str	r3, [r4, #116]	; 0x74
10001b5a:	67a3      	str	r3, [r4, #120]	; 0x78
10001b5c:	67e3      	str	r3, [r4, #124]	; 0x7c
10001b5e:	64a3      	str	r3, [r4, #72]	; 0x48
10001b60:	e7d1      	b.n	10001b06 <__aeabi_double_init+0x22>
10001b62:	46c0      	nop			; (mov r8, r8)
10001b64:	00004453 	.word	0x00004453
10001b68:	20000340 	.word	0x20000340
10001b6c:	0000334c 	.word	0x0000334c
10001b70:	200005f8 	.word	0x200005f8
10001b74:	10001b79 	.word	0x10001b79

10001b78 <double_table_shim_on_use_helper>:
10001b78:	b507      	push	{r0, r1, r2, lr}
10001b7a:	4660      	mov	r0, ip
10001b7c:	8801      	ldrh	r1, [r0, #0]
10001b7e:	0a0a      	lsrs	r2, r1, #8
10001b80:	3002      	adds	r0, #2
10001b82:	2adf      	cmp	r2, #223	; 0xdf
10001b84:	d1fa      	bne.n	10001b7c <double_table_shim_on_use_helper+0x4>
10001b86:	b2c9      	uxtb	r1, r1
10001b88:	0882      	lsrs	r2, r0, #2
10001b8a:	d304      	bcc.n	10001b96 <double_table_shim_on_use_helper+0x1e>
10001b8c:	8802      	ldrh	r2, [r0, #0]
10001b8e:	8840      	ldrh	r0, [r0, #2]
10001b90:	0400      	lsls	r0, r0, #16
10001b92:	4310      	orrs	r0, r2
10001b94:	e000      	b.n	10001b98 <double_table_shim_on_use_helper+0x20>
10001b96:	6800      	ldr	r0, [r0, #0]
10001b98:	4a01      	ldr	r2, [pc, #4]	; (10001ba0 <double_table_shim_on_use_helper+0x28>)
10001b9a:	5050      	str	r0, [r2, r1]
10001b9c:	9003      	str	r0, [sp, #12]
10001b9e:	bd07      	pop	{r0, r1, r2, pc}
10001ba0:	20000340 	.word	0x20000340

10001ba4 <__wrap___aeabi_lmul>:
10001ba4:	4351      	muls	r1, r2
10001ba6:	4343      	muls	r3, r0
10001ba8:	18c9      	adds	r1, r1, r3
10001baa:	468c      	mov	ip, r1
10001bac:	0c11      	lsrs	r1, r2, #16
10001bae:	b283      	uxth	r3, r0
10001bb0:	434b      	muls	r3, r1
10001bb2:	b410      	push	{r4}
10001bb4:	0c04      	lsrs	r4, r0, #16
10001bb6:	4361      	muls	r1, r4
10001bb8:	b292      	uxth	r2, r2
10001bba:	b280      	uxth	r0, r0
10001bbc:	4350      	muls	r0, r2
10001bbe:	4362      	muls	r2, r4
10001bc0:	041c      	lsls	r4, r3, #16
10001bc2:	0c1b      	lsrs	r3, r3, #16
10001bc4:	1900      	adds	r0, r0, r4
10001bc6:	bc10      	pop	{r4}
10001bc8:	4159      	adcs	r1, r3
10001bca:	0413      	lsls	r3, r2, #16
10001bcc:	0c12      	lsrs	r2, r2, #16
10001bce:	18c0      	adds	r0, r0, r3
10001bd0:	4151      	adcs	r1, r2
10001bd2:	4461      	add	r1, ip
10001bd4:	4770      	bx	lr
	...

10001bd8 <__wrap___aeabi_frsub>:
10001bd8:	4048      	eors	r0, r1
10001bda:	4041      	eors	r1, r0
10001bdc:	4048      	eors	r0, r1

10001bde <__wrap___aeabi_fsub>:
10001bde:	4b0e      	ldr	r3, [pc, #56]	; (10001c18 <__wrap___aeabi_fmul+0x6>)
10001be0:	685b      	ldr	r3, [r3, #4]
10001be2:	4718      	bx	r3

10001be4 <__wrap___aeabi_fadd>:
10001be4:	4b0c      	ldr	r3, [pc, #48]	; (10001c18 <__wrap___aeabi_fmul+0x6>)
10001be6:	681b      	ldr	r3, [r3, #0]
10001be8:	4718      	bx	r3

10001bea <__wrap___aeabi_fdiv>:
10001bea:	4a0c      	ldr	r2, [pc, #48]	; (10001c1c <__wrap___aeabi_fmul+0xa>)
10001bec:	6f93      	ldr	r3, [r2, #120]	; 0x78
10001bee:	089b      	lsrs	r3, r3, #2
10001bf0:	d202      	bcs.n	10001bf8 <fdiv_save_state>

10001bf2 <fdiv_shim_call>:
10001bf2:	4b09      	ldr	r3, [pc, #36]	; (10001c18 <__wrap___aeabi_fmul+0x6>)
10001bf4:	68db      	ldr	r3, [r3, #12]
10001bf6:	4718      	bx	r3

10001bf8 <fdiv_save_state>:
10001bf8:	b5f0      	push	{r4, r5, r6, r7, lr}
10001bfa:	6e14      	ldr	r4, [r2, #96]	; 0x60
10001bfc:	6e55      	ldr	r5, [r2, #100]	; 0x64
10001bfe:	6f57      	ldr	r7, [r2, #116]	; 0x74
10001c00:	6f16      	ldr	r6, [r2, #112]	; 0x70
10001c02:	f7ff fff6 	bl	10001bf2 <fdiv_shim_call>
10001c06:	4a05      	ldr	r2, [pc, #20]	; (10001c1c <__wrap___aeabi_fmul+0xa>)
10001c08:	6614      	str	r4, [r2, #96]	; 0x60
10001c0a:	6655      	str	r5, [r2, #100]	; 0x64
10001c0c:	6757      	str	r7, [r2, #116]	; 0x74
10001c0e:	6716      	str	r6, [r2, #112]	; 0x70
10001c10:	bdf0      	pop	{r4, r5, r6, r7, pc}

10001c12 <__wrap___aeabi_fmul>:
10001c12:	4b01      	ldr	r3, [pc, #4]	; (10001c18 <__wrap___aeabi_fmul+0x6>)
10001c14:	689b      	ldr	r3, [r3, #8]
10001c16:	4718      	bx	r3
10001c18:	20000440 	.word	0x20000440
10001c1c:	d0000000 	.word	0xd0000000

10001c20 <__wrap___aeabi_ui2f>:
10001c20:	1a49      	subs	r1, r1, r1
10001c22:	2800      	cmp	r0, #0
10001c24:	d108      	bne.n	10001c38 <__aeabi_i2f_main>
10001c26:	4608      	mov	r0, r1
10001c28:	4770      	bx	lr
	...

10001c2c <__wrap___aeabi_i2f>:
10001c2c:	0fc1      	lsrs	r1, r0, #31
10001c2e:	07c9      	lsls	r1, r1, #31
10001c30:	d500      	bpl.n	10001c34 <__wrap___aeabi_i2f+0x8>
10001c32:	4240      	negs	r0, r0
10001c34:	2800      	cmp	r0, #0
10001c36:	d017      	beq.n	10001c68 <__aeabi_i2f_main+0x30>

10001c38 <__aeabi_i2f_main>:
10001c38:	46f4      	mov	ip, lr
10001c3a:	b403      	push	{r0, r1}
10001c3c:	4b0b      	ldr	r3, [pc, #44]	; (10001c6c <__aeabi_i2f_main+0x34>)
10001c3e:	681b      	ldr	r3, [r3, #0]
10001c40:	4798      	blx	r3
10001c42:	bc06      	pop	{r1, r2}
10001c44:	4081      	lsls	r1, r0
10001c46:	389e      	subs	r0, #158	; 0x9e
10001c48:	4240      	negs	r0, r0
10001c4a:	3180      	adds	r1, #128	; 0x80
10001c4c:	d207      	bcs.n	10001c5e <__aeabi_i2f_main+0x26>
10001c4e:	060b      	lsls	r3, r1, #24
10001c50:	d007      	beq.n	10001c62 <__aeabi_i2f_main+0x2a>
10001c52:	0049      	lsls	r1, r1, #1
10001c54:	0a49      	lsrs	r1, r1, #9
10001c56:	05c0      	lsls	r0, r0, #23
10001c58:	4310      	orrs	r0, r2
10001c5a:	4308      	orrs	r0, r1
10001c5c:	4760      	bx	ip
10001c5e:	3001      	adds	r0, #1
10001c60:	e7f8      	b.n	10001c54 <__aeabi_i2f_main+0x1c>
10001c62:	0a49      	lsrs	r1, r1, #9
10001c64:	0289      	lsls	r1, r1, #10
10001c66:	e7f5      	b.n	10001c54 <__aeabi_i2f_main+0x1c>
10001c68:	4770      	bx	lr
10001c6a:	0000      	.short	0x0000
10001c6c:	200005f8 	.word	0x200005f8

10001c70 <__wrap___aeabi_f2uiz>:
10001c70:	4b01      	ldr	r3, [pc, #4]	; (10001c78 <__wrap___aeabi_f2uiz+0x8>)
10001c72:	6a5b      	ldr	r3, [r3, #36]	; 0x24
10001c74:	4718      	bx	r3
10001c76:	0000      	.short	0x0000
10001c78:	20000440 	.word	0x20000440

10001c7c <__aeabi_float_init>:
10001c7c:	2313      	movs	r3, #19
10001c7e:	b510      	push	{r4, lr}
10001c80:	4812      	ldr	r0, [pc, #72]	; (10001ccc <__aeabi_float_init+0x50>)
10001c82:	781c      	ldrb	r4, [r3, #0]
10001c84:	f7ff fede 	bl	10001a44 <rom_data_lookup>
10001c88:	0001      	movs	r1, r0
10001c8a:	2c01      	cmp	r4, #1
10001c8c:	d00a      	beq.n	10001ca4 <__aeabi_float_init+0x28>
10001c8e:	dd03      	ble.n	10001c98 <__aeabi_float_init+0x1c>
10001c90:	2280      	movs	r2, #128	; 0x80
10001c92:	480f      	ldr	r0, [pc, #60]	; (10001cd0 <__aeabi_float_init+0x54>)
10001c94:	f000 f842 	bl	10001d1c <__wrap___aeabi_memcpy>
10001c98:	480e      	ldr	r0, [pc, #56]	; (10001cd4 <__aeabi_float_init+0x58>)
10001c9a:	f7ff fecb 	bl	10001a34 <rom_func_lookup>
10001c9e:	4b0e      	ldr	r3, [pc, #56]	; (10001cd8 <__aeabi_float_init+0x5c>)
10001ca0:	6018      	str	r0, [r3, #0]
10001ca2:	bd10      	pop	{r4, pc}
10001ca4:	4c0a      	ldr	r4, [pc, #40]	; (10001cd0 <__aeabi_float_init+0x54>)
10001ca6:	2254      	movs	r2, #84	; 0x54
10001ca8:	0020      	movs	r0, r4
10001caa:	f000 f837 	bl	10001d1c <__wrap___aeabi_memcpy>
10001cae:	4b0b      	ldr	r3, [pc, #44]	; (10001cdc <__aeabi_float_init+0x60>)
10001cb0:	6563      	str	r3, [r4, #84]	; 0x54
10001cb2:	65a3      	str	r3, [r4, #88]	; 0x58
10001cb4:	65e3      	str	r3, [r4, #92]	; 0x5c
10001cb6:	6623      	str	r3, [r4, #96]	; 0x60
10001cb8:	6663      	str	r3, [r4, #100]	; 0x64
10001cba:	66a3      	str	r3, [r4, #104]	; 0x68
10001cbc:	66e3      	str	r3, [r4, #108]	; 0x6c
10001cbe:	6723      	str	r3, [r4, #112]	; 0x70
10001cc0:	6763      	str	r3, [r4, #116]	; 0x74
10001cc2:	67a3      	str	r3, [r4, #120]	; 0x78
10001cc4:	67e3      	str	r3, [r4, #124]	; 0x7c
10001cc6:	6223      	str	r3, [r4, #32]
10001cc8:	61e3      	str	r3, [r4, #28]
10001cca:	e7e5      	b.n	10001c98 <__aeabi_float_init+0x1c>
10001ccc:	00004653 	.word	0x00004653
10001cd0:	20000440 	.word	0x20000440
10001cd4:	0000334c 	.word	0x0000334c
10001cd8:	200005f8 	.word	0x200005f8
10001cdc:	10001ce1 	.word	0x10001ce1

10001ce0 <float_table_shim_on_use_helper>:
10001ce0:	b507      	push	{r0, r1, r2, lr}
10001ce2:	4660      	mov	r0, ip
10001ce4:	8801      	ldrh	r1, [r0, #0]
10001ce6:	0a0a      	lsrs	r2, r1, #8
10001ce8:	3002      	adds	r0, #2
10001cea:	2adf      	cmp	r2, #223	; 0xdf
10001cec:	d1fa      	bne.n	10001ce4 <float_table_shim_on_use_helper+0x4>
10001cee:	b2c9      	uxtb	r1, r1
10001cf0:	0882      	lsrs	r2, r0, #2
10001cf2:	d304      	bcc.n	10001cfe <float_table_shim_on_use_helper+0x1e>
10001cf4:	8802      	ldrh	r2, [r0, #0]
10001cf6:	8840      	ldrh	r0, [r0, #2]
10001cf8:	0400      	lsls	r0, r0, #16
10001cfa:	4310      	orrs	r0, r2
10001cfc:	e000      	b.n	10001d00 <float_table_shim_on_use_helper+0x20>
10001cfe:	6800      	ldr	r0, [r0, #0]
10001d00:	4a01      	ldr	r2, [pc, #4]	; (10001d08 <float_table_shim_on_use_helper+0x28>)
10001d02:	5050      	str	r0, [r2, r1]
10001d04:	9003      	str	r0, [sp, #12]
10001d06:	bd07      	pop	{r0, r1, r2, pc}
10001d08:	20000440 	.word	0x20000440

10001d0c <__aeabi_mem_init>:
10001d0c:	4801      	ldr	r0, [pc, #4]	; (10001d14 <__aeabi_mem_init+0x8>)
10001d0e:	2104      	movs	r1, #4
10001d10:	4b01      	ldr	r3, [pc, #4]	; (10001d18 <__aeabi_mem_init+0xc>)
10001d12:	4718      	bx	r3
10001d14:	20000200 	.word	0x20000200
10001d18:	10001a55 	.word	0x10001a55

10001d1c <__wrap___aeabi_memcpy>:
10001d1c:	4b01      	ldr	r3, [pc, #4]	; (10001d24 <__wrap___aeabi_memcpy+0x8>)
10001d1e:	685b      	ldr	r3, [r3, #4]
10001d20:	4718      	bx	r3
10001d22:	0000      	.short	0x0000
10001d24:	20000200 	.word	0x20000200

10001d28 <stdio_out_chars_no_crlf>:
10001d28:	0003      	movs	r3, r0
10001d2a:	b510      	push	{r4, lr}
10001d2c:	0008      	movs	r0, r1
10001d2e:	0011      	movs	r1, r2
10001d30:	681b      	ldr	r3, [r3, #0]
10001d32:	4798      	blx	r3
10001d34:	bd10      	pop	{r4, pc}
10001d36:	46c0      	nop			; (mov r8, r8)

10001d38 <stdio_out_chars_crlf>:
10001d38:	b5f0      	push	{r4, r5, r6, r7, lr}
10001d3a:	4646      	mov	r6, r8
10001d3c:	464f      	mov	r7, r9
10001d3e:	46d6      	mov	lr, sl
10001d40:	b5c0      	push	{r6, r7, lr}
10001d42:	7c43      	ldrb	r3, [r0, #17]
10001d44:	4680      	mov	r8, r0
10001d46:	000e      	movs	r6, r1
10001d48:	0017      	movs	r7, r2
10001d4a:	2b00      	cmp	r3, #0
10001d4c:	d046      	beq.n	10001ddc <stdio_out_chars_crlf+0xa4>
10001d4e:	2a00      	cmp	r2, #0
10001d50:	dd3f      	ble.n	10001dd2 <stdio_out_chars_crlf+0x9a>
10001d52:	1e4b      	subs	r3, r1, #1
10001d54:	4699      	mov	r9, r3
10001d56:	4b24      	ldr	r3, [pc, #144]	; (10001de8 <stdio_out_chars_crlf+0xb0>)
10001d58:	2501      	movs	r5, #1
10001d5a:	2400      	movs	r4, #0
10001d5c:	2000      	movs	r0, #0
10001d5e:	469a      	mov	sl, r3
10001d60:	e00d      	b.n	10001d7e <stdio_out_chars_crlf+0x46>
10001d62:	464b      	mov	r3, r9
10001d64:	5d1b      	ldrb	r3, [r3, r4]
10001d66:	3b0d      	subs	r3, #13
10001d68:	425a      	negs	r2, r3
10001d6a:	4153      	adcs	r3, r2
10001d6c:	5d32      	ldrb	r2, [r6, r4]
10001d6e:	b2db      	uxtb	r3, r3
10001d70:	2a0a      	cmp	r2, #10
10001d72:	d00b      	beq.n	10001d8c <stdio_out_chars_crlf+0x54>
10001d74:	002b      	movs	r3, r5
10001d76:	3401      	adds	r4, #1
10001d78:	3501      	adds	r5, #1
10001d7a:	429f      	cmp	r7, r3
10001d7c:	dd1a      	ble.n	10001db4 <stdio_out_chars_crlf+0x7c>
10001d7e:	2c00      	cmp	r4, #0
10001d80:	d1ef      	bne.n	10001d62 <stdio_out_chars_crlf+0x2a>
10001d82:	4643      	mov	r3, r8
10001d84:	5d32      	ldrb	r2, [r6, r4]
10001d86:	7c1b      	ldrb	r3, [r3, #16]
10001d88:	2a0a      	cmp	r2, #10
10001d8a:	d1f3      	bne.n	10001d74 <stdio_out_chars_crlf+0x3c>
10001d8c:	2b00      	cmp	r3, #0
10001d8e:	d1f1      	bne.n	10001d74 <stdio_out_chars_crlf+0x3c>
10001d90:	42a0      	cmp	r0, r4
10001d92:	da04      	bge.n	10001d9e <stdio_out_chars_crlf+0x66>
10001d94:	4643      	mov	r3, r8
10001d96:	1a21      	subs	r1, r4, r0
10001d98:	681b      	ldr	r3, [r3, #0]
10001d9a:	1830      	adds	r0, r6, r0
10001d9c:	4798      	blx	r3
10001d9e:	4643      	mov	r3, r8
10001da0:	4650      	mov	r0, sl
10001da2:	681b      	ldr	r3, [r3, #0]
10001da4:	2102      	movs	r1, #2
10001da6:	4798      	blx	r3
10001da8:	3401      	adds	r4, #1
10001daa:	0028      	movs	r0, r5
10001dac:	002b      	movs	r3, r5
10001dae:	3501      	adds	r5, #1
10001db0:	429f      	cmp	r7, r3
10001db2:	dce4      	bgt.n	10001d7e <stdio_out_chars_crlf+0x46>
10001db4:	4287      	cmp	r7, r0
10001db6:	dd04      	ble.n	10001dc2 <stdio_out_chars_crlf+0x8a>
10001db8:	4643      	mov	r3, r8
10001dba:	1a39      	subs	r1, r7, r0
10001dbc:	681b      	ldr	r3, [r3, #0]
10001dbe:	1830      	adds	r0, r6, r0
10001dc0:	4798      	blx	r3
10001dc2:	19f6      	adds	r6, r6, r7
10001dc4:	3e01      	subs	r6, #1
10001dc6:	7833      	ldrb	r3, [r6, #0]
10001dc8:	3b0d      	subs	r3, #13
10001dca:	425a      	negs	r2, r3
10001dcc:	4153      	adcs	r3, r2
10001dce:	4642      	mov	r2, r8
10001dd0:	7413      	strb	r3, [r2, #16]
10001dd2:	bce0      	pop	{r5, r6, r7}
10001dd4:	46ba      	mov	sl, r7
10001dd6:	46b1      	mov	r9, r6
10001dd8:	46a8      	mov	r8, r5
10001dda:	bdf0      	pop	{r4, r5, r6, r7, pc}
10001ddc:	6803      	ldr	r3, [r0, #0]
10001dde:	0011      	movs	r1, r2
10001de0:	0030      	movs	r0, r6
10001de2:	4798      	blx	r3
10001de4:	e7f5      	b.n	10001dd2 <stdio_out_chars_crlf+0x9a>
10001de6:	46c0      	nop			; (mov r8, r8)
10001de8:	10002448 	.word	0x10002448

10001dec <stdio_put_string.isra.0>:
10001dec:	b5f0      	push	{r4, r5, r6, r7, lr}
10001dee:	4657      	mov	r7, sl
10001df0:	464e      	mov	r6, r9
10001df2:	4645      	mov	r5, r8
10001df4:	46de      	mov	lr, fp
10001df6:	001c      	movs	r4, r3
10001df8:	23d0      	movs	r3, #208	; 0xd0
10001dfa:	b5e0      	push	{r5, r6, r7, lr}
10001dfc:	061b      	lsls	r3, r3, #24
10001dfe:	681f      	ldr	r7, [r3, #0]
10001e00:	4b34      	ldr	r3, [pc, #208]	; (10001ed4 <stdio_put_string.isra.0+0xe8>)
10001e02:	b083      	sub	sp, #12
10001e04:	0006      	movs	r6, r0
10001e06:	000d      	movs	r5, r1
10001e08:	0018      	movs	r0, r3
10001e0a:	a901      	add	r1, sp, #4
10001e0c:	4691      	mov	r9, r2
10001e0e:	469a      	mov	sl, r3
10001e10:	f000 fa8a 	bl	10002328 <__mutex_try_enter_veneer>
10001e14:	4680      	mov	r8, r0
10001e16:	2800      	cmp	r0, #0
10001e18:	d108      	bne.n	10001e2c <stdio_put_string.isra.0+0x40>
10001e1a:	9b01      	ldr	r3, [sp, #4]
10001e1c:	b27f      	sxtb	r7, r7
10001e1e:	429f      	cmp	r7, r3
10001e20:	d004      	beq.n	10001e2c <stdio_put_string.isra.0+0x40>
10001e22:	4650      	mov	r0, sl
10001e24:	f000 fa88 	bl	10002338 <__mutex_enter_blocking_veneer>
10001e28:	2301      	movs	r3, #1
10001e2a:	4698      	mov	r8, r3
10001e2c:	1c6b      	adds	r3, r5, #1
10001e2e:	d103      	bne.n	10001e38 <stdio_put_string.isra.0+0x4c>
10001e30:	0030      	movs	r0, r6
10001e32:	f000 fa37 	bl	100022a4 <strlen>
10001e36:	0005      	movs	r5, r0
10001e38:	2c00      	cmp	r4, #0
10001e3a:	d127      	bne.n	10001e8c <stdio_put_string.isra.0+0xa0>
10001e3c:	4f26      	ldr	r7, [pc, #152]	; (10001ed8 <stdio_put_string.isra.0+0xec>)
10001e3e:	4b27      	ldr	r3, [pc, #156]	; (10001edc <stdio_put_string.isra.0+0xf0>)
10001e40:	681c      	ldr	r4, [r3, #0]
10001e42:	2c00      	cmp	r4, #0
10001e44:	d018      	beq.n	10001e78 <stdio_put_string.isra.0+0x8c>
10001e46:	464b      	mov	r3, r9
10001e48:	2b00      	cmp	r3, #0
10001e4a:	d121      	bne.n	10001e90 <stdio_put_string.isra.0+0xa4>
10001e4c:	4b24      	ldr	r3, [pc, #144]	; (10001ee0 <stdio_put_string.isra.0+0xf4>)
10001e4e:	4699      	mov	r9, r3
10001e50:	e002      	b.n	10001e58 <stdio_put_string.isra.0+0x6c>
10001e52:	68e4      	ldr	r4, [r4, #12]
10001e54:	2c00      	cmp	r4, #0
10001e56:	d00f      	beq.n	10001e78 <stdio_put_string.isra.0+0x8c>
10001e58:	6823      	ldr	r3, [r4, #0]
10001e5a:	2b00      	cmp	r3, #0
10001e5c:	d0f9      	beq.n	10001e52 <stdio_put_string.isra.0+0x66>
10001e5e:	464b      	mov	r3, r9
10001e60:	681b      	ldr	r3, [r3, #0]
10001e62:	2b00      	cmp	r3, #0
10001e64:	d001      	beq.n	10001e6a <stdio_put_string.isra.0+0x7e>
10001e66:	42a3      	cmp	r3, r4
10001e68:	d1f3      	bne.n	10001e52 <stdio_put_string.isra.0+0x66>
10001e6a:	0020      	movs	r0, r4
10001e6c:	002a      	movs	r2, r5
10001e6e:	0031      	movs	r1, r6
10001e70:	47b8      	blx	r7
10001e72:	68e4      	ldr	r4, [r4, #12]
10001e74:	2c00      	cmp	r4, #0
10001e76:	d1ef      	bne.n	10001e58 <stdio_put_string.isra.0+0x6c>
10001e78:	4643      	mov	r3, r8
10001e7a:	2b00      	cmp	r3, #0
10001e7c:	d125      	bne.n	10001eca <stdio_put_string.isra.0+0xde>
10001e7e:	b003      	add	sp, #12
10001e80:	bcf0      	pop	{r4, r5, r6, r7}
10001e82:	46bb      	mov	fp, r7
10001e84:	46b2      	mov	sl, r6
10001e86:	46a9      	mov	r9, r5
10001e88:	46a0      	mov	r8, r4
10001e8a:	bdf0      	pop	{r4, r5, r6, r7, pc}
10001e8c:	4f15      	ldr	r7, [pc, #84]	; (10001ee4 <stdio_put_string.isra.0+0xf8>)
10001e8e:	e7d6      	b.n	10001e3e <stdio_put_string.isra.0+0x52>
10001e90:	4b13      	ldr	r3, [pc, #76]	; (10001ee0 <stdio_put_string.isra.0+0xf4>)
10001e92:	4699      	mov	r9, r3
10001e94:	230a      	movs	r3, #10
10001e96:	469b      	mov	fp, r3
10001e98:	e002      	b.n	10001ea0 <stdio_put_string.isra.0+0xb4>
10001e9a:	68e4      	ldr	r4, [r4, #12]
10001e9c:	2c00      	cmp	r4, #0
10001e9e:	d0eb      	beq.n	10001e78 <stdio_put_string.isra.0+0x8c>
10001ea0:	6823      	ldr	r3, [r4, #0]
10001ea2:	2b00      	cmp	r3, #0
10001ea4:	d0f9      	beq.n	10001e9a <stdio_put_string.isra.0+0xae>
10001ea6:	464b      	mov	r3, r9
10001ea8:	681b      	ldr	r3, [r3, #0]
10001eaa:	2b00      	cmp	r3, #0
10001eac:	d001      	beq.n	10001eb2 <stdio_put_string.isra.0+0xc6>
10001eae:	42a3      	cmp	r3, r4
10001eb0:	d1f3      	bne.n	10001e9a <stdio_put_string.isra.0+0xae>
10001eb2:	002a      	movs	r2, r5
10001eb4:	0031      	movs	r1, r6
10001eb6:	0020      	movs	r0, r4
10001eb8:	47b8      	blx	r7
10001eba:	465a      	mov	r2, fp
10001ebc:	466b      	mov	r3, sp
10001ebe:	0020      	movs	r0, r4
10001ec0:	711a      	strb	r2, [r3, #4]
10001ec2:	a901      	add	r1, sp, #4
10001ec4:	2201      	movs	r2, #1
10001ec6:	47b8      	blx	r7
10001ec8:	e7e7      	b.n	10001e9a <stdio_put_string.isra.0+0xae>
10001eca:	4650      	mov	r0, sl
10001ecc:	f000 fa1c 	bl	10002308 <__mutex_exit_veneer>
10001ed0:	e7d5      	b.n	10001e7e <stdio_put_string.isra.0+0x92>
10001ed2:	46c0      	nop			; (mov r8, r8)
10001ed4:	20000224 	.word	0x20000224
10001ed8:	10001d39 	.word	0x10001d39
10001edc:	200005dc 	.word	0x200005dc
10001ee0:	200005e0 	.word	0x200005e0
10001ee4:	10001d29 	.word	0x10001d29

10001ee8 <__wrap_putchar>:
10001ee8:	b5f0      	push	{r4, r5, r6, r7, lr}
10001eea:	46ce      	mov	lr, r9
10001eec:	4647      	mov	r7, r8
10001eee:	b580      	push	{r7, lr}
10001ef0:	b083      	sub	sp, #12
10001ef2:	466b      	mov	r3, sp
10001ef4:	1cde      	adds	r6, r3, #3
10001ef6:	23d0      	movs	r3, #208	; 0xd0
10001ef8:	7030      	strb	r0, [r6, #0]
10001efa:	061b      	lsls	r3, r3, #24
10001efc:	681c      	ldr	r4, [r3, #0]
10001efe:	4b1f      	ldr	r3, [pc, #124]	; (10001f7c <__wrap_putchar+0x94>)
10001f00:	4680      	mov	r8, r0
10001f02:	a901      	add	r1, sp, #4
10001f04:	0018      	movs	r0, r3
10001f06:	4699      	mov	r9, r3
10001f08:	f000 fa0e 	bl	10002328 <__mutex_try_enter_veneer>
10001f0c:	1e07      	subs	r7, r0, #0
10001f0e:	d020      	beq.n	10001f52 <__wrap_putchar+0x6a>
10001f10:	4b1b      	ldr	r3, [pc, #108]	; (10001f80 <__wrap_putchar+0x98>)
10001f12:	681c      	ldr	r4, [r3, #0]
10001f14:	2c00      	cmp	r4, #0
10001f16:	d028      	beq.n	10001f6a <__wrap_putchar+0x82>
10001f18:	4d1a      	ldr	r5, [pc, #104]	; (10001f84 <__wrap_putchar+0x9c>)
10001f1a:	e002      	b.n	10001f22 <__wrap_putchar+0x3a>
10001f1c:	68e4      	ldr	r4, [r4, #12]
10001f1e:	2c00      	cmp	r4, #0
10001f20:	d00f      	beq.n	10001f42 <__wrap_putchar+0x5a>
10001f22:	6823      	ldr	r3, [r4, #0]
10001f24:	2b00      	cmp	r3, #0
10001f26:	d0f9      	beq.n	10001f1c <__wrap_putchar+0x34>
10001f28:	682b      	ldr	r3, [r5, #0]
10001f2a:	2b00      	cmp	r3, #0
10001f2c:	d001      	beq.n	10001f32 <__wrap_putchar+0x4a>
10001f2e:	42a3      	cmp	r3, r4
10001f30:	d1f4      	bne.n	10001f1c <__wrap_putchar+0x34>
10001f32:	0020      	movs	r0, r4
10001f34:	2201      	movs	r2, #1
10001f36:	0031      	movs	r1, r6
10001f38:	f7ff fefe 	bl	10001d38 <stdio_out_chars_crlf>
10001f3c:	68e4      	ldr	r4, [r4, #12]
10001f3e:	2c00      	cmp	r4, #0
10001f40:	d1ef      	bne.n	10001f22 <__wrap_putchar+0x3a>
10001f42:	2f00      	cmp	r7, #0
10001f44:	d111      	bne.n	10001f6a <__wrap_putchar+0x82>
10001f46:	4640      	mov	r0, r8
10001f48:	b003      	add	sp, #12
10001f4a:	bcc0      	pop	{r6, r7}
10001f4c:	46b9      	mov	r9, r7
10001f4e:	46b0      	mov	r8, r6
10001f50:	bdf0      	pop	{r4, r5, r6, r7, pc}
10001f52:	9b01      	ldr	r3, [sp, #4]
10001f54:	b264      	sxtb	r4, r4
10001f56:	429c      	cmp	r4, r3
10001f58:	d00b      	beq.n	10001f72 <__wrap_putchar+0x8a>
10001f5a:	4648      	mov	r0, r9
10001f5c:	f000 f9ec 	bl	10002338 <__mutex_enter_blocking_veneer>
10001f60:	4b07      	ldr	r3, [pc, #28]	; (10001f80 <__wrap_putchar+0x98>)
10001f62:	2701      	movs	r7, #1
10001f64:	681c      	ldr	r4, [r3, #0]
10001f66:	2c00      	cmp	r4, #0
10001f68:	d1d6      	bne.n	10001f18 <__wrap_putchar+0x30>
10001f6a:	4648      	mov	r0, r9
10001f6c:	f000 f9cc 	bl	10002308 <__mutex_exit_veneer>
10001f70:	e7e9      	b.n	10001f46 <__wrap_putchar+0x5e>
10001f72:	4b03      	ldr	r3, [pc, #12]	; (10001f80 <__wrap_putchar+0x98>)
10001f74:	681c      	ldr	r4, [r3, #0]
10001f76:	2c00      	cmp	r4, #0
10001f78:	d1ce      	bne.n	10001f18 <__wrap_putchar+0x30>
10001f7a:	e7e4      	b.n	10001f46 <__wrap_putchar+0x5e>
10001f7c:	20000224 	.word	0x20000224
10001f80:	200005dc 	.word	0x200005dc
10001f84:	200005e0 	.word	0x200005e0

10001f88 <__wrap_puts>:
10001f88:	b570      	push	{r4, r5, r6, lr}
10001f8a:	0004      	movs	r4, r0
10001f8c:	f000 f98a 	bl	100022a4 <strlen>
10001f90:	2300      	movs	r3, #0
10001f92:	0001      	movs	r1, r0
10001f94:	0005      	movs	r5, r0
10001f96:	2201      	movs	r2, #1
10001f98:	0020      	movs	r0, r4
10001f9a:	f7ff ff27 	bl	10001dec <stdio_put_string.isra.0>
10001f9e:	4b08      	ldr	r3, [pc, #32]	; (10001fc0 <__wrap_puts+0x38>)
10001fa0:	681c      	ldr	r4, [r3, #0]
10001fa2:	2c00      	cmp	r4, #0
10001fa4:	d006      	beq.n	10001fb4 <__wrap_puts+0x2c>
10001fa6:	6863      	ldr	r3, [r4, #4]
10001fa8:	2b00      	cmp	r3, #0
10001faa:	d005      	beq.n	10001fb8 <__wrap_puts+0x30>
10001fac:	4798      	blx	r3
10001fae:	68e4      	ldr	r4, [r4, #12]
10001fb0:	2c00      	cmp	r4, #0
10001fb2:	d1f8      	bne.n	10001fa6 <__wrap_puts+0x1e>
10001fb4:	0028      	movs	r0, r5
10001fb6:	bd70      	pop	{r4, r5, r6, pc}
10001fb8:	68e4      	ldr	r4, [r4, #12]
10001fba:	2c00      	cmp	r4, #0
10001fbc:	d1f3      	bne.n	10001fa6 <__wrap_puts+0x1e>
10001fbe:	e7f9      	b.n	10001fb4 <__wrap_puts+0x2c>
10001fc0:	200005dc 	.word	0x200005dc

10001fc4 <stdio_set_driver_enabled>:
10001fc4:	4a0a      	ldr	r2, [pc, #40]	; (10001ff0 <stdio_set_driver_enabled+0x2c>)
10001fc6:	6813      	ldr	r3, [r2, #0]
10001fc8:	2b00      	cmp	r3, #0
10001fca:	d105      	bne.n	10001fd8 <stdio_set_driver_enabled+0x14>
10001fcc:	e00c      	b.n	10001fe8 <stdio_set_driver_enabled+0x24>
10001fce:	001a      	movs	r2, r3
10001fd0:	68db      	ldr	r3, [r3, #12]
10001fd2:	320c      	adds	r2, #12
10001fd4:	2b00      	cmp	r3, #0
10001fd6:	d007      	beq.n	10001fe8 <stdio_set_driver_enabled+0x24>
10001fd8:	4298      	cmp	r0, r3
10001fda:	d1f8      	bne.n	10001fce <stdio_set_driver_enabled+0xa>
10001fdc:	2900      	cmp	r1, #0
10001fde:	d102      	bne.n	10001fe6 <stdio_set_driver_enabled+0x22>
10001fe0:	68c3      	ldr	r3, [r0, #12]
10001fe2:	6013      	str	r3, [r2, #0]
10001fe4:	60c1      	str	r1, [r0, #12]
10001fe6:	4770      	bx	lr
10001fe8:	2900      	cmp	r1, #0
10001fea:	d0fc      	beq.n	10001fe6 <stdio_set_driver_enabled+0x22>
10001fec:	6010      	str	r0, [r2, #0]
10001fee:	e7fa      	b.n	10001fe6 <stdio_set_driver_enabled+0x22>
10001ff0:	200005dc 	.word	0x200005dc

10001ff4 <stdio_init_all>:
10001ff4:	b510      	push	{r4, lr}
10001ff6:	f000 f843 	bl	10002080 <stdio_uart_init>
10001ffa:	bd10      	pop	{r4, pc}

10001ffc <stdio_uart_out_chars>:
10001ffc:	b5f0      	push	{r4, r5, r6, r7, lr}
10001ffe:	1e0d      	subs	r5, r1, #0
10002000:	dd15      	ble.n	1000202e <stdio_uart_out_chars+0x32>
10002002:	4b0e      	ldr	r3, [pc, #56]	; (1000203c <stdio_uart_out_chars+0x40>)
10002004:	270d      	movs	r7, #13
10002006:	681a      	ldr	r2, [r3, #0]
10002008:	4b0d      	ldr	r3, [pc, #52]	; (10002040 <stdio_uart_out_chars+0x44>)
1000200a:	1945      	adds	r5, r0, r5
1000200c:	18d3      	adds	r3, r2, r3
1000200e:	4259      	negs	r1, r3
10002010:	414b      	adcs	r3, r1
10002012:	490c      	ldr	r1, [pc, #48]	; (10002044 <stdio_uart_out_chars+0x48>)
10002014:	005b      	lsls	r3, r3, #1
10002016:	5e5e      	ldrsh	r6, [r3, r1]
10002018:	2120      	movs	r1, #32
1000201a:	7804      	ldrb	r4, [r0, #0]
1000201c:	42a6      	cmp	r6, r4
1000201e:	d007      	beq.n	10002030 <stdio_uart_out_chars+0x34>
10002020:	6993      	ldr	r3, [r2, #24]
10002022:	4219      	tst	r1, r3
10002024:	d1fc      	bne.n	10002020 <stdio_uart_out_chars+0x24>
10002026:	3001      	adds	r0, #1
10002028:	6014      	str	r4, [r2, #0]
1000202a:	42a8      	cmp	r0, r5
1000202c:	d1f5      	bne.n	1000201a <stdio_uart_out_chars+0x1e>
1000202e:	bdf0      	pop	{r4, r5, r6, r7, pc}
10002030:	6993      	ldr	r3, [r2, #24]
10002032:	4219      	tst	r1, r3
10002034:	d1fc      	bne.n	10002030 <stdio_uart_out_chars+0x34>
10002036:	6017      	str	r7, [r2, #0]
10002038:	e7f2      	b.n	10002020 <stdio_uart_out_chars+0x24>
1000203a:	46c0      	nop			; (mov r8, r8)
1000203c:	20000614 	.word	0x20000614
10002040:	bffc8000 	.word	0xbffc8000
10002044:	20000610 	.word	0x20000610

10002048 <stdio_uart_in_chars>:
10002048:	b530      	push	{r4, r5, lr}
1000204a:	0004      	movs	r4, r0
1000204c:	1e0d      	subs	r5, r1, #0
1000204e:	dd12      	ble.n	10002076 <stdio_uart_in_chars+0x2e>
10002050:	2000      	movs	r0, #0
10002052:	2110      	movs	r1, #16
10002054:	4b09      	ldr	r3, [pc, #36]	; (1000207c <stdio_uart_in_chars+0x34>)
10002056:	3c01      	subs	r4, #1
10002058:	681a      	ldr	r2, [r3, #0]
1000205a:	6993      	ldr	r3, [r2, #24]
1000205c:	4219      	tst	r1, r3
1000205e:	d108      	bne.n	10002072 <stdio_uart_in_chars+0x2a>
10002060:	3001      	adds	r0, #1
10002062:	6993      	ldr	r3, [r2, #24]
10002064:	4219      	tst	r1, r3
10002066:	d1fc      	bne.n	10002062 <stdio_uart_in_chars+0x1a>
10002068:	6813      	ldr	r3, [r2, #0]
1000206a:	5423      	strb	r3, [r4, r0]
1000206c:	4285      	cmp	r5, r0
1000206e:	d1f4      	bne.n	1000205a <stdio_uart_in_chars+0x12>
10002070:	bd30      	pop	{r4, r5, pc}
10002072:	2800      	cmp	r0, #0
10002074:	d1fc      	bne.n	10002070 <stdio_uart_in_chars+0x28>
10002076:	2003      	movs	r0, #3
10002078:	4240      	negs	r0, r0
1000207a:	e7f9      	b.n	10002070 <stdio_uart_in_chars+0x28>
1000207c:	20000614 	.word	0x20000614

10002080 <stdio_uart_init>:
10002080:	21e1      	movs	r1, #225	; 0xe1
10002082:	b510      	push	{r4, lr}
10002084:	4b0b      	ldr	r3, [pc, #44]	; (100020b4 <stdio_uart_init+0x34>)
10002086:	480c      	ldr	r0, [pc, #48]	; (100020b8 <stdio_uart_init+0x38>)
10002088:	781b      	ldrb	r3, [r3, #0]
1000208a:	4b0c      	ldr	r3, [pc, #48]	; (100020bc <stdio_uart_init+0x3c>)
1000208c:	0249      	lsls	r1, r1, #9
1000208e:	781b      	ldrb	r3, [r3, #0]
10002090:	4b0b      	ldr	r3, [pc, #44]	; (100020c0 <stdio_uart_init+0x40>)
10002092:	6018      	str	r0, [r3, #0]
10002094:	f7ff f9c6 	bl	10001424 <uart_init>
10002098:	2102      	movs	r1, #2
1000209a:	2000      	movs	r0, #0
1000209c:	f7fe f9b2 	bl	10000404 <gpio_set_function>
100020a0:	2102      	movs	r1, #2
100020a2:	2001      	movs	r0, #1
100020a4:	f7fe f9ae 	bl	10000404 <gpio_set_function>
100020a8:	2101      	movs	r1, #1
100020aa:	4806      	ldr	r0, [pc, #24]	; (100020c4 <stdio_uart_init+0x44>)
100020ac:	f7ff ff8a 	bl	10001fc4 <stdio_set_driver_enabled>
100020b0:	bd10      	pop	{r4, pc}
100020b2:	46c0      	nop			; (mov r8, r8)
100020b4:	100024c0 	.word	0x100024c0
100020b8:	40034000 	.word	0x40034000
100020bc:	100024c4 	.word	0x100024c4
100020c0:	20000614 	.word	0x20000614
100020c4:	20000210 	.word	0x20000210

100020c8 <pio_add_program>:
100020c8:	b5f0      	push	{r4, r5, r6, r7, lr}
100020ca:	46d6      	mov	lr, sl
100020cc:	464f      	mov	r7, r9
100020ce:	4646      	mov	r6, r8
100020d0:	4688      	mov	r8, r1
100020d2:	b5c0      	push	{r6, r7, lr}
100020d4:	2405      	movs	r4, #5
100020d6:	0006      	movs	r6, r0
100020d8:	f7fe f9ac 	bl	10000434 <hw_claim_lock>
100020dc:	4643      	mov	r3, r8
100020de:	791f      	ldrb	r7, [r3, #4]
100020e0:	571c      	ldrsb	r4, [r3, r4]
100020e2:	4b28      	ldr	r3, [pc, #160]	; (10002184 <pio_add_program+0xbc>)
100020e4:	4681      	mov	r9, r0
100020e6:	18f0      	adds	r0, r6, r3
100020e8:	4243      	negs	r3, r0
100020ea:	4158      	adcs	r0, r3
100020ec:	4b26      	ldr	r3, [pc, #152]	; (10002188 <pio_add_program+0xc0>)
100020ee:	469a      	mov	sl, r3
100020f0:	0083      	lsls	r3, r0, #2
100020f2:	469c      	mov	ip, r3
100020f4:	4653      	mov	r3, sl
100020f6:	4662      	mov	r2, ip
100020f8:	5898      	ldr	r0, [r3, r2]
100020fa:	2201      	movs	r2, #1
100020fc:	2320      	movs	r3, #32
100020fe:	40ba      	lsls	r2, r7
10002100:	1bdb      	subs	r3, r3, r7
10002102:	3a01      	subs	r2, #1
10002104:	2c00      	cmp	r4, #0
10002106:	db32      	blt.n	1000216e <pio_add_program+0xa6>
10002108:	429c      	cmp	r4, r3
1000210a:	dc2d      	bgt.n	10002168 <pio_add_program+0xa0>
1000210c:	40a2      	lsls	r2, r4
1000210e:	0015      	movs	r5, r2
10002110:	4210      	tst	r0, r2
10002112:	d129      	bne.n	10002168 <pio_add_program+0xa0>
10002114:	2f00      	cmp	r7, #0
10002116:	d01a      	beq.n	1000214e <pio_add_program+0x86>
10002118:	4643      	mov	r3, r8
1000211a:	785a      	ldrb	r2, [r3, #1]
1000211c:	7819      	ldrb	r1, [r3, #0]
1000211e:	0212      	lsls	r2, r2, #8
10002120:	4311      	orrs	r1, r2
10002122:	4642      	mov	r2, r8
10002124:	789b      	ldrb	r3, [r3, #2]
10002126:	78d2      	ldrb	r2, [r2, #3]
10002128:	041b      	lsls	r3, r3, #16
1000212a:	430b      	orrs	r3, r1
1000212c:	0612      	lsls	r2, r2, #24
1000212e:	431a      	orrs	r2, r3
10002130:	4690      	mov	r8, r2
10002132:	2200      	movs	r2, #0
10002134:	4641      	mov	r1, r8
10002136:	0053      	lsls	r3, r2, #1
10002138:	5ac9      	ldrh	r1, [r1, r3]
1000213a:	0b4b      	lsrs	r3, r1, #13
1000213c:	d100      	bne.n	10002140 <pio_add_program+0x78>
1000213e:	1909      	adds	r1, r1, r4
10002140:	1913      	adds	r3, r2, r4
10002142:	3312      	adds	r3, #18
10002144:	009b      	lsls	r3, r3, #2
10002146:	3201      	adds	r2, #1
10002148:	5199      	str	r1, [r3, r6]
1000214a:	4297      	cmp	r7, r2
1000214c:	d8f2      	bhi.n	10002134 <pio_add_program+0x6c>
1000214e:	4653      	mov	r3, sl
10002150:	4662      	mov	r2, ip
10002152:	4305      	orrs	r5, r0
10002154:	509d      	str	r5, [r3, r2]
10002156:	4648      	mov	r0, r9
10002158:	f7fe f978 	bl	1000044c <hw_claim_unlock>
1000215c:	0020      	movs	r0, r4
1000215e:	bce0      	pop	{r5, r6, r7}
10002160:	46ba      	mov	sl, r7
10002162:	46b1      	mov	r9, r6
10002164:	46a8      	mov	r8, r5
10002166:	bdf0      	pop	{r4, r5, r6, r7, pc}
10002168:	4808      	ldr	r0, [pc, #32]	; (1000218c <pio_add_program+0xc4>)
1000216a:	f7ff fa45 	bl	100015f8 <panic>
1000216e:	2b00      	cmp	r3, #0
10002170:	da02      	bge.n	10002178 <pio_add_program+0xb0>
10002172:	e7f9      	b.n	10002168 <pio_add_program+0xa0>
10002174:	3b01      	subs	r3, #1
10002176:	d3f7      	bcc.n	10002168 <pio_add_program+0xa0>
10002178:	0015      	movs	r5, r2
1000217a:	409d      	lsls	r5, r3
1000217c:	001c      	movs	r4, r3
1000217e:	4205      	tst	r5, r0
10002180:	d1f8      	bne.n	10002174 <pio_add_program+0xac>
10002182:	e7c7      	b.n	10002114 <pio_add_program+0x4c>
10002184:	afd00000 	.word	0xafd00000
10002188:	2000055c 	.word	0x2000055c
1000218c:	1000248c 	.word	0x1000248c

10002190 <pio_sm_set_consecutive_pindirs>:
10002190:	b5f0      	push	{r4, r5, r6, r7, lr}
10002192:	464e      	mov	r6, r9
10002194:	4645      	mov	r5, r8
10002196:	46de      	mov	lr, fp
10002198:	4657      	mov	r7, sl
1000219a:	468a      	mov	sl, r1
1000219c:	0049      	lsls	r1, r1, #1
1000219e:	b5e0      	push	{r5, r6, r7, lr}
100021a0:	000d      	movs	r5, r1
100021a2:	4680      	mov	r8, r0
100021a4:	4455      	add	r5, sl
100021a6:	00ed      	lsls	r5, r5, #3
100021a8:	4445      	add	r5, r8
100021aa:	4689      	mov	r9, r1
100021ac:	0029      	movs	r1, r5
100021ae:	ac09      	add	r4, sp, #36	; 0x24
100021b0:	7826      	ldrb	r6, [r4, #0]
100021b2:	31dc      	adds	r1, #220	; 0xdc
100021b4:	1e74      	subs	r4, r6, #1
100021b6:	41a6      	sbcs	r6, r4
100021b8:	6808      	ldr	r0, [r1, #0]
100021ba:	4274      	negs	r4, r6
100021bc:	4684      	mov	ip, r0
100021be:	4814      	ldr	r0, [pc, #80]	; (10002210 <pio_sm_set_consecutive_pindirs+0x80>)
100021c0:	261f      	movs	r6, #31
100021c2:	4683      	mov	fp, r0
100021c4:	4026      	ands	r6, r4
100021c6:	445e      	add	r6, fp
100021c8:	2b05      	cmp	r3, #5
100021ca:	d90c      	bls.n	100021e6 <pio_sm_set_consecutive_pindirs+0x56>
100021cc:	20a0      	movs	r0, #160	; 0xa0
100021ce:	271f      	movs	r7, #31
100021d0:	0540      	lsls	r0, r0, #21
100021d2:	35d8      	adds	r5, #216	; 0xd8
100021d4:	0154      	lsls	r4, r2, #5
100021d6:	4304      	orrs	r4, r0
100021d8:	3205      	adds	r2, #5
100021da:	3b05      	subs	r3, #5
100021dc:	600c      	str	r4, [r1, #0]
100021de:	403a      	ands	r2, r7
100021e0:	602e      	str	r6, [r5, #0]
100021e2:	2b05      	cmp	r3, #5
100021e4:	d8f6      	bhi.n	100021d4 <pio_sm_set_consecutive_pindirs+0x44>
100021e6:	4649      	mov	r1, r9
100021e8:	4451      	add	r1, sl
100021ea:	00c9      	lsls	r1, r1, #3
100021ec:	4441      	add	r1, r8
100021ee:	0152      	lsls	r2, r2, #5
100021f0:	069b      	lsls	r3, r3, #26
100021f2:	4313      	orrs	r3, r2
100021f4:	000a      	movs	r2, r1
100021f6:	0008      	movs	r0, r1
100021f8:	32dc      	adds	r2, #220	; 0xdc
100021fa:	6013      	str	r3, [r2, #0]
100021fc:	4663      	mov	r3, ip
100021fe:	30d8      	adds	r0, #216	; 0xd8
10002200:	6006      	str	r6, [r0, #0]
10002202:	6013      	str	r3, [r2, #0]
10002204:	bcf0      	pop	{r4, r5, r6, r7}
10002206:	46bb      	mov	fp, r7
10002208:	46b2      	mov	sl, r6
1000220a:	46a9      	mov	r9, r5
1000220c:	46a0      	mov	r8, r4
1000220e:	bdf0      	pop	{r4, r5, r6, r7, pc}
10002210:	0000e080 	.word	0x0000e080

10002214 <pio_sm_init>:
10002214:	b5f0      	push	{r4, r5, r6, r7, lr}
10002216:	2501      	movs	r5, #1
10002218:	408d      	lsls	r5, r1
1000221a:	6804      	ldr	r4, [r0, #0]
1000221c:	43ac      	bics	r4, r5
1000221e:	004d      	lsls	r5, r1, #1
10002220:	6004      	str	r4, [r0, #0]
10002222:	186c      	adds	r4, r5, r1
10002224:	00e4      	lsls	r4, r4, #3
10002226:	1904      	adds	r4, r0, r4
10002228:	0026      	movs	r6, r4
1000222a:	36c8      	adds	r6, #200	; 0xc8
1000222c:	2b00      	cmp	r3, #0
1000222e:	d02a      	beq.n	10002286 <pio_sm_init+0x72>
10002230:	681f      	ldr	r7, [r3, #0]
10002232:	34dc      	adds	r4, #220	; 0xdc
10002234:	6037      	str	r7, [r6, #0]
10002236:	685f      	ldr	r7, [r3, #4]
10002238:	6077      	str	r7, [r6, #4]
1000223a:	689f      	ldr	r7, [r3, #8]
1000223c:	68db      	ldr	r3, [r3, #12]
1000223e:	60b7      	str	r7, [r6, #8]
10002240:	6023      	str	r3, [r4, #0]
10002242:	186d      	adds	r5, r5, r1
10002244:	00eb      	lsls	r3, r5, #3
10002246:	001d      	movs	r5, r3
10002248:	2480      	movs	r4, #128	; 0x80
1000224a:	35d0      	adds	r5, #208	; 0xd0
1000224c:	1945      	adds	r5, r0, r5
1000224e:	0164      	lsls	r4, r4, #5
10002250:	432c      	orrs	r4, r5
10002252:	2580      	movs	r5, #128	; 0x80
10002254:	062d      	lsls	r5, r5, #24
10002256:	6025      	str	r5, [r4, #0]
10002258:	6025      	str	r5, [r4, #0]
1000225a:	4c11      	ldr	r4, [pc, #68]	; (100022a0 <pio_sm_init+0x8c>)
1000225c:	1d0d      	adds	r5, r1, #4
1000225e:	408c      	lsls	r4, r1
10002260:	6084      	str	r4, [r0, #8]
10002262:	2401      	movs	r4, #1
10002264:	0027      	movs	r7, r4
10002266:	40af      	lsls	r7, r5
10002268:	003d      	movs	r5, r7
1000226a:	3108      	adds	r1, #8
1000226c:	408c      	lsls	r4, r1
1000226e:	211f      	movs	r1, #31
10002270:	6806      	ldr	r6, [r0, #0]
10002272:	400a      	ands	r2, r1
10002274:	4335      	orrs	r5, r6
10002276:	6005      	str	r5, [r0, #0]
10002278:	6805      	ldr	r5, [r0, #0]
1000227a:	432c      	orrs	r4, r5
1000227c:	6004      	str	r4, [r0, #0]
1000227e:	18c0      	adds	r0, r0, r3
10002280:	30d8      	adds	r0, #216	; 0xd8
10002282:	6002      	str	r2, [r0, #0]
10002284:	bdf0      	pop	{r4, r5, r6, r7, pc}
10002286:	2780      	movs	r7, #128	; 0x80
10002288:	027f      	lsls	r7, r7, #9
1000228a:	6037      	str	r7, [r6, #0]
1000228c:	27f8      	movs	r7, #248	; 0xf8
1000228e:	027f      	lsls	r7, r7, #9
10002290:	6077      	str	r7, [r6, #4]
10002292:	27c0      	movs	r7, #192	; 0xc0
10002294:	34dc      	adds	r4, #220	; 0xdc
10002296:	033f      	lsls	r7, r7, #12
10002298:	60b7      	str	r7, [r6, #8]
1000229a:	6023      	str	r3, [r4, #0]
1000229c:	e7d1      	b.n	10002242 <pio_sm_init+0x2e>
1000229e:	46c0      	nop			; (mov r8, r8)
100022a0:	01010101 	.word	0x01010101

100022a4 <strlen>:
100022a4:	b510      	push	{r4, lr}
100022a6:	0783      	lsls	r3, r0, #30
100022a8:	d00a      	beq.n	100022c0 <strlen+0x1c>
100022aa:	0003      	movs	r3, r0
100022ac:	2103      	movs	r1, #3
100022ae:	e002      	b.n	100022b6 <strlen+0x12>
100022b0:	3301      	adds	r3, #1
100022b2:	420b      	tst	r3, r1
100022b4:	d005      	beq.n	100022c2 <strlen+0x1e>
100022b6:	781a      	ldrb	r2, [r3, #0]
100022b8:	2a00      	cmp	r2, #0
100022ba:	d1f9      	bne.n	100022b0 <strlen+0xc>
100022bc:	1a18      	subs	r0, r3, r0
100022be:	bd10      	pop	{r4, pc}
100022c0:	0003      	movs	r3, r0
100022c2:	6819      	ldr	r1, [r3, #0]
100022c4:	4a0c      	ldr	r2, [pc, #48]	; (100022f8 <strlen+0x54>)
100022c6:	4c0d      	ldr	r4, [pc, #52]	; (100022fc <strlen+0x58>)
100022c8:	188a      	adds	r2, r1, r2
100022ca:	438a      	bics	r2, r1
100022cc:	4222      	tst	r2, r4
100022ce:	d10f      	bne.n	100022f0 <strlen+0x4c>
100022d0:	6859      	ldr	r1, [r3, #4]
100022d2:	4a09      	ldr	r2, [pc, #36]	; (100022f8 <strlen+0x54>)
100022d4:	3304      	adds	r3, #4
100022d6:	188a      	adds	r2, r1, r2
100022d8:	438a      	bics	r2, r1
100022da:	4222      	tst	r2, r4
100022dc:	d108      	bne.n	100022f0 <strlen+0x4c>
100022de:	6859      	ldr	r1, [r3, #4]
100022e0:	4a05      	ldr	r2, [pc, #20]	; (100022f8 <strlen+0x54>)
100022e2:	3304      	adds	r3, #4
100022e4:	188a      	adds	r2, r1, r2
100022e6:	438a      	bics	r2, r1
100022e8:	4222      	tst	r2, r4
100022ea:	d0f1      	beq.n	100022d0 <strlen+0x2c>
100022ec:	e000      	b.n	100022f0 <strlen+0x4c>
100022ee:	3301      	adds	r3, #1
100022f0:	781a      	ldrb	r2, [r3, #0]
100022f2:	2a00      	cmp	r2, #0
100022f4:	d1fb      	bne.n	100022ee <strlen+0x4a>
100022f6:	e7e1      	b.n	100022bc <strlen+0x18>
100022f8:	fefefeff 	.word	0xfefefeff
100022fc:	80808080 	.word	0x80808080

10002300 <_fini>:
10002300:	b5f8      	push	{r3, r4, r5, r6, r7, lr}
10002302:	46c0      	nop			; (mov r8, r8)
10002304:	0000      	movs	r0, r0
	...

10002308 <__mutex_exit_veneer>:
10002308:	b401      	push	{r0}
1000230a:	4802      	ldr	r0, [pc, #8]	; (10002314 <__mutex_exit_veneer+0xc>)
1000230c:	4684      	mov	ip, r0
1000230e:	bc01      	pop	{r0}
10002310:	4760      	bx	ip
10002312:	bf00      	nop
10002314:	2000014d 	.word	0x2000014d

10002318 <____aeabi_idiv0_veneer>:
10002318:	b401      	push	{r0}
1000231a:	4802      	ldr	r0, [pc, #8]	; (10002324 <____aeabi_idiv0_veneer+0xc>)
1000231c:	4684      	mov	ip, r0
1000231e:	bc01      	pop	{r0}
10002320:	4760      	bx	ip
10002322:	bf00      	nop
10002324:	20000175 	.word	0x20000175

10002328 <__mutex_try_enter_veneer>:
10002328:	b401      	push	{r0}
1000232a:	4802      	ldr	r0, [pc, #8]	; (10002334 <__mutex_try_enter_veneer+0xc>)
1000232c:	4684      	mov	ip, r0
1000232e:	bc01      	pop	{r0}
10002330:	4760      	bx	ip
10002332:	bf00      	nop
10002334:	20000109 	.word	0x20000109

10002338 <__mutex_enter_blocking_veneer>:
10002338:	b401      	push	{r0}
1000233a:	4802      	ldr	r0, [pc, #8]	; (10002344 <__mutex_enter_blocking_veneer+0xc>)
1000233c:	4684      	mov	ip, r0
1000233e:	bc01      	pop	{r0}
10002340:	4760      	bx	ip
10002342:	bf00      	nop
10002344:	200000c1 	.word	0x200000c1

Disassembly of section .data:

200000c0 <mutex_enter_blocking>:
200000c0:	23d0      	movs	r3, #208	; 0xd0
200000c2:	b530      	push	{r4, r5, lr}
200000c4:	2500      	movs	r5, #0
200000c6:	061b      	lsls	r3, r3, #24
200000c8:	2400      	movs	r4, #0
200000ca:	575d      	ldrsb	r5, [r3, r5]
200000cc:	e006      	b.n	200000dc <mutex_enter_blocking+0x1c>
200000ce:	6803      	ldr	r3, [r0, #0]
200000d0:	f3bf 8f5f 	dmb	sy
200000d4:	601c      	str	r4, [r3, #0]
200000d6:	f381 8810 	msr	PRIMASK, r1
200000da:	bf20      	wfe
200000dc:	6802      	ldr	r2, [r0, #0]
200000de:	f3ef 8110 	mrs	r1, PRIMASK
200000e2:	b672      	cpsid	i
200000e4:	6813      	ldr	r3, [r2, #0]
200000e6:	2b00      	cmp	r3, #0
200000e8:	d0fc      	beq.n	200000e4 <mutex_enter_blocking+0x24>
200000ea:	f3bf 8f5f 	dmb	sy
200000ee:	7903      	ldrb	r3, [r0, #4]
200000f0:	2b7f      	cmp	r3, #127	; 0x7f
200000f2:	d9ec      	bls.n	200000ce <mutex_enter_blocking+0xe>
200000f4:	7105      	strb	r5, [r0, #4]
200000f6:	6803      	ldr	r3, [r0, #0]
200000f8:	f3bf 8f5f 	dmb	sy
200000fc:	2200      	movs	r2, #0
200000fe:	601a      	str	r2, [r3, #0]
20000100:	f381 8810 	msr	PRIMASK, r1
20000104:	bd30      	pop	{r4, r5, pc}
20000106:	46c0      	nop			; (mov r8, r8)

20000108 <mutex_try_enter>:
20000108:	0003      	movs	r3, r0
2000010a:	6800      	ldr	r0, [r0, #0]
2000010c:	f3ef 8c10 	mrs	ip, PRIMASK
20000110:	b672      	cpsid	i
20000112:	6802      	ldr	r2, [r0, #0]
20000114:	2a00      	cmp	r2, #0
20000116:	d0fc      	beq.n	20000112 <mutex_try_enter+0xa>
20000118:	f3bf 8f5f 	dmb	sy
2000011c:	2204      	movs	r2, #4
2000011e:	569a      	ldrsb	r2, [r3, r2]
20000120:	2a00      	cmp	r2, #0
20000122:	db0b      	blt.n	2000013c <mutex_try_enter+0x34>
20000124:	2900      	cmp	r1, #0
20000126:	d00f      	beq.n	20000148 <mutex_try_enter+0x40>
20000128:	2000      	movs	r0, #0
2000012a:	600a      	str	r2, [r1, #0]
2000012c:	681b      	ldr	r3, [r3, #0]
2000012e:	f3bf 8f5f 	dmb	sy
20000132:	2200      	movs	r2, #0
20000134:	601a      	str	r2, [r3, #0]
20000136:	f38c 8810 	msr	PRIMASK, ip
2000013a:	4770      	bx	lr
2000013c:	22d0      	movs	r2, #208	; 0xd0
2000013e:	0612      	lsls	r2, r2, #24
20000140:	6812      	ldr	r2, [r2, #0]
20000142:	2001      	movs	r0, #1
20000144:	711a      	strb	r2, [r3, #4]
20000146:	e7f1      	b.n	2000012c <mutex_try_enter+0x24>
20000148:	2000      	movs	r0, #0
2000014a:	e7ef      	b.n	2000012c <mutex_try_enter+0x24>

2000014c <mutex_exit>:
2000014c:	6802      	ldr	r2, [r0, #0]
2000014e:	f3ef 8110 	mrs	r1, PRIMASK
20000152:	b672      	cpsid	i
20000154:	6813      	ldr	r3, [r2, #0]
20000156:	2b00      	cmp	r3, #0
20000158:	d0fc      	beq.n	20000154 <mutex_exit+0x8>
2000015a:	f3bf 8f5f 	dmb	sy
2000015e:	23ff      	movs	r3, #255	; 0xff
20000160:	7103      	strb	r3, [r0, #4]
20000162:	6803      	ldr	r3, [r0, #0]
20000164:	f3bf 8f5f 	dmb	sy
20000168:	2200      	movs	r2, #0
2000016a:	601a      	str	r2, [r3, #0]
2000016c:	f381 8810 	msr	PRIMASK, r1
20000170:	bf40      	sev
20000172:	4770      	bx	lr

20000174 <__aeabi_idiv0>:
20000174:	4770      	bx	lr
20000176:	46c0      	nop			; (mov r8, r8)

20000178 <striped_spin_lock_num>:
20000178:	0010 0000                                   ....

2000017c <irq_handler_chain_slots>:
2000017c:	00000000 	.word	0x00000000
20000180:	00010000 	.word	0x00010000
	...
2000018c:	00020000 	.word	0x00020000
	...
20000198:	00030000 	.word	0x00030000
	...
200001a4:	00ff0000 	.word	0x00ff0000
200001a8:	00000000 	.word	0x00000000

200001ac <irq_handler_chain_first_slot>:
200001ac:	b500      	push	{lr}
200001ae:	6848      	ldr	r0, [r1, #4]
200001b0:	3101      	adds	r1, #1
200001b2:	468e      	mov	lr, r1
200001b4:	4700      	bx	r0

200001b6 <irq_handler_chain_remove_tail>:
200001b6:	4670      	mov	r0, lr
200001b8:	3809      	subs	r0, #9
200001ba:	4901      	ldr	r1, [pc, #4]	; (200001c0 <irq_handler_chain_remove_tail+0xa>)
200001bc:	4788      	blx	r1
200001be:	bd00      	pop	{pc}
200001c0:	10000725 	.word	0x10000725

200001c4 <default_alarm_pool>:
200001c4:	200001dc 00000000 20000240 2000059c     ... ....@.. ... 
	...

200001dc <default_alarm_pool_heap>:
200001dc:	200005ac 00000000 00000000 00000010     ... ............
200001ec:	00000000                                ....

200001f0 <aeabi_bits_funcs>:
200001f0:	00003350 	.word	0x00003350
200001f4:	0000334c 	.word	0x0000334c
200001f8:	00003354 	.word	0x00003354
200001fc:	00003352 	.word	0x00003352

20000200 <aeabi_bits_funcs_end>:
20000200:	0000534d 	.word	0x0000534d
20000204:	0000434d 	.word	0x0000434d
20000208:	00003453 	.word	0x00003453
2000020c:	00003443 	.word	0x00003443

20000210 <stdio_uart>:
20000210:	10001ffd 00000000 10002049 00000000     ........I ......
20000220:	00000100                                ....

20000224 <print_mutex>:
	...

2000022c <__mutex_array_end>:
2000022c:	10001d0d 	.word	0x10001d0d
20000230:	10001a25 	.word	0x10001a25
20000234:	10001ae5 	.word	0x10001ae5
20000238:	10001c7d 	.word	0x10001c7d

2000023c <__frame_dummy_init_array_entry>:
2000023c:	100002ed                                ....
