
C:/Users/Administrator.ADMINTR-QA7FV09/Documents/College/Microprocessors/pico-apps/examples/blink_c/blink_c.elf:     file format elf32-littlearm

Sections:
Idx Name          Size      VMA       LMA       File off  Algn
  0 .boot2        00000100  10000000  10000000  00001000  2**0
                  CONTENTS, ALLOC, LOAD, READONLY, CODE
  1 .text         00001ce8  10000100  10000100  00001100  2**3
                  CONTENTS, ALLOC, LOAD, READONLY, CODE
  2 .rodata       000000f0  10001de8  10001de8  00002de8  2**2
                  CONTENTS, ALLOC, LOAD, READONLY, DATA
  3 .binary_info  00000020  10001ed8  10001ed8  00002ed8  2**2
                  CONTENTS, ALLOC, LOAD, DATA
  4 .ram_vector_table 000000c0  20000000  20000000  0000322c  2**2
                  CONTENTS
  5 .data         0000016c  200000c0  10001ef8  000030c0  2**4
                  CONTENTS, ALLOC, LOAD, CODE
  6 .uninitialized_data 00000000  2000022c  2000022c  000032ec  2**0
                  CONTENTS
  7 .scratch_x    00000000  20040000  20040000  000032ec  2**0
                  CONTENTS
  8 .scratch_y    00000000  20041000  20041000  000032ec  2**0
                  CONTENTS
  9 .bss          000003cc  20000230  20000230  00003230  2**3
                  ALLOC
 10 .heap         00000800  200005fc  200005fc  000032ec  2**2
                  CONTENTS, READONLY
 11 .stack_dummy  00000800  20041000  20041000  00003b00  2**5
                  CONTENTS, READONLY
 12 .ARM.attributes 00000028  00000000  00000000  00004300  2**0
                  CONTENTS, READONLY
 13 .comment      00000049  00000000  00000000  00004328  2**0
                  CONTENTS, READONLY
 14 .debug_frame  00000028  00000000  00000000  00004374  2**2
                  CONTENTS, READONLY, DEBUGGING, OCTETS

C:/Users/Administrator.ADMINTR-QA7FV09/Documents/College/Microprocessors/pico-apps/examples/blink_c/blink_c.elf:     file format elf32-littlearm


Disassembly of section .boot2:

10000000 <__boot2_start__>:
10000000:	4b32b500 	.word	0x4b32b500
10000004:	60582021 	.word	0x60582021
10000008:	21026898 	.word	0x21026898
1000000c:	60984388 	.word	0x60984388
10000010:	611860d8 	.word	0x611860d8
10000014:	4b2e6158 	.word	0x4b2e6158
10000018:	60992100 	.word	0x60992100
1000001c:	61592102 	.word	0x61592102
10000020:	22f02101 	.word	0x22f02101
10000024:	492b5099 	.word	0x492b5099
10000028:	21016019 	.word	0x21016019
1000002c:	20356099 	.word	0x20356099
10000030:	f844f000 	.word	0xf844f000
10000034:	42902202 	.word	0x42902202
10000038:	2106d014 	.word	0x2106d014
1000003c:	f0006619 	.word	0xf0006619
10000040:	6e19f834 	.word	0x6e19f834
10000044:	66192101 	.word	0x66192101
10000048:	66182000 	.word	0x66182000
1000004c:	f000661a 	.word	0xf000661a
10000050:	6e19f82c 	.word	0x6e19f82c
10000054:	6e196e19 	.word	0x6e196e19
10000058:	f0002005 	.word	0xf0002005
1000005c:	2101f82f 	.word	0x2101f82f
10000060:	d1f94208 	.word	0xd1f94208
10000064:	60992100 	.word	0x60992100
10000068:	6019491b 	.word	0x6019491b
1000006c:	60592100 	.word	0x60592100
10000070:	481b491a 	.word	0x481b491a
10000074:	21016001 	.word	0x21016001
10000078:	21eb6099 	.word	0x21eb6099
1000007c:	21a06619 	.word	0x21a06619
10000080:	f0006619 	.word	0xf0006619
10000084:	2100f812 	.word	0x2100f812
10000088:	49166099 	.word	0x49166099
1000008c:	60014814 	.word	0x60014814
10000090:	60992101 	.word	0x60992101
10000094:	2800bc01 	.word	0x2800bc01
10000098:	4700d000 	.word	0x4700d000
1000009c:	49134812 	.word	0x49134812
100000a0:	c8036008 	.word	0xc8036008
100000a4:	8808f380 	.word	0x8808f380
100000a8:	b5034708 	.word	0xb5034708
100000ac:	20046a99 	.word	0x20046a99
100000b0:	d0fb4201 	.word	0xd0fb4201
100000b4:	42012001 	.word	0x42012001
100000b8:	bd03d1f8 	.word	0xbd03d1f8
100000bc:	6618b502 	.word	0x6618b502
100000c0:	f7ff6618 	.word	0xf7ff6618
100000c4:	6e18fff2 	.word	0x6e18fff2
100000c8:	bd026e18 	.word	0xbd026e18
100000cc:	40020000 	.word	0x40020000
100000d0:	18000000 	.word	0x18000000
100000d4:	00070000 	.word	0x00070000
100000d8:	005f0300 	.word	0x005f0300
100000dc:	00002221 	.word	0x00002221
100000e0:	180000f4 	.word	0x180000f4
100000e4:	a0002022 	.word	0xa0002022
100000e8:	10000100 	.word	0x10000100
100000ec:	e000ed08 	.word	0xe000ed08
	...
100000fc:	7a4eb274 	.word	0x7a4eb274

Disassembly of section .text:

10000100 <__VECTOR_TABLE>:
10000100:	20042000 	.word	0x20042000
10000104:	100001f7 	.word	0x100001f7
10000108:	100001c3 	.word	0x100001c3
1000010c:	100001c5 	.word	0x100001c5
10000110:	100001c1 	.word	0x100001c1
10000114:	100001c1 	.word	0x100001c1
10000118:	100001c1 	.word	0x100001c1
1000011c:	100001c1 	.word	0x100001c1
10000120:	100001c1 	.word	0x100001c1
10000124:	100001c1 	.word	0x100001c1
10000128:	100001c1 	.word	0x100001c1
1000012c:	100001c7 	.word	0x100001c7
10000130:	100001c1 	.word	0x100001c1
10000134:	100001c1 	.word	0x100001c1
10000138:	100001c9 	.word	0x100001c9
1000013c:	100001cb 	.word	0x100001cb
10000140:	100001cd 	.word	0x100001cd
10000144:	100001cd 	.word	0x100001cd
10000148:	100001cd 	.word	0x100001cd
1000014c:	100001cd 	.word	0x100001cd
10000150:	100001cd 	.word	0x100001cd
10000154:	100001cd 	.word	0x100001cd
10000158:	100001cd 	.word	0x100001cd
1000015c:	100001cd 	.word	0x100001cd
10000160:	100001cd 	.word	0x100001cd
10000164:	100001cd 	.word	0x100001cd
10000168:	100001cd 	.word	0x100001cd
1000016c:	100001cd 	.word	0x100001cd
10000170:	100001cd 	.word	0x100001cd
10000174:	100001cd 	.word	0x100001cd
10000178:	100001cd 	.word	0x100001cd
1000017c:	100001cd 	.word	0x100001cd
10000180:	100001cd 	.word	0x100001cd
10000184:	100001cd 	.word	0x100001cd
10000188:	100001cd 	.word	0x100001cd
1000018c:	100001cd 	.word	0x100001cd
10000190:	100001cd 	.word	0x100001cd
10000194:	100001cd 	.word	0x100001cd
10000198:	100001cd 	.word	0x100001cd
1000019c:	100001cd 	.word	0x100001cd
100001a0:	100001cd 	.word	0x100001cd
100001a4:	100001cd 	.word	0x100001cd
100001a8:	100001cd 	.word	0x100001cd
100001ac:	100001cd 	.word	0x100001cd
100001b0:	100001cd 	.word	0x100001cd
100001b4:	100001cd 	.word	0x100001cd
100001b8:	100001cd 	.word	0x100001cd
100001bc:	100001cd 	.word	0x100001cd

100001c0 <isr_invalid>:
100001c0:	be00      	bkpt	0x0000

100001c2 <isr_nmi>:
100001c2:	be00      	bkpt	0x0000

100001c4 <isr_hardfault>:
100001c4:	be00      	bkpt	0x0000

100001c6 <isr_svcall>:
100001c6:	be00      	bkpt	0x0000

100001c8 <isr_pendsv>:
100001c8:	be00      	bkpt	0x0000

100001ca <isr_systick>:
100001ca:	be00      	bkpt	0x0000

100001cc <__unhandled_user_irq>:
100001cc:	f000 f84b 	bl	10000266 <__get_current_exception>
100001d0:	3810      	subs	r0, #16

100001d2 <unhandled_user_irq_num_in_r0>:
100001d2:	be00      	bkpt	0x0000

100001d4 <binary_info_header>:
100001d4:	7188ebf2 	.word	0x7188ebf2
100001d8:	10001ed8 	.word	0x10001ed8
100001dc:	10001ef8 	.word	0x10001ef8
100001e0:	10000234 	.word	0x10000234
100001e4:	e71aa390 	.word	0xe71aa390

100001e8 <_entry_point>:
100001e8:	2000      	movs	r0, #0
100001ea:	4921      	ldr	r1, [pc, #132]	; (10000270 <__get_current_exception+0xa>)
100001ec:	6008      	str	r0, [r1, #0]
100001ee:	c806      	ldmia	r0!, {r1, r2}
100001f0:	f381 8808 	msr	MSP, r1
100001f4:	4710      	bx	r2

100001f6 <_reset_handler>:
100001f6:	481f      	ldr	r0, [pc, #124]	; (10000274 <__get_current_exception+0xe>)
100001f8:	6800      	ldr	r0, [r0, #0]
100001fa:	2800      	cmp	r0, #0
100001fc:	d12f      	bne.n	1000025e <hold_non_core0_in_bootrom>
100001fe:	a40d      	add	r4, pc, #52	; (adr r4, 10000234 <data_cpy_table>)
10000200:	cc0e      	ldmia	r4!, {r1, r2, r3}
10000202:	2900      	cmp	r1, #0
10000204:	d002      	beq.n	1000020c <_reset_handler+0x16>
10000206:	f000 f812 	bl	1000022e <data_cpy>
1000020a:	e7f9      	b.n	10000200 <_reset_handler+0xa>
1000020c:	491a      	ldr	r1, [pc, #104]	; (10000278 <__get_current_exception+0x12>)
1000020e:	4a1b      	ldr	r2, [pc, #108]	; (1000027c <__get_current_exception+0x16>)
10000210:	2000      	movs	r0, #0
10000212:	e000      	b.n	10000216 <bss_fill_test>

10000214 <bss_fill_loop>:
10000214:	c101      	stmia	r1!, {r0}

10000216 <bss_fill_test>:
10000216:	4291      	cmp	r1, r2
10000218:	d1fc      	bne.n	10000214 <bss_fill_loop>

1000021a <platform_entry>:
1000021a:	4919      	ldr	r1, [pc, #100]	; (10000280 <__get_current_exception+0x1a>)
1000021c:	4788      	blx	r1
1000021e:	4919      	ldr	r1, [pc, #100]	; (10000284 <__get_current_exception+0x1e>)
10000220:	4788      	blx	r1
10000222:	4919      	ldr	r1, [pc, #100]	; (10000288 <__get_current_exception+0x22>)
10000224:	4788      	blx	r1
10000226:	be00      	bkpt	0x0000
10000228:	e7fd      	b.n	10000226 <platform_entry+0xc>

1000022a <data_cpy_loop>:
1000022a:	c901      	ldmia	r1!, {r0}
1000022c:	c201      	stmia	r2!, {r0}

1000022e <data_cpy>:
1000022e:	429a      	cmp	r2, r3
10000230:	d3fb      	bcc.n	1000022a <data_cpy_loop>
10000232:	4770      	bx	lr

10000234 <data_cpy_table>:
10000234:	10001ef8 	.word	0x10001ef8
10000238:	200000c0 	.word	0x200000c0
1000023c:	2000022c 	.word	0x2000022c
10000240:	10002064 	.word	0x10002064
10000244:	20040000 	.word	0x20040000
10000248:	20040000 	.word	0x20040000
1000024c:	10002064 	.word	0x10002064
10000250:	20041000 	.word	0x20041000
10000254:	20041000 	.word	0x20041000
10000258:	00000000 	.word	0x00000000
1000025c:	4770      	bx	lr

1000025e <hold_non_core0_in_bootrom>:
1000025e:	480b      	ldr	r0, [pc, #44]	; (1000028c <__get_current_exception+0x26>)
10000260:	f001 fafa 	bl	10001858 <rom_func_lookup>
10000264:	4700      	bx	r0

10000266 <__get_current_exception>:
10000266:	f3ef 8005 	mrs	r0, IPSR
1000026a:	b2c0      	uxtb	r0, r0
1000026c:	4770      	bx	lr
1000026e:	0000      	.short	0x0000
10000270:	e000ed08 	.word	0xe000ed08
10000274:	d0000000 	.word	0xd0000000
10000278:	20000230 	.word	0x20000230
1000027c:	200005fc 	.word	0x200005fc
10000280:	10001335 	.word	0x10001335
10000284:	1000030d 	.word	0x1000030d
10000288:	10001425 	.word	0x10001425
1000028c:	00005657 	.word	0x00005657

10000290 <__bi_50>:
10000290:	50520006 5360b3ab 10001e88              ..RP..`S....

1000029c <__bi_38>:
1000029c:	50520006 02031c86 10001e80              ..RP........

100002a8 <__bi_30>:
100002a8:	50520006 9da22254 10001e98              ..RPT"......

100002b4 <__bi_22>:
100002b4:	50520005 68f465de 10002064              ..RP.e.hd ..

100002c0 <_init>:
100002c0:	b5f8      	push	{r3, r4, r5, r6, r7, lr}
100002c2:	46c0      	nop			; (mov r8, r8)

100002c4 <__do_global_dtors_aux>:
100002c4:	b510      	push	{r4, lr}
100002c6:	4c06      	ldr	r4, [pc, #24]	; (100002e0 <__do_global_dtors_aux+0x1c>)
100002c8:	7823      	ldrb	r3, [r4, #0]
100002ca:	2b00      	cmp	r3, #0
100002cc:	d107      	bne.n	100002de <__do_global_dtors_aux+0x1a>
100002ce:	4b05      	ldr	r3, [pc, #20]	; (100002e4 <__do_global_dtors_aux+0x20>)
100002d0:	2b00      	cmp	r3, #0
100002d2:	d002      	beq.n	100002da <__do_global_dtors_aux+0x16>
100002d4:	4804      	ldr	r0, [pc, #16]	; (100002e8 <__do_global_dtors_aux+0x24>)
100002d6:	e000      	b.n	100002da <__do_global_dtors_aux+0x16>
100002d8:	bf00      	nop
100002da:	2301      	movs	r3, #1
100002dc:	7023      	strb	r3, [r4, #0]
100002de:	bd10      	pop	{r4, pc}
100002e0:	20000530 	.word	0x20000530
100002e4:	00000000 	.word	0x00000000
100002e8:	10001de8 	.word	0x10001de8

100002ec <frame_dummy>:
100002ec:	4b04      	ldr	r3, [pc, #16]	; (10000300 <frame_dummy+0x14>)
100002ee:	b510      	push	{r4, lr}
100002f0:	2b00      	cmp	r3, #0
100002f2:	d003      	beq.n	100002fc <frame_dummy+0x10>
100002f4:	4903      	ldr	r1, [pc, #12]	; (10000304 <frame_dummy+0x18>)
100002f6:	4804      	ldr	r0, [pc, #16]	; (10000308 <frame_dummy+0x1c>)
100002f8:	e000      	b.n	100002fc <frame_dummy+0x10>
100002fa:	bf00      	nop
100002fc:	bd10      	pop	{r4, pc}
100002fe:	46c0      	nop			; (mov r8, r8)
10000300:	00000000 	.word	0x00000000
10000304:	20000534 	.word	0x20000534
10000308:	10001de8 	.word	0x10001de8

1000030c <main>:
1000030c:	b570      	push	{r4, r5, r6, lr}
1000030e:	24d0      	movs	r4, #208	; 0xd0
10000310:	2580      	movs	r5, #128	; 0x80
10000312:	2019      	movs	r0, #25
10000314:	0624      	lsls	r4, r4, #24
10000316:	04ad      	lsls	r5, r5, #18
10000318:	f000 f80c 	bl	10000334 <gpio_init>
1000031c:	6265      	str	r5, [r4, #36]	; 0x24
1000031e:	20fa      	movs	r0, #250	; 0xfa
10000320:	6165      	str	r5, [r4, #20]
10000322:	0040      	lsls	r0, r0, #1
10000324:	f000 fca6 	bl	10000c74 <sleep_ms>
10000328:	20fa      	movs	r0, #250	; 0xfa
1000032a:	61a5      	str	r5, [r4, #24]
1000032c:	0040      	lsls	r0, r0, #1
1000032e:	f000 fca1 	bl	10000c74 <sleep_ms>
10000332:	e7f4      	b.n	1000031e <main+0x12>

10000334 <gpio_init>:
10000334:	2301      	movs	r3, #1
10000336:	22d0      	movs	r2, #208	; 0xd0
10000338:	4083      	lsls	r3, r0
1000033a:	0612      	lsls	r2, r2, #24
1000033c:	6293      	str	r3, [r2, #40]	; 0x28
1000033e:	6193      	str	r3, [r2, #24]
10000340:	4a09      	ldr	r2, [pc, #36]	; (10000368 <gpio_init+0x34>)
10000342:	0083      	lsls	r3, r0, #2
10000344:	4694      	mov	ip, r2
10000346:	2240      	movs	r2, #64	; 0x40
10000348:	4463      	add	r3, ip
1000034a:	6819      	ldr	r1, [r3, #0]
1000034c:	00c0      	lsls	r0, r0, #3
1000034e:	404a      	eors	r2, r1
10000350:	21c0      	movs	r1, #192	; 0xc0
10000352:	4011      	ands	r1, r2
10000354:	2280      	movs	r2, #128	; 0x80
10000356:	0152      	lsls	r2, r2, #5
10000358:	4313      	orrs	r3, r2
1000035a:	6019      	str	r1, [r3, #0]
1000035c:	4b03      	ldr	r3, [pc, #12]	; (1000036c <gpio_init+0x38>)
1000035e:	469c      	mov	ip, r3
10000360:	2305      	movs	r3, #5
10000362:	4460      	add	r0, ip
10000364:	6043      	str	r3, [r0, #4]
10000366:	4770      	bx	lr
10000368:	4001c004 	.word	0x4001c004
1000036c:	40014000 	.word	0x40014000

10000370 <hw_claim_or_assert>:
10000370:	b570      	push	{r4, r5, r6, lr}
10000372:	f3ef 8c10 	mrs	ip, PRIMASK
10000376:	b672      	cpsid	i
10000378:	4d0d      	ldr	r5, [pc, #52]	; (100003b0 <hw_claim_or_assert+0x40>)
1000037a:	682b      	ldr	r3, [r5, #0]
1000037c:	2b00      	cmp	r3, #0
1000037e:	d0fc      	beq.n	1000037a <hw_claim_or_assert+0xa>
10000380:	f3bf 8f5f 	dmb	sy
10000384:	2407      	movs	r4, #7
10000386:	08cb      	lsrs	r3, r1, #3
10000388:	18c6      	adds	r6, r0, r3
1000038a:	5cc0      	ldrb	r0, [r0, r3]
1000038c:	2301      	movs	r3, #1
1000038e:	400c      	ands	r4, r1
10000390:	40a3      	lsls	r3, r4
10000392:	001c      	movs	r4, r3
10000394:	4004      	ands	r4, r0
10000396:	4203      	tst	r3, r0
10000398:	d107      	bne.n	100003aa <hw_claim_or_assert+0x3a>
1000039a:	4303      	orrs	r3, r0
1000039c:	7033      	strb	r3, [r6, #0]
1000039e:	f3bf 8f5f 	dmb	sy
100003a2:	602c      	str	r4, [r5, #0]
100003a4:	f38c 8810 	msr	PRIMASK, ip
100003a8:	bd70      	pop	{r4, r5, r6, pc}
100003aa:	0010      	movs	r0, r2
100003ac:	f001 f83c 	bl	10001428 <panic>
100003b0:	d000012c 	.word	0xd000012c

100003b4 <running_on_fpga>:
100003b4:	4b02      	ldr	r3, [pc, #8]	; (100003c0 <running_on_fpga+0xc>)
100003b6:	6818      	ldr	r0, [r3, #0]
100003b8:	0780      	lsls	r0, r0, #30
100003ba:	0fc0      	lsrs	r0, r0, #31
100003bc:	4770      	bx	lr
100003be:	46c0      	nop			; (mov r8, r8)
100003c0:	4006c000 	.word	0x4006c000

100003c4 <spin_locks_reset>:
100003c4:	2100      	movs	r1, #0
100003c6:	4b04      	ldr	r3, [pc, #16]	; (100003d8 <spin_locks_reset+0x14>)
100003c8:	4a04      	ldr	r2, [pc, #16]	; (100003dc <spin_locks_reset+0x18>)
100003ca:	f3bf 8f5f 	dmb	sy
100003ce:	c302      	stmia	r3!, {r1}
100003d0:	4293      	cmp	r3, r2
100003d2:	d1fa      	bne.n	100003ca <spin_locks_reset+0x6>
100003d4:	4770      	bx	lr
100003d6:	46c0      	nop			; (mov r8, r8)
100003d8:	d0000100 	.word	0xd0000100
100003dc:	d0000180 	.word	0xd0000180

100003e0 <next_striped_spin_lock_num>:
100003e0:	4a04      	ldr	r2, [pc, #16]	; (100003f4 <next_striped_spin_lock_num+0x14>)
100003e2:	7810      	ldrb	r0, [r2, #0]
100003e4:	1c43      	adds	r3, r0, #1
100003e6:	b2db      	uxtb	r3, r3
100003e8:	2b17      	cmp	r3, #23
100003ea:	d900      	bls.n	100003ee <next_striped_spin_lock_num+0xe>
100003ec:	2310      	movs	r3, #16
100003ee:	7013      	strb	r3, [r2, #0]
100003f0:	4770      	bx	lr
100003f2:	46c0      	nop			; (mov r8, r8)
100003f4:	20000178 	.word	0x20000178

100003f8 <irq_set_enabled>:
100003f8:	2301      	movs	r3, #1
100003fa:	4083      	lsls	r3, r0
100003fc:	2900      	cmp	r1, #0
100003fe:	d004      	beq.n	1000040a <irq_set_enabled+0x12>
10000400:	4a03      	ldr	r2, [pc, #12]	; (10000410 <irq_set_enabled+0x18>)
10000402:	6013      	str	r3, [r2, #0]
10000404:	4a03      	ldr	r2, [pc, #12]	; (10000414 <irq_set_enabled+0x1c>)
10000406:	6013      	str	r3, [r2, #0]
10000408:	4770      	bx	lr
1000040a:	4a03      	ldr	r2, [pc, #12]	; (10000418 <irq_set_enabled+0x20>)
1000040c:	6013      	str	r3, [r2, #0]
1000040e:	e7fb      	b.n	10000408 <irq_set_enabled+0x10>
10000410:	e000e280 	.word	0xe000e280
10000414:	e000e100 	.word	0xe000e100
10000418:	e000e180 	.word	0xe000e180

1000041c <irq_get_vtable_handler>:
1000041c:	4b02      	ldr	r3, [pc, #8]	; (10000428 <irq_get_vtable_handler+0xc>)
1000041e:	3010      	adds	r0, #16
10000420:	689b      	ldr	r3, [r3, #8]
10000422:	0080      	lsls	r0, r0, #2
10000424:	58c0      	ldr	r0, [r0, r3]
10000426:	4770      	bx	lr
10000428:	e000ed00 	.word	0xe000ed00

1000042c <irq_set_exclusive_handler>:
1000042c:	b570      	push	{r4, r5, r6, lr}
1000042e:	000d      	movs	r5, r1
10000430:	f3ef 8610 	mrs	r6, PRIMASK
10000434:	b672      	cpsid	i
10000436:	4a0f      	ldr	r2, [pc, #60]	; (10000474 <irq_set_exclusive_handler+0x48>)
10000438:	6813      	ldr	r3, [r2, #0]
1000043a:	2b00      	cmp	r3, #0
1000043c:	d0fc      	beq.n	10000438 <irq_set_exclusive_handler+0xc>
1000043e:	f3bf 8f5f 	dmb	sy
10000442:	4b0d      	ldr	r3, [pc, #52]	; (10000478 <irq_set_exclusive_handler+0x4c>)
10000444:	3010      	adds	r0, #16
10000446:	689b      	ldr	r3, [r3, #8]
10000448:	0084      	lsls	r4, r0, #2
1000044a:	591b      	ldr	r3, [r3, r4]
1000044c:	4a0b      	ldr	r2, [pc, #44]	; (1000047c <irq_set_exclusive_handler+0x50>)
1000044e:	4293      	cmp	r3, r2
10000450:	d003      	beq.n	1000045a <irq_set_exclusive_handler+0x2e>
10000452:	429d      	cmp	r5, r3
10000454:	d001      	beq.n	1000045a <irq_set_exclusive_handler+0x2e>
10000456:	f000 ffff 	bl	10001458 <hard_assertion_failure>
1000045a:	4b07      	ldr	r3, [pc, #28]	; (10000478 <irq_set_exclusive_handler+0x4c>)
1000045c:	689b      	ldr	r3, [r3, #8]
1000045e:	511d      	str	r5, [r3, r4]
10000460:	f3bf 8f5f 	dmb	sy
10000464:	f3bf 8f5f 	dmb	sy
10000468:	2200      	movs	r2, #0
1000046a:	4b02      	ldr	r3, [pc, #8]	; (10000474 <irq_set_exclusive_handler+0x48>)
1000046c:	601a      	str	r2, [r3, #0]
1000046e:	f386 8810 	msr	PRIMASK, r6
10000472:	bd70      	pop	{r4, r5, r6, pc}
10000474:	d0000124 	.word	0xd0000124
10000478:	e000ed00 	.word	0xe000ed00
1000047c:	100001cd 	.word	0x100001cd

10000480 <irq_remove_handler>:
10000480:	b5f0      	push	{r4, r5, r6, r7, lr}
10000482:	46de      	mov	lr, fp
10000484:	4657      	mov	r7, sl
10000486:	464e      	mov	r6, r9
10000488:	4645      	mov	r5, r8
1000048a:	b5e0      	push	{r5, r6, r7, lr}
1000048c:	000c      	movs	r4, r1
1000048e:	b083      	sub	sp, #12
10000490:	f3ef 8a10 	mrs	sl, PRIMASK
10000494:	b672      	cpsid	i
10000496:	4a5a      	ldr	r2, [pc, #360]	; (10000600 <irq_remove_handler+0x180>)
10000498:	6813      	ldr	r3, [r2, #0]
1000049a:	2b00      	cmp	r3, #0
1000049c:	d0fc      	beq.n	10000498 <irq_remove_handler+0x18>
1000049e:	f3bf 8f5f 	dmb	sy
100004a2:	2210      	movs	r2, #16
100004a4:	4691      	mov	r9, r2
100004a6:	4481      	add	r9, r0
100004a8:	464a      	mov	r2, r9
100004aa:	4b56      	ldr	r3, [pc, #344]	; (10000604 <irq_remove_handler+0x184>)
100004ac:	0096      	lsls	r6, r2, #2
100004ae:	689b      	ldr	r3, [r3, #8]
100004b0:	599d      	ldr	r5, [r3, r6]
100004b2:	4b55      	ldr	r3, [pc, #340]	; (10000608 <irq_remove_handler+0x188>)
100004b4:	4698      	mov	r8, r3
100004b6:	429d      	cmp	r5, r3
100004b8:	d005      	beq.n	100004c6 <irq_remove_handler+0x46>
100004ba:	42a5      	cmp	r5, r4
100004bc:	d016      	beq.n	100004ec <irq_remove_handler+0x6c>
100004be:	4f53      	ldr	r7, [pc, #332]	; (1000060c <irq_remove_handler+0x18c>)
100004c0:	1beb      	subs	r3, r5, r7
100004c2:	2b2f      	cmp	r3, #47	; 0x2f
100004c4:	d914      	bls.n	100004f0 <irq_remove_handler+0x70>
100004c6:	4b4f      	ldr	r3, [pc, #316]	; (10000604 <irq_remove_handler+0x184>)
100004c8:	689b      	ldr	r3, [r3, #8]
100004ca:	519d      	str	r5, [r3, r6]
100004cc:	f3bf 8f5f 	dmb	sy
100004d0:	f3bf 8f5f 	dmb	sy
100004d4:	2200      	movs	r2, #0
100004d6:	4b4a      	ldr	r3, [pc, #296]	; (10000600 <irq_remove_handler+0x180>)
100004d8:	601a      	str	r2, [r3, #0]
100004da:	f38a 8810 	msr	PRIMASK, sl
100004de:	b003      	add	sp, #12
100004e0:	bcf0      	pop	{r4, r5, r6, r7}
100004e2:	46bb      	mov	fp, r7
100004e4:	46b2      	mov	sl, r6
100004e6:	46a9      	mov	r9, r5
100004e8:	46a0      	mov	r8, r4
100004ea:	bdf0      	pop	{r4, r5, r6, r7, pc}
100004ec:	001d      	movs	r5, r3
100004ee:	e7ea      	b.n	100004c6 <irq_remove_handler+0x46>
100004f0:	2301      	movs	r3, #1
100004f2:	4083      	lsls	r3, r0
100004f4:	469b      	mov	fp, r3
100004f6:	465a      	mov	r2, fp
100004f8:	4b45      	ldr	r3, [pc, #276]	; (10000610 <irq_remove_handler+0x190>)
100004fa:	681b      	ldr	r3, [r3, #0]
100004fc:	401a      	ands	r2, r3
100004fe:	9200      	str	r2, [sp, #0]
10000500:	465a      	mov	r2, fp
10000502:	4b44      	ldr	r3, [pc, #272]	; (10000614 <irq_remove_handler+0x194>)
10000504:	601a      	str	r2, [r3, #0]
10000506:	f3bf 8f5f 	dmb	sy
1000050a:	f7ff feac 	bl	10000266 <__get_current_exception>
1000050e:	9001      	str	r0, [sp, #4]
10000510:	2800      	cmp	r0, #0
10000512:	d003      	beq.n	1000051c <irq_remove_handler+0x9c>
10000514:	4581      	cmp	r9, r0
10000516:	d001      	beq.n	1000051c <irq_remove_handler+0x9c>
10000518:	f000 ff9e 	bl	10001458 <hard_assertion_failure>
1000051c:	2301      	movs	r3, #1
1000051e:	002a      	movs	r2, r5
10000520:	439a      	bics	r2, r3
10000522:	6893      	ldr	r3, [r2, #8]
10000524:	429c      	cmp	r4, r3
10000526:	d108      	bne.n	1000053a <irq_remove_handler+0xba>
10000528:	e05f      	b.n	100005ea <irq_remove_handler+0x16a>
1000052a:	004b      	lsls	r3, r1, #1
1000052c:	185b      	adds	r3, r3, r1
1000052e:	009b      	lsls	r3, r3, #2
10000530:	18fb      	adds	r3, r7, r3
10000532:	6899      	ldr	r1, [r3, #8]
10000534:	42a1      	cmp	r1, r4
10000536:	d011      	beq.n	1000055c <irq_remove_handler+0xdc>
10000538:	001a      	movs	r2, r3
1000053a:	2106      	movs	r1, #6
1000053c:	5651      	ldrsb	r1, [r2, r1]
1000053e:	2900      	cmp	r1, #0
10000540:	daf3      	bge.n	1000052a <irq_remove_handler+0xaa>
10000542:	9b00      	ldr	r3, [sp, #0]
10000544:	2b00      	cmp	r3, #0
10000546:	d005      	beq.n	10000554 <irq_remove_handler+0xd4>
10000548:	465a      	mov	r2, fp
1000054a:	4b33      	ldr	r3, [pc, #204]	; (10000618 <irq_remove_handler+0x198>)
1000054c:	601a      	str	r2, [r3, #0]
1000054e:	4b30      	ldr	r3, [pc, #192]	; (10000610 <irq_remove_handler+0x190>)
10000550:	601a      	str	r2, [r3, #0]
10000552:	e7b8      	b.n	100004c6 <irq_remove_handler+0x46>
10000554:	465a      	mov	r2, fp
10000556:	4b2f      	ldr	r3, [pc, #188]	; (10000614 <irq_remove_handler+0x194>)
10000558:	601a      	str	r2, [r3, #0]
1000055a:	e7b4      	b.n	100004c6 <irq_remove_handler+0x46>
1000055c:	2106      	movs	r1, #6
1000055e:	5659      	ldrsb	r1, [r3, r1]
10000560:	2900      	cmp	r1, #0
10000562:	db21      	blt.n	100005a8 <irq_remove_handler+0x128>
10000564:	004a      	lsls	r2, r1, #1
10000566:	1850      	adds	r0, r2, r1
10000568:	0080      	lsls	r0, r0, #2
1000056a:	183c      	adds	r4, r7, r0
1000056c:	4680      	mov	r8, r0
1000056e:	68a0      	ldr	r0, [r4, #8]
10000570:	6098      	str	r0, [r3, #8]
10000572:	79e0      	ldrb	r0, [r4, #7]
10000574:	71d8      	strb	r0, [r3, #7]
10000576:	2006      	movs	r0, #6
10000578:	5620      	ldrsb	r0, [r4, r0]
1000057a:	7198      	strb	r0, [r3, #6]
1000057c:	2800      	cmp	r0, #0
1000057e:	db24      	blt.n	100005ca <irq_remove_handler+0x14a>
10000580:	88a4      	ldrh	r4, [r4, #4]
10000582:	1af8      	subs	r0, r7, r3
10000584:	0564      	lsls	r4, r4, #21
10000586:	1524      	asrs	r4, r4, #20
10000588:	4444      	add	r4, r8
1000058a:	1900      	adds	r0, r0, r4
1000058c:	24e0      	movs	r4, #224	; 0xe0
1000058e:	0500      	lsls	r0, r0, #20
10000590:	0d40      	lsrs	r0, r0, #21
10000592:	0224      	lsls	r4, r4, #8
10000594:	4320      	orrs	r0, r4
10000596:	8098      	strh	r0, [r3, #4]
10000598:	1852      	adds	r2, r2, r1
1000059a:	4b20      	ldr	r3, [pc, #128]	; (1000061c <irq_remove_handler+0x19c>)
1000059c:	0092      	lsls	r2, r2, #2
1000059e:	18bf      	adds	r7, r7, r2
100005a0:	781a      	ldrb	r2, [r3, #0]
100005a2:	7019      	strb	r1, [r3, #0]
100005a4:	71ba      	strb	r2, [r7, #6]
100005a6:	e7cc      	b.n	10000542 <irq_remove_handler+0xc2>
100005a8:	9901      	ldr	r1, [sp, #4]
100005aa:	2900      	cmp	r1, #0
100005ac:	d110      	bne.n	100005d0 <irq_remove_handler+0x150>
100005ae:	31ff      	adds	r1, #255	; 0xff
100005b0:	7191      	strb	r1, [r2, #6]
100005b2:	491b      	ldr	r1, [pc, #108]	; (10000620 <irq_remove_handler+0x1a0>)
100005b4:	8091      	strh	r1, [r2, #4]
100005b6:	4919      	ldr	r1, [pc, #100]	; (1000061c <irq_remove_handler+0x19c>)
100005b8:	780a      	ldrb	r2, [r1, #0]
100005ba:	719a      	strb	r2, [r3, #6]
100005bc:	4a19      	ldr	r2, [pc, #100]	; (10000624 <irq_remove_handler+0x1a4>)
100005be:	1bdb      	subs	r3, r3, r7
100005c0:	415b      	adcs	r3, r3
100005c2:	435a      	muls	r2, r3
100005c4:	0d12      	lsrs	r2, r2, #20
100005c6:	700a      	strb	r2, [r1, #0]
100005c8:	e7bb      	b.n	10000542 <irq_remove_handler+0xc2>
100005ca:	20bd      	movs	r0, #189	; 0xbd
100005cc:	0200      	lsls	r0, r0, #8
100005ce:	e7e2      	b.n	10000596 <irq_remove_handler+0x116>
100005d0:	4a15      	ldr	r2, [pc, #84]	; (10000628 <irq_remove_handler+0x1a8>)
100005d2:	4916      	ldr	r1, [pc, #88]	; (1000062c <irq_remove_handler+0x1ac>)
100005d4:	1ad2      	subs	r2, r2, r3
100005d6:	3a08      	subs	r2, #8
100005d8:	0250      	lsls	r0, r2, #9
100005da:	0d40      	lsrs	r0, r0, #21
100005dc:	4301      	orrs	r1, r0
100005de:	8099      	strh	r1, [r3, #4]
100005e0:	4913      	ldr	r1, [pc, #76]	; (10000630 <irq_remove_handler+0x1b0>)
100005e2:	0852      	lsrs	r2, r2, #1
100005e4:	430a      	orrs	r2, r1
100005e6:	80da      	strh	r2, [r3, #6]
100005e8:	e7ab      	b.n	10000542 <irq_remove_handler+0xc2>
100005ea:	2106      	movs	r1, #6
100005ec:	5651      	ldrsb	r1, [r2, r1]
100005ee:	0013      	movs	r3, r2
100005f0:	2900      	cmp	r1, #0
100005f2:	dab7      	bge.n	10000564 <irq_remove_handler+0xe4>
100005f4:	9a01      	ldr	r2, [sp, #4]
100005f6:	2a00      	cmp	r2, #0
100005f8:	d1ea      	bne.n	100005d0 <irq_remove_handler+0x150>
100005fa:	4645      	mov	r5, r8
100005fc:	e7db      	b.n	100005b6 <irq_remove_handler+0x136>
100005fe:	46c0      	nop			; (mov r8, r8)
10000600:	d0000124 	.word	0xd0000124
10000604:	e000ed00 	.word	0xe000ed00
10000608:	100001cd 	.word	0x100001cd
1000060c:	2000017c 	.word	0x2000017c
10000610:	e000e100 	.word	0xe000e100
10000614:	e000e180 	.word	0xe000e180
10000618:	e000e280 	.word	0xe000e280
1000061c:	200005f9 	.word	0x200005f9
10000620:	ffffbd00 	.word	0xffffbd00
10000624:	0000aaaa 	.word	0x0000aaaa
10000628:	200001b6 	.word	0x200001b6
1000062c:	fffff000 	.word	0xfffff000
10000630:	fffff800 	.word	0xfffff800

10000634 <irq_add_tail_to_free_list>:
10000634:	b5f8      	push	{r3, r4, r5, r6, r7, lr}
10000636:	2501      	movs	r5, #1
10000638:	0004      	movs	r4, r0
1000063a:	4305      	orrs	r5, r0
1000063c:	f7ff fe13 	bl	10000266 <__get_current_exception>
10000640:	f3ef 8c10 	mrs	ip, PRIMASK
10000644:	b672      	cpsid	i
10000646:	4a21      	ldr	r2, [pc, #132]	; (100006cc <irq_add_tail_to_free_list+0x98>)
10000648:	6813      	ldr	r3, [r2, #0]
1000064a:	2b00      	cmp	r3, #0
1000064c:	d0fc      	beq.n	10000648 <irq_add_tail_to_free_list+0x14>
1000064e:	f3bf 8f5f 	dmb	sy
10000652:	4e1f      	ldr	r6, [pc, #124]	; (100006d0 <irq_add_tail_to_free_list+0x9c>)
10000654:	0021      	movs	r1, r4
10000656:	68b7      	ldr	r7, [r6, #8]
10000658:	4a1e      	ldr	r2, [pc, #120]	; (100006d4 <irq_add_tail_to_free_list+0xa0>)
1000065a:	4b1f      	ldr	r3, [pc, #124]	; (100006d8 <irq_add_tail_to_free_list+0xa4>)
1000065c:	1a89      	subs	r1, r1, r2
1000065e:	4149      	adcs	r1, r1
10000660:	434b      	muls	r3, r1
10000662:	0d1b      	lsrs	r3, r3, #20
10000664:	b259      	sxtb	r1, r3
10000666:	0083      	lsls	r3, r0, #2
10000668:	58f8      	ldr	r0, [r7, r3]
1000066a:	42a8      	cmp	r0, r5
1000066c:	d01c      	beq.n	100006a8 <irq_add_tail_to_free_list+0x74>
1000066e:	2306      	movs	r3, #6
10000670:	56d3      	ldrsb	r3, [r2, r3]
10000672:	428b      	cmp	r3, r1
10000674:	d01c      	beq.n	100006b0 <irq_add_tail_to_free_list+0x7c>
10000676:	2312      	movs	r3, #18
10000678:	56d3      	ldrsb	r3, [r2, r3]
1000067a:	428b      	cmp	r3, r1
1000067c:	d022      	beq.n	100006c4 <irq_add_tail_to_free_list+0x90>
1000067e:	231e      	movs	r3, #30
10000680:	56d3      	ldrsb	r3, [r2, r3]
10000682:	428b      	cmp	r3, r1
10000684:	d020      	beq.n	100006c8 <irq_add_tail_to_free_list+0x94>
10000686:	232a      	movs	r3, #42	; 0x2a
10000688:	56d3      	ldrsb	r3, [r2, r3]
1000068a:	2003      	movs	r0, #3
1000068c:	428b      	cmp	r3, r1
1000068e:	d010      	beq.n	100006b2 <irq_add_tail_to_free_list+0x7e>
10000690:	4b12      	ldr	r3, [pc, #72]	; (100006dc <irq_add_tail_to_free_list+0xa8>)
10000692:	781a      	ldrb	r2, [r3, #0]
10000694:	7019      	strb	r1, [r3, #0]
10000696:	71a2      	strb	r2, [r4, #6]
10000698:	f3bf 8f5f 	dmb	sy
1000069c:	2200      	movs	r2, #0
1000069e:	4b0b      	ldr	r3, [pc, #44]	; (100006cc <irq_add_tail_to_free_list+0x98>)
100006a0:	601a      	str	r2, [r3, #0]
100006a2:	f38c 8810 	msr	PRIMASK, ip
100006a6:	bdf8      	pop	{r3, r4, r5, r6, r7, pc}
100006a8:	68b2      	ldr	r2, [r6, #8]
100006aa:	480d      	ldr	r0, [pc, #52]	; (100006e0 <irq_add_tail_to_free_list+0xac>)
100006ac:	50d0      	str	r0, [r2, r3]
100006ae:	e7ef      	b.n	10000690 <irq_add_tail_to_free_list+0x5c>
100006b0:	2000      	movs	r0, #0
100006b2:	0043      	lsls	r3, r0, #1
100006b4:	181b      	adds	r3, r3, r0
100006b6:	009b      	lsls	r3, r3, #2
100006b8:	18d2      	adds	r2, r2, r3
100006ba:	23ff      	movs	r3, #255	; 0xff
100006bc:	7193      	strb	r3, [r2, #6]
100006be:	4b09      	ldr	r3, [pc, #36]	; (100006e4 <irq_add_tail_to_free_list+0xb0>)
100006c0:	8093      	strh	r3, [r2, #4]
100006c2:	e7e5      	b.n	10000690 <irq_add_tail_to_free_list+0x5c>
100006c4:	2001      	movs	r0, #1
100006c6:	e7f4      	b.n	100006b2 <irq_add_tail_to_free_list+0x7e>
100006c8:	2002      	movs	r0, #2
100006ca:	e7f2      	b.n	100006b2 <irq_add_tail_to_free_list+0x7e>
100006cc:	d0000124 	.word	0xd0000124
100006d0:	e000ed00 	.word	0xe000ed00
100006d4:	2000017c 	.word	0x2000017c
100006d8:	0000aaaa 	.word	0x0000aaaa
100006dc:	200005f9 	.word	0x200005f9
100006e0:	100001cd 	.word	0x100001cd
100006e4:	ffffbd00 	.word	0xffffbd00

100006e8 <irq_init_priorities>:
100006e8:	4b05      	ldr	r3, [pc, #20]	; (10000700 <irq_init_priorities+0x18>)
100006ea:	4a06      	ldr	r2, [pc, #24]	; (10000704 <irq_init_priorities+0x1c>)
100006ec:	6013      	str	r3, [r2, #0]
100006ee:	4a06      	ldr	r2, [pc, #24]	; (10000708 <irq_init_priorities+0x20>)
100006f0:	6013      	str	r3, [r2, #0]
100006f2:	6053      	str	r3, [r2, #4]
100006f4:	6093      	str	r3, [r2, #8]
100006f6:	60d3      	str	r3, [r2, #12]
100006f8:	6113      	str	r3, [r2, #16]
100006fa:	6153      	str	r3, [r2, #20]
100006fc:	6193      	str	r3, [r2, #24]
100006fe:	4770      	bx	lr
10000700:	80808080 	.word	0x80808080
10000704:	e000e400 	.word	0xe000e400
10000708:	e000e404 	.word	0xe000e404

1000070c <lock_init>:
1000070c:	4b02      	ldr	r3, [pc, #8]	; (10000718 <lock_init+0xc>)
1000070e:	469c      	mov	ip, r3
10000710:	4461      	add	r1, ip
10000712:	0089      	lsls	r1, r1, #2
10000714:	6001      	str	r1, [r0, #0]
10000716:	4770      	bx	lr
10000718:	34000040 	.word	0x34000040

1000071c <timer_pool_entry_comparator>:
1000071c:	6883      	ldr	r3, [r0, #8]
1000071e:	480b      	ldr	r0, [pc, #44]	; (1000074c <timer_pool_entry_comparator+0x30>)
10000720:	b510      	push	{r4, lr}
10000722:	4684      	mov	ip, r0
10000724:	4461      	add	r1, ip
10000726:	4462      	add	r2, ip
10000728:	0109      	lsls	r1, r1, #4
1000072a:	0112      	lsls	r2, r2, #4
1000072c:	189a      	adds	r2, r3, r2
1000072e:	1859      	adds	r1, r3, r1
10000730:	6854      	ldr	r4, [r2, #4]
10000732:	684b      	ldr	r3, [r1, #4]
10000734:	2001      	movs	r0, #1
10000736:	429c      	cmp	r4, r3
10000738:	d801      	bhi.n	1000073e <timer_pool_entry_comparator+0x22>
1000073a:	d002      	beq.n	10000742 <timer_pool_entry_comparator+0x26>
1000073c:	2000      	movs	r0, #0
1000073e:	b2c0      	uxtb	r0, r0
10000740:	bd10      	pop	{r4, pc}
10000742:	6812      	ldr	r2, [r2, #0]
10000744:	680b      	ldr	r3, [r1, #0]
10000746:	429a      	cmp	r2, r3
10000748:	d8f9      	bhi.n	1000073e <timer_pool_entry_comparator+0x22>
1000074a:	e7f7      	b.n	1000073c <timer_pool_entry_comparator+0x20>
1000074c:	0fffffff 	.word	0x0fffffff

10000750 <sleep_until_callback>:
10000750:	4b0a      	ldr	r3, [pc, #40]	; (1000077c <sleep_until_callback+0x2c>)
10000752:	6819      	ldr	r1, [r3, #0]
10000754:	f3ef 8010 	mrs	r0, PRIMASK
10000758:	b672      	cpsid	i
1000075a:	680a      	ldr	r2, [r1, #0]
1000075c:	2a00      	cmp	r2, #0
1000075e:	d0fc      	beq.n	1000075a <sleep_until_callback+0xa>
10000760:	f3bf 8f5f 	dmb	sy
10000764:	681b      	ldr	r3, [r3, #0]
10000766:	f3bf 8f5f 	dmb	sy
1000076a:	2200      	movs	r2, #0
1000076c:	601a      	str	r2, [r3, #0]
1000076e:	f380 8810 	msr	PRIMASK, r0
10000772:	bf40      	sev
10000774:	2000      	movs	r0, #0
10000776:	2100      	movs	r1, #0
10000778:	4770      	bx	lr
1000077a:	46c0      	nop			; (mov r8, r8)
1000077c:	200005e4 	.word	0x200005e4

10000780 <add_alarm_under_lock.isra.0>:
10000780:	b5f8      	push	{r3, r4, r5, r6, r7, lr}
10000782:	4657      	mov	r7, sl
10000784:	464e      	mov	r6, r9
10000786:	4645      	mov	r5, r8
10000788:	46de      	mov	lr, fp
1000078a:	b5e0      	push	{r5, r6, r7, lr}
1000078c:	4699      	mov	r9, r3
1000078e:	ab0c      	add	r3, sp, #48	; 0x30
10000790:	781c      	ldrb	r4, [r3, #0]
10000792:	ab0d      	add	r3, sp, #52	; 0x34
10000794:	781b      	ldrb	r3, [r3, #0]
10000796:	0006      	movs	r6, r0
10000798:	4690      	mov	r8, r2
1000079a:	469a      	mov	sl, r3
1000079c:	6807      	ldr	r7, [r0, #0]
1000079e:	2c00      	cmp	r4, #0
100007a0:	d111      	bne.n	100007c6 <add_alarm_under_lock.isra.0+0x46>
100007a2:	7bbc      	ldrb	r4, [r7, #14]
100007a4:	2c00      	cmp	r4, #0
100007a6:	d042      	beq.n	1000082e <add_alarm_under_lock.isra.0+0xae>
100007a8:	0065      	lsls	r5, r4, #1
100007aa:	683b      	ldr	r3, [r7, #0]
100007ac:	192d      	adds	r5, r5, r4
100007ae:	3d03      	subs	r5, #3
100007b0:	1959      	adds	r1, r3, r5
100007b2:	784b      	ldrb	r3, [r1, #1]
100007b4:	73bb      	strb	r3, [r7, #14]
100007b6:	2b00      	cmp	r3, #0
100007b8:	d100      	bne.n	100007bc <add_alarm_under_lock.isra.0+0x3c>
100007ba:	73fb      	strb	r3, [r7, #15]
100007bc:	2300      	movs	r3, #0
100007be:	708b      	strb	r3, [r1, #2]
100007c0:	704b      	strb	r3, [r1, #1]
100007c2:	700b      	strb	r3, [r1, #0]
100007c4:	e004      	b.n	100007d0 <add_alarm_under_lock.isra.0+0x50>
100007c6:	0065      	lsls	r5, r4, #1
100007c8:	683b      	ldr	r3, [r7, #0]
100007ca:	192d      	adds	r5, r5, r4
100007cc:	3d03      	subs	r5, #3
100007ce:	1959      	adds	r1, r3, r5
100007d0:	68b2      	ldr	r2, [r6, #8]
100007d2:	4b2a      	ldr	r3, [pc, #168]	; (1000087c <add_alarm_under_lock.isra.0+0xfc>)
100007d4:	4694      	mov	ip, r2
100007d6:	4642      	mov	r2, r8
100007d8:	18e3      	adds	r3, r4, r3
100007da:	011b      	lsls	r3, r3, #4
100007dc:	4463      	add	r3, ip
100007de:	601a      	str	r2, [r3, #0]
100007e0:	464a      	mov	r2, r9
100007e2:	605a      	str	r2, [r3, #4]
100007e4:	9a0a      	ldr	r2, [sp, #40]	; 0x28
100007e6:	609a      	str	r2, [r3, #8]
100007e8:	9a0b      	ldr	r2, [sp, #44]	; 0x2c
100007ea:	60da      	str	r2, [r3, #12]
100007ec:	2300      	movs	r3, #0
100007ee:	708b      	strb	r3, [r1, #2]
100007f0:	704b      	strb	r3, [r1, #1]
100007f2:	700b      	strb	r3, [r1, #0]
100007f4:	7b7b      	ldrb	r3, [r7, #13]
100007f6:	469b      	mov	fp, r3
100007f8:	2b00      	cmp	r3, #0
100007fa:	d02b      	beq.n	10000854 <add_alarm_under_lock.isra.0+0xd4>
100007fc:	0022      	movs	r2, r4
100007fe:	4659      	mov	r1, fp
10000800:	68b8      	ldr	r0, [r7, #8]
10000802:	687b      	ldr	r3, [r7, #4]
10000804:	4798      	blx	r3
10000806:	683a      	ldr	r2, [r7, #0]
10000808:	2800      	cmp	r0, #0
1000080a:	d016      	beq.n	1000083a <add_alarm_under_lock.isra.0+0xba>
1000080c:	465b      	mov	r3, fp
1000080e:	4658      	mov	r0, fp
10000810:	005b      	lsls	r3, r3, #1
10000812:	445b      	add	r3, fp
10000814:	1955      	adds	r5, r2, r5
10000816:	3b03      	subs	r3, #3
10000818:	70a8      	strb	r0, [r5, #2]
1000081a:	18d1      	adds	r1, r2, r3
1000081c:	5cd3      	ldrb	r3, [r2, r3]
1000081e:	2b00      	cmp	r3, #0
10000820:	d000      	beq.n	10000824 <add_alarm_under_lock.isra.0+0xa4>
10000822:	706b      	strb	r3, [r5, #1]
10000824:	465b      	mov	r3, fp
10000826:	700c      	strb	r4, [r1, #0]
10000828:	737b      	strb	r3, [r7, #13]
1000082a:	45a3      	cmp	fp, r4
1000082c:	d013      	beq.n	10000856 <add_alarm_under_lock.isra.0+0xd6>
1000082e:	bcf0      	pop	{r4, r5, r6, r7}
10000830:	46bb      	mov	fp, r7
10000832:	46b2      	mov	sl, r6
10000834:	46a9      	mov	r9, r5
10000836:	46a0      	mov	r8, r4
10000838:	bdf8      	pop	{r3, r4, r5, r6, r7, pc}
1000083a:	465b      	mov	r3, fp
1000083c:	005b      	lsls	r3, r3, #1
1000083e:	445b      	add	r3, fp
10000840:	3b03      	subs	r3, #3
10000842:	18d3      	adds	r3, r2, r3
10000844:	709c      	strb	r4, [r3, #2]
10000846:	1951      	adds	r1, r2, r5
10000848:	5d52      	ldrb	r2, [r2, r5]
1000084a:	2a00      	cmp	r2, #0
1000084c:	d000      	beq.n	10000850 <add_alarm_under_lock.isra.0+0xd0>
1000084e:	705a      	strb	r2, [r3, #1]
10000850:	465b      	mov	r3, fp
10000852:	700b      	strb	r3, [r1, #0]
10000854:	737c      	strb	r4, [r7, #13]
10000856:	4642      	mov	r2, r8
10000858:	464b      	mov	r3, r9
1000085a:	7d30      	ldrb	r0, [r6, #20]
1000085c:	f000 faee 	bl	10000e3c <hardware_alarm_set_target>
10000860:	1e05      	subs	r5, r0, #0
10000862:	d006      	beq.n	10000872 <add_alarm_under_lock.isra.0+0xf2>
10000864:	4653      	mov	r3, sl
10000866:	2b00      	cmp	r3, #0
10000868:	d103      	bne.n	10000872 <add_alarm_under_lock.isra.0+0xf2>
1000086a:	0021      	movs	r1, r4
1000086c:	6830      	ldr	r0, [r6, #0]
1000086e:	f000 fd07 	bl	10001280 <ph_remove_and_free_node>
10000872:	9b0e      	ldr	r3, [sp, #56]	; 0x38
10000874:	2b00      	cmp	r3, #0
10000876:	d0da      	beq.n	1000082e <add_alarm_under_lock.isra.0+0xae>
10000878:	701d      	strb	r5, [r3, #0]
1000087a:	e7d8      	b.n	1000082e <add_alarm_under_lock.isra.0+0xae>
1000087c:	0fffffff 	.word	0x0fffffff

10000880 <alarm_pool_alarm_callback>:
10000880:	b5f0      	push	{r4, r5, r6, r7, lr}
10000882:	46de      	mov	lr, fp
10000884:	464e      	mov	r6, r9
10000886:	4657      	mov	r7, sl
10000888:	4645      	mov	r5, r8
1000088a:	2300      	movs	r3, #0
1000088c:	b5e0      	push	{r5, r6, r7, lr}
1000088e:	b08d      	sub	sp, #52	; 0x34
10000890:	930a      	str	r3, [sp, #40]	; 0x28
10000892:	4b6b      	ldr	r3, [pc, #428]	; (10000a40 <alarm_pool_alarm_callback+0x1c0>)
10000894:	0082      	lsls	r2, r0, #2
10000896:	58d3      	ldr	r3, [r2, r3]
10000898:	900b      	str	r0, [sp, #44]	; 0x2c
1000089a:	4699      	mov	r9, r3
1000089c:	2300      	movs	r3, #0
1000089e:	469b      	mov	fp, r3
100008a0:	464b      	mov	r3, r9
100008a2:	9307      	str	r3, [sp, #28]
100008a4:	f000 fa6a 	bl	10000d7c <time_us_64>
100008a8:	9c07      	ldr	r4, [sp, #28]
100008aa:	0006      	movs	r6, r0
100008ac:	000f      	movs	r7, r1
100008ae:	6862      	ldr	r2, [r4, #4]
100008b0:	f3ef 8510 	mrs	r5, PRIMASK
100008b4:	b672      	cpsid	i
100008b6:	6813      	ldr	r3, [r2, #0]
100008b8:	2b00      	cmp	r3, #0
100008ba:	d0fc      	beq.n	100008b6 <alarm_pool_alarm_callback+0x36>
100008bc:	0022      	movs	r2, r4
100008be:	9407      	str	r4, [sp, #28]
100008c0:	f3bf 8f5f 	dmb	sy
100008c4:	6824      	ldr	r4, [r4, #0]
100008c6:	7b63      	ldrb	r3, [r4, #13]
100008c8:	4699      	mov	r9, r3
100008ca:	2b00      	cmp	r3, #0
100008cc:	d067      	beq.n	1000099e <alarm_pool_alarm_callback+0x11e>
100008ce:	6892      	ldr	r2, [r2, #8]
100008d0:	4b5c      	ldr	r3, [pc, #368]	; (10000a44 <alarm_pool_alarm_callback+0x1c4>)
100008d2:	4690      	mov	r8, r2
100008d4:	444b      	add	r3, r9
100008d6:	011b      	lsls	r3, r3, #4
100008d8:	4498      	add	r8, r3
100008da:	4643      	mov	r3, r8
100008dc:	681a      	ldr	r2, [r3, #0]
100008de:	685b      	ldr	r3, [r3, #4]
100008e0:	0010      	movs	r0, r2
100008e2:	0019      	movs	r1, r3
100008e4:	1b80      	subs	r0, r0, r6
100008e6:	41b9      	sbcs	r1, r7
100008e8:	2900      	cmp	r1, #0
100008ea:	dd5f      	ble.n	100009ac <alarm_pool_alarm_callback+0x12c>
100008ec:	980b      	ldr	r0, [sp, #44]	; 0x2c
100008ee:	f000 faa5 	bl	10000e3c <hardware_alarm_set_target>
100008f2:	2300      	movs	r3, #0
100008f4:	2600      	movs	r6, #0
100008f6:	4698      	mov	r8, r3
100008f8:	2700      	movs	r7, #0
100008fa:	469a      	mov	sl, r3
100008fc:	9c07      	ldr	r4, [sp, #28]
100008fe:	6863      	ldr	r3, [r4, #4]
10000900:	f3bf 8f5f 	dmb	sy
10000904:	465a      	mov	r2, fp
10000906:	601a      	str	r2, [r3, #0]
10000908:	f385 8810 	msr	PRIMASK, r5
1000090c:	4653      	mov	r3, sl
1000090e:	2b00      	cmp	r3, #0
10000910:	d108      	bne.n	10000924 <alarm_pool_alarm_callback+0xa4>
10000912:	2800      	cmp	r0, #0
10000914:	d1c6      	bne.n	100008a4 <alarm_pool_alarm_callback+0x24>
10000916:	b00d      	add	sp, #52	; 0x34
10000918:	bcf0      	pop	{r4, r5, r6, r7}
1000091a:	46bb      	mov	fp, r7
1000091c:	46b2      	mov	sl, r6
1000091e:	46a9      	mov	r9, r5
10000920:	46a0      	mov	r8, r4
10000922:	bdf0      	pop	{r4, r5, r6, r7, pc}
10000924:	9b0a      	ldr	r3, [sp, #40]	; 0x28
10000926:	4641      	mov	r1, r8
10000928:	0218      	lsls	r0, r3, #8
1000092a:	464b      	mov	r3, r9
1000092c:	4318      	orrs	r0, r3
1000092e:	47d0      	blx	sl
10000930:	9008      	str	r0, [sp, #32]
10000932:	9109      	str	r1, [sp, #36]	; 0x24
10000934:	6862      	ldr	r2, [r4, #4]
10000936:	f3ef 8510 	mrs	r5, PRIMASK
1000093a:	b672      	cpsid	i
1000093c:	6813      	ldr	r3, [r2, #0]
1000093e:	2b00      	cmp	r3, #0
10000940:	d0fc      	beq.n	1000093c <alarm_pool_alarm_callback+0xbc>
10000942:	9407      	str	r4, [sp, #28]
10000944:	f3bf 8f5f 	dmb	sy
10000948:	9908      	ldr	r1, [sp, #32]
1000094a:	9a09      	ldr	r2, [sp, #36]	; 0x24
1000094c:	2a00      	cmp	r2, #0
1000094e:	db48      	blt.n	100009e2 <alarm_pool_alarm_callback+0x162>
10000950:	4311      	orrs	r1, r2
10000952:	d003      	beq.n	1000095c <alarm_pool_alarm_callback+0xdc>
10000954:	9b07      	ldr	r3, [sp, #28]
10000956:	691b      	ldr	r3, [r3, #16]
10000958:	2b00      	cmp	r3, #0
1000095a:	d15d      	bne.n	10000a18 <alarm_pool_alarm_callback+0x198>
1000095c:	9b07      	ldr	r3, [sp, #28]
1000095e:	681b      	ldr	r3, [r3, #0]
10000960:	7bd9      	ldrb	r1, [r3, #15]
10000962:	2900      	cmp	r1, #0
10000964:	d007      	beq.n	10000976 <alarm_pool_alarm_callback+0xf6>
10000966:	004a      	lsls	r2, r1, #1
10000968:	1852      	adds	r2, r2, r1
1000096a:	6819      	ldr	r1, [r3, #0]
1000096c:	468c      	mov	ip, r1
1000096e:	4649      	mov	r1, r9
10000970:	4462      	add	r2, ip
10000972:	3a03      	subs	r2, #3
10000974:	7051      	strb	r1, [r2, #1]
10000976:	464a      	mov	r2, r9
10000978:	73da      	strb	r2, [r3, #15]
1000097a:	464b      	mov	r3, r9
1000097c:	9a07      	ldr	r2, [sp, #28]
1000097e:	3b01      	subs	r3, #1
10000980:	68d1      	ldr	r1, [r2, #12]
10000982:	5cca      	ldrb	r2, [r1, r3]
10000984:	3201      	adds	r2, #1
10000986:	54ca      	strb	r2, [r1, r3]
10000988:	465b      	mov	r3, fp
1000098a:	9a07      	ldr	r2, [sp, #28]
1000098c:	6113      	str	r3, [r2, #16]
1000098e:	6853      	ldr	r3, [r2, #4]
10000990:	f3bf 8f5f 	dmb	sy
10000994:	465a      	mov	r2, fp
10000996:	601a      	str	r2, [r3, #0]
10000998:	f385 8810 	msr	PRIMASK, r5
1000099c:	e782      	b.n	100008a4 <alarm_pool_alarm_callback+0x24>
1000099e:	2300      	movs	r3, #0
100009a0:	2600      	movs	r6, #0
100009a2:	4698      	mov	r8, r3
100009a4:	2700      	movs	r7, #0
100009a6:	469a      	mov	sl, r3
100009a8:	2000      	movs	r0, #0
100009aa:	e7a7      	b.n	100008fc <alarm_pool_alarm_callback+0x7c>
100009ac:	2900      	cmp	r1, #0
100009ae:	d101      	bne.n	100009b4 <alarm_pool_alarm_callback+0x134>
100009b0:	2800      	cmp	r0, #0
100009b2:	d19b      	bne.n	100008ec <alarm_pool_alarm_callback+0x6c>
100009b4:	2100      	movs	r1, #0
100009b6:	0020      	movs	r0, r4
100009b8:	f000 fbe4 	bl	10001184 <ph_remove_head>
100009bc:	4643      	mov	r3, r8
100009be:	681e      	ldr	r6, [r3, #0]
100009c0:	685f      	ldr	r7, [r3, #4]
100009c2:	689b      	ldr	r3, [r3, #8]
100009c4:	9a07      	ldr	r2, [sp, #28]
100009c6:	469a      	mov	sl, r3
100009c8:	4643      	mov	r3, r8
100009ca:	68db      	ldr	r3, [r3, #12]
100009cc:	4698      	mov	r8, r3
100009ce:	68d3      	ldr	r3, [r2, #12]
100009d0:	444b      	add	r3, r9
100009d2:	3b01      	subs	r3, #1
100009d4:	781b      	ldrb	r3, [r3, #0]
100009d6:	930a      	str	r3, [sp, #40]	; 0x28
100009d8:	021b      	lsls	r3, r3, #8
100009da:	4303      	orrs	r3, r0
100009dc:	6113      	str	r3, [r2, #16]
100009de:	2000      	movs	r0, #0
100009e0:	e78c      	b.n	100008fc <alarm_pool_alarm_callback+0x7c>
100009e2:	6923      	ldr	r3, [r4, #16]
100009e4:	2b00      	cmp	r3, #0
100009e6:	d0b9      	beq.n	1000095c <alarm_pool_alarm_callback+0xdc>
100009e8:	0033      	movs	r3, r6
100009ea:	003c      	movs	r4, r7
100009ec:	1a5b      	subs	r3, r3, r1
100009ee:	4194      	sbcs	r4, r2
100009f0:	001a      	movs	r2, r3
100009f2:	0023      	movs	r3, r4
100009f4:	42a7      	cmp	r7, r4
100009f6:	d819      	bhi.n	10000a2c <alarm_pool_alarm_callback+0x1ac>
100009f8:	429f      	cmp	r7, r3
100009fa:	d01b      	beq.n	10000a34 <alarm_pool_alarm_callback+0x1b4>
100009fc:	4659      	mov	r1, fp
100009fe:	9104      	str	r1, [sp, #16]
10000a00:	2101      	movs	r1, #1
10000a02:	9103      	str	r1, [sp, #12]
10000a04:	4649      	mov	r1, r9
10000a06:	9102      	str	r1, [sp, #8]
10000a08:	4641      	mov	r1, r8
10000a0a:	9101      	str	r1, [sp, #4]
10000a0c:	4651      	mov	r1, sl
10000a0e:	9807      	ldr	r0, [sp, #28]
10000a10:	9100      	str	r1, [sp, #0]
10000a12:	f7ff feb5 	bl	10000780 <add_alarm_under_lock.isra.0>
10000a16:	e7b7      	b.n	10000988 <alarm_pool_alarm_callback+0x108>
10000a18:	f000 f9b0 	bl	10000d7c <time_us_64>
10000a1c:	9a08      	ldr	r2, [sp, #32]
10000a1e:	9b09      	ldr	r3, [sp, #36]	; 0x24
10000a20:	0006      	movs	r6, r0
10000a22:	000f      	movs	r7, r1
10000a24:	1992      	adds	r2, r2, r6
10000a26:	417b      	adcs	r3, r7
10000a28:	4299      	cmp	r1, r3
10000a2a:	d9e5      	bls.n	100009f8 <alarm_pool_alarm_callback+0x178>
10000a2c:	2201      	movs	r2, #1
10000a2e:	4252      	negs	r2, r2
10000a30:	17d3      	asrs	r3, r2, #31
10000a32:	e7e3      	b.n	100009fc <alarm_pool_alarm_callback+0x17c>
10000a34:	4296      	cmp	r6, r2
10000a36:	d9e1      	bls.n	100009fc <alarm_pool_alarm_callback+0x17c>
10000a38:	2201      	movs	r2, #1
10000a3a:	4252      	negs	r2, r2
10000a3c:	17d3      	asrs	r3, r2, #31
10000a3e:	e7dd      	b.n	100009fc <alarm_pool_alarm_callback+0x17c>
10000a40:	200005d0 	.word	0x200005d0
10000a44:	0fffffff 	.word	0x0fffffff

10000a48 <alarm_pool_add_alarm_at.constprop.0>:
10000a48:	b5f8      	push	{r3, r4, r5, r6, r7, lr}
10000a4a:	4657      	mov	r7, sl
10000a4c:	464e      	mov	r6, r9
10000a4e:	4645      	mov	r5, r8
10000a50:	46de      	mov	lr, fp
10000a52:	b5e0      	push	{r5, r6, r7, lr}
10000a54:	4d40      	ldr	r5, [pc, #256]	; (10000b58 <alarm_pool_add_alarm_at.constprop.0+0x110>)
10000a56:	4681      	mov	r9, r0
10000a58:	468a      	mov	sl, r1
10000a5a:	686a      	ldr	r2, [r5, #4]
10000a5c:	f3ef 8810 	mrs	r8, PRIMASK
10000a60:	b672      	cpsid	i
10000a62:	6813      	ldr	r3, [r2, #0]
10000a64:	2b00      	cmp	r3, #0
10000a66:	d0fc      	beq.n	10000a62 <alarm_pool_add_alarm_at.constprop.0+0x1a>
10000a68:	f3bf 8f5f 	dmb	sy
10000a6c:	682e      	ldr	r6, [r5, #0]
10000a6e:	7bb4      	ldrb	r4, [r6, #14]
10000a70:	2c00      	cmp	r4, #0
10000a72:	d039      	beq.n	10000ae8 <alarm_pool_add_alarm_at.constprop.0+0xa0>
10000a74:	0067      	lsls	r7, r4, #1
10000a76:	6833      	ldr	r3, [r6, #0]
10000a78:	193f      	adds	r7, r7, r4
10000a7a:	3f03      	subs	r7, #3
10000a7c:	19db      	adds	r3, r3, r7
10000a7e:	785a      	ldrb	r2, [r3, #1]
10000a80:	73b2      	strb	r2, [r6, #14]
10000a82:	2a00      	cmp	r2, #0
10000a84:	d100      	bne.n	10000a88 <alarm_pool_add_alarm_at.constprop.0+0x40>
10000a86:	73f2      	strb	r2, [r6, #15]
10000a88:	68a9      	ldr	r1, [r5, #8]
10000a8a:	4a34      	ldr	r2, [pc, #208]	; (10000b5c <alarm_pool_add_alarm_at.constprop.0+0x114>)
10000a8c:	468c      	mov	ip, r1
10000a8e:	4649      	mov	r1, r9
10000a90:	18a2      	adds	r2, r4, r2
10000a92:	0112      	lsls	r2, r2, #4
10000a94:	4462      	add	r2, ip
10000a96:	6011      	str	r1, [r2, #0]
10000a98:	4651      	mov	r1, sl
10000a9a:	6051      	str	r1, [r2, #4]
10000a9c:	4930      	ldr	r1, [pc, #192]	; (10000b60 <alarm_pool_add_alarm_at.constprop.0+0x118>)
10000a9e:	6091      	str	r1, [r2, #8]
10000aa0:	2100      	movs	r1, #0
10000aa2:	60d1      	str	r1, [r2, #12]
10000aa4:	7099      	strb	r1, [r3, #2]
10000aa6:	7059      	strb	r1, [r3, #1]
10000aa8:	7019      	strb	r1, [r3, #0]
10000aaa:	7b73      	ldrb	r3, [r6, #13]
10000aac:	469b      	mov	fp, r3
10000aae:	2b00      	cmp	r3, #0
10000ab0:	d035      	beq.n	10000b1e <alarm_pool_add_alarm_at.constprop.0+0xd6>
10000ab2:	0022      	movs	r2, r4
10000ab4:	0019      	movs	r1, r3
10000ab6:	68b0      	ldr	r0, [r6, #8]
10000ab8:	6873      	ldr	r3, [r6, #4]
10000aba:	4798      	blx	r3
10000abc:	6832      	ldr	r2, [r6, #0]
10000abe:	2800      	cmp	r0, #0
10000ac0:	d020      	beq.n	10000b04 <alarm_pool_add_alarm_at.constprop.0+0xbc>
10000ac2:	465b      	mov	r3, fp
10000ac4:	4658      	mov	r0, fp
10000ac6:	005b      	lsls	r3, r3, #1
10000ac8:	445b      	add	r3, fp
10000aca:	19d7      	adds	r7, r2, r7
10000acc:	3b03      	subs	r3, #3
10000ace:	70b8      	strb	r0, [r7, #2]
10000ad0:	18d1      	adds	r1, r2, r3
10000ad2:	5cd3      	ldrb	r3, [r2, r3]
10000ad4:	2b00      	cmp	r3, #0
10000ad6:	d000      	beq.n	10000ada <alarm_pool_add_alarm_at.constprop.0+0x92>
10000ad8:	707b      	strb	r3, [r7, #1]
10000ada:	465b      	mov	r3, fp
10000adc:	700c      	strb	r4, [r1, #0]
10000ade:	7373      	strb	r3, [r6, #13]
10000ae0:	455c      	cmp	r4, fp
10000ae2:	d01d      	beq.n	10000b20 <alarm_pool_add_alarm_at.constprop.0+0xd8>
10000ae4:	2600      	movs	r6, #0
10000ae6:	e026      	b.n	10000b36 <alarm_pool_add_alarm_at.constprop.0+0xee>
10000ae8:	686b      	ldr	r3, [r5, #4]
10000aea:	f3bf 8f5f 	dmb	sy
10000aee:	601c      	str	r4, [r3, #0]
10000af0:	f388 8810 	msr	PRIMASK, r8
10000af4:	2001      	movs	r0, #1
10000af6:	4240      	negs	r0, r0
10000af8:	bcf0      	pop	{r4, r5, r6, r7}
10000afa:	46bb      	mov	fp, r7
10000afc:	46b2      	mov	sl, r6
10000afe:	46a9      	mov	r9, r5
10000b00:	46a0      	mov	r8, r4
10000b02:	bdf8      	pop	{r3, r4, r5, r6, r7, pc}
10000b04:	465b      	mov	r3, fp
10000b06:	005b      	lsls	r3, r3, #1
10000b08:	445b      	add	r3, fp
10000b0a:	3b03      	subs	r3, #3
10000b0c:	18d3      	adds	r3, r2, r3
10000b0e:	709c      	strb	r4, [r3, #2]
10000b10:	19d1      	adds	r1, r2, r7
10000b12:	5dd2      	ldrb	r2, [r2, r7]
10000b14:	2a00      	cmp	r2, #0
10000b16:	d000      	beq.n	10000b1a <alarm_pool_add_alarm_at.constprop.0+0xd2>
10000b18:	705a      	strb	r2, [r3, #1]
10000b1a:	465b      	mov	r3, fp
10000b1c:	700b      	strb	r3, [r1, #0]
10000b1e:	7374      	strb	r4, [r6, #13]
10000b20:	464a      	mov	r2, r9
10000b22:	4653      	mov	r3, sl
10000b24:	7d28      	ldrb	r0, [r5, #20]
10000b26:	f000 f989 	bl	10000e3c <hardware_alarm_set_target>
10000b2a:	1e06      	subs	r6, r0, #0
10000b2c:	d0da      	beq.n	10000ae4 <alarm_pool_add_alarm_at.constprop.0+0x9c>
10000b2e:	0021      	movs	r1, r4
10000b30:	6828      	ldr	r0, [r5, #0]
10000b32:	f000 fba5 	bl	10001280 <ph_remove_and_free_node>
10000b36:	68eb      	ldr	r3, [r5, #12]
10000b38:	191b      	adds	r3, r3, r4
10000b3a:	3b01      	subs	r3, #1
10000b3c:	7819      	ldrb	r1, [r3, #0]
10000b3e:	686b      	ldr	r3, [r5, #4]
10000b40:	f3bf 8f5f 	dmb	sy
10000b44:	2200      	movs	r2, #0
10000b46:	601a      	str	r2, [r3, #0]
10000b48:	f388 8810 	msr	PRIMASK, r8
10000b4c:	2000      	movs	r0, #0
10000b4e:	2e00      	cmp	r6, #0
10000b50:	d1d2      	bne.n	10000af8 <alarm_pool_add_alarm_at.constprop.0+0xb0>
10000b52:	0208      	lsls	r0, r1, #8
10000b54:	4320      	orrs	r0, r4
10000b56:	e7cf      	b.n	10000af8 <alarm_pool_add_alarm_at.constprop.0+0xb0>
10000b58:	200001c4 	.word	0x200001c4
10000b5c:	0fffffff 	.word	0x0fffffff
10000b60:	10000751 	.word	0x10000751

10000b64 <alarm_pool_init_default>:
10000b64:	b510      	push	{r4, lr}
10000b66:	4c12      	ldr	r4, [pc, #72]	; (10000bb0 <alarm_pool_init_default+0x4c>)
10000b68:	6863      	ldr	r3, [r4, #4]
10000b6a:	2b00      	cmp	r3, #0
10000b6c:	d004      	beq.n	10000b78 <alarm_pool_init_default+0x14>
10000b6e:	210a      	movs	r1, #10
10000b70:	4810      	ldr	r0, [pc, #64]	; (10000bb4 <alarm_pool_init_default+0x50>)
10000b72:	f7ff fdcb 	bl	1000070c <lock_init>
10000b76:	bd10      	pop	{r4, pc}
10000b78:	0023      	movs	r3, r4
10000b7a:	4a0f      	ldr	r2, [pc, #60]	; (10000bb8 <alarm_pool_init_default+0x54>)
10000b7c:	2110      	movs	r1, #16
10000b7e:	6820      	ldr	r0, [r4, #0]
10000b80:	f000 fa1e 	bl	10000fc0 <ph_post_alloc_init>
10000b84:	2003      	movs	r0, #3
10000b86:	f000 f8ed 	bl	10000d64 <hardware_alarm_claim>
10000b8a:	2003      	movs	r0, #3
10000b8c:	f000 f9c6 	bl	10000f1c <hardware_alarm_cancel>
10000b90:	2003      	movs	r0, #3
10000b92:	490a      	ldr	r1, [pc, #40]	; (10000bbc <alarm_pool_init_default+0x58>)
10000b94:	f000 f90c 	bl	10000db0 <hardware_alarm_set_callback>
10000b98:	f7ff fc22 	bl	100003e0 <next_striped_spin_lock_num>
10000b9c:	4b08      	ldr	r3, [pc, #32]	; (10000bc0 <alarm_pool_init_default+0x5c>)
10000b9e:	469c      	mov	ip, r3
10000ba0:	2303      	movs	r3, #3
10000ba2:	4460      	add	r0, ip
10000ba4:	7523      	strb	r3, [r4, #20]
10000ba6:	4b07      	ldr	r3, [pc, #28]	; (10000bc4 <alarm_pool_init_default+0x60>)
10000ba8:	0080      	lsls	r0, r0, #2
10000baa:	6060      	str	r0, [r4, #4]
10000bac:	60dc      	str	r4, [r3, #12]
10000bae:	e7de      	b.n	10000b6e <alarm_pool_init_default+0xa>
10000bb0:	200001c4 	.word	0x200001c4
10000bb4:	200005e4 	.word	0x200005e4
10000bb8:	1000071d 	.word	0x1000071d
10000bbc:	10000881 	.word	0x10000881
10000bc0:	34000040 	.word	0x34000040
10000bc4:	200005d0 	.word	0x200005d0

10000bc8 <sleep_until>:
10000bc8:	b5f0      	push	{r4, r5, r6, r7, lr}
10000bca:	0004      	movs	r4, r0
10000bcc:	000d      	movs	r5, r1
10000bce:	2606      	movs	r6, #6
10000bd0:	4276      	negs	r6, r6
10000bd2:	17f7      	asrs	r7, r6, #31
10000bd4:	46c6      	mov	lr, r8
10000bd6:	1936      	adds	r6, r6, r4
10000bd8:	416f      	adcs	r7, r5
10000bda:	b500      	push	{lr}
10000bdc:	428f      	cmp	r7, r1
10000bde:	d813      	bhi.n	10000c08 <sleep_until+0x40>
10000be0:	d010      	beq.n	10000c04 <sleep_until+0x3c>
10000be2:	f000 f8cb 	bl	10000d7c <time_us_64>
10000be6:	0032      	movs	r2, r6
10000be8:	003b      	movs	r3, r7
10000bea:	1a12      	subs	r2, r2, r0
10000bec:	418b      	sbcs	r3, r1
10000bee:	2b00      	cmp	r3, #0
10000bf0:	dc14      	bgt.n	10000c1c <sleep_until+0x54>
10000bf2:	2b00      	cmp	r3, #0
10000bf4:	d037      	beq.n	10000c66 <sleep_until+0x9e>
10000bf6:	0029      	movs	r1, r5
10000bf8:	0020      	movs	r0, r4
10000bfa:	f000 f8c9 	bl	10000d90 <busy_wait_until>
10000bfe:	bc80      	pop	{r7}
10000c00:	46b8      	mov	r8, r7
10000c02:	bdf0      	pop	{r4, r5, r6, r7, pc}
10000c04:	4286      	cmp	r6, r0
10000c06:	d9ec      	bls.n	10000be2 <sleep_until+0x1a>
10000c08:	2600      	movs	r6, #0
10000c0a:	2700      	movs	r7, #0
10000c0c:	f000 f8b6 	bl	10000d7c <time_us_64>
10000c10:	0032      	movs	r2, r6
10000c12:	003b      	movs	r3, r7
10000c14:	1a12      	subs	r2, r2, r0
10000c16:	418b      	sbcs	r3, r1
10000c18:	2b00      	cmp	r3, #0
10000c1a:	ddea      	ble.n	10000bf2 <sleep_until+0x2a>
10000c1c:	0030      	movs	r0, r6
10000c1e:	0039      	movs	r1, r7
10000c20:	f7ff ff12 	bl	10000a48 <alarm_pool_add_alarm_at.constprop.0>
10000c24:	2800      	cmp	r0, #0
10000c26:	dbe6      	blt.n	10000bf6 <sleep_until+0x2e>
10000c28:	2300      	movs	r3, #0
10000c2a:	4698      	mov	r8, r3
10000c2c:	46bc      	mov	ip, r7
10000c2e:	4a0f      	ldr	r2, [pc, #60]	; (10000c6c <sleep_until+0xa4>)
10000c30:	4f0f      	ldr	r7, [pc, #60]	; (10000c70 <sleep_until+0xa8>)
10000c32:	6a7b      	ldr	r3, [r7, #36]	; 0x24
10000c34:	459c      	cmp	ip, r3
10000c36:	d804      	bhi.n	10000c42 <sleep_until+0x7a>
10000c38:	6ab9      	ldr	r1, [r7, #40]	; 0x28
10000c3a:	428e      	cmp	r6, r1
10000c3c:	d9db      	bls.n	10000bf6 <sleep_until+0x2e>
10000c3e:	459c      	cmp	ip, r3
10000c40:	d1d9      	bne.n	10000bf6 <sleep_until+0x2e>
10000c42:	6811      	ldr	r1, [r2, #0]
10000c44:	f3ef 8010 	mrs	r0, PRIMASK
10000c48:	b672      	cpsid	i
10000c4a:	680b      	ldr	r3, [r1, #0]
10000c4c:	2b00      	cmp	r3, #0
10000c4e:	d0fc      	beq.n	10000c4a <sleep_until+0x82>
10000c50:	f3bf 8f5f 	dmb	sy
10000c54:	6813      	ldr	r3, [r2, #0]
10000c56:	f3bf 8f5f 	dmb	sy
10000c5a:	4641      	mov	r1, r8
10000c5c:	6019      	str	r1, [r3, #0]
10000c5e:	f380 8810 	msr	PRIMASK, r0
10000c62:	bf20      	wfe
10000c64:	e7e5      	b.n	10000c32 <sleep_until+0x6a>
10000c66:	2a00      	cmp	r2, #0
10000c68:	d0c5      	beq.n	10000bf6 <sleep_until+0x2e>
10000c6a:	e7d7      	b.n	10000c1c <sleep_until+0x54>
10000c6c:	200005e4 	.word	0x200005e4
10000c70:	40054000 	.word	0x40054000

10000c74 <sleep_ms>:
10000c74:	b570      	push	{r4, r5, r6, lr}
10000c76:	0006      	movs	r6, r0
10000c78:	f000 f880 	bl	10000d7c <time_us_64>
10000c7c:	22fa      	movs	r2, #250	; 0xfa
10000c7e:	0004      	movs	r4, r0
10000c80:	000d      	movs	r5, r1
10000c82:	2300      	movs	r3, #0
10000c84:	0030      	movs	r0, r6
10000c86:	2100      	movs	r1, #0
10000c88:	0092      	lsls	r2, r2, #2
10000c8a:	f000 fe9d 	bl	100019c8 <__wrap___aeabi_lmul>
10000c8e:	1900      	adds	r0, r0, r4
10000c90:	4169      	adcs	r1, r5
10000c92:	428d      	cmp	r5, r1
10000c94:	d805      	bhi.n	10000ca2 <sleep_ms+0x2e>
10000c96:	d002      	beq.n	10000c9e <sleep_ms+0x2a>
10000c98:	f7ff ff96 	bl	10000bc8 <sleep_until>
10000c9c:	bd70      	pop	{r4, r5, r6, pc}
10000c9e:	4284      	cmp	r4, r0
10000ca0:	d9fa      	bls.n	10000c98 <sleep_ms+0x24>
10000ca2:	2001      	movs	r0, #1
10000ca4:	4240      	negs	r0, r0
10000ca6:	17c1      	asrs	r1, r0, #31
10000ca8:	e7f6      	b.n	10000c98 <sleep_ms+0x24>
10000caa:	46c0      	nop			; (mov r8, r8)

10000cac <hardware_alarm_irq_handler>:
10000cac:	b5f0      	push	{r4, r5, r6, r7, lr}
10000cae:	46d6      	mov	lr, sl
10000cb0:	464f      	mov	r7, r9
10000cb2:	4646      	mov	r6, r8
10000cb4:	b5c0      	push	{r6, r7, lr}
10000cb6:	f3ef 8305 	mrs	r3, IPSR
10000cba:	223f      	movs	r2, #63	; 0x3f
10000cbc:	4013      	ands	r3, r2
10000cbe:	0018      	movs	r0, r3
10000cc0:	3810      	subs	r0, #16
10000cc2:	f3ef 8c10 	mrs	ip, PRIMASK
10000cc6:	b672      	cpsid	i
10000cc8:	4d20      	ldr	r5, [pc, #128]	; (10000d4c <hardware_alarm_irq_handler+0xa0>)
10000cca:	682a      	ldr	r2, [r5, #0]
10000ccc:	2a00      	cmp	r2, #0
10000cce:	d0fc      	beq.n	10000cca <hardware_alarm_irq_handler+0x1e>
10000cd0:	f3bf 8f5f 	dmb	sy
10000cd4:	2201      	movs	r2, #1
10000cd6:	0011      	movs	r1, r2
10000cd8:	4081      	lsls	r1, r0
10000cda:	4c1d      	ldr	r4, [pc, #116]	; (10000d50 <hardware_alarm_irq_handler+0xa4>)
10000cdc:	4688      	mov	r8, r1
10000cde:	6361      	str	r1, [r4, #52]	; 0x34
10000ce0:	491c      	ldr	r1, [pc, #112]	; (10000d54 <hardware_alarm_irq_handler+0xa8>)
10000ce2:	0017      	movs	r7, r2
10000ce4:	780e      	ldrb	r6, [r1, #0]
10000ce6:	468a      	mov	sl, r1
10000ce8:	0031      	movs	r1, r6
10000cea:	40c1      	lsrs	r1, r0
10000cec:	400f      	ands	r7, r1
10000cee:	420a      	tst	r2, r1
10000cf0:	d109      	bne.n	10000d06 <hardware_alarm_irq_handler+0x5a>
10000cf2:	f3bf 8f5f 	dmb	sy
10000cf6:	602f      	str	r7, [r5, #0]
10000cf8:	f38c 8810 	msr	PRIMASK, ip
10000cfc:	bce0      	pop	{r5, r6, r7}
10000cfe:	46ba      	mov	sl, r7
10000d00:	46b1      	mov	r9, r6
10000d02:	46a8      	mov	r8, r5
10000d04:	bdf0      	pop	{r4, r5, r6, r7, pc}
10000d06:	4914      	ldr	r1, [pc, #80]	; (10000d58 <hardware_alarm_irq_handler+0xac>)
10000d08:	0082      	lsls	r2, r0, #2
10000d0a:	6a64      	ldr	r4, [r4, #36]	; 0x24
10000d0c:	5851      	ldr	r1, [r2, r1]
10000d0e:	428c      	cmp	r4, r1
10000d10:	d30f      	bcc.n	10000d32 <hardware_alarm_irq_handler+0x86>
10000d12:	4b12      	ldr	r3, [pc, #72]	; (10000d5c <hardware_alarm_irq_handler+0xb0>)
10000d14:	58d2      	ldr	r2, [r2, r3]
10000d16:	4643      	mov	r3, r8
10000d18:	439e      	bics	r6, r3
10000d1a:	4653      	mov	r3, sl
10000d1c:	701e      	strb	r6, [r3, #0]
10000d1e:	f3bf 8f5f 	dmb	sy
10000d22:	2300      	movs	r3, #0
10000d24:	602b      	str	r3, [r5, #0]
10000d26:	f38c 8810 	msr	PRIMASK, ip
10000d2a:	2a00      	cmp	r2, #0
10000d2c:	d0e6      	beq.n	10000cfc <hardware_alarm_irq_handler+0x50>
10000d2e:	4790      	blx	r2
10000d30:	e7e4      	b.n	10000cfc <hardware_alarm_irq_handler+0x50>
10000d32:	4a0b      	ldr	r2, [pc, #44]	; (10000d60 <hardware_alarm_irq_handler+0xb4>)
10000d34:	009b      	lsls	r3, r3, #2
10000d36:	4690      	mov	r8, r2
10000d38:	4443      	add	r3, r8
10000d3a:	681a      	ldr	r2, [r3, #0]
10000d3c:	601a      	str	r2, [r3, #0]
10000d3e:	f3bf 8f5f 	dmb	sy
10000d42:	2300      	movs	r3, #0
10000d44:	602b      	str	r3, [r5, #0]
10000d46:	f38c 8810 	msr	PRIMASK, ip
10000d4a:	e7d7      	b.n	10000cfc <hardware_alarm_irq_handler+0x50>
10000d4c:	d0000128 	.word	0xd0000128
10000d50:	40054000 	.word	0x40054000
10000d54:	200005fa 	.word	0x200005fa
10000d58:	200005e8 	.word	0x200005e8
10000d5c:	2000054c 	.word	0x2000054c
10000d60:	40053fd0 	.word	0x40053fd0

10000d64 <hardware_alarm_claim>:
10000d64:	b510      	push	{r4, lr}
10000d66:	0001      	movs	r1, r0
10000d68:	4a02      	ldr	r2, [pc, #8]	; (10000d74 <hardware_alarm_claim+0x10>)
10000d6a:	4803      	ldr	r0, [pc, #12]	; (10000d78 <hardware_alarm_claim+0x14>)
10000d6c:	f7ff fb00 	bl	10000370 <hw_claim_or_assert>
10000d70:	bd10      	pop	{r4, pc}
10000d72:	46c0      	nop			; (mov r8, r8)
10000d74:	10001de8 	.word	0x10001de8
10000d78:	200005f8 	.word	0x200005f8

10000d7c <time_us_64>:
10000d7c:	4b03      	ldr	r3, [pc, #12]	; (10000d8c <time_us_64+0x10>)
10000d7e:	6a59      	ldr	r1, [r3, #36]	; 0x24
10000d80:	000a      	movs	r2, r1
10000d82:	6a98      	ldr	r0, [r3, #40]	; 0x28
10000d84:	6a59      	ldr	r1, [r3, #36]	; 0x24
10000d86:	428a      	cmp	r2, r1
10000d88:	d1fa      	bne.n	10000d80 <time_us_64+0x4>
10000d8a:	4770      	bx	lr
10000d8c:	40054000 	.word	0x40054000

10000d90 <busy_wait_until>:
10000d90:	4a06      	ldr	r2, [pc, #24]	; (10000dac <busy_wait_until+0x1c>)
10000d92:	6a53      	ldr	r3, [r2, #36]	; 0x24
10000d94:	4299      	cmp	r1, r3
10000d96:	d8fc      	bhi.n	10000d92 <busy_wait_until+0x2>
10000d98:	d107      	bne.n	10000daa <busy_wait_until+0x1a>
10000d9a:	4b04      	ldr	r3, [pc, #16]	; (10000dac <busy_wait_until+0x1c>)
10000d9c:	e002      	b.n	10000da4 <busy_wait_until+0x14>
10000d9e:	6a5a      	ldr	r2, [r3, #36]	; 0x24
10000da0:	4291      	cmp	r1, r2
10000da2:	d102      	bne.n	10000daa <busy_wait_until+0x1a>
10000da4:	6a9a      	ldr	r2, [r3, #40]	; 0x28
10000da6:	4282      	cmp	r2, r0
10000da8:	d3f9      	bcc.n	10000d9e <busy_wait_until+0xe>
10000daa:	4770      	bx	lr
10000dac:	40054000 	.word	0x40054000

10000db0 <hardware_alarm_set_callback>:
10000db0:	b570      	push	{r4, r5, r6, lr}
10000db2:	0004      	movs	r4, r0
10000db4:	000d      	movs	r5, r1
10000db6:	f3ef 8610 	mrs	r6, PRIMASK
10000dba:	b672      	cpsid	i
10000dbc:	4a1a      	ldr	r2, [pc, #104]	; (10000e28 <hardware_alarm_set_callback+0x78>)
10000dbe:	6813      	ldr	r3, [r2, #0]
10000dc0:	2b00      	cmp	r3, #0
10000dc2:	d0fc      	beq.n	10000dbe <hardware_alarm_set_callback+0xe>
10000dc4:	f3bf 8f5f 	dmb	sy
10000dc8:	2d00      	cmp	r5, #0
10000dca:	d01b      	beq.n	10000e04 <hardware_alarm_set_callback+0x54>
10000dcc:	0020      	movs	r0, r4
10000dce:	f7ff fb25 	bl	1000041c <irq_get_vtable_handler>
10000dd2:	4916      	ldr	r1, [pc, #88]	; (10000e2c <hardware_alarm_set_callback+0x7c>)
10000dd4:	4281      	cmp	r1, r0
10000dd6:	d00a      	beq.n	10000dee <hardware_alarm_set_callback+0x3e>
10000dd8:	0020      	movs	r0, r4
10000dda:	f7ff fb27 	bl	1000042c <irq_set_exclusive_handler>
10000dde:	2101      	movs	r1, #1
10000de0:	0020      	movs	r0, r4
10000de2:	f7ff fb09 	bl	100003f8 <irq_set_enabled>
10000de6:	2301      	movs	r3, #1
10000de8:	40a3      	lsls	r3, r4
10000dea:	4a11      	ldr	r2, [pc, #68]	; (10000e30 <hardware_alarm_set_callback+0x80>)
10000dec:	6013      	str	r3, [r2, #0]
10000dee:	4b11      	ldr	r3, [pc, #68]	; (10000e34 <hardware_alarm_set_callback+0x84>)
10000df0:	00a4      	lsls	r4, r4, #2
10000df2:	50e5      	str	r5, [r4, r3]
10000df4:	f3bf 8f5f 	dmb	sy
10000df8:	2200      	movs	r2, #0
10000dfa:	4b0b      	ldr	r3, [pc, #44]	; (10000e28 <hardware_alarm_set_callback+0x78>)
10000dfc:	601a      	str	r2, [r3, #0]
10000dfe:	f386 8810 	msr	PRIMASK, r6
10000e02:	bd70      	pop	{r4, r5, r6, pc}
10000e04:	4b0b      	ldr	r3, [pc, #44]	; (10000e34 <hardware_alarm_set_callback+0x84>)
10000e06:	00a2      	lsls	r2, r4, #2
10000e08:	50d5      	str	r5, [r2, r3]
10000e0a:	2201      	movs	r2, #1
10000e0c:	40a2      	lsls	r2, r4
10000e0e:	490a      	ldr	r1, [pc, #40]	; (10000e38 <hardware_alarm_set_callback+0x88>)
10000e10:	0020      	movs	r0, r4
10000e12:	780b      	ldrb	r3, [r1, #0]
10000e14:	4393      	bics	r3, r2
10000e16:	700b      	strb	r3, [r1, #0]
10000e18:	4904      	ldr	r1, [pc, #16]	; (10000e2c <hardware_alarm_set_callback+0x7c>)
10000e1a:	f7ff fb31 	bl	10000480 <irq_remove_handler>
10000e1e:	2100      	movs	r1, #0
10000e20:	0020      	movs	r0, r4
10000e22:	f7ff fae9 	bl	100003f8 <irq_set_enabled>
10000e26:	e7e5      	b.n	10000df4 <hardware_alarm_set_callback+0x44>
10000e28:	d0000128 	.word	0xd0000128
10000e2c:	10000cad 	.word	0x10000cad
10000e30:	40056038 	.word	0x40056038
10000e34:	2000054c 	.word	0x2000054c
10000e38:	200005fa 	.word	0x200005fa

10000e3c <hardware_alarm_set_target>:
10000e3c:	b5f0      	push	{r4, r5, r6, r7, lr}
10000e3e:	464f      	mov	r7, r9
10000e40:	46d6      	mov	lr, sl
10000e42:	4646      	mov	r6, r8
10000e44:	b5c0      	push	{r6, r7, lr}
10000e46:	0007      	movs	r7, r0
10000e48:	4c2f      	ldr	r4, [pc, #188]	; (10000f08 <hardware_alarm_set_target+0xcc>)
10000e4a:	6a61      	ldr	r1, [r4, #36]	; 0x24
10000e4c:	000d      	movs	r5, r1
10000e4e:	6aa6      	ldr	r6, [r4, #40]	; 0x28
10000e50:	6a61      	ldr	r1, [r4, #36]	; 0x24
10000e52:	42a9      	cmp	r1, r5
10000e54:	d1fa      	bne.n	10000e4c <hardware_alarm_set_target+0x10>
10000e56:	428b      	cmp	r3, r1
10000e58:	d808      	bhi.n	10000e6c <hardware_alarm_set_target+0x30>
10000e5a:	d005      	beq.n	10000e68 <hardware_alarm_set_target+0x2c>
10000e5c:	2001      	movs	r0, #1
10000e5e:	bce0      	pop	{r5, r6, r7}
10000e60:	46ba      	mov	sl, r7
10000e62:	46b1      	mov	r9, r6
10000e64:	46a8      	mov	r8, r5
10000e66:	bdf0      	pop	{r4, r5, r6, r7, pc}
10000e68:	42b2      	cmp	r2, r6
10000e6a:	d9f7      	bls.n	10000e5c <hardware_alarm_set_target+0x20>
10000e6c:	f3ef 8a10 	mrs	sl, PRIMASK
10000e70:	b672      	cpsid	i
10000e72:	4826      	ldr	r0, [pc, #152]	; (10000f0c <hardware_alarm_set_target+0xd0>)
10000e74:	6801      	ldr	r1, [r0, #0]
10000e76:	2900      	cmp	r1, #0
10000e78:	d0fc      	beq.n	10000e74 <hardware_alarm_set_target+0x38>
10000e7a:	f3bf 8f5f 	dmb	sy
10000e7e:	2501      	movs	r5, #1
10000e80:	40bd      	lsls	r5, r7
10000e82:	4923      	ldr	r1, [pc, #140]	; (10000f10 <hardware_alarm_set_target+0xd4>)
10000e84:	4c20      	ldr	r4, [pc, #128]	; (10000f08 <hardware_alarm_set_target+0xcc>)
10000e86:	4688      	mov	r8, r1
10000e88:	7809      	ldrb	r1, [r1, #0]
10000e8a:	4689      	mov	r9, r1
10000e8c:	4329      	orrs	r1, r5
10000e8e:	b2c9      	uxtb	r1, r1
10000e90:	468c      	mov	ip, r1
10000e92:	4641      	mov	r1, r8
10000e94:	4660      	mov	r0, ip
10000e96:	7008      	strb	r0, [r1, #0]
10000e98:	1d39      	adds	r1, r7, #4
10000e9a:	481e      	ldr	r0, [pc, #120]	; (10000f14 <hardware_alarm_set_target+0xd8>)
10000e9c:	0089      	lsls	r1, r1, #2
10000e9e:	6365      	str	r5, [r4, #52]	; 0x34
10000ea0:	510a      	str	r2, [r1, r4]
10000ea2:	00b9      	lsls	r1, r7, #2
10000ea4:	500b      	str	r3, [r1, r0]
10000ea6:	6a21      	ldr	r1, [r4, #32]
10000ea8:	2000      	movs	r0, #0
10000eaa:	4229      	tst	r1, r5
10000eac:	d019      	beq.n	10000ee2 <hardware_alarm_set_target+0xa6>
10000eae:	6a61      	ldr	r1, [r4, #36]	; 0x24
10000eb0:	0008      	movs	r0, r1
10000eb2:	6aa6      	ldr	r6, [r4, #40]	; 0x28
10000eb4:	6a61      	ldr	r1, [r4, #36]	; 0x24
10000eb6:	4281      	cmp	r1, r0
10000eb8:	d1fa      	bne.n	10000eb0 <hardware_alarm_set_target+0x74>
10000eba:	428b      	cmp	r3, r1
10000ebc:	d819      	bhi.n	10000ef2 <hardware_alarm_set_target+0xb6>
10000ebe:	d101      	bne.n	10000ec4 <hardware_alarm_set_target+0x88>
10000ec0:	42b2      	cmp	r2, r6
10000ec2:	d816      	bhi.n	10000ef2 <hardware_alarm_set_target+0xb6>
10000ec4:	45cc      	cmp	ip, r9
10000ec6:	d01d      	beq.n	10000f04 <hardware_alarm_set_target+0xc8>
10000ec8:	4b0f      	ldr	r3, [pc, #60]	; (10000f08 <hardware_alarm_set_target+0xcc>)
10000eca:	201f      	movs	r0, #31
10000ecc:	621d      	str	r5, [r3, #32]
10000ece:	635d      	str	r5, [r3, #52]	; 0x34
10000ed0:	2301      	movs	r3, #1
10000ed2:	4007      	ands	r7, r0
10000ed4:	40bb      	lsls	r3, r7
10000ed6:	4a10      	ldr	r2, [pc, #64]	; (10000f18 <hardware_alarm_set_target+0xdc>)
10000ed8:	381e      	subs	r0, #30
10000eda:	6013      	str	r3, [r2, #0]
10000edc:	4643      	mov	r3, r8
10000ede:	464a      	mov	r2, r9
10000ee0:	701a      	strb	r2, [r3, #0]
10000ee2:	f3bf 8f5f 	dmb	sy
10000ee6:	2200      	movs	r2, #0
10000ee8:	4b08      	ldr	r3, [pc, #32]	; (10000f0c <hardware_alarm_set_target+0xd0>)
10000eea:	601a      	str	r2, [r3, #0]
10000eec:	f38a 8810 	msr	PRIMASK, sl
10000ef0:	e7b5      	b.n	10000e5e <hardware_alarm_set_target+0x22>
10000ef2:	2000      	movs	r0, #0
10000ef4:	f3bf 8f5f 	dmb	sy
10000ef8:	2200      	movs	r2, #0
10000efa:	4b04      	ldr	r3, [pc, #16]	; (10000f0c <hardware_alarm_set_target+0xd0>)
10000efc:	601a      	str	r2, [r3, #0]
10000efe:	f38a 8810 	msr	PRIMASK, sl
10000f02:	e7ac      	b.n	10000e5e <hardware_alarm_set_target+0x22>
10000f04:	2001      	movs	r0, #1
10000f06:	e7ec      	b.n	10000ee2 <hardware_alarm_set_target+0xa6>
10000f08:	40054000 	.word	0x40054000
10000f0c:	d0000128 	.word	0xd0000128
10000f10:	200005fa 	.word	0x200005fa
10000f14:	200005e8 	.word	0x200005e8
10000f18:	e000e280 	.word	0xe000e280

10000f1c <hardware_alarm_cancel>:
10000f1c:	f3ef 8c10 	mrs	ip, PRIMASK
10000f20:	b672      	cpsid	i
10000f22:	490a      	ldr	r1, [pc, #40]	; (10000f4c <hardware_alarm_cancel+0x30>)
10000f24:	680b      	ldr	r3, [r1, #0]
10000f26:	2b00      	cmp	r3, #0
10000f28:	d0fc      	beq.n	10000f24 <hardware_alarm_cancel+0x8>
10000f2a:	f3bf 8f5f 	dmb	sy
10000f2e:	2301      	movs	r3, #1
10000f30:	4083      	lsls	r3, r0
10000f32:	4a07      	ldr	r2, [pc, #28]	; (10000f50 <hardware_alarm_cancel+0x34>)
10000f34:	4807      	ldr	r0, [pc, #28]	; (10000f54 <hardware_alarm_cancel+0x38>)
10000f36:	6213      	str	r3, [r2, #32]
10000f38:	7802      	ldrb	r2, [r0, #0]
10000f3a:	439a      	bics	r2, r3
10000f3c:	7002      	strb	r2, [r0, #0]
10000f3e:	f3bf 8f5f 	dmb	sy
10000f42:	2300      	movs	r3, #0
10000f44:	600b      	str	r3, [r1, #0]
10000f46:	f38c 8810 	msr	PRIMASK, ip
10000f4a:	4770      	bx	lr
10000f4c:	d0000128 	.word	0xd0000128
10000f50:	40054000 	.word	0x40054000
10000f54:	200005fa 	.word	0x200005fa

10000f58 <ph_merge_nodes>:
10000f58:	b570      	push	{r4, r5, r6, lr}
10000f5a:	0005      	movs	r5, r0
10000f5c:	0014      	movs	r4, r2
10000f5e:	0016      	movs	r6, r2
10000f60:	2900      	cmp	r1, #0
10000f62:	d015      	beq.n	10000f90 <ph_merge_nodes+0x38>
10000f64:	000c      	movs	r4, r1
10000f66:	2a00      	cmp	r2, #0
10000f68:	d012      	beq.n	10000f90 <ph_merge_nodes+0x38>
10000f6a:	6880      	ldr	r0, [r0, #8]
10000f6c:	686b      	ldr	r3, [r5, #4]
10000f6e:	4798      	blx	r3
10000f70:	6829      	ldr	r1, [r5, #0]
10000f72:	2800      	cmp	r0, #0
10000f74:	d00e      	beq.n	10000f94 <ph_merge_nodes+0x3c>
10000f76:	0073      	lsls	r3, r6, #1
10000f78:	199b      	adds	r3, r3, r6
10000f7a:	0062      	lsls	r2, r4, #1
10000f7c:	3b03      	subs	r3, #3
10000f7e:	1912      	adds	r2, r2, r4
10000f80:	18cb      	adds	r3, r1, r3
10000f82:	3a03      	subs	r2, #3
10000f84:	709c      	strb	r4, [r3, #2]
10000f86:	1888      	adds	r0, r1, r2
10000f88:	5c8a      	ldrb	r2, [r1, r2]
10000f8a:	2a00      	cmp	r2, #0
10000f8c:	d115      	bne.n	10000fba <ph_merge_nodes+0x62>
10000f8e:	7006      	strb	r6, [r0, #0]
10000f90:	0020      	movs	r0, r4
10000f92:	bd70      	pop	{r4, r5, r6, pc}
10000f94:	0063      	lsls	r3, r4, #1
10000f96:	191b      	adds	r3, r3, r4
10000f98:	0072      	lsls	r2, r6, #1
10000f9a:	3b03      	subs	r3, #3
10000f9c:	1992      	adds	r2, r2, r6
10000f9e:	18cb      	adds	r3, r1, r3
10000fa0:	3a03      	subs	r2, #3
10000fa2:	709e      	strb	r6, [r3, #2]
10000fa4:	1888      	adds	r0, r1, r2
10000fa6:	5c8a      	ldrb	r2, [r1, r2]
10000fa8:	2a00      	cmp	r2, #0
10000faa:	d102      	bne.n	10000fb2 <ph_merge_nodes+0x5a>
10000fac:	7004      	strb	r4, [r0, #0]
10000fae:	0034      	movs	r4, r6
10000fb0:	e7ee      	b.n	10000f90 <ph_merge_nodes+0x38>
10000fb2:	705a      	strb	r2, [r3, #1]
10000fb4:	7004      	strb	r4, [r0, #0]
10000fb6:	0034      	movs	r4, r6
10000fb8:	e7ea      	b.n	10000f90 <ph_merge_nodes+0x38>
10000fba:	705a      	strb	r2, [r3, #1]
10000fbc:	7006      	strb	r6, [r0, #0]
10000fbe:	e7e7      	b.n	10000f90 <ph_merge_nodes+0x38>

10000fc0 <ph_post_alloc_init>:
10000fc0:	b530      	push	{r4, r5, lr}
10000fc2:	6083      	str	r3, [r0, #8]
10000fc4:	2300      	movs	r3, #0
10000fc6:	b2cc      	uxtb	r4, r1
10000fc8:	7343      	strb	r3, [r0, #13]
10000fca:	3301      	adds	r3, #1
10000fcc:	7304      	strb	r4, [r0, #12]
10000fce:	6042      	str	r2, [r0, #4]
10000fd0:	7383      	strb	r3, [r0, #14]
10000fd2:	73c4      	strb	r4, [r0, #15]
10000fd4:	000d      	movs	r5, r1
10000fd6:	6800      	ldr	r0, [r0, #0]
10000fd8:	2c01      	cmp	r4, #1
10000fda:	d906      	bls.n	10000fea <ph_post_alloc_init+0x2a>
10000fdc:	1c42      	adds	r2, r0, #1
10000fde:	3301      	adds	r3, #1
10000fe0:	b2db      	uxtb	r3, r3
10000fe2:	7013      	strb	r3, [r2, #0]
10000fe4:	3203      	adds	r2, #3
10000fe6:	429c      	cmp	r4, r3
10000fe8:	d1f9      	bne.n	10000fde <ph_post_alloc_init+0x1e>
10000fea:	21ff      	movs	r1, #255	; 0xff
10000fec:	4029      	ands	r1, r5
10000fee:	004b      	lsls	r3, r1, #1
10000ff0:	1859      	adds	r1, r3, r1
10000ff2:	2300      	movs	r3, #0
10000ff4:	1840      	adds	r0, r0, r1
10000ff6:	3803      	subs	r0, #3
10000ff8:	7043      	strb	r3, [r0, #1]
10000ffa:	bd30      	pop	{r4, r5, pc}

10000ffc <ph_merge_two_pass>:
10000ffc:	b5f8      	push	{r3, r4, r5, r6, r7, lr}
10000ffe:	46ce      	mov	lr, r9
10001000:	4647      	mov	r7, r8
10001002:	0006      	movs	r6, r0
10001004:	000c      	movs	r4, r1
10001006:	b580      	push	{r7, lr}
10001008:	2900      	cmp	r1, #0
1000100a:	d007      	beq.n	1000101c <ph_merge_two_pass+0x20>
1000100c:	004d      	lsls	r5, r1, #1
1000100e:	6803      	ldr	r3, [r0, #0]
10001010:	186d      	adds	r5, r5, r1
10001012:	3d03      	subs	r5, #3
10001014:	195a      	adds	r2, r3, r5
10001016:	7857      	ldrb	r7, [r2, #1]
10001018:	2f00      	cmp	r7, #0
1000101a:	d104      	bne.n	10001026 <ph_merge_two_pass+0x2a>
1000101c:	0020      	movs	r0, r4
1000101e:	bcc0      	pop	{r6, r7}
10001020:	46b9      	mov	r9, r7
10001022:	46b0      	mov	r8, r6
10001024:	bdf8      	pop	{r3, r4, r5, r6, r7, pc}
10001026:	0079      	lsls	r1, r7, #1
10001028:	19c9      	adds	r1, r1, r7
1000102a:	3903      	subs	r1, #3
1000102c:	4688      	mov	r8, r1
1000102e:	4443      	add	r3, r8
10001030:	7859      	ldrb	r1, [r3, #1]
10001032:	4689      	mov	r9, r1
10001034:	2100      	movs	r1, #0
10001036:	7059      	strb	r1, [r3, #1]
10001038:	7051      	strb	r1, [r2, #1]
1000103a:	6873      	ldr	r3, [r6, #4]
1000103c:	003a      	movs	r2, r7
1000103e:	0021      	movs	r1, r4
10001040:	6880      	ldr	r0, [r0, #8]
10001042:	4798      	blx	r3
10001044:	6833      	ldr	r3, [r6, #0]
10001046:	2800      	cmp	r0, #0
10001048:	d014      	beq.n	10001074 <ph_merge_two_pass+0x78>
1000104a:	4642      	mov	r2, r8
1000104c:	189a      	adds	r2, r3, r2
1000104e:	7094      	strb	r4, [r2, #2]
10001050:	1959      	adds	r1, r3, r5
10001052:	5d5b      	ldrb	r3, [r3, r5]
10001054:	2b00      	cmp	r3, #0
10001056:	d000      	beq.n	1000105a <ph_merge_two_pass+0x5e>
10001058:	7053      	strb	r3, [r2, #1]
1000105a:	700f      	strb	r7, [r1, #0]
1000105c:	0027      	movs	r7, r4
1000105e:	4649      	mov	r1, r9
10001060:	0030      	movs	r0, r6
10001062:	f7ff ffcb 	bl	10000ffc <ph_merge_two_pass>
10001066:	0039      	movs	r1, r7
10001068:	0002      	movs	r2, r0
1000106a:	0030      	movs	r0, r6
1000106c:	f7ff ff74 	bl	10000f58 <ph_merge_nodes>
10001070:	0004      	movs	r4, r0
10001072:	e7d3      	b.n	1000101c <ph_merge_two_pass+0x20>
10001074:	4642      	mov	r2, r8
10001076:	4641      	mov	r1, r8
10001078:	195d      	adds	r5, r3, r5
1000107a:	70af      	strb	r7, [r5, #2]
1000107c:	189a      	adds	r2, r3, r2
1000107e:	5c5b      	ldrb	r3, [r3, r1]
10001080:	2b00      	cmp	r3, #0
10001082:	d000      	beq.n	10001086 <ph_merge_two_pass+0x8a>
10001084:	706b      	strb	r3, [r5, #1]
10001086:	7014      	strb	r4, [r2, #0]
10001088:	e7e9      	b.n	1000105e <ph_merge_two_pass+0x62>
1000108a:	46c0      	nop			; (mov r8, r8)

1000108c <ph_remove_any_head>:
1000108c:	b5f0      	push	{r4, r5, r6, r7, lr}
1000108e:	4657      	mov	r7, sl
10001090:	4645      	mov	r5, r8
10001092:	46de      	mov	lr, fp
10001094:	464e      	mov	r6, r9
10001096:	b5e0      	push	{r5, r6, r7, lr}
10001098:	000d      	movs	r5, r1
1000109a:	006b      	lsls	r3, r5, #1
1000109c:	6801      	ldr	r1, [r0, #0]
1000109e:	195b      	adds	r3, r3, r5
100010a0:	1edf      	subs	r7, r3, #3
100010a2:	0004      	movs	r4, r0
100010a4:	5dc8      	ldrb	r0, [r1, r7]
100010a6:	b083      	sub	sp, #12
100010a8:	9201      	str	r2, [sp, #4]
100010aa:	19ca      	adds	r2, r1, r7
100010ac:	2800      	cmp	r0, #0
100010ae:	d04c      	beq.n	1000114a <ph_remove_any_head+0xbe>
100010b0:	0043      	lsls	r3, r0, #1
100010b2:	181b      	adds	r3, r3, r0
100010b4:	3b03      	subs	r3, #3
100010b6:	18cb      	adds	r3, r1, r3
100010b8:	785e      	ldrb	r6, [r3, #1]
100010ba:	46b4      	mov	ip, r6
100010bc:	2e00      	cmp	r6, #0
100010be:	d116      	bne.n	100010ee <ph_remove_any_head+0x62>
100010c0:	9e01      	ldr	r6, [sp, #4]
100010c2:	2e00      	cmp	r6, #0
100010c4:	d03e      	beq.n	10001144 <ph_remove_any_head+0xb8>
100010c6:	7be6      	ldrb	r6, [r4, #15]
100010c8:	2e00      	cmp	r6, #0
100010ca:	d004      	beq.n	100010d6 <ph_remove_any_head+0x4a>
100010cc:	0073      	lsls	r3, r6, #1
100010ce:	199b      	adds	r3, r3, r6
100010d0:	18cb      	adds	r3, r1, r3
100010d2:	3b03      	subs	r3, #3
100010d4:	705d      	strb	r5, [r3, #1]
100010d6:	73e5      	strb	r5, [r4, #15]
100010d8:	2800      	cmp	r0, #0
100010da:	d12f      	bne.n	1000113c <ph_remove_any_head+0xb0>
100010dc:	2300      	movs	r3, #0
100010de:	7053      	strb	r3, [r2, #1]
100010e0:	b003      	add	sp, #12
100010e2:	bcf0      	pop	{r4, r5, r6, r7}
100010e4:	46bb      	mov	fp, r7
100010e6:	46b2      	mov	sl, r6
100010e8:	46a9      	mov	r9, r5
100010ea:	46a0      	mov	r8, r4
100010ec:	bdf0      	pop	{r4, r5, r6, r7, pc}
100010ee:	0072      	lsls	r2, r6, #1
100010f0:	4462      	add	r2, ip
100010f2:	3a03      	subs	r2, #3
100010f4:	1889      	adds	r1, r1, r2
100010f6:	784a      	ldrb	r2, [r1, #1]
100010f8:	4690      	mov	r8, r2
100010fa:	2200      	movs	r2, #0
100010fc:	704a      	strb	r2, [r1, #1]
100010fe:	4691      	mov	r9, r2
10001100:	705a      	strb	r2, [r3, #1]
10001102:	0001      	movs	r1, r0
10001104:	0032      	movs	r2, r6
10001106:	0020      	movs	r0, r4
10001108:	f7ff ff26 	bl	10000f58 <ph_merge_nodes>
1000110c:	4643      	mov	r3, r8
1000110e:	4682      	mov	sl, r0
10001110:	2b00      	cmp	r3, #0
10001112:	d007      	beq.n	10001124 <ph_remove_any_head+0x98>
10001114:	005b      	lsls	r3, r3, #1
10001116:	6821      	ldr	r1, [r4, #0]
10001118:	4443      	add	r3, r8
1000111a:	3b03      	subs	r3, #3
1000111c:	18cb      	adds	r3, r1, r3
1000111e:	785a      	ldrb	r2, [r3, #1]
10001120:	2a00      	cmp	r2, #0
10001122:	d116      	bne.n	10001152 <ph_remove_any_head+0xc6>
10001124:	4642      	mov	r2, r8
10001126:	4651      	mov	r1, sl
10001128:	0020      	movs	r0, r4
1000112a:	f7ff ff15 	bl	10000f58 <ph_merge_nodes>
1000112e:	6821      	ldr	r1, [r4, #0]
10001130:	9b01      	ldr	r3, [sp, #4]
10001132:	19ca      	adds	r2, r1, r7
10001134:	2b00      	cmp	r3, #0
10001136:	d1c6      	bne.n	100010c6 <ph_remove_any_head+0x3a>
10001138:	2800      	cmp	r0, #0
1000113a:	d0cf      	beq.n	100010dc <ph_remove_any_head+0x50>
1000113c:	0043      	lsls	r3, r0, #1
1000113e:	181b      	adds	r3, r3, r0
10001140:	3b03      	subs	r3, #3
10001142:	18cb      	adds	r3, r1, r3
10001144:	2100      	movs	r1, #0
10001146:	7099      	strb	r1, [r3, #2]
10001148:	e7c8      	b.n	100010dc <ph_remove_any_head+0x50>
1000114a:	9b01      	ldr	r3, [sp, #4]
1000114c:	2b00      	cmp	r3, #0
1000114e:	d1ba      	bne.n	100010c6 <ph_remove_any_head+0x3a>
10001150:	e7c4      	b.n	100010dc <ph_remove_any_head+0x50>
10001152:	0050      	lsls	r0, r2, #1
10001154:	1880      	adds	r0, r0, r2
10001156:	3803      	subs	r0, #3
10001158:	1809      	adds	r1, r1, r0
1000115a:	7848      	ldrb	r0, [r1, #1]
1000115c:	4683      	mov	fp, r0
1000115e:	4648      	mov	r0, r9
10001160:	7048      	strb	r0, [r1, #1]
10001162:	7058      	strb	r0, [r3, #1]
10001164:	4641      	mov	r1, r8
10001166:	0020      	movs	r0, r4
10001168:	f7ff fef6 	bl	10000f58 <ph_merge_nodes>
1000116c:	4659      	mov	r1, fp
1000116e:	4680      	mov	r8, r0
10001170:	0020      	movs	r0, r4
10001172:	f7ff ff43 	bl	10000ffc <ph_merge_two_pass>
10001176:	4641      	mov	r1, r8
10001178:	0002      	movs	r2, r0
1000117a:	0020      	movs	r0, r4
1000117c:	f7ff feec 	bl	10000f58 <ph_merge_nodes>
10001180:	4680      	mov	r8, r0
10001182:	e7cf      	b.n	10001124 <ph_remove_any_head+0x98>

10001184 <ph_remove_head>:
10001184:	b5f0      	push	{r4, r5, r6, r7, lr}
10001186:	4657      	mov	r7, sl
10001188:	4645      	mov	r5, r8
1000118a:	46de      	mov	lr, fp
1000118c:	464e      	mov	r6, r9
1000118e:	b5e0      	push	{r5, r6, r7, lr}
10001190:	b083      	sub	sp, #12
10001192:	9101      	str	r1, [sp, #4]
10001194:	7b45      	ldrb	r5, [r0, #13]
10001196:	0004      	movs	r4, r0
10001198:	006b      	lsls	r3, r5, #1
1000119a:	6800      	ldr	r0, [r0, #0]
1000119c:	195b      	adds	r3, r3, r5
1000119e:	1edf      	subs	r7, r3, #3
100011a0:	5dc1      	ldrb	r1, [r0, r7]
100011a2:	19c2      	adds	r2, r0, r7
100011a4:	2900      	cmp	r1, #0
100011a6:	d04e      	beq.n	10001246 <ph_remove_head+0xc2>
100011a8:	004b      	lsls	r3, r1, #1
100011aa:	185b      	adds	r3, r3, r1
100011ac:	3b03      	subs	r3, #3
100011ae:	18c3      	adds	r3, r0, r3
100011b0:	785e      	ldrb	r6, [r3, #1]
100011b2:	46b4      	mov	ip, r6
100011b4:	2e00      	cmp	r6, #0
100011b6:	d118      	bne.n	100011ea <ph_remove_head+0x66>
100011b8:	9e01      	ldr	r6, [sp, #4]
100011ba:	2e00      	cmp	r6, #0
100011bc:	d040      	beq.n	10001240 <ph_remove_head+0xbc>
100011be:	7be6      	ldrb	r6, [r4, #15]
100011c0:	2e00      	cmp	r6, #0
100011c2:	d004      	beq.n	100011ce <ph_remove_head+0x4a>
100011c4:	0073      	lsls	r3, r6, #1
100011c6:	199b      	adds	r3, r3, r6
100011c8:	18c3      	adds	r3, r0, r3
100011ca:	3b03      	subs	r3, #3
100011cc:	705d      	strb	r5, [r3, #1]
100011ce:	73e5      	strb	r5, [r4, #15]
100011d0:	2900      	cmp	r1, #0
100011d2:	d131      	bne.n	10001238 <ph_remove_head+0xb4>
100011d4:	2300      	movs	r3, #0
100011d6:	0028      	movs	r0, r5
100011d8:	7053      	strb	r3, [r2, #1]
100011da:	7361      	strb	r1, [r4, #13]
100011dc:	b003      	add	sp, #12
100011de:	bcf0      	pop	{r4, r5, r6, r7}
100011e0:	46bb      	mov	fp, r7
100011e2:	46b2      	mov	sl, r6
100011e4:	46a9      	mov	r9, r5
100011e6:	46a0      	mov	r8, r4
100011e8:	bdf0      	pop	{r4, r5, r6, r7, pc}
100011ea:	0072      	lsls	r2, r6, #1
100011ec:	4462      	add	r2, ip
100011ee:	3a03      	subs	r2, #3
100011f0:	1880      	adds	r0, r0, r2
100011f2:	7842      	ldrb	r2, [r0, #1]
100011f4:	4690      	mov	r8, r2
100011f6:	2200      	movs	r2, #0
100011f8:	7042      	strb	r2, [r0, #1]
100011fa:	4691      	mov	r9, r2
100011fc:	705a      	strb	r2, [r3, #1]
100011fe:	0020      	movs	r0, r4
10001200:	0032      	movs	r2, r6
10001202:	f7ff fea9 	bl	10000f58 <ph_merge_nodes>
10001206:	4643      	mov	r3, r8
10001208:	4682      	mov	sl, r0
1000120a:	2b00      	cmp	r3, #0
1000120c:	d007      	beq.n	1000121e <ph_remove_head+0x9a>
1000120e:	005b      	lsls	r3, r3, #1
10001210:	6821      	ldr	r1, [r4, #0]
10001212:	4443      	add	r3, r8
10001214:	3b03      	subs	r3, #3
10001216:	18cb      	adds	r3, r1, r3
10001218:	785a      	ldrb	r2, [r3, #1]
1000121a:	2a00      	cmp	r2, #0
1000121c:	d117      	bne.n	1000124e <ph_remove_head+0xca>
1000121e:	4642      	mov	r2, r8
10001220:	4651      	mov	r1, sl
10001222:	0020      	movs	r0, r4
10001224:	f7ff fe98 	bl	10000f58 <ph_merge_nodes>
10001228:	9b01      	ldr	r3, [sp, #4]
1000122a:	0001      	movs	r1, r0
1000122c:	6820      	ldr	r0, [r4, #0]
1000122e:	19c2      	adds	r2, r0, r7
10001230:	2b00      	cmp	r3, #0
10001232:	d1c4      	bne.n	100011be <ph_remove_head+0x3a>
10001234:	2900      	cmp	r1, #0
10001236:	d0cd      	beq.n	100011d4 <ph_remove_head+0x50>
10001238:	004b      	lsls	r3, r1, #1
1000123a:	185b      	adds	r3, r3, r1
1000123c:	3b03      	subs	r3, #3
1000123e:	18c3      	adds	r3, r0, r3
10001240:	2000      	movs	r0, #0
10001242:	7098      	strb	r0, [r3, #2]
10001244:	e7c6      	b.n	100011d4 <ph_remove_head+0x50>
10001246:	9b01      	ldr	r3, [sp, #4]
10001248:	2b00      	cmp	r3, #0
1000124a:	d1b8      	bne.n	100011be <ph_remove_head+0x3a>
1000124c:	e7c2      	b.n	100011d4 <ph_remove_head+0x50>
1000124e:	0050      	lsls	r0, r2, #1
10001250:	1880      	adds	r0, r0, r2
10001252:	3803      	subs	r0, #3
10001254:	1809      	adds	r1, r1, r0
10001256:	7848      	ldrb	r0, [r1, #1]
10001258:	4683      	mov	fp, r0
1000125a:	4648      	mov	r0, r9
1000125c:	7048      	strb	r0, [r1, #1]
1000125e:	7058      	strb	r0, [r3, #1]
10001260:	4641      	mov	r1, r8
10001262:	0020      	movs	r0, r4
10001264:	f7ff fe78 	bl	10000f58 <ph_merge_nodes>
10001268:	4659      	mov	r1, fp
1000126a:	4680      	mov	r8, r0
1000126c:	0020      	movs	r0, r4
1000126e:	f7ff fec5 	bl	10000ffc <ph_merge_two_pass>
10001272:	4641      	mov	r1, r8
10001274:	0002      	movs	r2, r0
10001276:	0020      	movs	r0, r4
10001278:	f7ff fe6e 	bl	10000f58 <ph_merge_nodes>
1000127c:	4680      	mov	r8, r0
1000127e:	e7ce      	b.n	1000121e <ph_remove_head+0x9a>

10001280 <ph_remove_and_free_node>:
10001280:	b570      	push	{r4, r5, r6, lr}
10001282:	0004      	movs	r4, r0
10001284:	2900      	cmp	r1, #0
10001286:	d02c      	beq.n	100012e2 <ph_remove_and_free_node+0x62>
10001288:	7b43      	ldrb	r3, [r0, #13]
1000128a:	428b      	cmp	r3, r1
1000128c:	d02e      	beq.n	100012ec <ph_remove_and_free_node+0x6c>
1000128e:	6805      	ldr	r5, [r0, #0]
10001290:	0048      	lsls	r0, r1, #1
10001292:	1840      	adds	r0, r0, r1
10001294:	3803      	subs	r0, #3
10001296:	1828      	adds	r0, r5, r0
10001298:	7882      	ldrb	r2, [r0, #2]
1000129a:	2a00      	cmp	r2, #0
1000129c:	d021      	beq.n	100012e2 <ph_remove_and_free_node+0x62>
1000129e:	0053      	lsls	r3, r2, #1
100012a0:	189b      	adds	r3, r3, r2
100012a2:	3b03      	subs	r3, #3
100012a4:	5cea      	ldrb	r2, [r5, r3]
100012a6:	18ee      	adds	r6, r5, r3
100012a8:	428a      	cmp	r2, r1
100012aa:	d102      	bne.n	100012b2 <ph_remove_and_free_node+0x32>
100012ac:	e01b      	b.n	100012e6 <ph_remove_and_free_node+0x66>
100012ae:	2a00      	cmp	r2, #0
100012b0:	d008      	beq.n	100012c4 <ph_remove_and_free_node+0x44>
100012b2:	0053      	lsls	r3, r2, #1
100012b4:	189b      	adds	r3, r3, r2
100012b6:	3b03      	subs	r3, #3
100012b8:	18eb      	adds	r3, r5, r3
100012ba:	785a      	ldrb	r2, [r3, #1]
100012bc:	428a      	cmp	r2, r1
100012be:	d1f6      	bne.n	100012ae <ph_remove_and_free_node+0x2e>
100012c0:	7842      	ldrb	r2, [r0, #1]
100012c2:	705a      	strb	r2, [r3, #1]
100012c4:	2300      	movs	r3, #0
100012c6:	2201      	movs	r2, #1
100012c8:	7083      	strb	r3, [r0, #2]
100012ca:	7043      	strb	r3, [r0, #1]
100012cc:	0020      	movs	r0, r4
100012ce:	f7ff fedd 	bl	1000108c <ph_remove_any_head>
100012d2:	7b61      	ldrb	r1, [r4, #13]
100012d4:	0002      	movs	r2, r0
100012d6:	0020      	movs	r0, r4
100012d8:	f7ff fe3e 	bl	10000f58 <ph_merge_nodes>
100012dc:	7360      	strb	r0, [r4, #13]
100012de:	2001      	movs	r0, #1
100012e0:	e000      	b.n	100012e4 <ph_remove_and_free_node+0x64>
100012e2:	2000      	movs	r0, #0
100012e4:	bd70      	pop	{r4, r5, r6, pc}
100012e6:	7843      	ldrb	r3, [r0, #1]
100012e8:	7033      	strb	r3, [r6, #0]
100012ea:	e7eb      	b.n	100012c4 <ph_remove_and_free_node+0x44>
100012ec:	2201      	movs	r2, #1
100012ee:	0019      	movs	r1, r3
100012f0:	f7ff fecc 	bl	1000108c <ph_remove_any_head>
100012f4:	7360      	strb	r0, [r4, #13]
100012f6:	2001      	movs	r0, #1
100012f8:	e7f4      	b.n	100012e4 <ph_remove_and_free_node+0x64>
100012fa:	46c0      	nop			; (mov r8, r8)

100012fc <mutex_init>:
100012fc:	b510      	push	{r4, lr}
100012fe:	0004      	movs	r4, r0
10001300:	f7ff f86e 	bl	100003e0 <next_striped_spin_lock_num>
10001304:	0001      	movs	r1, r0
10001306:	0020      	movs	r0, r4
10001308:	f7ff fa00 	bl	1000070c <lock_init>
1000130c:	23ff      	movs	r3, #255	; 0xff
1000130e:	7123      	strb	r3, [r4, #4]
10001310:	f3bf 8f5f 	dmb	sy
10001314:	bd10      	pop	{r4, pc}
10001316:	46c0      	nop			; (mov r8, r8)

10001318 <recursive_mutex_init>:
10001318:	b510      	push	{r4, lr}
1000131a:	0004      	movs	r4, r0
1000131c:	f7ff f860 	bl	100003e0 <next_striped_spin_lock_num>
10001320:	0001      	movs	r1, r0
10001322:	0020      	movs	r0, r4
10001324:	f7ff f9f2 	bl	1000070c <lock_init>
10001328:	23ff      	movs	r3, #255	; 0xff
1000132a:	80a3      	strh	r3, [r4, #4]
1000132c:	f3bf 8f5f 	dmb	sy
10001330:	bd10      	pop	{r4, pc}
10001332:	46c0      	nop			; (mov r8, r8)

10001334 <runtime_init>:
10001334:	4b2c      	ldr	r3, [pc, #176]	; (100013e8 <runtime_init+0xb4>)
10001336:	4a2d      	ldr	r2, [pc, #180]	; (100013ec <runtime_init+0xb8>)
10001338:	b570      	push	{r4, r5, r6, lr}
1000133a:	601a      	str	r2, [r3, #0]
1000133c:	4a2c      	ldr	r2, [pc, #176]	; (100013f0 <runtime_init+0xbc>)
1000133e:	4b2d      	ldr	r3, [pc, #180]	; (100013f4 <runtime_init+0xc0>)
10001340:	492d      	ldr	r1, [pc, #180]	; (100013f8 <runtime_init+0xc4>)
10001342:	601a      	str	r2, [r3, #0]
10001344:	0014      	movs	r4, r2
10001346:	688b      	ldr	r3, [r1, #8]
10001348:	439c      	bics	r4, r3
1000134a:	d1fb      	bne.n	10001344 <runtime_init+0x10>
1000134c:	4d2b      	ldr	r5, [pc, #172]	; (100013fc <runtime_init+0xc8>)
1000134e:	4e2c      	ldr	r6, [pc, #176]	; (10001400 <runtime_init+0xcc>)
10001350:	42b5      	cmp	r5, r6
10001352:	d208      	bcs.n	10001366 <runtime_init+0x32>
10001354:	3e01      	subs	r6, #1
10001356:	1b76      	subs	r6, r6, r5
10001358:	08b6      	lsrs	r6, r6, #2
1000135a:	cd08      	ldmia	r5!, {r3}
1000135c:	4798      	blx	r3
1000135e:	0023      	movs	r3, r4
10001360:	3401      	adds	r4, #1
10001362:	42b3      	cmp	r3, r6
10001364:	d1f9      	bne.n	1000135a <runtime_init+0x26>
10001366:	f000 f87d 	bl	10001464 <clocks_init>
1000136a:	4a26      	ldr	r2, [pc, #152]	; (10001404 <runtime_init+0xd0>)
1000136c:	4b21      	ldr	r3, [pc, #132]	; (100013f4 <runtime_init+0xc0>)
1000136e:	601a      	str	r2, [r3, #0]
10001370:	4a21      	ldr	r2, [pc, #132]	; (100013f8 <runtime_init+0xc4>)
10001372:	6893      	ldr	r3, [r2, #8]
10001374:	43db      	mvns	r3, r3
10001376:	01db      	lsls	r3, r3, #7
10001378:	09dd      	lsrs	r5, r3, #7
1000137a:	2b00      	cmp	r3, #0
1000137c:	d1f9      	bne.n	10001372 <runtime_init+0x3e>
1000137e:	2240      	movs	r2, #64	; 0x40
10001380:	4b21      	ldr	r3, [pc, #132]	; (10001408 <runtime_init+0xd4>)
10001382:	4c22      	ldr	r4, [pc, #136]	; (1000140c <runtime_init+0xd8>)
10001384:	4e22      	ldr	r6, [pc, #136]	; (10001410 <runtime_init+0xdc>)
10001386:	679a      	str	r2, [r3, #120]	; 0x78
10001388:	675a      	str	r2, [r3, #116]	; 0x74
1000138a:	671a      	str	r2, [r3, #112]	; 0x70
1000138c:	66da      	str	r2, [r3, #108]	; 0x6c
1000138e:	42b4      	cmp	r4, r6
10001390:	d208      	bcs.n	100013a4 <runtime_init+0x70>
10001392:	6823      	ldr	r3, [r4, #0]
10001394:	0020      	movs	r0, r4
10001396:	2b00      	cmp	r3, #0
10001398:	d020      	beq.n	100013dc <runtime_init+0xa8>
1000139a:	3408      	adds	r4, #8
1000139c:	f7ff ffbc 	bl	10001318 <recursive_mutex_init>
100013a0:	42b4      	cmp	r4, r6
100013a2:	d3f6      	bcc.n	10001392 <runtime_init+0x5e>
100013a4:	4e1b      	ldr	r6, [pc, #108]	; (10001414 <runtime_init+0xe0>)
100013a6:	4c1c      	ldr	r4, [pc, #112]	; (10001418 <runtime_init+0xe4>)
100013a8:	22c0      	movs	r2, #192	; 0xc0
100013aa:	68a1      	ldr	r1, [r4, #8]
100013ac:	0030      	movs	r0, r6
100013ae:	f000 fb75 	bl	10001a9c <__wrap___aeabi_memcpy>
100013b2:	60a6      	str	r6, [r4, #8]
100013b4:	f7ff f806 	bl	100003c4 <spin_locks_reset>
100013b8:	f7ff f996 	bl	100006e8 <irq_init_priorities>
100013bc:	f7ff fbd2 	bl	10000b64 <alarm_pool_init_default>
100013c0:	4c16      	ldr	r4, [pc, #88]	; (1000141c <runtime_init+0xe8>)
100013c2:	4e17      	ldr	r6, [pc, #92]	; (10001420 <runtime_init+0xec>)
100013c4:	42b4      	cmp	r4, r6
100013c6:	d208      	bcs.n	100013da <runtime_init+0xa6>
100013c8:	3e01      	subs	r6, #1
100013ca:	1b36      	subs	r6, r6, r4
100013cc:	08b6      	lsrs	r6, r6, #2
100013ce:	cc08      	ldmia	r4!, {r3}
100013d0:	4798      	blx	r3
100013d2:	002b      	movs	r3, r5
100013d4:	3501      	adds	r5, #1
100013d6:	429e      	cmp	r6, r3
100013d8:	d1f9      	bne.n	100013ce <runtime_init+0x9a>
100013da:	bd70      	pop	{r4, r5, r6, pc}
100013dc:	3408      	adds	r4, #8
100013de:	f7ff ff8d 	bl	100012fc <mutex_init>
100013e2:	42b4      	cmp	r4, r6
100013e4:	d3d5      	bcc.n	10001392 <runtime_init+0x5e>
100013e6:	e7dd      	b.n	100013a4 <runtime_init+0x70>
100013e8:	4000e000 	.word	0x4000e000
100013ec:	fefbcdbf 	.word	0xfefbcdbf
100013f0:	003c7ffe 	.word	0x003c7ffe
100013f4:	4000f000 	.word	0x4000f000
100013f8:	4000c000 	.word	0x4000c000
100013fc:	20000218 	.word	0x20000218
10001400:	20000228 	.word	0x20000228
10001404:	01ffffff 	.word	0x01ffffff
10001408:	4001f000 	.word	0x4001f000
1000140c:	20000210 	.word	0x20000210
10001410:	20000218 	.word	0x20000218
10001414:	20000000 	.word	0x20000000
10001418:	e000ed00 	.word	0xe000ed00
1000141c:	20000228 	.word	0x20000228
10001420:	2000022c 	.word	0x2000022c

10001424 <exit>:
10001424:	be00      	bkpt	0x0000
10001426:	e7fd      	b.n	10001424 <exit>

10001428 <panic>:
10001428:	b40f      	push	{r0, r1, r2, r3}
1000142a:	b500      	push	{lr}
1000142c:	4808      	ldr	r0, [pc, #32]	; (10001450 <panic+0x28>)
1000142e:	b083      	sub	sp, #12
10001430:	f000 fc6a 	bl	10001d08 <__wrap_puts>
10001434:	9b04      	ldr	r3, [sp, #16]
10001436:	2b00      	cmp	r3, #0
10001438:	d007      	beq.n	1000144a <panic+0x22>
1000143a:	a905      	add	r1, sp, #20
1000143c:	0018      	movs	r0, r3
1000143e:	9101      	str	r1, [sp, #4]
10001440:	f000 f9ea 	bl	10001818 <weak_raw_vprintf>
10001444:	4803      	ldr	r0, [pc, #12]	; (10001454 <panic+0x2c>)
10001446:	f000 fc5f 	bl	10001d08 <__wrap_puts>
1000144a:	be00      	bkpt	0x0000
1000144c:	e7fd      	b.n	1000144a <panic+0x22>
1000144e:	46c0      	nop			; (mov r8, r8)
10001450:	10001e0c 	.word	0x10001e0c
10001454:	10001e1c 	.word	0x10001e1c

10001458 <hard_assertion_failure>:
10001458:	b510      	push	{r4, lr}
1000145a:	4801      	ldr	r0, [pc, #4]	; (10001460 <hard_assertion_failure+0x8>)
1000145c:	f7ff ffe4 	bl	10001428 <panic>
10001460:	10001e20 	.word	0x10001e20

10001464 <clocks_init>:
10001464:	b530      	push	{r4, r5, lr}
10001466:	200c      	movs	r0, #12
10001468:	b083      	sub	sp, #12
1000146a:	f000 f9b1 	bl	100017d0 <watchdog_start_tick>
1000146e:	f7fe ffa1 	bl	100003b4 <running_on_fpga>
10001472:	2800      	cmp	r0, #0
10001474:	d00e      	beq.n	10001494 <clocks_init+0x30>
10001476:	4b94      	ldr	r3, [pc, #592]	; (100016c8 <clocks_init+0x264>)
10001478:	4a94      	ldr	r2, [pc, #592]	; (100016cc <clocks_init+0x268>)
1000147a:	601a      	str	r2, [r3, #0]
1000147c:	605a      	str	r2, [r3, #4]
1000147e:	609a      	str	r2, [r3, #8]
10001480:	60da      	str	r2, [r3, #12]
10001482:	611a      	str	r2, [r3, #16]
10001484:	615a      	str	r2, [r3, #20]
10001486:	619a      	str	r2, [r3, #24]
10001488:	61da      	str	r2, [r3, #28]
1000148a:	621a      	str	r2, [r3, #32]
1000148c:	4a90      	ldr	r2, [pc, #576]	; (100016d0 <clocks_init+0x26c>)
1000148e:	625a      	str	r2, [r3, #36]	; 0x24
10001490:	b003      	add	sp, #12
10001492:	bd30      	pop	{r4, r5, pc}
10001494:	4c8f      	ldr	r4, [pc, #572]	; (100016d4 <clocks_init+0x270>)
10001496:	67a0      	str	r0, [r4, #120]	; 0x78
10001498:	f000 f9a2 	bl	100017e0 <xosc_init>
1000149c:	2201      	movs	r2, #1
1000149e:	4b8e      	ldr	r3, [pc, #568]	; (100016d8 <clocks_init+0x274>)
100014a0:	601a      	str	r2, [r3, #0]
100014a2:	6c63      	ldr	r3, [r4, #68]	; 0x44
100014a4:	2b01      	cmp	r3, #1
100014a6:	d1fc      	bne.n	100014a2 <clocks_init+0x3e>
100014a8:	2203      	movs	r2, #3
100014aa:	4b8c      	ldr	r3, [pc, #560]	; (100016dc <clocks_init+0x278>)
100014ac:	601a      	str	r2, [r3, #0]
100014ae:	4a89      	ldr	r2, [pc, #548]	; (100016d4 <clocks_init+0x270>)
100014b0:	6b93      	ldr	r3, [r2, #56]	; 0x38
100014b2:	2b01      	cmp	r3, #1
100014b4:	d1fc      	bne.n	100014b0 <clocks_init+0x4c>
100014b6:	3301      	adds	r3, #1
100014b8:	2101      	movs	r1, #1
100014ba:	4a89      	ldr	r2, [pc, #548]	; (100016e0 <clocks_init+0x27c>)
100014bc:	4889      	ldr	r0, [pc, #548]	; (100016e4 <clocks_init+0x280>)
100014be:	9300      	str	r3, [sp, #0]
100014c0:	3304      	adds	r3, #4
100014c2:	f000 f92d 	bl	10001720 <pll_init>
100014c6:	2305      	movs	r3, #5
100014c8:	4a87      	ldr	r2, [pc, #540]	; (100016e8 <clocks_init+0x284>)
100014ca:	9300      	str	r3, [sp, #0]
100014cc:	2101      	movs	r1, #1
100014ce:	4887      	ldr	r0, [pc, #540]	; (100016ec <clocks_init+0x288>)
100014d0:	f000 f926 	bl	10001720 <pll_init>
100014d4:	4b86      	ldr	r3, [pc, #536]	; (100016f0 <clocks_init+0x28c>)
100014d6:	685a      	ldr	r2, [r3, #4]
100014d8:	2aff      	cmp	r2, #255	; 0xff
100014da:	d802      	bhi.n	100014e2 <clocks_init+0x7e>
100014dc:	2280      	movs	r2, #128	; 0x80
100014de:	0052      	lsls	r2, r2, #1
100014e0:	605a      	str	r2, [r3, #4]
100014e2:	2280      	movs	r2, #128	; 0x80
100014e4:	4c78      	ldr	r4, [pc, #480]	; (100016c8 <clocks_init+0x264>)
100014e6:	4b7d      	ldr	r3, [pc, #500]	; (100016dc <clocks_init+0x278>)
100014e8:	6921      	ldr	r1, [r4, #16]
100014ea:	0112      	lsls	r2, r2, #4
100014ec:	4d80      	ldr	r5, [pc, #512]	; (100016f0 <clocks_init+0x28c>)
100014ee:	601a      	str	r2, [r3, #0]
100014f0:	2900      	cmp	r1, #0
100014f2:	d005      	beq.n	10001500 <clocks_init+0x9c>
100014f4:	6960      	ldr	r0, [r4, #20]
100014f6:	f000 f9e1 	bl	100018bc <__wrap___aeabi_uidiv>
100014fa:	3001      	adds	r0, #1
100014fc:	3801      	subs	r0, #1
100014fe:	d1fd      	bne.n	100014fc <clocks_init+0x98>
10001500:	21e0      	movs	r1, #224	; 0xe0
10001502:	4b7b      	ldr	r3, [pc, #492]	; (100016f0 <clocks_init+0x28c>)
10001504:	2002      	movs	r0, #2
10001506:	681a      	ldr	r2, [r3, #0]
10001508:	4011      	ands	r1, r2
1000150a:	2280      	movs	r2, #128	; 0x80
1000150c:	0152      	lsls	r2, r2, #5
1000150e:	432a      	orrs	r2, r5
10001510:	6011      	str	r1, [r2, #0]
10001512:	6819      	ldr	r1, [r3, #0]
10001514:	4048      	eors	r0, r1
10001516:	2103      	movs	r1, #3
10001518:	4001      	ands	r1, r0
1000151a:	6011      	str	r1, [r2, #0]
1000151c:	2104      	movs	r1, #4
1000151e:	689a      	ldr	r2, [r3, #8]
10001520:	4211      	tst	r1, r2
10001522:	d0fc      	beq.n	1000151e <clocks_init+0xba>
10001524:	2280      	movs	r2, #128	; 0x80
10001526:	2180      	movs	r1, #128	; 0x80
10001528:	0192      	lsls	r2, r2, #6
1000152a:	432a      	orrs	r2, r5
1000152c:	0109      	lsls	r1, r1, #4
1000152e:	6011      	str	r1, [r2, #0]
10001530:	2280      	movs	r2, #128	; 0x80
10001532:	0052      	lsls	r2, r2, #1
10001534:	605a      	str	r2, [r3, #4]
10001536:	4b6f      	ldr	r3, [pc, #444]	; (100016f4 <clocks_init+0x290>)
10001538:	6123      	str	r3, [r4, #16]
1000153a:	4b6f      	ldr	r3, [pc, #444]	; (100016f8 <clocks_init+0x294>)
1000153c:	6859      	ldr	r1, [r3, #4]
1000153e:	29ff      	cmp	r1, #255	; 0xff
10001540:	d800      	bhi.n	10001544 <clocks_init+0xe0>
10001542:	605a      	str	r2, [r3, #4]
10001544:	2103      	movs	r1, #3
10001546:	4a64      	ldr	r2, [pc, #400]	; (100016d8 <clocks_init+0x274>)
10001548:	4b6b      	ldr	r3, [pc, #428]	; (100016f8 <clocks_init+0x294>)
1000154a:	6011      	str	r1, [r2, #0]
1000154c:	3902      	subs	r1, #2
1000154e:	689a      	ldr	r2, [r3, #8]
10001550:	4211      	tst	r1, r2
10001552:	d0fc      	beq.n	1000154e <clocks_init+0xea>
10001554:	20e0      	movs	r0, #224	; 0xe0
10001556:	681a      	ldr	r2, [r3, #0]
10001558:	4010      	ands	r0, r2
1000155a:	2280      	movs	r2, #128	; 0x80
1000155c:	0152      	lsls	r2, r2, #5
1000155e:	431a      	orrs	r2, r3
10001560:	6010      	str	r0, [r2, #0]
10001562:	6818      	ldr	r0, [r3, #0]
10001564:	4048      	eors	r0, r1
10001566:	2103      	movs	r1, #3
10001568:	4001      	ands	r1, r0
1000156a:	2002      	movs	r0, #2
1000156c:	6011      	str	r1, [r2, #0]
1000156e:	4962      	ldr	r1, [pc, #392]	; (100016f8 <clocks_init+0x294>)
10001570:	688a      	ldr	r2, [r1, #8]
10001572:	4210      	tst	r0, r2
10001574:	d0fc      	beq.n	10001570 <clocks_init+0x10c>
10001576:	2280      	movs	r2, #128	; 0x80
10001578:	0192      	lsls	r2, r2, #6
1000157a:	4313      	orrs	r3, r2
1000157c:	2280      	movs	r2, #128	; 0x80
1000157e:	0112      	lsls	r2, r2, #4
10001580:	601a      	str	r2, [r3, #0]
10001582:	2280      	movs	r2, #128	; 0x80
10001584:	4b5d      	ldr	r3, [pc, #372]	; (100016fc <clocks_init+0x298>)
10001586:	0052      	lsls	r2, r2, #1
10001588:	604a      	str	r2, [r1, #4]
1000158a:	6163      	str	r3, [r4, #20]
1000158c:	4b5c      	ldr	r3, [pc, #368]	; (10001700 <clocks_init+0x29c>)
1000158e:	6859      	ldr	r1, [r3, #4]
10001590:	29ff      	cmp	r1, #255	; 0xff
10001592:	d800      	bhi.n	10001596 <clocks_init+0x132>
10001594:	605a      	str	r2, [r3, #4]
10001596:	2280      	movs	r2, #128	; 0x80
10001598:	4b5a      	ldr	r3, [pc, #360]	; (10001704 <clocks_init+0x2a0>)
1000159a:	69e1      	ldr	r1, [r4, #28]
1000159c:	0112      	lsls	r2, r2, #4
1000159e:	4d58      	ldr	r5, [pc, #352]	; (10001700 <clocks_init+0x29c>)
100015a0:	601a      	str	r2, [r3, #0]
100015a2:	2900      	cmp	r1, #0
100015a4:	d005      	beq.n	100015b2 <clocks_init+0x14e>
100015a6:	6960      	ldr	r0, [r4, #20]
100015a8:	f000 f988 	bl	100018bc <__wrap___aeabi_uidiv>
100015ac:	3001      	adds	r0, #1
100015ae:	3801      	subs	r0, #1
100015b0:	d1fd      	bne.n	100015ae <clocks_init+0x14a>
100015b2:	22e0      	movs	r2, #224	; 0xe0
100015b4:	4952      	ldr	r1, [pc, #328]	; (10001700 <clocks_init+0x29c>)
100015b6:	680b      	ldr	r3, [r1, #0]
100015b8:	401a      	ands	r2, r3
100015ba:	2380      	movs	r3, #128	; 0x80
100015bc:	015b      	lsls	r3, r3, #5
100015be:	432b      	orrs	r3, r5
100015c0:	601a      	str	r2, [r3, #0]
100015c2:	2380      	movs	r3, #128	; 0x80
100015c4:	2280      	movs	r2, #128	; 0x80
100015c6:	019b      	lsls	r3, r3, #6
100015c8:	432b      	orrs	r3, r5
100015ca:	0112      	lsls	r2, r2, #4
100015cc:	601a      	str	r2, [r3, #0]
100015ce:	2280      	movs	r2, #128	; 0x80
100015d0:	4b3e      	ldr	r3, [pc, #248]	; (100016cc <clocks_init+0x268>)
100015d2:	0052      	lsls	r2, r2, #1
100015d4:	604a      	str	r2, [r1, #4]
100015d6:	61e3      	str	r3, [r4, #28]
100015d8:	4b4b      	ldr	r3, [pc, #300]	; (10001708 <clocks_init+0x2a4>)
100015da:	6859      	ldr	r1, [r3, #4]
100015dc:	29ff      	cmp	r1, #255	; 0xff
100015de:	d800      	bhi.n	100015e2 <clocks_init+0x17e>
100015e0:	605a      	str	r2, [r3, #4]
100015e2:	2280      	movs	r2, #128	; 0x80
100015e4:	4b49      	ldr	r3, [pc, #292]	; (1000170c <clocks_init+0x2a8>)
100015e6:	6a21      	ldr	r1, [r4, #32]
100015e8:	0112      	lsls	r2, r2, #4
100015ea:	4d47      	ldr	r5, [pc, #284]	; (10001708 <clocks_init+0x2a4>)
100015ec:	601a      	str	r2, [r3, #0]
100015ee:	2900      	cmp	r1, #0
100015f0:	d005      	beq.n	100015fe <clocks_init+0x19a>
100015f2:	6960      	ldr	r0, [r4, #20]
100015f4:	f000 f962 	bl	100018bc <__wrap___aeabi_uidiv>
100015f8:	3001      	adds	r0, #1
100015fa:	3801      	subs	r0, #1
100015fc:	d1fd      	bne.n	100015fa <clocks_init+0x196>
100015fe:	22e0      	movs	r2, #224	; 0xe0
10001600:	4941      	ldr	r1, [pc, #260]	; (10001708 <clocks_init+0x2a4>)
10001602:	680b      	ldr	r3, [r1, #0]
10001604:	401a      	ands	r2, r3
10001606:	2380      	movs	r3, #128	; 0x80
10001608:	015b      	lsls	r3, r3, #5
1000160a:	432b      	orrs	r3, r5
1000160c:	601a      	str	r2, [r3, #0]
1000160e:	2380      	movs	r3, #128	; 0x80
10001610:	2280      	movs	r2, #128	; 0x80
10001612:	019b      	lsls	r3, r3, #6
10001614:	432b      	orrs	r3, r5
10001616:	0112      	lsls	r2, r2, #4
10001618:	601a      	str	r2, [r3, #0]
1000161a:	2380      	movs	r3, #128	; 0x80
1000161c:	2280      	movs	r2, #128	; 0x80
1000161e:	005b      	lsls	r3, r3, #1
10001620:	604b      	str	r3, [r1, #4]
10001622:	4b2a      	ldr	r3, [pc, #168]	; (100016cc <clocks_init+0x268>)
10001624:	02d2      	lsls	r2, r2, #11
10001626:	6223      	str	r3, [r4, #32]
10001628:	4b39      	ldr	r3, [pc, #228]	; (10001710 <clocks_init+0x2ac>)
1000162a:	6859      	ldr	r1, [r3, #4]
1000162c:	4291      	cmp	r1, r2
1000162e:	d200      	bcs.n	10001632 <clocks_init+0x1ce>
10001630:	605a      	str	r2, [r3, #4]
10001632:	2280      	movs	r2, #128	; 0x80
10001634:	4b37      	ldr	r3, [pc, #220]	; (10001714 <clocks_init+0x2b0>)
10001636:	6a61      	ldr	r1, [r4, #36]	; 0x24
10001638:	0112      	lsls	r2, r2, #4
1000163a:	4d35      	ldr	r5, [pc, #212]	; (10001710 <clocks_init+0x2ac>)
1000163c:	601a      	str	r2, [r3, #0]
1000163e:	2900      	cmp	r1, #0
10001640:	d005      	beq.n	1000164e <clocks_init+0x1ea>
10001642:	6960      	ldr	r0, [r4, #20]
10001644:	f000 f93a 	bl	100018bc <__wrap___aeabi_uidiv>
10001648:	3001      	adds	r0, #1
1000164a:	3801      	subs	r0, #1
1000164c:	d1fd      	bne.n	1000164a <clocks_init+0x1e6>
1000164e:	22e0      	movs	r2, #224	; 0xe0
10001650:	492f      	ldr	r1, [pc, #188]	; (10001710 <clocks_init+0x2ac>)
10001652:	680b      	ldr	r3, [r1, #0]
10001654:	401a      	ands	r2, r3
10001656:	2380      	movs	r3, #128	; 0x80
10001658:	015b      	lsls	r3, r3, #5
1000165a:	432b      	orrs	r3, r5
1000165c:	601a      	str	r2, [r3, #0]
1000165e:	2380      	movs	r3, #128	; 0x80
10001660:	2280      	movs	r2, #128	; 0x80
10001662:	019b      	lsls	r3, r3, #6
10001664:	432b      	orrs	r3, r5
10001666:	0112      	lsls	r2, r2, #4
10001668:	601a      	str	r2, [r3, #0]
1000166a:	2380      	movs	r3, #128	; 0x80
1000166c:	02db      	lsls	r3, r3, #11
1000166e:	604b      	str	r3, [r1, #4]
10001670:	4b17      	ldr	r3, [pc, #92]	; (100016d0 <clocks_init+0x26c>)
10001672:	6263      	str	r3, [r4, #36]	; 0x24
10001674:	4b28      	ldr	r3, [pc, #160]	; (10001718 <clocks_init+0x2b4>)
10001676:	685a      	ldr	r2, [r3, #4]
10001678:	2aff      	cmp	r2, #255	; 0xff
1000167a:	d802      	bhi.n	10001682 <clocks_init+0x21e>
1000167c:	2280      	movs	r2, #128	; 0x80
1000167e:	0052      	lsls	r2, r2, #1
10001680:	605a      	str	r2, [r3, #4]
10001682:	2280      	movs	r2, #128	; 0x80
10001684:	4b25      	ldr	r3, [pc, #148]	; (1000171c <clocks_init+0x2b8>)
10001686:	69a1      	ldr	r1, [r4, #24]
10001688:	0112      	lsls	r2, r2, #4
1000168a:	4d23      	ldr	r5, [pc, #140]	; (10001718 <clocks_init+0x2b4>)
1000168c:	601a      	str	r2, [r3, #0]
1000168e:	2900      	cmp	r1, #0
10001690:	d005      	beq.n	1000169e <clocks_init+0x23a>
10001692:	6960      	ldr	r0, [r4, #20]
10001694:	f000 f912 	bl	100018bc <__wrap___aeabi_uidiv>
10001698:	3001      	adds	r0, #1
1000169a:	3801      	subs	r0, #1
1000169c:	d1fd      	bne.n	1000169a <clocks_init+0x236>
1000169e:	22e0      	movs	r2, #224	; 0xe0
100016a0:	491d      	ldr	r1, [pc, #116]	; (10001718 <clocks_init+0x2b4>)
100016a2:	680b      	ldr	r3, [r1, #0]
100016a4:	401a      	ands	r2, r3
100016a6:	2380      	movs	r3, #128	; 0x80
100016a8:	015b      	lsls	r3, r3, #5
100016aa:	432b      	orrs	r3, r5
100016ac:	601a      	str	r2, [r3, #0]
100016ae:	2380      	movs	r3, #128	; 0x80
100016b0:	2280      	movs	r2, #128	; 0x80
100016b2:	019b      	lsls	r3, r3, #6
100016b4:	432b      	orrs	r3, r5
100016b6:	0112      	lsls	r2, r2, #4
100016b8:	601a      	str	r2, [r3, #0]
100016ba:	2380      	movs	r3, #128	; 0x80
100016bc:	005b      	lsls	r3, r3, #1
100016be:	604b      	str	r3, [r1, #4]
100016c0:	4b0e      	ldr	r3, [pc, #56]	; (100016fc <clocks_init+0x298>)
100016c2:	61a3      	str	r3, [r4, #24]
100016c4:	e6e4      	b.n	10001490 <clocks_init+0x2c>
100016c6:	46c0      	nop			; (mov r8, r8)
100016c8:	2000055c 	.word	0x2000055c
100016cc:	02dc6c00 	.word	0x02dc6c00
100016d0:	0000b71b 	.word	0x0000b71b
100016d4:	40008000 	.word	0x40008000
100016d8:	4000b03c 	.word	0x4000b03c
100016dc:	4000b030 	.word	0x4000b030
100016e0:	59682f00 	.word	0x59682f00
100016e4:	40028000 	.word	0x40028000
100016e8:	47868c00 	.word	0x47868c00
100016ec:	4002c000 	.word	0x4002c000
100016f0:	40008030 	.word	0x40008030
100016f4:	00b71b00 	.word	0x00b71b00
100016f8:	4000803c 	.word	0x4000803c
100016fc:	07735940 	.word	0x07735940
10001700:	40008054 	.word	0x40008054
10001704:	4000b054 	.word	0x4000b054
10001708:	40008060 	.word	0x40008060
1000170c:	4000b060 	.word	0x4000b060
10001710:	4000806c 	.word	0x4000806c
10001714:	4000b06c 	.word	0x4000b06c
10001718:	40008048 	.word	0x40008048
1000171c:	4000b048 	.word	0x4000b048

10001720 <pll_init>:
10001720:	b5f0      	push	{r4, r5, r6, r7, lr}
10001722:	46c6      	mov	lr, r8
10001724:	0004      	movs	r4, r0
10001726:	b500      	push	{lr}
10001728:	200c      	movs	r0, #12
1000172a:	4690      	mov	r8, r2
1000172c:	001f      	movs	r7, r3
1000172e:	000e      	movs	r6, r1
10001730:	f000 f8c4 	bl	100018bc <__wrap___aeabi_uidiv>
10001734:	0141      	lsls	r1, r0, #5
10001736:	1a09      	subs	r1, r1, r0
10001738:	018d      	lsls	r5, r1, #6
1000173a:	1a69      	subs	r1, r5, r1
1000173c:	00c9      	lsls	r1, r1, #3
1000173e:	1809      	adds	r1, r1, r0
10001740:	0189      	lsls	r1, r1, #6
10001742:	4640      	mov	r0, r8
10001744:	f000 f8ba 	bl	100018bc <__wrap___aeabi_uidiv>
10001748:	9b06      	ldr	r3, [sp, #24]
1000174a:	043f      	lsls	r7, r7, #16
1000174c:	031a      	lsls	r2, r3, #12
1000174e:	6823      	ldr	r3, [r4, #0]
10001750:	4317      	orrs	r7, r2
10001752:	2b00      	cmp	r3, #0
10001754:	db22      	blt.n	1000179c <pll_init+0x7c>
10001756:	4b1a      	ldr	r3, [pc, #104]	; (100017c0 <pll_init+0xa0>)
10001758:	4d1a      	ldr	r5, [pc, #104]	; (100017c4 <pll_init+0xa4>)
1000175a:	18e2      	adds	r2, r4, r3
1000175c:	4253      	negs	r3, r2
1000175e:	415a      	adcs	r2, r3
10001760:	2380      	movs	r3, #128	; 0x80
10001762:	015b      	lsls	r3, r3, #5
10001764:	469c      	mov	ip, r3
10001766:	0312      	lsls	r2, r2, #12
10001768:	4b17      	ldr	r3, [pc, #92]	; (100017c8 <pll_init+0xa8>)
1000176a:	4462      	add	r2, ip
1000176c:	601a      	str	r2, [r3, #0]
1000176e:	4b17      	ldr	r3, [pc, #92]	; (100017cc <pll_init+0xac>)
10001770:	601a      	str	r2, [r3, #0]
10001772:	0011      	movs	r1, r2
10001774:	68ab      	ldr	r3, [r5, #8]
10001776:	4399      	bics	r1, r3
10001778:	d1fb      	bne.n	10001772 <pll_init+0x52>
1000177a:	22c0      	movs	r2, #192	; 0xc0
1000177c:	1d23      	adds	r3, r4, #4
1000177e:	0192      	lsls	r2, r2, #6
10001780:	431a      	orrs	r2, r3
10001782:	2321      	movs	r3, #33	; 0x21
10001784:	6026      	str	r6, [r4, #0]
10001786:	60a0      	str	r0, [r4, #8]
10001788:	6013      	str	r3, [r2, #0]
1000178a:	6823      	ldr	r3, [r4, #0]
1000178c:	2b00      	cmp	r3, #0
1000178e:	dafc      	bge.n	1000178a <pll_init+0x6a>
10001790:	2308      	movs	r3, #8
10001792:	60e7      	str	r7, [r4, #12]
10001794:	6013      	str	r3, [r2, #0]
10001796:	bc80      	pop	{r7}
10001798:	46b8      	mov	r8, r7
1000179a:	bdf0      	pop	{r4, r5, r6, r7, pc}
1000179c:	233f      	movs	r3, #63	; 0x3f
1000179e:	6822      	ldr	r2, [r4, #0]
100017a0:	4013      	ands	r3, r2
100017a2:	42b3      	cmp	r3, r6
100017a4:	d1d7      	bne.n	10001756 <pll_init+0x36>
100017a6:	68a3      	ldr	r3, [r4, #8]
100017a8:	051b      	lsls	r3, r3, #20
100017aa:	0d1b      	lsrs	r3, r3, #20
100017ac:	4283      	cmp	r3, r0
100017ae:	d1d2      	bne.n	10001756 <pll_init+0x36>
100017b0:	22ee      	movs	r2, #238	; 0xee
100017b2:	68e3      	ldr	r3, [r4, #12]
100017b4:	02d2      	lsls	r2, r2, #11
100017b6:	4013      	ands	r3, r2
100017b8:	42bb      	cmp	r3, r7
100017ba:	d1cc      	bne.n	10001756 <pll_init+0x36>
100017bc:	e7eb      	b.n	10001796 <pll_init+0x76>
100017be:	46c0      	nop			; (mov r8, r8)
100017c0:	bffd4000 	.word	0xbffd4000
100017c4:	4000c000 	.word	0x4000c000
100017c8:	4000e000 	.word	0x4000e000
100017cc:	4000f000 	.word	0x4000f000

100017d0 <watchdog_start_tick>:
100017d0:	2380      	movs	r3, #128	; 0x80
100017d2:	4a02      	ldr	r2, [pc, #8]	; (100017dc <watchdog_start_tick+0xc>)
100017d4:	009b      	lsls	r3, r3, #2
100017d6:	4303      	orrs	r3, r0
100017d8:	62d3      	str	r3, [r2, #44]	; 0x2c
100017da:	4770      	bx	lr
100017dc:	40058000 	.word	0x40058000

100017e0 <xosc_init>:
100017e0:	23aa      	movs	r3, #170	; 0xaa
100017e2:	4a06      	ldr	r2, [pc, #24]	; (100017fc <xosc_init+0x1c>)
100017e4:	011b      	lsls	r3, r3, #4
100017e6:	6013      	str	r3, [r2, #0]
100017e8:	232f      	movs	r3, #47	; 0x2f
100017ea:	4905      	ldr	r1, [pc, #20]	; (10001800 <xosc_init+0x20>)
100017ec:	60d3      	str	r3, [r2, #12]
100017ee:	4b05      	ldr	r3, [pc, #20]	; (10001804 <xosc_init+0x24>)
100017f0:	6019      	str	r1, [r3, #0]
100017f2:	6853      	ldr	r3, [r2, #4]
100017f4:	2b00      	cmp	r3, #0
100017f6:	dafc      	bge.n	100017f2 <xosc_init+0x12>
100017f8:	4770      	bx	lr
100017fa:	46c0      	nop			; (mov r8, r8)
100017fc:	40024000 	.word	0x40024000
10001800:	00fab000 	.word	0x00fab000
10001804:	40026000 	.word	0x40026000

10001808 <_out_char>:
10001808:	b510      	push	{r4, lr}
1000180a:	2800      	cmp	r0, #0
1000180c:	d100      	bne.n	10001810 <_out_char+0x8>
1000180e:	bd10      	pop	{r4, pc}
10001810:	f000 fa2a 	bl	10001c68 <__wrap_putchar>
10001814:	e7fb      	b.n	1000180e <_out_char+0x6>
10001816:	46c0      	nop			; (mov r8, r8)

10001818 <weak_raw_vprintf>:
10001818:	b510      	push	{r4, lr}
1000181a:	4a09      	ldr	r2, [pc, #36]	; (10001840 <weak_raw_vprintf+0x28>)
1000181c:	0003      	movs	r3, r0
1000181e:	6814      	ldr	r4, [r2, #0]
10001820:	b084      	sub	sp, #16
10001822:	2c00      	cmp	r4, #0
10001824:	d008      	beq.n	10001838 <weak_raw_vprintf+0x20>
10001826:	2201      	movs	r2, #1
10001828:	9100      	str	r1, [sp, #0]
1000182a:	4806      	ldr	r0, [pc, #24]	; (10001844 <weak_raw_vprintf+0x2c>)
1000182c:	4252      	negs	r2, r2
1000182e:	a903      	add	r1, sp, #12
10001830:	47a0      	blx	r4
10001832:	2001      	movs	r0, #1
10001834:	b004      	add	sp, #16
10001836:	bd10      	pop	{r4, pc}
10001838:	f000 fa66 	bl	10001d08 <__wrap_puts>
1000183c:	2000      	movs	r0, #0
1000183e:	e7f9      	b.n	10001834 <weak_raw_vprintf+0x1c>
10001840:	200005cc 	.word	0x200005cc
10001844:	10001809 	.word	0x10001809

10001848 <__aeabi_bits_init>:
10001848:	4801      	ldr	r0, [pc, #4]	; (10001850 <__aeabi_bits_init+0x8>)
1000184a:	2104      	movs	r1, #4
1000184c:	4b01      	ldr	r3, [pc, #4]	; (10001854 <__aeabi_bits_init+0xc>)
1000184e:	4718      	bx	r3
10001850:	200001f0 	.word	0x200001f0
10001854:	10001879 	.word	0x10001879

10001858 <rom_func_lookup>:
10001858:	2314      	movs	r3, #20
1000185a:	b510      	push	{r4, lr}
1000185c:	0001      	movs	r1, r0
1000185e:	8818      	ldrh	r0, [r3, #0]
10001860:	3304      	adds	r3, #4
10001862:	881b      	ldrh	r3, [r3, #0]
10001864:	4798      	blx	r3
10001866:	bd10      	pop	{r4, pc}

10001868 <rom_data_lookup>:
10001868:	2316      	movs	r3, #22
1000186a:	b510      	push	{r4, lr}
1000186c:	0001      	movs	r1, r0
1000186e:	8818      	ldrh	r0, [r3, #0]
10001870:	3302      	adds	r3, #2
10001872:	881b      	ldrh	r3, [r3, #0]
10001874:	4798      	blx	r3
10001876:	bd10      	pop	{r4, pc}

10001878 <rom_funcs_lookup>:
10001878:	b5f8      	push	{r3, r4, r5, r6, r7, lr}
1000187a:	4647      	mov	r7, r8
1000187c:	46ce      	mov	lr, r9
1000187e:	b580      	push	{r7, lr}
10001880:	1e0f      	subs	r7, r1, #0
10001882:	d019      	beq.n	100018b8 <rom_funcs_lookup+0x40>
10001884:	2314      	movs	r3, #20
10001886:	4699      	mov	r9, r3
10001888:	3304      	adds	r3, #4
1000188a:	0004      	movs	r4, r0
1000188c:	2500      	movs	r5, #0
1000188e:	2601      	movs	r6, #1
10001890:	4698      	mov	r8, r3
10001892:	464b      	mov	r3, r9
10001894:	8818      	ldrh	r0, [r3, #0]
10001896:	4643      	mov	r3, r8
10001898:	6821      	ldr	r1, [r4, #0]
1000189a:	881b      	ldrh	r3, [r3, #0]
1000189c:	4798      	blx	r3
1000189e:	c401      	stmia	r4!, {r0}
100018a0:	1e43      	subs	r3, r0, #1
100018a2:	4198      	sbcs	r0, r3
100018a4:	3501      	adds	r5, #1
100018a6:	4240      	negs	r0, r0
100018a8:	4006      	ands	r6, r0
100018aa:	42af      	cmp	r7, r5
100018ac:	d1f1      	bne.n	10001892 <rom_funcs_lookup+0x1a>
100018ae:	0030      	movs	r0, r6
100018b0:	bcc0      	pop	{r6, r7}
100018b2:	46b9      	mov	r9, r7
100018b4:	46b0      	mov	r8, r6
100018b6:	bdf8      	pop	{r3, r4, r5, r6, r7, pc}
100018b8:	2601      	movs	r6, #1
100018ba:	e7f8      	b.n	100018ae <rom_funcs_lookup+0x36>

100018bc <__wrap___aeabi_uidiv>:
100018bc:	4a11      	ldr	r2, [pc, #68]	; (10001904 <divmod_u32u32_savestate+0x18>)
100018be:	6f93      	ldr	r3, [r2, #120]	; 0x78
100018c0:	089b      	lsrs	r3, r3, #2
100018c2:	d213      	bcs.n	100018ec <divmod_u32u32_savestate>

100018c4 <divmod_u32u32_unsafe>:
100018c4:	6610      	str	r0, [r2, #96]	; 0x60
100018c6:	6651      	str	r1, [r2, #100]	; 0x64
100018c8:	2900      	cmp	r1, #0
100018ca:	d005      	beq.n	100018d8 <divmod_u32u32_unsafe+0x14>
100018cc:	e7ff      	b.n	100018ce <divmod_u32u32_unsafe+0xa>
100018ce:	e7ff      	b.n	100018d0 <divmod_u32u32_unsafe+0xc>
100018d0:	e7ff      	b.n	100018d2 <divmod_u32u32_unsafe+0xe>
100018d2:	6f51      	ldr	r1, [r2, #116]	; 0x74
100018d4:	6f10      	ldr	r0, [r2, #112]	; 0x70
100018d6:	4770      	bx	lr
100018d8:	b504      	push	{r2, lr}
100018da:	2800      	cmp	r0, #0
100018dc:	d001      	beq.n	100018e2 <divmod_u32u32_unsafe+0x1e>
100018de:	2000      	movs	r0, #0
100018e0:	43c0      	mvns	r0, r0
100018e2:	f000 fa69 	bl	10001db8 <____aeabi_idiv0_veneer>
100018e6:	2100      	movs	r1, #0
100018e8:	bd04      	pop	{r2, pc}
100018ea:	46c0      	nop			; (mov r8, r8)

100018ec <divmod_u32u32_savestate>:
100018ec:	b5f0      	push	{r4, r5, r6, r7, lr}
100018ee:	6e14      	ldr	r4, [r2, #96]	; 0x60
100018f0:	6e55      	ldr	r5, [r2, #100]	; 0x64
100018f2:	6f57      	ldr	r7, [r2, #116]	; 0x74
100018f4:	6f16      	ldr	r6, [r2, #112]	; 0x70
100018f6:	f7ff ffe5 	bl	100018c4 <divmod_u32u32_unsafe>
100018fa:	6614      	str	r4, [r2, #96]	; 0x60
100018fc:	6655      	str	r5, [r2, #100]	; 0x64
100018fe:	6757      	str	r7, [r2, #116]	; 0x74
10001900:	6716      	str	r6, [r2, #112]	; 0x70
10001902:	bdf0      	pop	{r4, r5, r6, r7, pc}
10001904:	d0000000 	.word	0xd0000000

10001908 <__aeabi_double_init>:
10001908:	2313      	movs	r3, #19
1000190a:	b570      	push	{r4, r5, r6, lr}
1000190c:	781d      	ldrb	r5, [r3, #0]
1000190e:	2d01      	cmp	r5, #1
10001910:	d015      	beq.n	1000193e <__aeabi_double_init+0x36>
10001912:	dd10      	ble.n	10001936 <__aeabi_double_init+0x2e>
10001914:	481c      	ldr	r0, [pc, #112]	; (10001988 <__aeabi_double_init+0x80>)
10001916:	f7ff ffa7 	bl	10001868 <rom_data_lookup>
1000191a:	4c1c      	ldr	r4, [pc, #112]	; (1000198c <__aeabi_double_init+0x84>)
1000191c:	0001      	movs	r1, r0
1000191e:	2280      	movs	r2, #128	; 0x80
10001920:	0020      	movs	r0, r4
10001922:	f000 f8bb 	bl	10001a9c <__wrap___aeabi_memcpy>
10001926:	2d02      	cmp	r5, #2
10001928:	d006      	beq.n	10001938 <__aeabi_double_init+0x30>
1000192a:	4819      	ldr	r0, [pc, #100]	; (10001990 <__aeabi_double_init+0x88>)
1000192c:	f7ff ff94 	bl	10001858 <rom_func_lookup>
10001930:	4b18      	ldr	r3, [pc, #96]	; (10001994 <__aeabi_double_init+0x8c>)
10001932:	6018      	str	r0, [r3, #0]
10001934:	bd70      	pop	{r4, r5, r6, pc}
10001936:	4c15      	ldr	r4, [pc, #84]	; (1000198c <__aeabi_double_init+0x84>)
10001938:	4b17      	ldr	r3, [pc, #92]	; (10001998 <__aeabi_double_init+0x90>)
1000193a:	64a3      	str	r3, [r4, #72]	; 0x48
1000193c:	e7f5      	b.n	1000192a <__aeabi_double_init+0x22>
1000193e:	4b16      	ldr	r3, [pc, #88]	; (10001998 <__aeabi_double_init+0x90>)
10001940:	4c12      	ldr	r4, [pc, #72]	; (1000198c <__aeabi_double_init+0x84>)
10001942:	6023      	str	r3, [r4, #0]
10001944:	6063      	str	r3, [r4, #4]
10001946:	60a3      	str	r3, [r4, #8]
10001948:	60e3      	str	r3, [r4, #12]
1000194a:	6123      	str	r3, [r4, #16]
1000194c:	6163      	str	r3, [r4, #20]
1000194e:	61a3      	str	r3, [r4, #24]
10001950:	61e3      	str	r3, [r4, #28]
10001952:	6223      	str	r3, [r4, #32]
10001954:	6263      	str	r3, [r4, #36]	; 0x24
10001956:	62a3      	str	r3, [r4, #40]	; 0x28
10001958:	62e3      	str	r3, [r4, #44]	; 0x2c
1000195a:	6323      	str	r3, [r4, #48]	; 0x30
1000195c:	6363      	str	r3, [r4, #52]	; 0x34
1000195e:	63a3      	str	r3, [r4, #56]	; 0x38
10001960:	63e3      	str	r3, [r4, #60]	; 0x3c
10001962:	6423      	str	r3, [r4, #64]	; 0x40
10001964:	6463      	str	r3, [r4, #68]	; 0x44
10001966:	64a3      	str	r3, [r4, #72]	; 0x48
10001968:	64e3      	str	r3, [r4, #76]	; 0x4c
1000196a:	6523      	str	r3, [r4, #80]	; 0x50
1000196c:	6563      	str	r3, [r4, #84]	; 0x54
1000196e:	65a3      	str	r3, [r4, #88]	; 0x58
10001970:	65e3      	str	r3, [r4, #92]	; 0x5c
10001972:	6623      	str	r3, [r4, #96]	; 0x60
10001974:	6663      	str	r3, [r4, #100]	; 0x64
10001976:	66a3      	str	r3, [r4, #104]	; 0x68
10001978:	66e3      	str	r3, [r4, #108]	; 0x6c
1000197a:	6723      	str	r3, [r4, #112]	; 0x70
1000197c:	6763      	str	r3, [r4, #116]	; 0x74
1000197e:	67a3      	str	r3, [r4, #120]	; 0x78
10001980:	67e3      	str	r3, [r4, #124]	; 0x7c
10001982:	64a3      	str	r3, [r4, #72]	; 0x48
10001984:	e7d1      	b.n	1000192a <__aeabi_double_init+0x22>
10001986:	46c0      	nop			; (mov r8, r8)
10001988:	00004453 	.word	0x00004453
1000198c:	20000330 	.word	0x20000330
10001990:	0000334c 	.word	0x0000334c
10001994:	200005e0 	.word	0x200005e0
10001998:	1000199d 	.word	0x1000199d

1000199c <double_table_shim_on_use_helper>:
1000199c:	b507      	push	{r0, r1, r2, lr}
1000199e:	4660      	mov	r0, ip
100019a0:	8801      	ldrh	r1, [r0, #0]
100019a2:	0a0a      	lsrs	r2, r1, #8
100019a4:	3002      	adds	r0, #2
100019a6:	2adf      	cmp	r2, #223	; 0xdf
100019a8:	d1fa      	bne.n	100019a0 <double_table_shim_on_use_helper+0x4>
100019aa:	b2c9      	uxtb	r1, r1
100019ac:	0882      	lsrs	r2, r0, #2
100019ae:	d304      	bcc.n	100019ba <double_table_shim_on_use_helper+0x1e>
100019b0:	8802      	ldrh	r2, [r0, #0]
100019b2:	8840      	ldrh	r0, [r0, #2]
100019b4:	0400      	lsls	r0, r0, #16
100019b6:	4310      	orrs	r0, r2
100019b8:	e000      	b.n	100019bc <double_table_shim_on_use_helper+0x20>
100019ba:	6800      	ldr	r0, [r0, #0]
100019bc:	4a01      	ldr	r2, [pc, #4]	; (100019c4 <double_table_shim_on_use_helper+0x28>)
100019be:	5050      	str	r0, [r2, r1]
100019c0:	9003      	str	r0, [sp, #12]
100019c2:	bd07      	pop	{r0, r1, r2, pc}
100019c4:	20000330 	.word	0x20000330

100019c8 <__wrap___aeabi_lmul>:
100019c8:	4351      	muls	r1, r2
100019ca:	4343      	muls	r3, r0
100019cc:	18c9      	adds	r1, r1, r3
100019ce:	468c      	mov	ip, r1
100019d0:	0c11      	lsrs	r1, r2, #16
100019d2:	b283      	uxth	r3, r0
100019d4:	434b      	muls	r3, r1
100019d6:	b410      	push	{r4}
100019d8:	0c04      	lsrs	r4, r0, #16
100019da:	4361      	muls	r1, r4
100019dc:	b292      	uxth	r2, r2
100019de:	b280      	uxth	r0, r0
100019e0:	4350      	muls	r0, r2
100019e2:	4362      	muls	r2, r4
100019e4:	041c      	lsls	r4, r3, #16
100019e6:	0c1b      	lsrs	r3, r3, #16
100019e8:	1900      	adds	r0, r0, r4
100019ea:	bc10      	pop	{r4}
100019ec:	4159      	adcs	r1, r3
100019ee:	0413      	lsls	r3, r2, #16
100019f0:	0c12      	lsrs	r2, r2, #16
100019f2:	18c0      	adds	r0, r0, r3
100019f4:	4151      	adcs	r1, r2
100019f6:	4461      	add	r1, ip
100019f8:	4770      	bx	lr
	...

100019fc <__aeabi_float_init>:
100019fc:	2313      	movs	r3, #19
100019fe:	b510      	push	{r4, lr}
10001a00:	4812      	ldr	r0, [pc, #72]	; (10001a4c <__aeabi_float_init+0x50>)
10001a02:	781c      	ldrb	r4, [r3, #0]
10001a04:	f7ff ff30 	bl	10001868 <rom_data_lookup>
10001a08:	0001      	movs	r1, r0
10001a0a:	2c01      	cmp	r4, #1
10001a0c:	d00a      	beq.n	10001a24 <__aeabi_float_init+0x28>
10001a0e:	dd03      	ble.n	10001a18 <__aeabi_float_init+0x1c>
10001a10:	2280      	movs	r2, #128	; 0x80
10001a12:	480f      	ldr	r0, [pc, #60]	; (10001a50 <__aeabi_float_init+0x54>)
10001a14:	f000 f842 	bl	10001a9c <__wrap___aeabi_memcpy>
10001a18:	480e      	ldr	r0, [pc, #56]	; (10001a54 <__aeabi_float_init+0x58>)
10001a1a:	f7ff ff1d 	bl	10001858 <rom_func_lookup>
10001a1e:	4b0e      	ldr	r3, [pc, #56]	; (10001a58 <__aeabi_float_init+0x5c>)
10001a20:	6018      	str	r0, [r3, #0]
10001a22:	bd10      	pop	{r4, pc}
10001a24:	4c0a      	ldr	r4, [pc, #40]	; (10001a50 <__aeabi_float_init+0x54>)
10001a26:	2254      	movs	r2, #84	; 0x54
10001a28:	0020      	movs	r0, r4
10001a2a:	f000 f837 	bl	10001a9c <__wrap___aeabi_memcpy>
10001a2e:	4b0b      	ldr	r3, [pc, #44]	; (10001a5c <__aeabi_float_init+0x60>)
10001a30:	6563      	str	r3, [r4, #84]	; 0x54
10001a32:	65a3      	str	r3, [r4, #88]	; 0x58
10001a34:	65e3      	str	r3, [r4, #92]	; 0x5c
10001a36:	6623      	str	r3, [r4, #96]	; 0x60
10001a38:	6663      	str	r3, [r4, #100]	; 0x64
10001a3a:	66a3      	str	r3, [r4, #104]	; 0x68
10001a3c:	66e3      	str	r3, [r4, #108]	; 0x6c
10001a3e:	6723      	str	r3, [r4, #112]	; 0x70
10001a40:	6763      	str	r3, [r4, #116]	; 0x74
10001a42:	67a3      	str	r3, [r4, #120]	; 0x78
10001a44:	67e3      	str	r3, [r4, #124]	; 0x7c
10001a46:	6223      	str	r3, [r4, #32]
10001a48:	61e3      	str	r3, [r4, #28]
10001a4a:	e7e5      	b.n	10001a18 <__aeabi_float_init+0x1c>
10001a4c:	00004653 	.word	0x00004653
10001a50:	20000430 	.word	0x20000430
10001a54:	0000334c 	.word	0x0000334c
10001a58:	200005e0 	.word	0x200005e0
10001a5c:	10001a61 	.word	0x10001a61

10001a60 <float_table_shim_on_use_helper>:
10001a60:	b507      	push	{r0, r1, r2, lr}
10001a62:	4660      	mov	r0, ip
10001a64:	8801      	ldrh	r1, [r0, #0]
10001a66:	0a0a      	lsrs	r2, r1, #8
10001a68:	3002      	adds	r0, #2
10001a6a:	2adf      	cmp	r2, #223	; 0xdf
10001a6c:	d1fa      	bne.n	10001a64 <float_table_shim_on_use_helper+0x4>
10001a6e:	b2c9      	uxtb	r1, r1
10001a70:	0882      	lsrs	r2, r0, #2
10001a72:	d304      	bcc.n	10001a7e <float_table_shim_on_use_helper+0x1e>
10001a74:	8802      	ldrh	r2, [r0, #0]
10001a76:	8840      	ldrh	r0, [r0, #2]
10001a78:	0400      	lsls	r0, r0, #16
10001a7a:	4310      	orrs	r0, r2
10001a7c:	e000      	b.n	10001a80 <float_table_shim_on_use_helper+0x20>
10001a7e:	6800      	ldr	r0, [r0, #0]
10001a80:	4a01      	ldr	r2, [pc, #4]	; (10001a88 <float_table_shim_on_use_helper+0x28>)
10001a82:	5050      	str	r0, [r2, r1]
10001a84:	9003      	str	r0, [sp, #12]
10001a86:	bd07      	pop	{r0, r1, r2, pc}
10001a88:	20000430 	.word	0x20000430

10001a8c <__aeabi_mem_init>:
10001a8c:	4801      	ldr	r0, [pc, #4]	; (10001a94 <__aeabi_mem_init+0x8>)
10001a8e:	2104      	movs	r1, #4
10001a90:	4b01      	ldr	r3, [pc, #4]	; (10001a98 <__aeabi_mem_init+0xc>)
10001a92:	4718      	bx	r3
10001a94:	20000200 	.word	0x20000200
10001a98:	10001879 	.word	0x10001879

10001a9c <__wrap___aeabi_memcpy>:
10001a9c:	4b01      	ldr	r3, [pc, #4]	; (10001aa4 <__wrap___aeabi_memcpy+0x8>)
10001a9e:	685b      	ldr	r3, [r3, #4]
10001aa0:	4718      	bx	r3
10001aa2:	0000      	.short	0x0000
10001aa4:	20000200 	.word	0x20000200

10001aa8 <stdio_out_chars_no_crlf>:
10001aa8:	0003      	movs	r3, r0
10001aaa:	b510      	push	{r4, lr}
10001aac:	0008      	movs	r0, r1
10001aae:	0011      	movs	r1, r2
10001ab0:	681b      	ldr	r3, [r3, #0]
10001ab2:	4798      	blx	r3
10001ab4:	bd10      	pop	{r4, pc}
10001ab6:	46c0      	nop			; (mov r8, r8)

10001ab8 <stdio_out_chars_crlf>:
10001ab8:	b5f0      	push	{r4, r5, r6, r7, lr}
10001aba:	4646      	mov	r6, r8
10001abc:	464f      	mov	r7, r9
10001abe:	46d6      	mov	lr, sl
10001ac0:	b5c0      	push	{r6, r7, lr}
10001ac2:	7c43      	ldrb	r3, [r0, #17]
10001ac4:	4680      	mov	r8, r0
10001ac6:	000e      	movs	r6, r1
10001ac8:	0017      	movs	r7, r2
10001aca:	2b00      	cmp	r3, #0
10001acc:	d046      	beq.n	10001b5c <stdio_out_chars_crlf+0xa4>
10001ace:	2a00      	cmp	r2, #0
10001ad0:	dd3f      	ble.n	10001b52 <stdio_out_chars_crlf+0x9a>
10001ad2:	1e4b      	subs	r3, r1, #1
10001ad4:	4699      	mov	r9, r3
10001ad6:	4b24      	ldr	r3, [pc, #144]	; (10001b68 <stdio_out_chars_crlf+0xb0>)
10001ad8:	2501      	movs	r5, #1
10001ada:	2400      	movs	r4, #0
10001adc:	2000      	movs	r0, #0
10001ade:	469a      	mov	sl, r3
10001ae0:	e00d      	b.n	10001afe <stdio_out_chars_crlf+0x46>
10001ae2:	464b      	mov	r3, r9
10001ae4:	5d1b      	ldrb	r3, [r3, r4]
10001ae6:	3b0d      	subs	r3, #13
10001ae8:	425a      	negs	r2, r3
10001aea:	4153      	adcs	r3, r2
10001aec:	5d32      	ldrb	r2, [r6, r4]
10001aee:	b2db      	uxtb	r3, r3
10001af0:	2a0a      	cmp	r2, #10
10001af2:	d00b      	beq.n	10001b0c <stdio_out_chars_crlf+0x54>
10001af4:	002b      	movs	r3, r5
10001af6:	3401      	adds	r4, #1
10001af8:	3501      	adds	r5, #1
10001afa:	429f      	cmp	r7, r3
10001afc:	dd1a      	ble.n	10001b34 <stdio_out_chars_crlf+0x7c>
10001afe:	2c00      	cmp	r4, #0
10001b00:	d1ef      	bne.n	10001ae2 <stdio_out_chars_crlf+0x2a>
10001b02:	4643      	mov	r3, r8
10001b04:	5d32      	ldrb	r2, [r6, r4]
10001b06:	7c1b      	ldrb	r3, [r3, #16]
10001b08:	2a0a      	cmp	r2, #10
10001b0a:	d1f3      	bne.n	10001af4 <stdio_out_chars_crlf+0x3c>
10001b0c:	2b00      	cmp	r3, #0
10001b0e:	d1f1      	bne.n	10001af4 <stdio_out_chars_crlf+0x3c>
10001b10:	42a0      	cmp	r0, r4
10001b12:	da04      	bge.n	10001b1e <stdio_out_chars_crlf+0x66>
10001b14:	4643      	mov	r3, r8
10001b16:	1a21      	subs	r1, r4, r0
10001b18:	681b      	ldr	r3, [r3, #0]
10001b1a:	1830      	adds	r0, r6, r0
10001b1c:	4798      	blx	r3
10001b1e:	4643      	mov	r3, r8
10001b20:	4650      	mov	r0, sl
10001b22:	681b      	ldr	r3, [r3, #0]
10001b24:	2102      	movs	r1, #2
10001b26:	4798      	blx	r3
10001b28:	3401      	adds	r4, #1
10001b2a:	0028      	movs	r0, r5
10001b2c:	002b      	movs	r3, r5
10001b2e:	3501      	adds	r5, #1
10001b30:	429f      	cmp	r7, r3
10001b32:	dce4      	bgt.n	10001afe <stdio_out_chars_crlf+0x46>
10001b34:	4287      	cmp	r7, r0
10001b36:	dd04      	ble.n	10001b42 <stdio_out_chars_crlf+0x8a>
10001b38:	4643      	mov	r3, r8
10001b3a:	1a39      	subs	r1, r7, r0
10001b3c:	681b      	ldr	r3, [r3, #0]
10001b3e:	1830      	adds	r0, r6, r0
10001b40:	4798      	blx	r3
10001b42:	19f6      	adds	r6, r6, r7
10001b44:	3e01      	subs	r6, #1
10001b46:	7833      	ldrb	r3, [r6, #0]
10001b48:	3b0d      	subs	r3, #13
10001b4a:	425a      	negs	r2, r3
10001b4c:	4153      	adcs	r3, r2
10001b4e:	4642      	mov	r2, r8
10001b50:	7413      	strb	r3, [r2, #16]
10001b52:	bce0      	pop	{r5, r6, r7}
10001b54:	46ba      	mov	sl, r7
10001b56:	46b1      	mov	r9, r6
10001b58:	46a8      	mov	r8, r5
10001b5a:	bdf0      	pop	{r4, r5, r6, r7, pc}
10001b5c:	6803      	ldr	r3, [r0, #0]
10001b5e:	0011      	movs	r1, r2
10001b60:	0030      	movs	r0, r6
10001b62:	4798      	blx	r3
10001b64:	e7f5      	b.n	10001b52 <stdio_out_chars_crlf+0x9a>
10001b66:	46c0      	nop			; (mov r8, r8)
10001b68:	10001ed4 	.word	0x10001ed4

10001b6c <stdio_put_string.isra.0>:
10001b6c:	b5f0      	push	{r4, r5, r6, r7, lr}
10001b6e:	4657      	mov	r7, sl
10001b70:	464e      	mov	r6, r9
10001b72:	4645      	mov	r5, r8
10001b74:	46de      	mov	lr, fp
10001b76:	001c      	movs	r4, r3
10001b78:	23d0      	movs	r3, #208	; 0xd0
10001b7a:	b5e0      	push	{r5, r6, r7, lr}
10001b7c:	061b      	lsls	r3, r3, #24
10001b7e:	681f      	ldr	r7, [r3, #0]
10001b80:	4b34      	ldr	r3, [pc, #208]	; (10001c54 <stdio_put_string.isra.0+0xe8>)
10001b82:	b083      	sub	sp, #12
10001b84:	0006      	movs	r6, r0
10001b86:	000d      	movs	r5, r1
10001b88:	0018      	movs	r0, r3
10001b8a:	a901      	add	r1, sp, #4
10001b8c:	4691      	mov	r9, r2
10001b8e:	469a      	mov	sl, r3
10001b90:	f000 f91a 	bl	10001dc8 <__mutex_try_enter_veneer>
10001b94:	4680      	mov	r8, r0
10001b96:	2800      	cmp	r0, #0
10001b98:	d108      	bne.n	10001bac <stdio_put_string.isra.0+0x40>
10001b9a:	9b01      	ldr	r3, [sp, #4]
10001b9c:	b27f      	sxtb	r7, r7
10001b9e:	429f      	cmp	r7, r3
10001ba0:	d004      	beq.n	10001bac <stdio_put_string.isra.0+0x40>
10001ba2:	4650      	mov	r0, sl
10001ba4:	f000 f918 	bl	10001dd8 <__mutex_enter_blocking_veneer>
10001ba8:	2301      	movs	r3, #1
10001baa:	4698      	mov	r8, r3
10001bac:	1c6b      	adds	r3, r5, #1
10001bae:	d103      	bne.n	10001bb8 <stdio_put_string.isra.0+0x4c>
10001bb0:	0030      	movs	r0, r6
10001bb2:	f000 f8c7 	bl	10001d44 <strlen>
10001bb6:	0005      	movs	r5, r0
10001bb8:	2c00      	cmp	r4, #0
10001bba:	d127      	bne.n	10001c0c <stdio_put_string.isra.0+0xa0>
10001bbc:	4f26      	ldr	r7, [pc, #152]	; (10001c58 <stdio_put_string.isra.0+0xec>)
10001bbe:	4b27      	ldr	r3, [pc, #156]	; (10001c5c <stdio_put_string.isra.0+0xf0>)
10001bc0:	681c      	ldr	r4, [r3, #0]
10001bc2:	2c00      	cmp	r4, #0
10001bc4:	d018      	beq.n	10001bf8 <stdio_put_string.isra.0+0x8c>
10001bc6:	464b      	mov	r3, r9
10001bc8:	2b00      	cmp	r3, #0
10001bca:	d121      	bne.n	10001c10 <stdio_put_string.isra.0+0xa4>
10001bcc:	4b24      	ldr	r3, [pc, #144]	; (10001c60 <stdio_put_string.isra.0+0xf4>)
10001bce:	4699      	mov	r9, r3
10001bd0:	e002      	b.n	10001bd8 <stdio_put_string.isra.0+0x6c>
10001bd2:	68e4      	ldr	r4, [r4, #12]
10001bd4:	2c00      	cmp	r4, #0
10001bd6:	d00f      	beq.n	10001bf8 <stdio_put_string.isra.0+0x8c>
10001bd8:	6823      	ldr	r3, [r4, #0]
10001bda:	2b00      	cmp	r3, #0
10001bdc:	d0f9      	beq.n	10001bd2 <stdio_put_string.isra.0+0x66>
10001bde:	464b      	mov	r3, r9
10001be0:	681b      	ldr	r3, [r3, #0]
10001be2:	2b00      	cmp	r3, #0
10001be4:	d001      	beq.n	10001bea <stdio_put_string.isra.0+0x7e>
10001be6:	42a3      	cmp	r3, r4
10001be8:	d1f3      	bne.n	10001bd2 <stdio_put_string.isra.0+0x66>
10001bea:	0020      	movs	r0, r4
10001bec:	002a      	movs	r2, r5
10001bee:	0031      	movs	r1, r6
10001bf0:	47b8      	blx	r7
10001bf2:	68e4      	ldr	r4, [r4, #12]
10001bf4:	2c00      	cmp	r4, #0
10001bf6:	d1ef      	bne.n	10001bd8 <stdio_put_string.isra.0+0x6c>
10001bf8:	4643      	mov	r3, r8
10001bfa:	2b00      	cmp	r3, #0
10001bfc:	d125      	bne.n	10001c4a <stdio_put_string.isra.0+0xde>
10001bfe:	b003      	add	sp, #12
10001c00:	bcf0      	pop	{r4, r5, r6, r7}
10001c02:	46bb      	mov	fp, r7
10001c04:	46b2      	mov	sl, r6
10001c06:	46a9      	mov	r9, r5
10001c08:	46a0      	mov	r8, r4
10001c0a:	bdf0      	pop	{r4, r5, r6, r7, pc}
10001c0c:	4f15      	ldr	r7, [pc, #84]	; (10001c64 <stdio_put_string.isra.0+0xf8>)
10001c0e:	e7d6      	b.n	10001bbe <stdio_put_string.isra.0+0x52>
10001c10:	4b13      	ldr	r3, [pc, #76]	; (10001c60 <stdio_put_string.isra.0+0xf4>)
10001c12:	4699      	mov	r9, r3
10001c14:	230a      	movs	r3, #10
10001c16:	469b      	mov	fp, r3
10001c18:	e002      	b.n	10001c20 <stdio_put_string.isra.0+0xb4>
10001c1a:	68e4      	ldr	r4, [r4, #12]
10001c1c:	2c00      	cmp	r4, #0
10001c1e:	d0eb      	beq.n	10001bf8 <stdio_put_string.isra.0+0x8c>
10001c20:	6823      	ldr	r3, [r4, #0]
10001c22:	2b00      	cmp	r3, #0
10001c24:	d0f9      	beq.n	10001c1a <stdio_put_string.isra.0+0xae>
10001c26:	464b      	mov	r3, r9
10001c28:	681b      	ldr	r3, [r3, #0]
10001c2a:	2b00      	cmp	r3, #0
10001c2c:	d001      	beq.n	10001c32 <stdio_put_string.isra.0+0xc6>
10001c2e:	42a3      	cmp	r3, r4
10001c30:	d1f3      	bne.n	10001c1a <stdio_put_string.isra.0+0xae>
10001c32:	002a      	movs	r2, r5
10001c34:	0031      	movs	r1, r6
10001c36:	0020      	movs	r0, r4
10001c38:	47b8      	blx	r7
10001c3a:	465a      	mov	r2, fp
10001c3c:	466b      	mov	r3, sp
10001c3e:	0020      	movs	r0, r4
10001c40:	711a      	strb	r2, [r3, #4]
10001c42:	a901      	add	r1, sp, #4
10001c44:	2201      	movs	r2, #1
10001c46:	47b8      	blx	r7
10001c48:	e7e7      	b.n	10001c1a <stdio_put_string.isra.0+0xae>
10001c4a:	4650      	mov	r0, sl
10001c4c:	f000 f8ac 	bl	10001da8 <__mutex_exit_veneer>
10001c50:	e7d5      	b.n	10001bfe <stdio_put_string.isra.0+0x92>
10001c52:	46c0      	nop			; (mov r8, r8)
10001c54:	20000210 	.word	0x20000210
10001c58:	10001ab9 	.word	0x10001ab9
10001c5c:	200005c4 	.word	0x200005c4
10001c60:	200005c8 	.word	0x200005c8
10001c64:	10001aa9 	.word	0x10001aa9

10001c68 <__wrap_putchar>:
10001c68:	b5f0      	push	{r4, r5, r6, r7, lr}
10001c6a:	46ce      	mov	lr, r9
10001c6c:	4647      	mov	r7, r8
10001c6e:	b580      	push	{r7, lr}
10001c70:	b083      	sub	sp, #12
10001c72:	466b      	mov	r3, sp
10001c74:	1cde      	adds	r6, r3, #3
10001c76:	23d0      	movs	r3, #208	; 0xd0
10001c78:	7030      	strb	r0, [r6, #0]
10001c7a:	061b      	lsls	r3, r3, #24
10001c7c:	681c      	ldr	r4, [r3, #0]
10001c7e:	4b1f      	ldr	r3, [pc, #124]	; (10001cfc <__wrap_putchar+0x94>)
10001c80:	4680      	mov	r8, r0
10001c82:	a901      	add	r1, sp, #4
10001c84:	0018      	movs	r0, r3
10001c86:	4699      	mov	r9, r3
10001c88:	f000 f89e 	bl	10001dc8 <__mutex_try_enter_veneer>
10001c8c:	1e07      	subs	r7, r0, #0
10001c8e:	d020      	beq.n	10001cd2 <__wrap_putchar+0x6a>
10001c90:	4b1b      	ldr	r3, [pc, #108]	; (10001d00 <__wrap_putchar+0x98>)
10001c92:	681c      	ldr	r4, [r3, #0]
10001c94:	2c00      	cmp	r4, #0
10001c96:	d028      	beq.n	10001cea <__wrap_putchar+0x82>
10001c98:	4d1a      	ldr	r5, [pc, #104]	; (10001d04 <__wrap_putchar+0x9c>)
10001c9a:	e002      	b.n	10001ca2 <__wrap_putchar+0x3a>
10001c9c:	68e4      	ldr	r4, [r4, #12]
10001c9e:	2c00      	cmp	r4, #0
10001ca0:	d00f      	beq.n	10001cc2 <__wrap_putchar+0x5a>
10001ca2:	6823      	ldr	r3, [r4, #0]
10001ca4:	2b00      	cmp	r3, #0
10001ca6:	d0f9      	beq.n	10001c9c <__wrap_putchar+0x34>
10001ca8:	682b      	ldr	r3, [r5, #0]
10001caa:	2b00      	cmp	r3, #0
10001cac:	d001      	beq.n	10001cb2 <__wrap_putchar+0x4a>
10001cae:	42a3      	cmp	r3, r4
10001cb0:	d1f4      	bne.n	10001c9c <__wrap_putchar+0x34>
10001cb2:	0020      	movs	r0, r4
10001cb4:	2201      	movs	r2, #1
10001cb6:	0031      	movs	r1, r6
10001cb8:	f7ff fefe 	bl	10001ab8 <stdio_out_chars_crlf>
10001cbc:	68e4      	ldr	r4, [r4, #12]
10001cbe:	2c00      	cmp	r4, #0
10001cc0:	d1ef      	bne.n	10001ca2 <__wrap_putchar+0x3a>
10001cc2:	2f00      	cmp	r7, #0
10001cc4:	d111      	bne.n	10001cea <__wrap_putchar+0x82>
10001cc6:	4640      	mov	r0, r8
10001cc8:	b003      	add	sp, #12
10001cca:	bcc0      	pop	{r6, r7}
10001ccc:	46b9      	mov	r9, r7
10001cce:	46b0      	mov	r8, r6
10001cd0:	bdf0      	pop	{r4, r5, r6, r7, pc}
10001cd2:	9b01      	ldr	r3, [sp, #4]
10001cd4:	b264      	sxtb	r4, r4
10001cd6:	429c      	cmp	r4, r3
10001cd8:	d00b      	beq.n	10001cf2 <__wrap_putchar+0x8a>
10001cda:	4648      	mov	r0, r9
10001cdc:	f000 f87c 	bl	10001dd8 <__mutex_enter_blocking_veneer>
10001ce0:	4b07      	ldr	r3, [pc, #28]	; (10001d00 <__wrap_putchar+0x98>)
10001ce2:	2701      	movs	r7, #1
10001ce4:	681c      	ldr	r4, [r3, #0]
10001ce6:	2c00      	cmp	r4, #0
10001ce8:	d1d6      	bne.n	10001c98 <__wrap_putchar+0x30>
10001cea:	4648      	mov	r0, r9
10001cec:	f000 f85c 	bl	10001da8 <__mutex_exit_veneer>
10001cf0:	e7e9      	b.n	10001cc6 <__wrap_putchar+0x5e>
10001cf2:	4b03      	ldr	r3, [pc, #12]	; (10001d00 <__wrap_putchar+0x98>)
10001cf4:	681c      	ldr	r4, [r3, #0]
10001cf6:	2c00      	cmp	r4, #0
10001cf8:	d1ce      	bne.n	10001c98 <__wrap_putchar+0x30>
10001cfa:	e7e4      	b.n	10001cc6 <__wrap_putchar+0x5e>
10001cfc:	20000210 	.word	0x20000210
10001d00:	200005c4 	.word	0x200005c4
10001d04:	200005c8 	.word	0x200005c8

10001d08 <__wrap_puts>:
10001d08:	b570      	push	{r4, r5, r6, lr}
10001d0a:	0004      	movs	r4, r0
10001d0c:	f000 f81a 	bl	10001d44 <strlen>
10001d10:	2300      	movs	r3, #0
10001d12:	0001      	movs	r1, r0
10001d14:	0005      	movs	r5, r0
10001d16:	2201      	movs	r2, #1
10001d18:	0020      	movs	r0, r4
10001d1a:	f7ff ff27 	bl	10001b6c <stdio_put_string.isra.0>
10001d1e:	4b08      	ldr	r3, [pc, #32]	; (10001d40 <__wrap_puts+0x38>)
10001d20:	681c      	ldr	r4, [r3, #0]
10001d22:	2c00      	cmp	r4, #0
10001d24:	d006      	beq.n	10001d34 <__wrap_puts+0x2c>
10001d26:	6863      	ldr	r3, [r4, #4]
10001d28:	2b00      	cmp	r3, #0
10001d2a:	d005      	beq.n	10001d38 <__wrap_puts+0x30>
10001d2c:	4798      	blx	r3
10001d2e:	68e4      	ldr	r4, [r4, #12]
10001d30:	2c00      	cmp	r4, #0
10001d32:	d1f8      	bne.n	10001d26 <__wrap_puts+0x1e>
10001d34:	0028      	movs	r0, r5
10001d36:	bd70      	pop	{r4, r5, r6, pc}
10001d38:	68e4      	ldr	r4, [r4, #12]
10001d3a:	2c00      	cmp	r4, #0
10001d3c:	d1f3      	bne.n	10001d26 <__wrap_puts+0x1e>
10001d3e:	e7f9      	b.n	10001d34 <__wrap_puts+0x2c>
10001d40:	200005c4 	.word	0x200005c4

10001d44 <strlen>:
10001d44:	b510      	push	{r4, lr}
10001d46:	0783      	lsls	r3, r0, #30
10001d48:	d00a      	beq.n	10001d60 <strlen+0x1c>
10001d4a:	0003      	movs	r3, r0
10001d4c:	2103      	movs	r1, #3
10001d4e:	e002      	b.n	10001d56 <strlen+0x12>
10001d50:	3301      	adds	r3, #1
10001d52:	420b      	tst	r3, r1
10001d54:	d005      	beq.n	10001d62 <strlen+0x1e>
10001d56:	781a      	ldrb	r2, [r3, #0]
10001d58:	2a00      	cmp	r2, #0
10001d5a:	d1f9      	bne.n	10001d50 <strlen+0xc>
10001d5c:	1a18      	subs	r0, r3, r0
10001d5e:	bd10      	pop	{r4, pc}
10001d60:	0003      	movs	r3, r0
10001d62:	6819      	ldr	r1, [r3, #0]
10001d64:	4a0c      	ldr	r2, [pc, #48]	; (10001d98 <strlen+0x54>)
10001d66:	4c0d      	ldr	r4, [pc, #52]	; (10001d9c <strlen+0x58>)
10001d68:	188a      	adds	r2, r1, r2
10001d6a:	438a      	bics	r2, r1
10001d6c:	4222      	tst	r2, r4
10001d6e:	d10f      	bne.n	10001d90 <strlen+0x4c>
10001d70:	6859      	ldr	r1, [r3, #4]
10001d72:	4a09      	ldr	r2, [pc, #36]	; (10001d98 <strlen+0x54>)
10001d74:	3304      	adds	r3, #4
10001d76:	188a      	adds	r2, r1, r2
10001d78:	438a      	bics	r2, r1
10001d7a:	4222      	tst	r2, r4
10001d7c:	d108      	bne.n	10001d90 <strlen+0x4c>
10001d7e:	6859      	ldr	r1, [r3, #4]
10001d80:	4a05      	ldr	r2, [pc, #20]	; (10001d98 <strlen+0x54>)
10001d82:	3304      	adds	r3, #4
10001d84:	188a      	adds	r2, r1, r2
10001d86:	438a      	bics	r2, r1
10001d88:	4222      	tst	r2, r4
10001d8a:	d0f1      	beq.n	10001d70 <strlen+0x2c>
10001d8c:	e000      	b.n	10001d90 <strlen+0x4c>
10001d8e:	3301      	adds	r3, #1
10001d90:	781a      	ldrb	r2, [r3, #0]
10001d92:	2a00      	cmp	r2, #0
10001d94:	d1fb      	bne.n	10001d8e <strlen+0x4a>
10001d96:	e7e1      	b.n	10001d5c <strlen+0x18>
10001d98:	fefefeff 	.word	0xfefefeff
10001d9c:	80808080 	.word	0x80808080

10001da0 <_fini>:
10001da0:	b5f8      	push	{r3, r4, r5, r6, r7, lr}
10001da2:	46c0      	nop			; (mov r8, r8)
10001da4:	0000      	movs	r0, r0
	...

10001da8 <__mutex_exit_veneer>:
10001da8:	b401      	push	{r0}
10001daa:	4802      	ldr	r0, [pc, #8]	; (10001db4 <__mutex_exit_veneer+0xc>)
10001dac:	4684      	mov	ip, r0
10001dae:	bc01      	pop	{r0}
10001db0:	4760      	bx	ip
10001db2:	bf00      	nop
10001db4:	2000014d 	.word	0x2000014d

10001db8 <____aeabi_idiv0_veneer>:
10001db8:	b401      	push	{r0}
10001dba:	4802      	ldr	r0, [pc, #8]	; (10001dc4 <____aeabi_idiv0_veneer+0xc>)
10001dbc:	4684      	mov	ip, r0
10001dbe:	bc01      	pop	{r0}
10001dc0:	4760      	bx	ip
10001dc2:	bf00      	nop
10001dc4:	20000175 	.word	0x20000175

10001dc8 <__mutex_try_enter_veneer>:
10001dc8:	b401      	push	{r0}
10001dca:	4802      	ldr	r0, [pc, #8]	; (10001dd4 <__mutex_try_enter_veneer+0xc>)
10001dcc:	4684      	mov	ip, r0
10001dce:	bc01      	pop	{r0}
10001dd0:	4760      	bx	ip
10001dd2:	bf00      	nop
10001dd4:	20000109 	.word	0x20000109

10001dd8 <__mutex_enter_blocking_veneer>:
10001dd8:	b401      	push	{r0}
10001dda:	4802      	ldr	r0, [pc, #8]	; (10001de4 <__mutex_enter_blocking_veneer+0xc>)
10001ddc:	4684      	mov	ip, r0
10001dde:	bc01      	pop	{r0}
10001de0:	4760      	bx	ip
10001de2:	bf00      	nop
10001de4:	200000c1 	.word	0x200000c1

Disassembly of section .data:

200000c0 <mutex_enter_blocking>:
200000c0:	23d0      	movs	r3, #208	; 0xd0
200000c2:	b530      	push	{r4, r5, lr}
200000c4:	2500      	movs	r5, #0
200000c6:	061b      	lsls	r3, r3, #24
200000c8:	2400      	movs	r4, #0
200000ca:	575d      	ldrsb	r5, [r3, r5]
200000cc:	e006      	b.n	200000dc <mutex_enter_blocking+0x1c>
200000ce:	6803      	ldr	r3, [r0, #0]
200000d0:	f3bf 8f5f 	dmb	sy
200000d4:	601c      	str	r4, [r3, #0]
200000d6:	f381 8810 	msr	PRIMASK, r1
200000da:	bf20      	wfe
200000dc:	6802      	ldr	r2, [r0, #0]
200000de:	f3ef 8110 	mrs	r1, PRIMASK
200000e2:	b672      	cpsid	i
200000e4:	6813      	ldr	r3, [r2, #0]
200000e6:	2b00      	cmp	r3, #0
200000e8:	d0fc      	beq.n	200000e4 <mutex_enter_blocking+0x24>
200000ea:	f3bf 8f5f 	dmb	sy
200000ee:	7903      	ldrb	r3, [r0, #4]
200000f0:	2b7f      	cmp	r3, #127	; 0x7f
200000f2:	d9ec      	bls.n	200000ce <mutex_enter_blocking+0xe>
200000f4:	7105      	strb	r5, [r0, #4]
200000f6:	6803      	ldr	r3, [r0, #0]
200000f8:	f3bf 8f5f 	dmb	sy
200000fc:	2200      	movs	r2, #0
200000fe:	601a      	str	r2, [r3, #0]
20000100:	f381 8810 	msr	PRIMASK, r1
20000104:	bd30      	pop	{r4, r5, pc}
20000106:	46c0      	nop			; (mov r8, r8)

20000108 <mutex_try_enter>:
20000108:	0003      	movs	r3, r0
2000010a:	6800      	ldr	r0, [r0, #0]
2000010c:	f3ef 8c10 	mrs	ip, PRIMASK
20000110:	b672      	cpsid	i
20000112:	6802      	ldr	r2, [r0, #0]
20000114:	2a00      	cmp	r2, #0
20000116:	d0fc      	beq.n	20000112 <mutex_try_enter+0xa>
20000118:	f3bf 8f5f 	dmb	sy
2000011c:	2204      	movs	r2, #4
2000011e:	569a      	ldrsb	r2, [r3, r2]
20000120:	2a00      	cmp	r2, #0
20000122:	db0b      	blt.n	2000013c <mutex_try_enter+0x34>
20000124:	2900      	cmp	r1, #0
20000126:	d00f      	beq.n	20000148 <mutex_try_enter+0x40>
20000128:	2000      	movs	r0, #0
2000012a:	600a      	str	r2, [r1, #0]
2000012c:	681b      	ldr	r3, [r3, #0]
2000012e:	f3bf 8f5f 	dmb	sy
20000132:	2200      	movs	r2, #0
20000134:	601a      	str	r2, [r3, #0]
20000136:	f38c 8810 	msr	PRIMASK, ip
2000013a:	4770      	bx	lr
2000013c:	22d0      	movs	r2, #208	; 0xd0
2000013e:	0612      	lsls	r2, r2, #24
20000140:	6812      	ldr	r2, [r2, #0]
20000142:	2001      	movs	r0, #1
20000144:	711a      	strb	r2, [r3, #4]
20000146:	e7f1      	b.n	2000012c <mutex_try_enter+0x24>
20000148:	2000      	movs	r0, #0
2000014a:	e7ef      	b.n	2000012c <mutex_try_enter+0x24>

2000014c <mutex_exit>:
2000014c:	6802      	ldr	r2, [r0, #0]
2000014e:	f3ef 8110 	mrs	r1, PRIMASK
20000152:	b672      	cpsid	i
20000154:	6813      	ldr	r3, [r2, #0]
20000156:	2b00      	cmp	r3, #0
20000158:	d0fc      	beq.n	20000154 <mutex_exit+0x8>
2000015a:	f3bf 8f5f 	dmb	sy
2000015e:	23ff      	movs	r3, #255	; 0xff
20000160:	7103      	strb	r3, [r0, #4]
20000162:	6803      	ldr	r3, [r0, #0]
20000164:	f3bf 8f5f 	dmb	sy
20000168:	2200      	movs	r2, #0
2000016a:	601a      	str	r2, [r3, #0]
2000016c:	f381 8810 	msr	PRIMASK, r1
20000170:	bf40      	sev
20000172:	4770      	bx	lr

20000174 <__aeabi_idiv0>:
20000174:	4770      	bx	lr
20000176:	46c0      	nop			; (mov r8, r8)

20000178 <striped_spin_lock_num>:
20000178:	0010 0000                                   ....

2000017c <irq_handler_chain_slots>:
2000017c:	00000000 	.word	0x00000000
20000180:	00010000 	.word	0x00010000
	...
2000018c:	00020000 	.word	0x00020000
	...
20000198:	00030000 	.word	0x00030000
	...
200001a4:	00ff0000 	.word	0x00ff0000
200001a8:	00000000 	.word	0x00000000

200001ac <irq_handler_chain_first_slot>:
200001ac:	b500      	push	{lr}
200001ae:	6848      	ldr	r0, [r1, #4]
200001b0:	3101      	adds	r1, #1
200001b2:	468e      	mov	lr, r1
200001b4:	4700      	bx	r0

200001b6 <irq_handler_chain_remove_tail>:
200001b6:	4670      	mov	r0, lr
200001b8:	3809      	subs	r0, #9
200001ba:	4901      	ldr	r1, [pc, #4]	; (200001c0 <irq_handler_chain_remove_tail+0xa>)
200001bc:	4788      	blx	r1
200001be:	bd00      	pop	{pc}
200001c0:	10000635 	.word	0x10000635

200001c4 <default_alarm_pool>:
200001c4:	200001dc 00000000 20000230 20000584     ... ....0.. ... 
	...

200001dc <default_alarm_pool_heap>:
200001dc:	20000594 00000000 00000000 00000010     ... ............
200001ec:	00000000                                ....

200001f0 <aeabi_bits_funcs>:
200001f0:	00003350 	.word	0x00003350
200001f4:	0000334c 	.word	0x0000334c
200001f8:	00003354 	.word	0x00003354
200001fc:	00003352 	.word	0x00003352

20000200 <aeabi_bits_funcs_end>:
20000200:	0000534d 	.word	0x0000534d
20000204:	0000434d 	.word	0x0000434d
20000208:	00003453 	.word	0x00003453
2000020c:	00003443 	.word	0x00003443

20000210 <print_mutex>:
	...

20000218 <__mutex_array_end>:
20000218:	10001a8d 	.word	0x10001a8d
2000021c:	10001849 	.word	0x10001849
20000220:	10001909 	.word	0x10001909
20000224:	100019fd 	.word	0x100019fd

20000228 <__frame_dummy_init_array_entry>:
20000228:	100002ed                                ....
